{"abi":[{"type":"constructor","inputs":[],"stateMutability":"nonpayable"},{"type":"function","name":"action_bug_same_vm_reentry","inputs":[{"name":"amountSeed","type":"uint96","internalType":"uint96"}],"outputs":[],"stateMutability":"nonpayable"},{"type":"function","name":"action_guard_same_vm_reentry","inputs":[{"name":"amountSeed","type":"uint96","internalType":"uint96"}],"outputs":[],"stateMutability":"nonpayable"},{"type":"function","name":"bugDoubleRedeemObserved","inputs":[],"outputs":[{"name":"","type":"bool","internalType":"bool"}],"stateMutability":"view"},{"type":"function","name":"bugModel","inputs":[],"outputs":[{"name":"","type":"address","internalType":"contract BridgeReplayBugModel"}],"stateMutability":"view"},{"type":"function","name":"bugToken","inputs":[],"outputs":[{"name":"","type":"address","internalType":"contract MockReentrantToken"}],"stateMutability":"view"},{"type":"function","name":"echidna_guard_model_same_vm_reentry_should_not_double_redeem","inputs":[],"outputs":[{"name":"","type":"bool","internalType":"bool"}],"stateMutability":"view"},{"type":"function","name":"guardDoubleRedeemObserved","inputs":[],"outputs":[{"name":"","type":"bool","internalType":"bool"}],"stateMutability":"view"},{"type":"function","name":"guardModel","inputs":[],"outputs":[{"name":"","type":"address","internalType":"contract BridgeReplayGuardModel"}],"stateMutability":"view"},{"type":"function","name":"guardToken","inputs":[],"outputs":[{"name":"","type":"address","internalType":"contract MockReentrantToken"}],"stateMutability":"view"},{"type":"function","name":"property_bug_model_same_vm_reentry_should_not_double_redeem","inputs":[],"outputs":[{"name":"","type":"bool","internalType":"bool"}],"stateMutability":"view"},{"type":"function","name":"property_guard_model_same_vm_reentry_should_not_double_redeem","inputs":[],"outputs":[{"name":"","type":"bool","internalType":"bool"}],"stateMutability":"view"},{"type":"function","name":"vmNonce","inputs":[],"outputs":[{"name":"","type":"uint256","internalType":"uint256"}],"stateMutability":"view"}],"bytecode":{"object":"0x608060405234801562000010575f80fd5b506040516200001f9062000502565b604051809103905ff08015801562000039573d5f803e3d5ffd5b505f806101000a81548173ffffffffffffffffffffffffffffffffffffffff021916908373ffffffffffffffffffffffffffffffffffffffff160217905550604051620000869062000510565b604051809103905ff080158015620000a0573d5f803e3d5ffd5b5060015f6101000a81548173ffffffffffffffffffffffffffffffffffffffff021916908373ffffffffffffffffffffffffffffffffffffffff1602179055505f8054906101000a900473ffffffffffffffffffffffffffffffffffffffff166040516200010e906200051e565b6200011a91906200056f565b604051809103905ff08015801562000134573d5f803e3d5ffd5b5060025f6101000a81548173ffffffffffffffffffffffffffffffffffffffff021916908373ffffffffffffffffffffffffffffffffffffffff16021790555060015f9054906101000a900473ffffffffffffffffffffffffffffffffffffffff16604051620001a4906200051e565b620001b091906200056f565b604051809103905ff080158015620001ca573d5f803e3d5ffd5b5060035f6101000a81548173ffffffffffffffffffffffffffffffffffffffff021916908373ffffffffffffffffffffffffffffffffffffffff16021790555060025f9054906101000a900473ffffffffffffffffffffffffffffffffffffffff1673ffffffffffffffffffffffffffffffffffffffff166340c10f193069d3c21bcecceda10000006040518363ffffffff1660e01b815260040162000272929190620005a4565b5f604051808303815f87803b1580156200028a575f80fd5b505af11580156200029d573d5f803e3d5ffd5b5050505060035f9054906101000a900473ffffffffffffffffffffffffffffffffffffffff1673ffffffffffffffffffffffffffffffffffffffff166340c10f193069d3c21bcecceda10000006040518363ffffffff1660e01b815260040162000309929190620005a4565b5f604051808303815f87803b15801562000321575f80fd5b505af115801562000334573d5f803e3d5ffd5b5050505060025f9054906101000a900473ffffffffffffffffffffffffffffffffffffffff1673ffffffffffffffffffffffffffffffffffffffff1663095ea7b35f8054906101000a900473ffffffffffffffffffffffffffffffffffffffff167fffffffffffffffffffffffffffffffffffffffffffffffffffffffffffffffff6040518363ffffffff1660e01b8152600401620003d5929190620005a4565b6020604051808303815f875af1158015620003f2573d5f803e3d5ffd5b505050506040513d601f19601f820116820180604052508101906200041891906200060d565b5060035f9054906101000a900473ffffffffffffffffffffffffffffffffffffffff1673ffffffffffffffffffffffffffffffffffffffff1663095ea7b360015f9054906101000a900473ffffffffffffffffffffffffffffffffffffffff167fffffffffffffffffffffffffffffffffffffffffffffffffffffffffffffffff6040518363ffffffff1660e01b8152600401620004b8929190620005a4565b6020604051808303815f875af1158015620004d5573d5f803e3d5ffd5b505050506040513d601f19601f82011682018060405250810190620004fb91906200060d565b506200063d565b610df6806200162883390190565b610df6806200241e83390190565b61100c806200321483390190565b5f73ffffffffffffffffffffffffffffffffffffffff82169050919050565b5f62000557826200052c565b9050919050565b62000569816200054b565b82525050565b5f602082019050620005845f8301846200055e565b92915050565b5f819050919050565b6200059e816200058a565b82525050565b5f604082019050620005b95f8301856200055e565b620005c8602083018462000593565b9392505050565b5f80fd5b5f8115159050919050565b620005e981620005d3565b8114620005f4575f80fd5b50565b5f815190506200060781620005de565b92915050565b5f60208284031215620006255762000624620005cf565b5b5f6200063484828501620005f7565b91505092915050565b610fdd806200064b5f395ff3fe608060405234801561000f575f80fd5b50600436106100b2575f3560e01c8063a9a120541161006f578063a9a1205414610168578063b133e38b14610186578063cfc4e76b146101a4578063d2a4a538146101c2578063dcc04fb3146101e0578063e56588ef146101fc576100b2565b8063020bb4f0146100b6578063059f1a0d146100d4578063294eb1c3146100f257806338b8a1cb146101105780637e5049a01461012c578063a2c9db0b1461014a575b5f80fd5b6100be61021a565b6040516100cb9190610ae1565b60405180910390f35b6100dc61022c565b6040516100e99190610ae1565b60405180910390f35b6100fa61023f565b6040516101079190610b12565b60405180910390f35b61012a60048036038101906101259190610b70565b610245565b005b6101346105db565b6040516101419190610c15565b60405180910390f35b6101526105fe565b60405161015f9190610ae1565b60405180910390f35b610170610614565b60405161017d9190610c4e565b60405180910390f35b61018e610639565b60405161019b9190610c87565b60405180910390f35b6101ac61065e565b6040516101b99190610ae1565b60405180910390f35b6101ca610675565b6040516101d79190610ae1565b60405180910390f35b6101fa60048036038101906101f59190610b70565b61068c565b005b610204610a2a565b6040516102119190610c87565b60405180910390f35b60055f9054906101000a900460ff1681565b600560019054906101000a900460ff1681565b60045481565b5f61025d826bffffffffffffffffffffffff16610a4f565b90505f8054906101000a900473ffffffffffffffffffffffffffffffffffffffff1673ffffffffffffffffffffffffffffffffffffffff16638ca5744160025f9054906101000a900473ffffffffffffffffffffffffffffffffffffffff16306002856102ca9190610ccd565b6040518463ffffffff1660e01b81526004016102e893929190610d2e565b5f604051808303815f87803b1580156102ff575f80fd5b505af1158015610311573d5f803e3d5ffd5b505050505f6103636040518060400160405280600381526020017f6275670000000000000000000000000000000000000000000000000000000000815250846bffffffffffffffffffffffff16610a78565b90505f8054906101000a900473ffffffffffffffffffffffffffffffffffffffff1673ffffffffffffffffffffffffffffffffffffffff1663d9c7428a8260025f9054906101000a900473ffffffffffffffffffffffffffffffffffffffff1630866040518563ffffffff1660e01b81526004016103e49493929190610d7b565b5f604051808303815f87803b1580156103fb575f80fd5b505af115801561040d573d5f803e3d5ffd5b5050505060025f9054906101000a900473ffffffffffffffffffffffffffffffffffffffff1673ffffffffffffffffffffffffffffffffffffffff1663b4e0b4e98260016040518363ffffffff1660e01b815260040161046e929190610dbe565b5f604051808303815f87803b158015610485575f80fd5b505af1158015610497573d5f803e3d5ffd5b505050505f8054906101000a900473ffffffffffffffffffffffffffffffffffffffff1673ffffffffffffffffffffffffffffffffffffffff1663a1febf81826040518263ffffffff1660e01b81526004016104f39190610de5565b5f604051808303815f87803b15801561050a575f80fd5b505af192505050801561051b575060015b5060015f8054906101000a900473ffffffffffffffffffffffffffffffffffffffff1673ffffffffffffffffffffffffffffffffffffffff1663605dde30836040518263ffffffff1660e01b81526004016105769190610de5565b602060405180830381865afa158015610591573d5f803e3d5ffd5b505050506040513d601f19601f820116820180604052508101906105b59190610e28565b11156105d657600160055f6101000a81548160ff0219169083151502179055505b505050565b5f8054906101000a900473ffffffffffffffffffffffffffffffffffffffff1681565b5f60055f9054906101000a900460ff1615905090565b60015f9054906101000a900473ffffffffffffffffffffffffffffffffffffffff1681565b60025f9054906101000a900473ffffffffffffffffffffffffffffffffffffffff1681565b5f600560019054906101000a900460ff1615905090565b5f600560019054906101000a900460ff1615905090565b5f6106a4826bffffffffffffffffffffffff16610a4f565b905060015f9054906101000a900473ffffffffffffffffffffffffffffffffffffffff1673ffffffffffffffffffffffffffffffffffffffff16638ca5744160035f9054906101000a900473ffffffffffffffffffffffffffffffffffffffff16306002856107139190610ccd565b6040518463ffffffff1660e01b815260040161073193929190610d2e565b5f604051808303815f87803b158015610748575f80fd5b505af115801561075a573d5f803e3d5ffd5b505050505f6107ac6040518060400160405280600581526020017f6775617264000000000000000000000000000000000000000000000000000000815250846bffffffffffffffffffffffff16610a78565b905060015f9054906101000a900473ffffffffffffffffffffffffffffffffffffffff1673ffffffffffffffffffffffffffffffffffffffff1663d9c7428a8260035f9054906101000a900473ffffffffffffffffffffffffffffffffffffffff1630866040518563ffffffff1660e01b815260040161082f9493929190610d7b565b5f604051808303815f87803b158015610846575f80fd5b505af1158015610858573d5f803e3d5ffd5b5050505060035f9054906101000a900473ffffffffffffffffffffffffffffffffffffffff1673ffffffffffffffffffffffffffffffffffffffff1663b4e0b4e98260016040518363ffffffff1660e01b81526004016108b9929190610dbe565b5f604051808303815f87803b1580156108d0575f80fd5b505af11580156108e2573d5f803e3d5ffd5b5050505060015f9054906101000a900473ffffffffffffffffffffffffffffffffffffffff1673ffffffffffffffffffffffffffffffffffffffff1663a1febf81826040518263ffffffff1660e01b81526004016109409190610de5565b5f604051808303815f87803b158015610957575f80fd5b505af1925050508015610968575060015b506001805f9054906101000a900473ffffffffffffffffffffffffffffffffffffffff1673ffffffffffffffffffffffffffffffffffffffff1663605dde30836040518263ffffffff1660e01b81526004016109c49190610de5565b602060405180830381865afa1580156109df573d5f803e3d5ffd5b505050506040513d601f19601f82011682018060405250810190610a039190610e28565b1115610a25576001600560016101000a81548160ff0219169083151502179055505b505050565b60035f9054906101000a900473ffffffffffffffffffffffffffffffffffffffff1681565b5f6001683635c9adc5dea0000083610a679190610e80565b610a719190610eb0565b9050919050565b5f600160045f828254610a8b9190610eb0565b925050819055508282600454604051602001610aa993929190610f6f565b60405160208183030381529060405280519060200120905092915050565b5f8115159050919050565b610adb81610ac7565b82525050565b5f602082019050610af45f830184610ad2565b92915050565b5f819050919050565b610b0c81610afa565b82525050565b5f602082019050610b255f830184610b03565b92915050565b5f80fd5b5f6bffffffffffffffffffffffff82169050919050565b610b4f81610b2f565b8114610b59575f80fd5b50565b5f81359050610b6a81610b46565b92915050565b5f60208284031215610b8557610b84610b2b565b5b5f610b9284828501610b5c565b91505092915050565b5f73ffffffffffffffffffffffffffffffffffffffff82169050919050565b5f819050919050565b5f610bdd610bd8610bd384610b9b565b610bba565b610b9b565b9050919050565b5f610bee82610bc3565b9050919050565b5f610bff82610be4565b9050919050565b610c0f81610bf5565b82525050565b5f602082019050610c285f830184610c06565b92915050565b5f610c3882610be4565b9050919050565b610c4881610c2e565b82525050565b5f602082019050610c615f830184610c3f565b92915050565b5f610c7182610be4565b9050919050565b610c8181610c67565b82525050565b5f602082019050610c9a5f830184610c78565b92915050565b7f4e487b71000000000000000000000000000000000000000000000000000000005f52601160045260245ffd5b5f610cd782610afa565b9150610ce283610afa565b9250828202610cf081610afa565b91508282048414831517610d0757610d06610ca0565b5b5092915050565b5f610d1882610b9b565b9050919050565b610d2881610d0e565b82525050565b5f606082019050610d415f830186610d1f565b610d4e6020830185610d1f565b610d5b6040830184610b03565b949350505050565b5f819050919050565b610d7581610d63565b82525050565b5f608082019050610d8e5f830187610d6c565b610d9b6020830186610d1f565b610da86040830185610d1f565b610db56060830184610b03565b95945050505050565b5f604082019050610dd15f830185610d6c565b610dde6020830184610ad2565b9392505050565b5f602082019050610df85f830184610d6c565b92915050565b610e0781610afa565b8114610e11575f80fd5b50565b5f81519050610e2281610dfe565b92915050565b5f60208284031215610e3d57610e3c610b2b565b5b5f610e4a84828501610e14565b91505092915050565b7f4e487b71000000000000000000000000000000000000000000000000000000005f52601260045260245ffd5b5f610e8a82610afa565b9150610e9583610afa565b925082610ea557610ea4610e53565b5b828206905092915050565b5f610eba82610afa565b9150610ec583610afa565b9250828201905080821115610edd57610edc610ca0565b5b92915050565b5f81519050919050565b5f81905092915050565b5f5b83811015610f14578082015181840152602081019050610ef9565b5f8484015250505050565b5f610f2982610ee3565b610f338185610eed565b9350610f43818560208601610ef7565b80840191505092915050565b5f819050919050565b610f69610f6482610afa565b610f4f565b82525050565b5f610f7a8286610f1f565b9150610f868285610f58565b602082019150610f968284610f58565b60208201915081905094935050505056fea2646970667358221220051d7e24ae525be80ad9f3892cb602773be4639867bb3da7c5c8b57a2eafcb2c64736f6c63430008180033608060405234801561000f575f80fd5b50610dd98061001d5f395ff3fe608060405234801561000f575f80fd5b506004361061007b575f3560e01c8063a1febf8111610059578063a1febf81146100fe578063d9c7428a1461011a578063de58bafa14610136578063f6419d96146101665761007b565b80633c64f04b1461007f578063605dde30146100b25780638ca57441146100e2575b5f80fd5b61009960048036038101906100949190610836565b610196565b6040516100a994939291906108d2565b60405180910390f35b6100cc60048036038101906100c79190610836565b61020c565b6040516100d99190610915565b60405180910390f35b6100fc60048036038101906100f79190610982565b610221565b005b61011860048036038101906101139190610836565b610334565b005b610134600480360381019061012f91906109d2565b6106b1565b005b610150600480360381019061014b9190610a36565b6107ce565b60405161015d9190610915565b60405180910390f35b610180600480360381019061017b9190610836565b6107e2565b60405161018d9190610a61565b60405180910390f35b6003602052805f5260405f205f91509050805f015f9054906101000a900473ffffffffffffffffffffffffffffffffffffffff1690806001015f9054906101000a900473ffffffffffffffffffffffffffffffffffffffff1690806002015490806003015f9054906101000a900460ff16905084565b6002602052805f5260405f205f915090505481565b8273ffffffffffffffffffffffffffffffffffffffff166323b872dd8330846040518463ffffffff1660e01b815260040161025e93929190610a7a565b6020604051808303815f875af115801561027a573d5f803e3d5ffd5b505050506040513d601f19601f8201168201806040525081019061029e9190610ad9565b6102dd576040517f08c379a00000000000000000000000000000000000000000000000000000000081526004016102d490610b5e565b60405180910390fd5b805f808573ffffffffffffffffffffffffffffffffffffffff1673ffffffffffffffffffffffffffffffffffffffff1681526020019081526020015f205f8282546103289190610ba9565b92505081905550505050565b5f60035f8381526020019081526020015f206040518060800160405290815f82015f9054906101000a900473ffffffffffffffffffffffffffffffffffffffff1673ffffffffffffffffffffffffffffffffffffffff1673ffffffffffffffffffffffffffffffffffffffff168152602001600182015f9054906101000a900473ffffffffffffffffffffffffffffffffffffffff1673ffffffffffffffffffffffffffffffffffffffff1673ffffffffffffffffffffffffffffffffffffffff16815260200160028201548152602001600382015f9054906101000a900460ff16151515158152505090508060600151610464576040517f08c379a000000000000000000000000000000000000000000000000000000000815260040161045b90610c26565b60405180910390fd5b60015f8381526020019081526020015f205f9054906101000a900460ff16156104c2576040517f08c379a00000000000000000000000000000000000000000000000000000000081526004016104b990610c8e565b60405180910390fd5b80604001515f80835f015173ffffffffffffffffffffffffffffffffffffffff1673ffffffffffffffffffffffffffffffffffffffff1681526020019081526020015f20541015610548576040517f08c379a000000000000000000000000000000000000000000000000000000000815260040161053f90610cf6565b60405180910390fd5b805f015173ffffffffffffffffffffffffffffffffffffffff1663a9059cbb826020015183604001516040518363ffffffff1660e01b815260040161058e929190610d14565b6020604051808303815f875af11580156105aa573d5f803e3d5ffd5b505050506040513d601f19601f820116820180604052508101906105ce9190610ad9565b61060d576040517f08c379a000000000000000000000000000000000000000000000000000000000815260040161060490610d85565b60405180910390fd5b6001805f8481526020019081526020015f205f6101000a81548160ff02191690831515021790555080604001515f80835f015173ffffffffffffffffffffffffffffffffffffffff1673ffffffffffffffffffffffffffffffffffffffff1681526020019081526020015f205f8282540392505081905550600160025f8481526020019081526020015f205f8282546106a69190610ba9565b925050819055505050565b60405180608001604052808473ffffffffffffffffffffffffffffffffffffffff1681526020018373ffffffffffffffffffffffffffffffffffffffff1681526020018281526020016001151581525060035f8681526020019081526020015f205f820151815f015f6101000a81548173ffffffffffffffffffffffffffffffffffffffff021916908373ffffffffffffffffffffffffffffffffffffffff1602179055506020820151816001015f6101000a81548173ffffffffffffffffffffffffffffffffffffffff021916908373ffffffffffffffffffffffffffffffffffffffff160217905550604082015181600201556060820151816003015f6101000a81548160ff02191690831515021790555090505050505050565b5f602052805f5260405f205f915090505481565b6001602052805f5260405f205f915054906101000a900460ff1681565b5f80fd5b5f819050919050565b61081581610803565b811461081f575f80fd5b50565b5f813590506108308161080c565b92915050565b5f6020828403121561084b5761084a6107ff565b5b5f61085884828501610822565b91505092915050565b5f73ffffffffffffffffffffffffffffffffffffffff82169050919050565b5f61088a82610861565b9050919050565b61089a81610880565b82525050565b5f819050919050565b6108b2816108a0565b82525050565b5f8115159050919050565b6108cc816108b8565b82525050565b5f6080820190506108e55f830187610891565b6108f26020830186610891565b6108ff60408301856108a9565b61090c60608301846108c3565b95945050505050565b5f6020820190506109285f8301846108a9565b92915050565b61093781610880565b8114610941575f80fd5b50565b5f813590506109528161092e565b92915050565b610961816108a0565b811461096b575f80fd5b50565b5f8135905061097c81610958565b92915050565b5f805f60608486031215610999576109986107ff565b5b5f6109a686828701610944565b93505060206109b786828701610944565b92505060406109c88682870161096e565b9150509250925092565b5f805f80608085870312156109ea576109e96107ff565b5b5f6109f787828801610822565b9450506020610a0887828801610944565b9350506040610a1987828801610944565b9250506060610a2a8782880161096e565b91505092959194509250565b5f60208284031215610a4b57610a4a6107ff565b5b5f610a5884828501610944565b91505092915050565b5f602082019050610a745f8301846108c3565b92915050565b5f606082019050610a8d5f830186610891565b610a9a6020830185610891565b610aa760408301846108a9565b949350505050565b610ab8816108b8565b8114610ac2575f80fd5b50565b5f81519050610ad381610aaf565b92915050565b5f60208284031215610aee57610aed6107ff565b5b5f610afb84828501610ac5565b91505092915050565b5f82825260208201905092915050565b7f73656564207472616e7366657246726f6d206661696c656400000000000000005f82015250565b5f610b48601883610b04565b9150610b5382610b14565b602082019050919050565b5f6020820190508181035f830152610b7581610b3c565b9050919050565b7f4e487b71000000000000000000000000000000000000000000000000000000005f52601160045260245ffd5b5f610bb3826108a0565b9150610bbe836108a0565b9250828201905080821115610bd657610bd5610b7c565b5b92915050565b7f696e76616c696420766d000000000000000000000000000000000000000000005f82015250565b5f610c10600a83610b04565b9150610c1b82610bdc565b602082019050919050565b5f6020820190508181035f830152610c3d81610c04565b9050919050565b7f7472616e7366657220616c726561647920636f6d706c657465640000000000005f82015250565b5f610c78601a83610b04565b9150610c8382610c44565b602082019050919050565b5f6020820190508181035f830152610ca581610c6c565b9050919050565b7f696e73756666696369656e74206f75747374616e64696e6700000000000000005f82015250565b5f610ce0601883610b04565b9150610ceb82610cac565b602082019050919050565b5f6020820190508181035f830152610d0d81610cd4565b9050919050565b5f604082019050610d275f830185610891565b610d3460208301846108a9565b9392505050565b7f7472616e73666572206661696c656400000000000000000000000000000000005f82015250565b5f610d6f600f83610b04565b9150610d7a82610d3b565b602082019050919050565b5f6020820190508181035f830152610d9c81610d63565b905091905056fea264697066735822122014c25e43e3dbc091ca9ce6e62e4ee623b85273c3a501bc5e032ceaff0721d34c64736f6c63430008180033608060405234801561000f575f80fd5b50610dd98061001d5f395ff3fe608060405234801561000f575f80fd5b506004361061007b575f3560e01c8063a1febf8111610059578063a1febf81146100fe578063d9c7428a1461011a578063de58bafa14610136578063f6419d96146101665761007b565b80633c64f04b1461007f578063605dde30146100b25780638ca57441146100e2575b5f80fd5b61009960048036038101906100949190610836565b610196565b6040516100a994939291906108d2565b60405180910390f35b6100cc60048036038101906100c79190610836565b61020c565b6040516100d99190610915565b60405180910390f35b6100fc60048036038101906100f79190610982565b610221565b005b61011860048036038101906101139190610836565b610334565b005b610134600480360381019061012f91906109d2565b6106b1565b005b610150600480360381019061014b9190610a36565b6107ce565b60405161015d9190610915565b60405180910390f35b610180600480360381019061017b9190610836565b6107e2565b60405161018d9190610a61565b60405180910390f35b6003602052805f5260405f205f91509050805f015f9054906101000a900473ffffffffffffffffffffffffffffffffffffffff1690806001015f9054906101000a900473ffffffffffffffffffffffffffffffffffffffff1690806002015490806003015f9054906101000a900460ff16905084565b6002602052805f5260405f205f915090505481565b8273ffffffffffffffffffffffffffffffffffffffff166323b872dd8330846040518463ffffffff1660e01b815260040161025e93929190610a7a565b6020604051808303815f875af115801561027a573d5f803e3d5ffd5b505050506040513d601f19601f8201168201806040525081019061029e9190610ad9565b6102dd576040517f08c379a00000000000000000000000000000000000000000000000000000000081526004016102d490610b5e565b60405180910390fd5b805f808573ffffffffffffffffffffffffffffffffffffffff1673ffffffffffffffffffffffffffffffffffffffff1681526020019081526020015f205f8282546103289190610ba9565b92505081905550505050565b5f60035f8381526020019081526020015f206040518060800160405290815f82015f9054906101000a900473ffffffffffffffffffffffffffffffffffffffff1673ffffffffffffffffffffffffffffffffffffffff1673ffffffffffffffffffffffffffffffffffffffff168152602001600182015f9054906101000a900473ffffffffffffffffffffffffffffffffffffffff1673ffffffffffffffffffffffffffffffffffffffff1673ffffffffffffffffffffffffffffffffffffffff16815260200160028201548152602001600382015f9054906101000a900460ff16151515158152505090508060600151610464576040517f08c379a000000000000000000000000000000000000000000000000000000000815260040161045b90610c26565b60405180910390fd5b60015f8381526020019081526020015f205f9054906101000a900460ff16156104c2576040517f08c379a00000000000000000000000000000000000000000000000000000000081526004016104b990610c8e565b60405180910390fd5b6001805f8481526020019081526020015f205f6101000a81548160ff02191690831515021790555080604001515f80835f015173ffffffffffffffffffffffffffffffffffffffff1673ffffffffffffffffffffffffffffffffffffffff1681526020019081526020015f20541015610570576040517f08c379a000000000000000000000000000000000000000000000000000000000815260040161056790610cf6565b60405180910390fd5b80604001515f80835f015173ffffffffffffffffffffffffffffffffffffffff1673ffffffffffffffffffffffffffffffffffffffff1681526020019081526020015f205f8282540392505081905550805f015173ffffffffffffffffffffffffffffffffffffffff1663a9059cbb826020015183604001516040518363ffffffff1660e01b8152600401610606929190610d14565b6020604051808303815f875af1158015610622573d5f803e3d5ffd5b505050506040513d601f19601f820116820180604052508101906106469190610ad9565b610685576040517f08c379a000000000000000000000000000000000000000000000000000000000815260040161067c90610d85565b60405180910390fd5b600160025f8481526020019081526020015f205f8282546106a69190610ba9565b925050819055505050565b60405180608001604052808473ffffffffffffffffffffffffffffffffffffffff1681526020018373ffffffffffffffffffffffffffffffffffffffff1681526020018281526020016001151581525060035f8681526020019081526020015f205f820151815f015f6101000a81548173ffffffffffffffffffffffffffffffffffffffff021916908373ffffffffffffffffffffffffffffffffffffffff1602179055506020820151816001015f6101000a81548173ffffffffffffffffffffffffffffffffffffffff021916908373ffffffffffffffffffffffffffffffffffffffff160217905550604082015181600201556060820151816003015f6101000a81548160ff02191690831515021790555090505050505050565b5f602052805f5260405f205f915090505481565b6001602052805f5260405f205f915054906101000a900460ff1681565b5f80fd5b5f819050919050565b61081581610803565b811461081f575f80fd5b50565b5f813590506108308161080c565b92915050565b5f6020828403121561084b5761084a6107ff565b5b5f61085884828501610822565b91505092915050565b5f73ffffffffffffffffffffffffffffffffffffffff82169050919050565b5f61088a82610861565b9050919050565b61089a81610880565b82525050565b5f819050919050565b6108b2816108a0565b82525050565b5f8115159050919050565b6108cc816108b8565b82525050565b5f6080820190506108e55f830187610891565b6108f26020830186610891565b6108ff60408301856108a9565b61090c60608301846108c3565b95945050505050565b5f6020820190506109285f8301846108a9565b92915050565b61093781610880565b8114610941575f80fd5b50565b5f813590506109528161092e565b92915050565b610961816108a0565b811461096b575f80fd5b50565b5f8135905061097c81610958565b92915050565b5f805f60608486031215610999576109986107ff565b5b5f6109a686828701610944565b93505060206109b786828701610944565b92505060406109c88682870161096e565b9150509250925092565b5f805f80608085870312156109ea576109e96107ff565b5b5f6109f787828801610822565b9450506020610a0887828801610944565b9350506040610a1987828801610944565b9250506060610a2a8782880161096e565b91505092959194509250565b5f60208284031215610a4b57610a4a6107ff565b5b5f610a5884828501610944565b91505092915050565b5f602082019050610a745f8301846108c3565b92915050565b5f606082019050610a8d5f830186610891565b610a9a6020830185610891565b610aa760408301846108a9565b949350505050565b610ab8816108b8565b8114610ac2575f80fd5b50565b5f81519050610ad381610aaf565b92915050565b5f60208284031215610aee57610aed6107ff565b5b5f610afb84828501610ac5565b91505092915050565b5f82825260208201905092915050565b7f73656564207472616e7366657246726f6d206661696c656400000000000000005f82015250565b5f610b48601883610b04565b9150610b5382610b14565b602082019050919050565b5f6020820190508181035f830152610b7581610b3c565b9050919050565b7f4e487b71000000000000000000000000000000000000000000000000000000005f52601160045260245ffd5b5f610bb3826108a0565b9150610bbe836108a0565b9250828201905080821115610bd657610bd5610b7c565b5b92915050565b7f696e76616c696420766d000000000000000000000000000000000000000000005f82015250565b5f610c10600a83610b04565b9150610c1b82610bdc565b602082019050919050565b5f6020820190508181035f830152610c3d81610c04565b9050919050565b7f7472616e7366657220616c726561647920636f6d706c657465640000000000005f82015250565b5f610c78601a83610b04565b9150610c8382610c44565b602082019050919050565b5f6020820190508181035f830152610ca581610c6c565b9050919050565b7f696e73756666696369656e74206f75747374616e64696e6700000000000000005f82015250565b5f610ce0601883610b04565b9150610ceb82610cac565b602082019050919050565b5f6020820190508181035f830152610d0d81610cd4565b9050919050565b5f604082019050610d275f830185610891565b610d3460208301846108a9565b9392505050565b7f7472616e73666572206661696c656400000000000000000000000000000000005f82015250565b5f610d6f600f83610b04565b9150610d7a82610d3b565b602082019050919050565b5f6020820190508181035f830152610d9c81610d63565b905091905056fea2646970667358221220f49c3e12488b0c8b389612ed72a057b8eb140ef54b39e9e64d03e8c11432c41864736f6c6343000818003360a060405234801562000010575f80fd5b506040516200100c3803806200100c833981810160405281019062000036919062000147565b5f73ffffffffffffffffffffffffffffffffffffffff168173ffffffffffffffffffffffffffffffffffffffff1603620000a7576040517f08c379a00000000000000000000000000000000000000000000000000000000081526004016200009e90620001d5565b60405180910390fd5b8073ffffffffffffffffffffffffffffffffffffffff1660808173ffffffffffffffffffffffffffffffffffffffff168152505050620001f5565b5f80fd5b5f73ffffffffffffffffffffffffffffffffffffffff82169050919050565b5f6200011182620000e6565b9050919050565b620001238162000105565b81146200012e575f80fd5b50565b5f81519050620001418162000118565b92915050565b5f602082840312156200015f576200015e620000e2565b5b5f6200016e8482850162000131565b91505092915050565b5f82825260208201905092915050565b7f6272696467653d300000000000000000000000000000000000000000000000005f82015250565b5f620001bd60088362000177565b9150620001ca8262000187565b602082019050919050565b5f6020820190508181035f830152620001ee81620001af565b9050919050565b608051610df06200021c5f395f8181610662015281816107b601526108550152610df05ff3fe608060405234801561000f575f80fd5b50600436106100e8575f3560e01c8063a77f05e91161008a578063dd62ed3e11610064578063dd62ed3e1461025c578063e78cea921461028c578063ee4349f3146102aa578063f128f4b1146102c8576100e8565b8063a77f05e9146101f2578063a9059cbb14610210578063b4e0b4e914610240576100e8565b8063313ce567116100c6578063313ce5671461016a57806340c10f191461018857806370a08231146101a457806395d89b41146101d4576100e8565b806306fdde03146100ec578063095ea7b31461010a57806323b872dd1461013a575b5f80fd5b6100f46102e6565b6040516101019190610968565b60405180910390f35b610124600480360381019061011f9190610a19565b61031f565b6040516101319190610a71565b60405180910390f35b610154600480360381019061014f9190610a8a565b6103a7565b6040516101619190610a71565b60405180910390f35b610172610531565b60405161017f9190610af5565b60405180910390f35b6101a2600480360381019061019d9190610a19565b610536565b005b6101be60048036038101906101b99190610b0e565b61058c565b6040516101cb9190610b48565b60405180910390f35b6101dc6105a0565b6040516101e99190610968565b60405180910390f35b6101fa6105d9565b6040516102079190610a71565b60405180910390f35b61022a60048036038101906102259190610a19565b6105ec565b6040516102379190610a71565b60405180910390f35b61025a60048036038101906102559190610bbe565b610602565b005b61027660048036038101906102719190610bfc565b610640565b6040516102839190610b48565b60405180910390f35b610294610660565b6040516102a19190610c49565b60405180910390f35b6102b2610684565b6040516102bf9190610c71565b60405180910390f35b6102d061068a565b6040516102dd9190610a71565b60405180910390f35b6040518060400160405280600f81526020017f5265656e7472616e7420546f6b656e000000000000000000000000000000000081525081565b5f8160015f3373ffffffffffffffffffffffffffffffffffffffff1673ffffffffffffffffffffffffffffffffffffffff1681526020019081526020015f205f8573ffffffffffffffffffffffffffffffffffffffff1673ffffffffffffffffffffffffffffffffffffffff1681526020019081526020015f20819055506001905092915050565b5f8373ffffffffffffffffffffffffffffffffffffffff163373ffffffffffffffffffffffffffffffffffffffff161461051b575f60015f8673ffffffffffffffffffffffffffffffffffffffff1673ffffffffffffffffffffffffffffffffffffffff1681526020019081526020015f205f3373ffffffffffffffffffffffffffffffffffffffff1673ffffffffffffffffffffffffffffffffffffffff1681526020019081526020015f205490508281101561049a576040517f08c379a000000000000000000000000000000000000000000000000000000000815260040161049190610cd4565b60405180910390fd5b82810360015f8773ffffffffffffffffffffffffffffffffffffffff1673ffffffffffffffffffffffffffffffffffffffff1681526020019081526020015f205f3373ffffffffffffffffffffffffffffffffffffffff1673ffffffffffffffffffffffffffffffffffffffff1681526020019081526020015f2081905550505b61052684848461069c565b600190509392505050565b601281565b805f808473ffffffffffffffffffffffffffffffffffffffff1673ffffffffffffffffffffffffffffffffffffffff1681526020019081526020015f205f8282546105819190610d1f565b925050819055505050565b5f602052805f5260405f205f915090505481565b6040518060400160405280600381526020017f524e54000000000000000000000000000000000000000000000000000000000081525081565b600260019054906101000a900460ff1681565b5f6105f833848461069c565b6001905092915050565b816003819055508060025f6101000a81548160ff0219169083151502179055505f600260016101000a81548160ff0219169083151502179055505050565b6001602052815f5260405f20602052805f5260405f205f91509150505481565b7f000000000000000000000000000000000000000000000000000000000000000081565b60035481565b60025f9054906101000a900460ff1681565b5f805f8573ffffffffffffffffffffffffffffffffffffffff1673ffffffffffffffffffffffffffffffffffffffff1681526020019081526020015f205490508181101561071f576040517f08c379a000000000000000000000000000000000000000000000000000000000815260040161071690610d9c565b60405180910390fd5b8181035f808673ffffffffffffffffffffffffffffffffffffffff1673ffffffffffffffffffffffffffffffffffffffff1681526020019081526020015f2081905550815f808573ffffffffffffffffffffffffffffffffffffffff1673ffffffffffffffffffffffffffffffffffffffff1681526020019081526020015f205f8282546107ad9190610d1f565b925050819055507f000000000000000000000000000000000000000000000000000000000000000073ffffffffffffffffffffffffffffffffffffffff168473ffffffffffffffffffffffffffffffffffffffff1614801561081a575060025f9054906101000a900460ff165b80156108335750600260019054906101000a900460ff16155b156108d8576001600260016101000a81548160ff0219169083151502179055507f000000000000000000000000000000000000000000000000000000000000000073ffffffffffffffffffffffffffffffffffffffff1663a1febf816003546040518263ffffffff1660e01b81526004016108ae9190610c71565b5f604051808303815f87803b1580156108c5575f80fd5b505af19250505080156108d6575060015b505b50505050565b5f81519050919050565b5f82825260208201905092915050565b5f5b838110156109155780820151818401526020810190506108fa565b5f8484015250505050565b5f601f19601f8301169050919050565b5f61093a826108de565b61094481856108e8565b93506109548185602086016108f8565b61095d81610920565b840191505092915050565b5f6020820190508181035f8301526109808184610930565b905092915050565b5f80fd5b5f73ffffffffffffffffffffffffffffffffffffffff82169050919050565b5f6109b58261098c565b9050919050565b6109c5816109ab565b81146109cf575f80fd5b50565b5f813590506109e0816109bc565b92915050565b5f819050919050565b6109f8816109e6565b8114610a02575f80fd5b50565b5f81359050610a13816109ef565b92915050565b5f8060408385031215610a2f57610a2e610988565b5b5f610a3c858286016109d2565b9250506020610a4d85828601610a05565b9150509250929050565b5f8115159050919050565b610a6b81610a57565b82525050565b5f602082019050610a845f830184610a62565b92915050565b5f805f60608486031215610aa157610aa0610988565b5b5f610aae868287016109d2565b9350506020610abf868287016109d2565b9250506040610ad086828701610a05565b9150509250925092565b5f60ff82169050919050565b610aef81610ada565b82525050565b5f602082019050610b085f830184610ae6565b92915050565b5f60208284031215610b2357610b22610988565b5b5f610b30848285016109d2565b91505092915050565b610b42816109e6565b82525050565b5f602082019050610b5b5f830184610b39565b92915050565b5f819050919050565b610b7381610b61565b8114610b7d575f80fd5b50565b5f81359050610b8e81610b6a565b92915050565b610b9d81610a57565b8114610ba7575f80fd5b50565b5f81359050610bb881610b94565b92915050565b5f8060408385031215610bd457610bd3610988565b5b5f610be185828601610b80565b9250506020610bf285828601610baa565b9150509250929050565b5f8060408385031215610c1257610c11610988565b5b5f610c1f858286016109d2565b9250506020610c30858286016109d2565b9150509250929050565b610c43816109ab565b82525050565b5f602082019050610c5c5f830184610c3a565b92915050565b610c6b81610b61565b82525050565b5f602082019050610c845f830184610c62565b92915050565b7f21616c6c6f77616e6365000000000000000000000000000000000000000000005f82015250565b5f610cbe600a836108e8565b9150610cc982610c8a565b602082019050919050565b5f6020820190508181035f830152610ceb81610cb2565b9050919050565b7f4e487b71000000000000000000000000000000000000000000000000000000005f52601160045260245ffd5b5f610d29826109e6565b9150610d34836109e6565b9250828201905080821115610d4c57610d4b610cf2565b5b92915050565b7f2162616c616e63650000000000000000000000000000000000000000000000005f82015250565b5f610d866008836108e8565b9150610d9182610d52565b602082019050919050565b5f6020820190508181035f830152610db381610d7a565b905091905056fea2646970667358221220208d0b31a88e35e97691739eea5f45f3e5b8b3e7fa18cb15e47e0bdac1c9c80464736f6c63430008180033","linkReferences":{}},"methodIdentifiers":{"action_bug_same_vm_reentry(uint96)":"38b8a1cb","action_guard_same_vm_reentry(uint96)":"dcc04fb3","bugDoubleRedeemObserved()":"020bb4f0","bugModel()":"7e5049a0","bugToken()":"b133e38b","echidna_guard_model_same_vm_reentry_should_not_double_redeem()":"cfc4e76b","guardDoubleRedeemObserved()":"059f1a0d","guardModel()":"a9a12054","guardToken()":"e56588ef","property_bug_model_same_vm_reentry_should_not_double_redeem()":"a2c9db0b","property_guard_model_same_vm_reentry_should_not_double_redeem()":"d2a4a538","vmNonce()":"294eb1c3"},"id":0}