{"abi":[{"type":"constructor","inputs":[],"stateMutability":"nonpayable"},{"type":"function","name":"action_redeemBug","inputs":[{"name":"amountSeed","type":"uint96","internalType":"uint96"}],"outputs":[],"stateMutability":"nonpayable"},{"type":"function","name":"action_redeemFixed","inputs":[{"name":"amountSeed","type":"uint96","internalType":"uint96"}],"outputs":[],"stateMutability":"nonpayable"},{"type":"function","name":"action_seedBug","inputs":[{"name":"amountSeed","type":"uint96","internalType":"uint96"}],"outputs":[],"stateMutability":"nonpayable"},{"type":"function","name":"action_seedFixed","inputs":[{"name":"amountSeed","type":"uint96","internalType":"uint96"}],"outputs":[],"stateMutability":"nonpayable"},{"type":"function","name":"bugModel","inputs":[],"outputs":[{"name":"","type":"address","internalType":"contract OutboundSenderTaxBugModel"}],"stateMutability":"view"},{"type":"function","name":"bugSolvencyBroken","inputs":[],"outputs":[{"name":"","type":"bool","internalType":"bool"}],"stateMutability":"view"},{"type":"function","name":"bugToken","inputs":[],"outputs":[{"name":"","type":"address","internalType":"contract MockBridgeSenderTaxToken"}],"stateMutability":"view"},{"type":"function","name":"echidna_bug_collateral_covers_outstanding","inputs":[],"outputs":[{"name":"","type":"bool","internalType":"bool"}],"stateMutability":"view"},{"type":"function","name":"fixedModel","inputs":[],"outputs":[{"name":"","type":"address","internalType":"contract OutboundSenderTaxFixedModel"}],"stateMutability":"view"},{"type":"function","name":"fixedSolvencyBroken","inputs":[],"outputs":[{"name":"","type":"bool","internalType":"bool"}],"stateMutability":"view"},{"type":"function","name":"fixedToken","inputs":[],"outputs":[{"name":"","type":"address","internalType":"contract MockBridgeSenderTaxToken"}],"stateMutability":"view"},{"type":"function","name":"property_bug_collateral_covers_outstanding","inputs":[],"outputs":[{"name":"","type":"bool","internalType":"bool"}],"stateMutability":"view"},{"type":"function","name":"property_fixed_collateral_covers_outstanding","inputs":[],"outputs":[{"name":"","type":"bool","internalType":"bool"}],"stateMutability":"view"}],"bytecode":{"object":"0x608060405234801562000010575f80fd5b506040516200001f906200050e565b604051809103905ff08015801562000039573d5f803e3d5ffd5b505f806101000a81548173ffffffffffffffffffffffffffffffffffffffff021916908373ffffffffffffffffffffffffffffffffffffffff16021790555060405162000086906200051c565b604051809103905ff080158015620000a0573d5f803e3d5ffd5b5060015f6101000a81548173ffffffffffffffffffffffffffffffffffffffff021916908373ffffffffffffffffffffffffffffffffffffffff1602179055505f8054906101000a900473ffffffffffffffffffffffffffffffffffffffff163061271060405162000112906200052a565b6200012093929190620005d2565b604051809103905ff0801580156200013a573d5f803e3d5ffd5b5060025f6101000a81548173ffffffffffffffffffffffffffffffffffffffff021916908373ffffffffffffffffffffffffffffffffffffffff16021790555060015f9054906101000a900473ffffffffffffffffffffffffffffffffffffffff1630612710604051620001ae906200052a565b620001bc93929190620005d2565b604051809103905ff080158015620001d6573d5f803e3d5ffd5b5060035f6101000a81548173ffffffffffffffffffffffffffffffffffffffff021916908373ffffffffffffffffffffffffffffffffffffffff16021790555060025f9054906101000a900473ffffffffffffffffffffffffffffffffffffffff1673ffffffffffffffffffffffffffffffffffffffff166340c10f193069d3c21bcecceda10000006040518363ffffffff1660e01b81526004016200027e92919062000627565b5f604051808303815f87803b15801562000296575f80fd5b505af1158015620002a9573d5f803e3d5ffd5b5050505060035f9054906101000a900473ffffffffffffffffffffffffffffffffffffffff1673ffffffffffffffffffffffffffffffffffffffff166340c10f193069d3c21bcecceda10000006040518363ffffffff1660e01b81526004016200031592919062000627565b5f604051808303815f87803b1580156200032d575f80fd5b505af115801562000340573d5f803e3d5ffd5b5050505060025f9054906101000a900473ffffffffffffffffffffffffffffffffffffffff1673ffffffffffffffffffffffffffffffffffffffff1663095ea7b35f8054906101000a900473ffffffffffffffffffffffffffffffffffffffff167fffffffffffffffffffffffffffffffffffffffffffffffffffffffffffffffff6040518363ffffffff1660e01b8152600401620003e192919062000627565b6020604051808303815f875af1158015620003fe573d5f803e3d5ffd5b505050506040513d601f19601f8201168201806040525081019062000424919062000690565b5060035f9054906101000a900473ffffffffffffffffffffffffffffffffffffffff1673ffffffffffffffffffffffffffffffffffffffff1663095ea7b360015f9054906101000a900473ffffffffffffffffffffffffffffffffffffffff167fffffffffffffffffffffffffffffffffffffffffffffffffffffffffffffffff6040518363ffffffff1660e01b8152600401620004c492919062000627565b6020604051808303815f875af1158015620004e1573d5f803e3d5ffd5b505050506040513d601f19601f8201168201806040525081019062000507919062000690565b50620006c0565b6109b6806200160f83390190565b610c0e8062001fc583390190565b61121b8062002bd383390190565b5f73ffffffffffffffffffffffffffffffffffffffff82169050919050565b5f620005638262000538565b9050919050565b620005758162000557565b82525050565b5f819050919050565b5f61ffff82169050919050565b5f819050919050565b5f620005ba620005b4620005ae846200057b565b62000591565b62000584565b9050919050565b620005cc816200059a565b82525050565b5f606082019050620005e75f8301866200056a565b620005f660208301856200056a565b620006056040830184620005c1565b949350505050565b5f819050919050565b62000621816200060d565b82525050565b5f6040820190506200063c5f8301856200056a565b6200064b602083018462000616565b9392505050565b5f80fd5b5f8115159050919050565b6200066c8162000656565b811462000677575f80fd5b50565b5f815190506200068a8162000661565b92915050565b5f60208284031215620006a857620006a762000652565b5b5f620006b7848285016200067a565b91505092915050565b610f4180620006ce5f395ff3fe608060405234801561000f575f80fd5b50600436106100cd575f3560e01c8063a39f5a0d1161008a578063d457493e11610064578063d457493e146101dd578063d6fcbc50146101f9578063d8d9356814610215578063f41534ae14610233576100cd565b8063a39f5a0d14610185578063b133e38b146101a3578063b93d63a6146101c1576100cd565b80631ba4c97c146100d15780632fe5106d146100ef57806336f086df1461010d5780637e3632291461012b5780637e5049a014610149578063a28645fe14610167575b5f80fd5b6100d961024f565b6040516100e69190610c45565b60405180910390f35b6100f7610274565b6040516101049190610c78565b60405180910390f35b610115610287565b6040516101229190610c78565b60405180910390f35b61013361029e565b6040516101409190610c78565b60405180910390f35b6101516102b1565b60405161015e9190610cb1565b60405180910390f35b61016f6102d4565b60405161017c9190610c78565b60405180910390f35b61018d6102eb565b60405161019a9190610cea565b60405180910390f35b6101ab610310565b6040516101b89190610cea565b60405180910390f35b6101db60048036038101906101d69190610d48565b610335565b005b6101f760048036038101906101f29190610d48565b6104d8565b005b610213600480360381019061020e9190610d48565b61067e565b005b61021d610763565b60405161022a9190610c78565b60405180910390f35b61024d60048036038101906102489190610d48565b61077a565b005b60015f9054906101000a900473ffffffffffffffffffffffffffffffffffffffff1681565b600360149054906101000a900460ff1681565b5f600360159054906101000a900460ff1615905090565b600360159054906101000a900460ff1681565b5f8054906101000a900473ffffffffffffffffffffffffffffffffffffffff1681565b5f600360149054906101000a900460ff1615905090565b60035f9054906101000a900473ffffffffffffffffffffffffffffffffffffffff1681565b60025f9054906101000a900473ffffffffffffffffffffffffffffffffffffffff1681565b5f805f9054906101000a900473ffffffffffffffffffffffffffffffffffffffff1673ffffffffffffffffffffffffffffffffffffffff1663de58bafa60025f9054906101000a900473ffffffffffffffffffffffffffffffffffffffff166040518263ffffffff1660e01b81526004016103b09190610d93565b602060405180830381865afa1580156103cb573d5f803e3d5ffd5b505050506040513d601f19601f820116820180604052508101906103ef9190610ddf565b90505f81036103fe57506104d5565b5f610416836bffffffffffffffffffffffff16610861565b905081811115610424578190505b5f8054906101000a900473ffffffffffffffffffffffffffffffffffffffff1673ffffffffffffffffffffffffffffffffffffffff1663aee445a560025f9054906101000a900473ffffffffffffffffffffffffffffffffffffffff1630846040518463ffffffff1660e01b81526004016104a193929190610e19565b5f604051808303815f87803b1580156104b8575f80fd5b505af19250505080156104c9575060015b506104d261088a565b50505b50565b5f60015f9054906101000a900473ffffffffffffffffffffffffffffffffffffffff1673ffffffffffffffffffffffffffffffffffffffff1663de58bafa60035f9054906101000a900473ffffffffffffffffffffffffffffffffffffffff166040518263ffffffff1660e01b81526004016105549190610d93565b602060405180830381865afa15801561056f573d5f803e3d5ffd5b505050506040513d601f19601f820116820180604052508101906105939190610ddf565b90505f81036105a2575061067b565b5f6105ba836bffffffffffffffffffffffff16610861565b9050818111156105c8578190505b60015f9054906101000a900473ffffffffffffffffffffffffffffffffffffffff1673ffffffffffffffffffffffffffffffffffffffff1663aee445a560035f9054906101000a900473ffffffffffffffffffffffffffffffffffffffff1630846040518463ffffffff1660e01b815260040161064793929190610e19565b5f604051808303815f87803b15801561065e575f80fd5b505af192505050801561066f575060015b50610678610a29565b50505b50565b5f610696826bffffffffffffffffffffffff16610861565b90505f8054906101000a900473ffffffffffffffffffffffffffffffffffffffff1673ffffffffffffffffffffffffffffffffffffffff166396f50e3860025f9054906101000a900473ffffffffffffffffffffffffffffffffffffffff1630846040518463ffffffff1660e01b815260040161071593929190610e19565b6020604051808303815f875af192505050801561075057506040513d601f19601f8201168201806040525081019061074d9190610ddf565b60015b1561075757505b61075f61088a565b5050565b5f600360149054906101000a900460ff1615905090565b5f610792826bffffffffffffffffffffffff16610861565b905060015f9054906101000a900473ffffffffffffffffffffffffffffffffffffffff1673ffffffffffffffffffffffffffffffffffffffff166396f50e3860035f9054906101000a900473ffffffffffffffffffffffffffffffffffffffff1630846040518463ffffffff1660e01b815260040161081393929190610e19565b6020604051808303815f875af192505050801561084e57506040513d601f19601f8201168201806040525081019061084b9190610ddf565b60015b1561085557505b61085d610a29565b5050565b5f6001683635c9adc5dea00000836108799190610e7b565b6108839190610ed8565b9050919050565b5f60025f9054906101000a900473ffffffffffffffffffffffffffffffffffffffff1673ffffffffffffffffffffffffffffffffffffffff166370a082315f8054906101000a900473ffffffffffffffffffffffffffffffffffffffff166040518263ffffffff1660e01b81526004016109049190610d93565b602060405180830381865afa15801561091f573d5f803e3d5ffd5b505050506040513d601f19601f820116820180604052508101906109439190610ddf565b90505f805f9054906101000a900473ffffffffffffffffffffffffffffffffffffffff1673ffffffffffffffffffffffffffffffffffffffff1663de58bafa60025f9054906101000a900473ffffffffffffffffffffffffffffffffffffffff166040518263ffffffff1660e01b81526004016109c09190610d93565b602060405180830381865afa1580156109db573d5f803e3d5ffd5b505050506040513d601f19601f820116820180604052508101906109ff9190610ddf565b905080821015610a25576001600360146101000a81548160ff0219169083151502179055505b5050565b5f60035f9054906101000a900473ffffffffffffffffffffffffffffffffffffffff1673ffffffffffffffffffffffffffffffffffffffff166370a0823160015f9054906101000a900473ffffffffffffffffffffffffffffffffffffffff166040518263ffffffff1660e01b8152600401610aa59190610d93565b602060405180830381865afa158015610ac0573d5f803e3d5ffd5b505050506040513d601f19601f82011682018060405250810190610ae49190610ddf565b90505f60015f9054906101000a900473ffffffffffffffffffffffffffffffffffffffff1673ffffffffffffffffffffffffffffffffffffffff1663de58bafa60035f9054906101000a900473ffffffffffffffffffffffffffffffffffffffff166040518263ffffffff1660e01b8152600401610b629190610d93565b602060405180830381865afa158015610b7d573d5f803e3d5ffd5b505050506040513d601f19601f82011682018060405250810190610ba19190610ddf565b905080821015610bc7576001600360156101000a81548160ff0219169083151502179055505b5050565b5f73ffffffffffffffffffffffffffffffffffffffff82169050919050565b5f819050919050565b5f610c0d610c08610c0384610bcb565b610bea565b610bcb565b9050919050565b5f610c1e82610bf3565b9050919050565b5f610c2f82610c14565b9050919050565b610c3f81610c25565b82525050565b5f602082019050610c585f830184610c36565b92915050565b5f8115159050919050565b610c7281610c5e565b82525050565b5f602082019050610c8b5f830184610c69565b92915050565b5f610c9b82610c14565b9050919050565b610cab81610c91565b82525050565b5f602082019050610cc45f830184610ca2565b92915050565b5f610cd482610c14565b9050919050565b610ce481610cca565b82525050565b5f602082019050610cfd5f830184610cdb565b92915050565b5f80fd5b5f6bffffffffffffffffffffffff82169050919050565b610d2781610d07565b8114610d31575f80fd5b50565b5f81359050610d4281610d1e565b92915050565b5f60208284031215610d5d57610d5c610d03565b5b5f610d6a84828501610d34565b91505092915050565b5f610d7d82610bcb565b9050919050565b610d8d81610d73565b82525050565b5f602082019050610da65f830184610d84565b92915050565b5f819050919050565b610dbe81610dac565b8114610dc8575f80fd5b50565b5f81519050610dd981610db5565b92915050565b5f60208284031215610df457610df3610d03565b5b5f610e0184828501610dcb565b91505092915050565b610e1381610dac565b82525050565b5f606082019050610e2c5f830186610d84565b610e396020830185610d84565b610e466040830184610e0a565b949350505050565b7f4e487b71000000000000000000000000000000000000000000000000000000005f52601260045260245ffd5b5f610e8582610dac565b9150610e9083610dac565b925082610ea057610e9f610e4e565b5b828206905092915050565b7f4e487b71000000000000000000000000000000000000000000000000000000005f52601160045260245ffd5b5f610ee282610dac565b9150610eed83610dac565b9250828201905080821115610f0557610f04610eab565b5b9291505056fea2646970667358221220fcc547188f0b2dcf5c29089f0f1ab2543cf3dcaddf651f2903e07d0e8316dd6464736f6c63430008180033608060405234801561000f575f80fd5b506109998061001d5f395ff3fe608060405234801561000f575f80fd5b506004361061004a575f3560e01c806396f50e381461004e578063a5fdc5de1461007e578063aee445a5146100ae578063de58bafa146100ca575b5f80fd5b610068600480360381019061006391906105c2565b6100fa565b6040516100759190610621565b60405180910390f35b6100986004803603810190610093919061063a565b610316565b6040516100a59190610621565b60405180910390f35b6100c860048036038101906100c391906105c2565b610396565b005b6100e460048036038101906100df919061063a565b61051d565b6040516100f19190610621565b60405180910390f35b5f808473ffffffffffffffffffffffffffffffffffffffff166370a08231306040518263ffffffff1660e01b81526004016101359190610674565b602060405180830381865afa158015610150573d5f803e3d5ffd5b505050506040513d601f19601f8201168201806040525081019061017491906106a1565b90508473ffffffffffffffffffffffffffffffffffffffff166323b872dd8530866040518463ffffffff1660e01b81526004016101b3939291906106cc565b6020604051808303815f875af11580156101cf573d5f803e3d5ffd5b505050506040513d601f19601f820116820180604052508101906101f39190610736565b610232576040517f08c379a0000000000000000000000000000000000000000000000000000000008152600401610229906107bb565b60405180910390fd5b5f8573ffffffffffffffffffffffffffffffffffffffff166370a08231306040518263ffffffff1660e01b815260040161026c9190610674565b602060405180830381865afa158015610287573d5f803e3d5ffd5b505050506040513d601f19601f820116820180604052508101906102ab91906106a1565b905081816102b99190610806565b9250825f808873ffffffffffffffffffffffffffffffffffffffff1673ffffffffffffffffffffffffffffffffffffffff1681526020019081526020015f205f8282546103069190610839565b9250508190555050509392505050565b5f8173ffffffffffffffffffffffffffffffffffffffff166370a08231306040518263ffffffff1660e01b81526004016103509190610674565b602060405180830381865afa15801561036b573d5f803e3d5ffd5b505050506040513d601f19601f8201168201806040525081019061038f91906106a1565b9050919050565b805f808573ffffffffffffffffffffffffffffffffffffffff1673ffffffffffffffffffffffffffffffffffffffff1681526020019081526020015f20541015610415576040517f08c379a000000000000000000000000000000000000000000000000000000000815260040161040c906108b6565b60405180910390fd5b805f808573ffffffffffffffffffffffffffffffffffffffff1673ffffffffffffffffffffffffffffffffffffffff1681526020019081526020015f205f82825403925050819055508273ffffffffffffffffffffffffffffffffffffffff1663a9059cbb83836040518363ffffffff1660e01b81526004016104999291906108d4565b6020604051808303815f875af11580156104b5573d5f803e3d5ffd5b505050506040513d601f19601f820116820180604052508101906104d99190610736565b610518576040517f08c379a000000000000000000000000000000000000000000000000000000000815260040161050f90610945565b60405180910390fd5b505050565b5f602052805f5260405f205f915090505481565b5f80fd5b5f73ffffffffffffffffffffffffffffffffffffffff82169050919050565b5f61055e82610535565b9050919050565b61056e81610554565b8114610578575f80fd5b50565b5f8135905061058981610565565b92915050565b5f819050919050565b6105a18161058f565b81146105ab575f80fd5b50565b5f813590506105bc81610598565b92915050565b5f805f606084860312156105d9576105d8610531565b5b5f6105e68682870161057b565b93505060206105f78682870161057b565b9250506040610608868287016105ae565b9150509250925092565b61061b8161058f565b82525050565b5f6020820190506106345f830184610612565b92915050565b5f6020828403121561064f5761064e610531565b5b5f61065c8482850161057b565b91505092915050565b61066e81610554565b82525050565b5f6020820190506106875f830184610665565b92915050565b5f8151905061069b81610598565b92915050565b5f602082840312156106b6576106b5610531565b5b5f6106c38482850161068d565b91505092915050565b5f6060820190506106df5f830186610665565b6106ec6020830185610665565b6106f96040830184610612565b949350505050565b5f8115159050919050565b61071581610701565b811461071f575f80fd5b50565b5f815190506107308161070c565b92915050565b5f6020828403121561074b5761074a610531565b5b5f61075884828501610722565b91505092915050565b5f82825260208201905092915050565b7f7472616e7366657246726f6d206661696c6564000000000000000000000000005f82015250565b5f6107a5601383610761565b91506107b082610771565b602082019050919050565b5f6020820190508181035f8301526107d281610799565b9050919050565b7f4e487b71000000000000000000000000000000000000000000000000000000005f52601160045260245ffd5b5f6108108261058f565b915061081b8361058f565b9250828203905081811115610833576108326107d9565b5b92915050565b5f6108438261058f565b915061084e8361058f565b9250828201905080821115610866576108656107d9565b5b92915050565b7f696e73756666696369656e74206f75747374616e64696e6700000000000000005f82015250565b5f6108a0601883610761565b91506108ab8261086c565b602082019050919050565b5f6020820190508181035f8301526108cd81610894565b9050919050565b5f6040820190506108e75f830185610665565b6108f46020830184610612565b9392505050565b7f7472616e73666572206661696c656400000000000000000000000000000000005f82015250565b5f61092f600f83610761565b915061093a826108fb565b602082019050919050565b5f6020820190508181035f83015261095c81610923565b905091905056fea2646970667358221220313e153080d5018a738beaa943bf25e7d3b168843a6ac0500aa89ff0a4551aa664736f6c63430008180033608060405234801561000f575f80fd5b50610bf18061001d5f395ff3fe608060405234801561000f575f80fd5b506004361061004a575f3560e01c806396f50e381461004e578063a5fdc5de1461007e578063aee445a5146100ae578063de58bafa146100ca575b5f80fd5b6100686004803603810190610063919061074a565b6100fa565b60405161007591906107a9565b60405180910390f35b610098600480360381019061009391906107c2565b610316565b6040516100a591906107a9565b60405180910390f35b6100c860048036038101906100c3919061074a565b610396565b005b6100e460048036038101906100df91906107c2565b6106a5565b6040516100f191906107a9565b60405180910390f35b5f808473ffffffffffffffffffffffffffffffffffffffff166370a08231306040518263ffffffff1660e01b815260040161013591906107fc565b602060405180830381865afa158015610150573d5f803e3d5ffd5b505050506040513d601f19601f820116820180604052508101906101749190610829565b90508473ffffffffffffffffffffffffffffffffffffffff166323b872dd8530866040518463ffffffff1660e01b81526004016101b393929190610854565b6020604051808303815f875af11580156101cf573d5f803e3d5ffd5b505050506040513d601f19601f820116820180604052508101906101f391906108be565b610232576040517f08c379a000000000000000000000000000000000000000000000000000000000815260040161022990610943565b60405180910390fd5b5f8573ffffffffffffffffffffffffffffffffffffffff166370a08231306040518263ffffffff1660e01b815260040161026c91906107fc565b602060405180830381865afa158015610287573d5f803e3d5ffd5b505050506040513d601f19601f820116820180604052508101906102ab9190610829565b905081816102b9919061098e565b9250825f808873ffffffffffffffffffffffffffffffffffffffff1673ffffffffffffffffffffffffffffffffffffffff1681526020019081526020015f205f82825461030691906109c1565b9250508190555050509392505050565b5f8173ffffffffffffffffffffffffffffffffffffffff166370a08231306040518263ffffffff1660e01b815260040161035091906107fc565b602060405180830381865afa15801561036b573d5f803e3d5ffd5b505050506040513d601f19601f8201168201806040525081019061038f9190610829565b9050919050565b805f808573ffffffffffffffffffffffffffffffffffffffff1673ffffffffffffffffffffffffffffffffffffffff1681526020019081526020015f20541015610415576040517f08c379a000000000000000000000000000000000000000000000000000000000815260040161040c90610a3e565b60405180910390fd5b5f8373ffffffffffffffffffffffffffffffffffffffff166370a08231306040518263ffffffff1660e01b815260040161044f91906107fc565b602060405180830381865afa15801561046a573d5f803e3d5ffd5b505050506040513d601f19601f8201168201806040525081019061048e9190610829565b90508373ffffffffffffffffffffffffffffffffffffffff1663a9059cbb84846040518363ffffffff1660e01b81526004016104cb929190610a5c565b6020604051808303815f875af11580156104e7573d5f803e3d5ffd5b505050506040513d601f19601f8201168201806040525081019061050b91906108be565b61054a576040517f08c379a000000000000000000000000000000000000000000000000000000000815260040161054190610acd565b60405180910390fd5b5f8473ffffffffffffffffffffffffffffffffffffffff166370a08231306040518263ffffffff1660e01b815260040161058491906107fc565b602060405180830381865afa15801561059f573d5f803e3d5ffd5b505050506040513d601f19601f820116820180604052508101906105c39190610829565b905080821015610608576040517f08c379a00000000000000000000000000000000000000000000000000000000081526004016105ff90610b35565b60405180910390fd5b828183610615919061098e565b14610655576040517f08c379a000000000000000000000000000000000000000000000000000000000815260040161064c90610b9d565b60405180910390fd5b825f808773ffffffffffffffffffffffffffffffffffffffff1673ffffffffffffffffffffffffffffffffffffffff1681526020019081526020015f205f82825403925050819055505050505050565b5f602052805f5260405f205f915090505481565b5f80fd5b5f73ffffffffffffffffffffffffffffffffffffffff82169050919050565b5f6106e6826106bd565b9050919050565b6106f6816106dc565b8114610700575f80fd5b50565b5f81359050610711816106ed565b92915050565b5f819050919050565b61072981610717565b8114610733575f80fd5b50565b5f8135905061074481610720565b92915050565b5f805f60608486031215610761576107606106b9565b5b5f61076e86828701610703565b935050602061077f86828701610703565b925050604061079086828701610736565b9150509250925092565b6107a381610717565b82525050565b5f6020820190506107bc5f83018461079a565b92915050565b5f602082840312156107d7576107d66106b9565b5b5f6107e484828501610703565b91505092915050565b6107f6816106dc565b82525050565b5f60208201905061080f5f8301846107ed565b92915050565b5f8151905061082381610720565b92915050565b5f6020828403121561083e5761083d6106b9565b5b5f61084b84828501610815565b91505092915050565b5f6060820190506108675f8301866107ed565b61087460208301856107ed565b610881604083018461079a565b949350505050565b5f8115159050919050565b61089d81610889565b81146108a7575f80fd5b50565b5f815190506108b881610894565b92915050565b5f602082840312156108d3576108d26106b9565b5b5f6108e0848285016108aa565b91505092915050565b5f82825260208201905092915050565b7f7472616e7366657246726f6d206661696c6564000000000000000000000000005f82015250565b5f61092d6013836108e9565b9150610938826108f9565b602082019050919050565b5f6020820190508181035f83015261095a81610921565b9050919050565b7f4e487b71000000000000000000000000000000000000000000000000000000005f52601160045260245ffd5b5f61099882610717565b91506109a383610717565b92508282039050818111156109bb576109ba610961565b5b92915050565b5f6109cb82610717565b91506109d683610717565b92508282019050808211156109ee576109ed610961565b5b92915050565b7f696e73756666696369656e74206f75747374616e64696e6700000000000000005f82015250565b5f610a286018836108e9565b9150610a33826109f4565b602082019050919050565b5f6020820190508181035f830152610a5581610a1c565b9050919050565b5f604082019050610a6f5f8301856107ed565b610a7c602083018461079a565b9392505050565b7f7472616e73666572206661696c656400000000000000000000000000000000005f82015250565b5f610ab7600f836108e9565b9150610ac282610a83565b602082019050919050565b5f6020820190508181035f830152610ae481610aab565b9050919050565b7f62616c616e636520696e637265617365640000000000000000000000000000005f82015250565b5f610b1f6011836108e9565b9150610b2a82610aeb565b602082019050919050565b5f6020820190508181035f830152610b4c81610b13565b9050919050565b7f756e65787065637465642073656e6465722d73696465206465626974000000005f82015250565b5f610b87601c836108e9565b9150610b9282610b53565b602082019050919050565b5f6020820190508181035f830152610bb481610b7b565b905091905056fea2646970667358221220237f244d7fcaf8b85a0bd4e8783c3c88942019ea2d54c6316caf8b3a11ca3b3e64736f6c6343000818003360e060405234801562000010575f80fd5b506040516200121b3803806200121b833981810160405281019062000036919062000286565b5f73ffffffffffffffffffffffffffffffffffffffff168373ffffffffffffffffffffffffffffffffffffffff1603620000a7576040517f08c379a00000000000000000000000000000000000000000000000000000000081526004016200009e906200033d565b60405180910390fd5b5f73ffffffffffffffffffffffffffffffffffffffff168273ffffffffffffffffffffffffffffffffffffffff160362000118576040517f08c379a00000000000000000000000000000000000000000000000000000000081526004016200010f90620003ab565b60405180910390fd5b6127108161ffff16111562000164576040517f08c379a00000000000000000000000000000000000000000000000000000000081526004016200015b9062000419565b60405180910390fd5b8273ffffffffffffffffffffffffffffffffffffffff1660808173ffffffffffffffffffffffffffffffffffffffff16815250508173ffffffffffffffffffffffffffffffffffffffff1660a08173ffffffffffffffffffffffffffffffffffffffff16815250508061ffff1660c08161ffff168152505050505062000439565b5f80fd5b5f73ffffffffffffffffffffffffffffffffffffffff82169050919050565b5f6200021482620001e9565b9050919050565b620002268162000208565b811462000231575f80fd5b50565b5f8151905062000244816200021b565b92915050565b5f61ffff82169050919050565b62000262816200024a565b81146200026d575f80fd5b50565b5f81519050620002808162000257565b92915050565b5f805f60608486031215620002a0576200029f620001e5565b5b5f620002af8682870162000234565b9350506020620002c28682870162000234565b9250506040620002d58682870162000270565b9150509250925092565b5f82825260208201905092915050565b7f6272696467653d300000000000000000000000000000000000000000000000005f82015250565b5f62000325600883620002df565b91506200033282620002ef565b602082019050919050565b5f6020820190508181035f830152620003568162000317565b9050919050565b7f636f6c6c6563746f723d300000000000000000000000000000000000000000005f82015250565b5f62000393600b83620002df565b9150620003a0826200035d565b602082019050919050565b5f6020820190508181035f830152620003c48162000385565b9050919050565b7f62707320746f6f206869676800000000000000000000000000000000000000005f82015250565b5f62000401600c83620002df565b91506200040e82620003cb565b602082019050919050565b5f6020820190508181035f8301526200043281620003f3565b9050919050565b60805160a05160c051610d9b620004805f395f818161051e01528181610665015261069401525f81816105a5015261080301525f81816105e9015261060e0152610d9b5ff3fe608060405234801561000f575f80fd5b50600436106100b2575f3560e01c806370a082311161006f57806370a082311461018c57806395d89b41146101bc578063a9059cbb146101da578063c415b95c1461020a578063dd62ed3e14610228578063e78cea9214610258576100b2565b806306fdde03146100b6578063095ea7b3146100d457806323b872dd14610104578063313ce5671461013457806340c10f1914610152578063696e43401461016e575b5f80fd5b6100be610276565b6040516100cb9190610903565b60405180910390f35b6100ee60048036038101906100e991906109b4565b6102af565b6040516100fb9190610a0c565b60405180910390f35b61011e60048036038101906101199190610a25565b610337565b60405161012b9190610a0c565b60405180910390f35b61013c6104c1565b6040516101499190610a90565b60405180910390f35b61016c600480360381019061016791906109b4565b6104c6565b005b61017661051c565b6040516101839190610ac5565b60405180910390f35b6101a660048036038101906101a19190610ade565b610540565b6040516101b39190610b18565b60405180910390f35b6101c4610554565b6040516101d19190610903565b60405180910390f35b6101f460048036038101906101ef91906109b4565b61058d565b6040516102019190610a0c565b60405180910390f35b6102126105a3565b60405161021f9190610b40565b60405180910390f35b610242600480360381019061023d9190610b59565b6105c7565b60405161024f9190610b18565b60405180910390f35b6102606105e7565b60405161026d9190610b40565b60405180910390f35b6040518060400160405280601781526020017f4272696467652053656e6465722054617820546f6b656e00000000000000000081525081565b5f8160015f3373ffffffffffffffffffffffffffffffffffffffff1673ffffffffffffffffffffffffffffffffffffffff1681526020019081526020015f205f8573ffffffffffffffffffffffffffffffffffffffff1673ffffffffffffffffffffffffffffffffffffffff1681526020019081526020015f20819055506001905092915050565b5f8373ffffffffffffffffffffffffffffffffffffffff163373ffffffffffffffffffffffffffffffffffffffff16146104ab575f60015f8673ffffffffffffffffffffffffffffffffffffffff1673ffffffffffffffffffffffffffffffffffffffff1681526020019081526020015f205f3373ffffffffffffffffffffffffffffffffffffffff1673ffffffffffffffffffffffffffffffffffffffff1681526020019081526020015f205490508281101561042a576040517f08c379a000000000000000000000000000000000000000000000000000000000815260040161042190610be1565b60405180910390fd5b82810360015f8773ffffffffffffffffffffffffffffffffffffffff1673ffffffffffffffffffffffffffffffffffffffff1681526020019081526020015f205f3373ffffffffffffffffffffffffffffffffffffffff1673ffffffffffffffffffffffffffffffffffffffff1681526020019081526020015f2081905550505b6104b684848461060b565b600190509392505050565b601281565b805f808473ffffffffffffffffffffffffffffffffffffffff1673ffffffffffffffffffffffffffffffffffffffff1681526020019081526020015f205f8282546105119190610c2c565b925050819055505050565b7f000000000000000000000000000000000000000000000000000000000000000081565b5f602052805f5260405f205f915090505481565b6040518060400160405280600381526020017f425354000000000000000000000000000000000000000000000000000000000081525081565b5f61059933848461060b565b6001905092915050565b7f000000000000000000000000000000000000000000000000000000000000000081565b6001602052815f5260405f20602052805f5260405f205f91509150505481565b7f000000000000000000000000000000000000000000000000000000000000000081565b5f7f000000000000000000000000000000000000000000000000000000000000000073ffffffffffffffffffffffffffffffffffffffff168473ffffffffffffffffffffffffffffffffffffffff1614801561068a57505f7f000000000000000000000000000000000000000000000000000000000000000061ffff16115b156106cf576127107f000000000000000000000000000000000000000000000000000000000000000061ffff16836106c29190610c5f565b6106cc9190610ccd565b90505b5f81836106dc9190610c2c565b90505f805f8773ffffffffffffffffffffffffffffffffffffffff1673ffffffffffffffffffffffffffffffffffffffff1681526020019081526020015f2054905081811015610761576040517f08c379a000000000000000000000000000000000000000000000000000000000815260040161075890610d47565b60405180910390fd5b8181035f808873ffffffffffffffffffffffffffffffffffffffff1673ffffffffffffffffffffffffffffffffffffffff1681526020019081526020015f2081905550835f808773ffffffffffffffffffffffffffffffffffffffff1673ffffffffffffffffffffffffffffffffffffffff1681526020019081526020015f205f8282546107ef9190610c2c565b925050819055505f83111561087157825f807f000000000000000000000000000000000000000000000000000000000000000073ffffffffffffffffffffffffffffffffffffffff1673ffffffffffffffffffffffffffffffffffffffff1681526020019081526020015f205f8282546108699190610c2c565b925050819055505b505050505050565b5f81519050919050565b5f82825260208201905092915050565b5f5b838110156108b0578082015181840152602081019050610895565b5f8484015250505050565b5f601f19601f8301169050919050565b5f6108d582610879565b6108df8185610883565b93506108ef818560208601610893565b6108f8816108bb565b840191505092915050565b5f6020820190508181035f83015261091b81846108cb565b905092915050565b5f80fd5b5f73ffffffffffffffffffffffffffffffffffffffff82169050919050565b5f61095082610927565b9050919050565b61096081610946565b811461096a575f80fd5b50565b5f8135905061097b81610957565b92915050565b5f819050919050565b61099381610981565b811461099d575f80fd5b50565b5f813590506109ae8161098a565b92915050565b5f80604083850312156109ca576109c9610923565b5b5f6109d78582860161096d565b92505060206109e8858286016109a0565b9150509250929050565b5f8115159050919050565b610a06816109f2565b82525050565b5f602082019050610a1f5f8301846109fd565b92915050565b5f805f60608486031215610a3c57610a3b610923565b5b5f610a498682870161096d565b9350506020610a5a8682870161096d565b9250506040610a6b868287016109a0565b9150509250925092565b5f60ff82169050919050565b610a8a81610a75565b82525050565b5f602082019050610aa35f830184610a81565b92915050565b5f61ffff82169050919050565b610abf81610aa9565b82525050565b5f602082019050610ad85f830184610ab6565b92915050565b5f60208284031215610af357610af2610923565b5b5f610b008482850161096d565b91505092915050565b610b1281610981565b82525050565b5f602082019050610b2b5f830184610b09565b92915050565b610b3a81610946565b82525050565b5f602082019050610b535f830184610b31565b92915050565b5f8060408385031215610b6f57610b6e610923565b5b5f610b7c8582860161096d565b9250506020610b8d8582860161096d565b9150509250929050565b7f21616c6c6f77616e6365000000000000000000000000000000000000000000005f82015250565b5f610bcb600a83610883565b9150610bd682610b97565b602082019050919050565b5f6020820190508181035f830152610bf881610bbf565b9050919050565b7f4e487b71000000000000000000000000000000000000000000000000000000005f52601160045260245ffd5b5f610c3682610981565b9150610c4183610981565b9250828201905080821115610c5957610c58610bff565b5b92915050565b5f610c6982610981565b9150610c7483610981565b9250828202610c8281610981565b91508282048414831517610c9957610c98610bff565b5b5092915050565b7f4e487b71000000000000000000000000000000000000000000000000000000005f52601260045260245ffd5b5f610cd782610981565b9150610ce283610981565b925082610cf257610cf1610ca0565b5b828204905092915050565b7f2162616c616e63650000000000000000000000000000000000000000000000005f82015250565b5f610d31600883610883565b9150610d3c82610cfd565b602082019050919050565b5f6020820190508181035f830152610d5e81610d25565b905091905056fea2646970667358221220e44806e018f1f932c6f0413b95b12507f66463826359486ee6f8becb15de681164736f6c63430008180033","linkReferences":{}},"methodIdentifiers":{"action_redeemBug(uint96)":"b93d63a6","action_redeemFixed(uint96)":"d457493e","action_seedBug(uint96)":"d6fcbc50","action_seedFixed(uint96)":"f41534ae","bugModel()":"7e5049a0","bugSolvencyBroken()":"2fe5106d","bugToken()":"b133e38b","echidna_bug_collateral_covers_outstanding()":"d8d93568","fixedModel()":"1ba4c97c","fixedSolvencyBroken()":"7e363229","fixedToken()":"a39f5a0d","property_bug_collateral_covers_outstanding()":"a28645fe","property_fixed_collateral_covers_outstanding()":"36f086df"},"id":0}