{"abi":[{"type":"constructor","inputs":[],"stateMutability":"nonpayable"},{"type":"function","name":"action_open_mismatched_challenge","inputs":[],"outputs":[],"stateMutability":"nonpayable"},{"type":"function","name":"action_register_challenge_operator","inputs":[],"outputs":[],"stateMutability":"nonpayable"},{"type":"function","name":"action_settle","inputs":[],"outputs":[],"stateMutability":"nonpayable"},{"type":"function","name":"attackerOperator","inputs":[],"outputs":[{"name":"","type":"address","internalType":"address"}],"stateMutability":"view"},{"type":"function","name":"attackerStaker","inputs":[],"outputs":[{"name":"","type":"address","internalType":"address"}],"stateMutability":"view"},{"type":"function","name":"challengeAddr","inputs":[],"outputs":[{"name":"","type":"address","internalType":"address"}],"stateMutability":"view"},{"type":"function","name":"echidna_victim_not_forced_into_unrelated_challenge","inputs":[],"outputs":[{"name":"","type":"bool","internalType":"bool"}],"stateMutability":"view"},{"type":"function","name":"echidna_victim_not_slashed_by_unrelated_assertions","inputs":[],"outputs":[{"name":"","type":"bool","internalType":"bool"}],"stateMutability":"view"},{"type":"function","name":"opened","inputs":[],"outputs":[{"name":"","type":"bool","internalType":"bool"}],"stateMutability":"view"},{"type":"function","name":"rollup","inputs":[],"outputs":[{"name":"","type":"address","internalType":"contract ChallengeBindingRollupHarness"}],"stateMutability":"view"},{"type":"function","name":"syntheticChallengeStaker","inputs":[],"outputs":[{"name":"","type":"address","internalType":"address"}],"stateMutability":"view"},{"type":"function","name":"victimOperator","inputs":[],"outputs":[{"name":"","type":"address","internalType":"address"}],"stateMutability":"view"},{"type":"function","name":"victimStaker","inputs":[],"outputs":[{"name":"","type":"address","internalType":"address"}],"stateMutability":"view"}],"bytecode":{"object":"0x608060405234801562000010575f80fd5b506040516200001f906200051d565b604051809103905ff08015801562000039573d5f803e3d5ffd5b505f806101000a81548173ffffffffffffffffffffffffffffffffffffffff021916908373ffffffffffffffffffffffffffffffffffffffff1602179055505f8054906101000a900473ffffffffffffffffffffffffffffffffffffffff1673ffffffffffffffffffffffffffffffffffffffff166349db67f6600a60016040518363ffffffff1660e01b8152600401620000d6929190620005bf565b5f604051808303815f87803b158015620000ee575f80fd5b505af115801562000101573d5f803e3d5ffd5b505050505f8054906101000a900473ffffffffffffffffffffffffffffffffffffffff1673ffffffffffffffffffffffffffffffffffffffff166349db67f6600b60016040518363ffffffff1660e01b8152600401620001639291906200062b565b5f604051808303815f87803b1580156200017b575f80fd5b505af11580156200018e573d5f803e3d5ffd5b505050505f8054906101000a900473ffffffffffffffffffffffffffffffffffffffff1673ffffffffffffffffffffffffffffffffffffffff1663acac250b5f6040518263ffffffff1660e01b8152600401620001ec919062000697565b5f604051808303815f87803b15801562000204575f80fd5b505af115801562000217573d5f803e3d5ffd5b505050503060015f6101000a81548173ffffffffffffffffffffffffffffffffffffffff021916908373ffffffffffffffffffffffffffffffffffffffff16021790555061beef60025f6101000a81548173ffffffffffffffffffffffffffffffffffffffff021916908373ffffffffffffffffffffffffffffffffffffffff16021790555061a00160035f6101000a81548173ffffffffffffffffffffffffffffffffffffffff021916908373ffffffffffffffffffffffffffffffffffffffff16021790555061a00260045f6101000a81548173ffffffffffffffffffffffffffffffffffffffff021916908373ffffffffffffffffffffffffffffffffffffffff16021790555061a00360055f6101000a81548173ffffffffffffffffffffffffffffffffffffffff021916908373ffffffffffffffffffffffffffffffffffffffff1602179055505f8054906101000a900473ffffffffffffffffffffffffffffffffffffffff1673ffffffffffffffffffffffffffffffffffffffff16637d23924a60015f9054906101000a900473ffffffffffffffffffffffffffffffffffffffff1660035f9054906101000a900473ffffffffffffffffffffffffffffffffffffffff16602a671bc16d674ec800006040518563ffffffff1660e01b81526004016200040e949392919062000777565b5f604051808303815f87803b15801562000426575f80fd5b505af115801562000439573d5f803e3d5ffd5b505050505f8054906101000a900473ffffffffffffffffffffffffffffffffffffffff1673ffffffffffffffffffffffffffffffffffffffff16637d23924a60025f9054906101000a900473ffffffffffffffffffffffffffffffffffffffff1660045f9054906101000a900473ffffffffffffffffffffffffffffffffffffffff16602b670de0b6b3a76400006040518563ffffffff1660e01b8152600401620004e8949392919062000844565b5f604051808303815f87803b15801562000500575f80fd5b505af115801562000513573d5f803e3d5ffd5b505050506200088f565b61232780620015dd83390190565b5f819050919050565b5f819050919050565b5f819050919050565b5f62000566620005606200055a846200052b565b6200053d565b62000534565b9050919050565b620005788162000546565b82525050565b5f819050919050565b5f620005a7620005a16200059b846200057e565b6200053d565b62000534565b9050919050565b620005b98162000587565b82525050565b5f604082019050620005d45f8301856200056d565b620005e36020830184620005ae565b9392505050565b5f819050919050565b5f620006136200060d6200060784620005ea565b6200053d565b62000534565b9050919050565b6200062581620005f3565b82525050565b5f604082019050620006405f8301856200061a565b6200064f6020830184620005ae565b9392505050565b5f819050919050565b5f6200067f62000679620006738462000656565b6200053d565b62000534565b9050919050565b62000691816200065f565b82525050565b5f602082019050620006ac5f83018462000686565b92915050565b5f73ffffffffffffffffffffffffffffffffffffffff82169050919050565b5f620006dd82620006b2565b9050919050565b620006ef81620006d1565b82525050565b5f819050919050565b5f6200071e620007186200071284620006f5565b6200053d565b62000534565b9050919050565b6200073081620006fe565b82525050565b5f819050919050565b5f6200075f62000759620007538462000736565b6200053d565b62000534565b9050919050565b62000771816200073f565b82525050565b5f6080820190506200078c5f830187620006e4565b6200079b6020830186620006e4565b620007aa604083018562000725565b620007b9606083018462000766565b95945050505050565b5f819050919050565b5f620007eb620007e5620007df84620007c2565b6200053d565b62000534565b9050919050565b620007fd81620007cb565b82525050565b5f819050919050565b5f6200082c62000826620008208462000803565b6200053d565b62000534565b9050919050565b6200083e816200080c565b82525050565b5f608082019050620008595f830187620006e4565b620008686020830186620006e4565b620008776040830185620007f2565b62000886606083018462000833565b95945050505050565b610d40806200089d5f395ff3fe608060405234801561000f575f80fd5b50600436106100cd575f3560e01c8063493be5651161008a57806399c8db521161006457806399c8db52146101b7578063a235088a146101d5578063b6fd7b28146101df578063cb23bcb5146101fd576100cd565b8063493be5651461015d5780635f88eade1461017b57806361c15b8e14610199576100cd565b806314ab52f7146100d15780631d413c36146100ef5780632a0caf981461010d578063322f0a881461011757806335a56d8714610135578063370f3c3f1461013f575b5f80fd5b6100d961021b565b6040516100e691906108d0565b60405180910390f35b6100f7610240565b6040516101049190610903565b60405180910390f35b610115610335565b005b61011f61050e565b60405161012c91906108d0565b60405180910390f35b61013d610533565b005b610147610621565b60405161015491906108d0565b60405180910390f35b610165610646565b60405161017291906108d0565b60405180910390f35b61018361066b565b6040516101909190610903565b60405180910390f35b6101a161067e565b6040516101ae9190610903565b60405180910390f35b6101bf610745565b6040516101cc91906108d0565b60405180910390f35b6101dd61076a565b005b6101e7610849565b6040516101f491906108d0565b60405180910390f35b61020561086e565b6040516102129190610977565b60405180910390f35b60025f9054906101000a900473ffffffffffffffffffffffffffffffffffffffff1681565b5f805f8054906101000a900473ffffffffffffffffffffffffffffffffffffffff1673ffffffffffffffffffffffffffffffffffffffff16639168ae7260045f9054906101000a900473ffffffffffffffffffffffffffffffffffffffff166040518263ffffffff1660e01b81526004016102bb91906108d0565b60a060405180830381865afa1580156102d6573d5f803e3d5ffd5b505050506040513d601f19601f820116820180604052508101906102fa9190610a1b565b9450505050505f73ffffffffffffffffffffffffffffffffffffffff168173ffffffffffffffffffffffffffffffffffffffff161491505090565b600660149054906101000a900460ff1661050c575f604051806040016040528060025f9054906101000a900473ffffffffffffffffffffffffffffffffffffffff1673ffffffffffffffffffffffffffffffffffffffff1673ffffffffffffffffffffffffffffffffffffffff16815260200160015f9054906101000a900473ffffffffffffffffffffffffffffffffffffffff1673ffffffffffffffffffffffffffffffffffffffff1673ffffffffffffffffffffffffffffffffffffffff1681525090505f6040518060400160405280600a8152602001600b81525090505f8054906101000a900473ffffffffffffffffffffffffffffffffffffffff1673ffffffffffffffffffffffffffffffffffffffff16632f06d1b083836040518363ffffffff1660e01b815260040161046f929190610bdc565b6020604051808303815f875af115801561048b573d5f803e3d5ffd5b505050506040513d601f19601f820116820180604052508101906104af9190610c03565b60065f6101000a81548173ffffffffffffffffffffffffffffffffffffffff021916908373ffffffffffffffffffffffffffffffffffffffff1602179055506001600660146101000a81548160ff02191690831515021790555050505b565b60055f9054906101000a900473ffffffffffffffffffffffffffffffffffffffff1681565b600660149054906101000a900460ff161561061f575f8054906101000a900473ffffffffffffffffffffffffffffffffffffffff1673ffffffffffffffffffffffffffffffffffffffff16637d23924a60065f9054906101000a900473ffffffffffffffffffffffffffffffffffffffff1660055f9054906101000a900473ffffffffffffffffffffffffffffffffffffffff166063670de0b6b3a76400006040518563ffffffff1660e01b81526004016105f19493929190610ca0565b5f604051808303815f87803b158015610608575f80fd5b505af115801561061a573d5f803e3d5ffd5b505050505b565b60045f9054906101000a900473ffffffffffffffffffffffffffffffffffffffff1681565b60035f9054906101000a900473ffffffffffffffffffffffffffffffffffffffff1681565b600660149054906101000a900460ff1681565b5f805f8054906101000a900473ffffffffffffffffffffffffffffffffffffffff1673ffffffffffffffffffffffffffffffffffffffff16639168ae7260045f9054906101000a900473ffffffffffffffffffffffffffffffffffffffff166040518263ffffffff1660e01b81526004016106f991906108d0565b60a060405180830381865afa158015610714573d5f803e3d5ffd5b505050506040513d601f19601f820116820180604052508101906107389190610a1b565b5050505090508091505090565b60015f9054906101000a900473ffffffffffffffffffffffffffffffffffffffff1681565b600660149054906101000a900460ff16156108475760065f9054906101000a900473ffffffffffffffffffffffffffffffffffffffff1673ffffffffffffffffffffffffffffffffffffffff16639db32a8f60015f9054906101000a900473ffffffffffffffffffffffffffffffffffffffff1660025f9054906101000a900473ffffffffffffffffffffffffffffffffffffffff166040518363ffffffff1660e01b815260040161081d929190610ce3565b5f604051808303815f87803b158015610834575f80fd5b505af1925050508015610845575060015b505b565b60065f9054906101000a900473ffffffffffffffffffffffffffffffffffffffff1681565b5f8054906101000a900473ffffffffffffffffffffffffffffffffffffffff1681565b5f73ffffffffffffffffffffffffffffffffffffffff82169050919050565b5f6108ba82610891565b9050919050565b6108ca816108b0565b82525050565b5f6020820190506108e35f8301846108c1565b92915050565b5f8115159050919050565b6108fd816108e9565b82525050565b5f6020820190506109165f8301846108f4565b92915050565b5f819050919050565b5f61093f61093a61093584610891565b61091c565b610891565b9050919050565b5f61095082610925565b9050919050565b5f61096182610946565b9050919050565b61097181610957565b82525050565b5f60208201905061098a5f830184610968565b92915050565b5f80fd5b61099d816108e9565b81146109a7575f80fd5b50565b5f815190506109b881610994565b92915050565b5f819050919050565b6109d0816109be565b81146109da575f80fd5b50565b5f815190506109eb816109c7565b92915050565b6109fa816108b0565b8114610a04575f80fd5b50565b5f81519050610a15816109f1565b92915050565b5f805f805f60a08688031215610a3457610a33610990565b5b5f610a41888289016109aa565b9550506020610a52888289016109dd565b9450506040610a63888289016109dd565b9350506060610a7488828901610a07565b9250506080610a8588828901610a07565b9150509295509295909350565b5f60029050919050565b5f81905092915050565b5f819050919050565b610ab8816108b0565b82525050565b5f610ac98383610aaf565b60208301905092915050565b5f602082019050919050565b610aea81610a92565b610af48184610a9c565b9250610aff82610aa6565b805f5b83811015610b2f578151610b168782610abe565b9650610b2183610ad5565b925050600181019050610b02565b505050505050565b5f60029050919050565b5f81905092915050565b5f819050919050565b610b5d816109be565b82525050565b5f610b6e8383610b54565b60208301905092915050565b5f602082019050919050565b610b8f81610b37565b610b998184610b41565b9250610ba482610b4b565b805f5b83811015610bd4578151610bbb8782610b63565b9650610bc683610b7a565b925050600181019050610ba7565b505050505050565b5f608082019050610bef5f830185610ae1565b610bfc6040830184610b86565b9392505050565b5f60208284031215610c1857610c17610990565b5b5f610c2584828501610a07565b91505092915050565b5f819050919050565b5f610c51610c4c610c4784610c2e565b61091c565b6109be565b9050919050565b610c6181610c37565b82525050565b5f819050919050565b5f610c8a610c85610c8084610c67565b61091c565b6109be565b9050919050565b610c9a81610c70565b82525050565b5f608082019050610cb35f8301876108c1565b610cc060208301866108c1565b610ccd6040830185610c58565b610cda6060830184610c91565b95945050505050565b5f604082019050610cf65f8301856108c1565b610d0360208301846108c1565b939250505056fea26469706673582212206949fb123f3e22e570630ec677be48f837f60d0dfa6fd23eb710edc0e6064a5d64736f6c634300081800336080604052670de0b6b3a764000060045534801561001b575f80fd5b506122fe806100295f395ff3fe608060405234801562000010575f80fd5b5060043610620000e0575f3560e01c80637112955911620000975780639168ae72116200006d5780639168ae721462000267578063a56ba93b14620002a1578063acac250b14620002c3578063fa7803e614620002e357620000e0565b80637112955914620001ef5780637d23924a146200021157806384b4a796146200023157620000e0565b80630e456acf14620000e4578063107035a4146200010b5780632f06d1b0146200012d5780632f30cabd146200016357806349db67f614620001995780636aabc35014620001b9575b5f80fd5b620000ee62000303565b604051620001029695949392919062001612565b60405180910390f35b6200011562000395565b6040516200012491906200167d565b60405180910390f35b6200014b6004803603810190620001459190620016e8565b6200039b565b6040516200015a91906200172d565b60405180910390f35b6200018160048036038101906200017b919062001777565b62000a4b565b6040516200019091906200167d565b60405180910390f35b620001b76004803603810190620001b19190620017d6565b62000a60565b005b620001d76004803603810190620001d1919062001777565b62000a8d565b604051620001e691906200172d565b60405180910390f35b620001f962000abd565b6040516200020891906200167d565b60405180910390f35b6200022f60048036038101906200022991906200181b565b62000ac3565b005b6200024f60048036038101906200024991906200188a565b62000c96565b6040516200025e91906200167d565b60405180910390f35b6200028560048036038101906200027f919062001777565b62000cab565b60405162000298959493929190620018ba565b60405180910390f35b620002ab62000d26565b604051620002ba91906200167d565b60405180910390f35b620002e16004803603810190620002db91906200188a565b62000d2c565b005b620003016004803603810190620002fb919062001915565b62000d36565b005b6007805f015f9054906101000a900460ff1690805f0160019054906101000a900473ffffffffffffffffffffffffffffffffffffffff1690806001015f9054906101000a900473ffffffffffffffffffffffffffffffffffffffff1690806002015f9054906101000a900473ffffffffffffffffffffffffffffffffffffffff16908060030154908060040154905086565b60055481565b5f8073ffffffffffffffffffffffffffffffffffffffff1660015f3373ffffffffffffffffffffffffffffffffffffffff1673ffffffffffffffffffffffffffffffffffffffff1681526020019081526020015f205f9054906101000a900473ffffffffffffffffffffffffffffffffffffffff1673ffffffffffffffffffffffffffffffffffffffff160362000469576040517f08c379a00000000000000000000000000000000000000000000000000000000081526004016200046090620019b8565b60405180910390fd5b5f825f6002811062000480576200047f620019d8565b5b602002013590505f836001600281106200049f576200049e620019d8565b5b60200201359050808210620004eb576040517f08c379a0000000000000000000000000000000000000000000000000000000008152600401620004e29062001a53565b60405180910390fd5b60055481111562000533576040517f08c379a00000000000000000000000000000000000000000000000000000000081526004016200052a9062001ac1565b60405180910390fd5b81600654106200057a576040517f08c379a0000000000000000000000000000000000000000000000000000000008152600401620005719062001b2f565b60405180910390fd5b5f60025f8481526020019081526020015f2054905060025f8381526020019081526020015f20548114620005e5576040517f08c379a0000000000000000000000000000000000000000000000000000000008152600401620005dc9062001b9d565b60405180910390fd5b5f865f60028110620005fc57620005fb620019d8565b5b60200201602081019062000611919062001777565b90505f876001600281106200062b576200062a620019d8565b5b60200201602081019062000640919062001777565b90508073ffffffffffffffffffffffffffffffffffffffff168273ffffffffffffffffffffffffffffffffffffffff1603620006b3576040517f08c379a0000000000000000000000000000000000000000000000000000000008152600401620006aa9062001c31565b60405180910390fd5b5f60015f8473ffffffffffffffffffffffffffffffffffffffff1673ffffffffffffffffffffffffffffffffffffffff1681526020019081526020015f205f9054906101000a900473ffffffffffffffffffffffffffffffffffffffff1690505f60015f8473ffffffffffffffffffffffffffffffffffffffff1673ffffffffffffffffffffffffffffffffffffffff1681526020019081526020015f205f9054906101000a900473ffffffffffffffffffffffffffffffffffffffff1690506200077e8262001271565b620007898162001271565b5f3060405162000799906200158b565b620007a591906200172d565b604051809103905ff080158015620007bf573d5f803e3d5ffd5b5090505f819050805f808573ffffffffffffffffffffffffffffffffffffffff1673ffffffffffffffffffffffffffffffffffffffff1681526020019081526020015f206004015f6101000a81548173ffffffffffffffffffffffffffffffffffffffff021916908373ffffffffffffffffffffffffffffffffffffffff160217905550805f808673ffffffffffffffffffffffffffffffffffffffff1673ffffffffffffffffffffffffffffffffffffffff1681526020019081526020015f206004015f6101000a81548173ffffffffffffffffffffffffffffffffffffffff021916908373ffffffffffffffffffffffffffffffffffffffff1602179055506040518060c001604052805f151581526020018273ffffffffffffffffffffffffffffffffffffffff1681526020018773ffffffffffffffffffffffffffffffffffffffff1681526020018673ffffffffffffffffffffffffffffffffffffffff1681526020018a81526020018981525060075f820151815f015f6101000a81548160ff0219169083151502179055506020820151815f0160016101000a81548173ffffffffffffffffffffffffffffffffffffffff021916908373ffffffffffffffffffffffffffffffffffffffff1602179055506040820151816001015f6101000a81548173ffffffffffffffffffffffffffffffffffffffff021916908373ffffffffffffffffffffffffffffffffffffffff1602179055506060820151816002015f6101000a81548173ffffffffffffffffffffffffffffffffffffffff021916908373ffffffffffffffffffffffffffffffffffffffff1602179055506080820151816003015560a0820151816004015590505080995050505050505050505092915050565b6003602052805f5260405f205f915090505481565b8060025f8481526020019081526020015f208190555060055482111562000a8957816005819055505b5050565b6001602052805f5260405f205f915054906101000a900473ffffffffffffffffffffffffffffffffffffffff1681565b60045481565b8260015f8673ffffffffffffffffffffffffffffffffffffffff1673ffffffffffffffffffffffffffffffffffffffff1681526020019081526020015f205f6101000a81548173ffffffffffffffffffffffffffffffffffffffff021916908373ffffffffffffffffffffffffffffffffffffffff1602179055506040518060a001604052806001151581526020018281526020018381526020018573ffffffffffffffffffffffffffffffffffffffff1681526020015f73ffffffffffffffffffffffffffffffffffffffff168152505f808573ffffffffffffffffffffffffffffffffffffffff1673ffffffffffffffffffffffffffffffffffffffff1681526020019081526020015f205f820151815f015f6101000a81548160ff02191690831515021790555060208201518160010155604082015181600201556060820151816003015f6101000a81548173ffffffffffffffffffffffffffffffffffffffff021916908373ffffffffffffffffffffffffffffffffffffffff1602179055506080820151816004015f6101000a81548173ffffffffffffffffffffffffffffffffffffffff021916908373ffffffffffffffffffffffffffffffffffffffff16021790555090505050505050565b6002602052805f5260405f205f915090505481565b5f602052805f5260405f205f91509050805f015f9054906101000a900460ff1690806001015490806002015490806003015f9054906101000a900473ffffffffffffffffffffffffffffffffffffffff1690806004015f9054906101000a900473ffffffffffffffffffffffffffffffffffffffff16905085565b60065481565b8060068190555050565b5f73ffffffffffffffffffffffffffffffffffffffff1660015f3373ffffffffffffffffffffffffffffffffffffffff1673ffffffffffffffffffffffffffffffffffffffff1681526020019081526020015f205f9054906101000a900473ffffffffffffffffffffffffffffffffffffffff1673ffffffffffffffffffffffffffffffffffffffff160362000e03576040517f08c379a000000000000000000000000000000000000000000000000000000000815260040162000dfa90620019b8565b60405180910390fd5b5f60015f8473ffffffffffffffffffffffffffffffffffffffff1673ffffffffffffffffffffffffffffffffffffffff1681526020019081526020015f205f9054906101000a900473ffffffffffffffffffffffffffffffffffffffff1690505f60015f8473ffffffffffffffffffffffffffffffffffffffff1673ffffffffffffffffffffffffffffffffffffffff1681526020019081526020015f205f9054906101000a900473ffffffffffffffffffffffffffffffffffffffff16905062000ece816200134e565b5f62000edb8383620013de565b90508073ffffffffffffffffffffffffffffffffffffffff163373ffffffffffffffffffffffffffffffffffffffff161462000f4e576040517f08c379a000000000000000000000000000000000000000000000000000000000815260040162000f459062001c9f565b60405180910390fd5b5f805f8473ffffffffffffffffffffffffffffffffffffffff1673ffffffffffffffffffffffffffffffffffffffff1681526020019081526020015f206001015490505f6004548211156200100c576004548262000fad919062001cec565b60035f8673ffffffffffffffffffffffffffffffffffffffff1673ffffffffffffffffffffffffffffffffffffffff1681526020019081526020015f205f82825462000ffa919062001d26565b92505081905550600454905062001010565b8190505b805f808773ffffffffffffffffffffffffffffffffffffffff1673ffffffffffffffffffffffffffffffffffffffff1681526020019081526020015f206001015f82825462001060919062001d26565b925050819055505f805f8773ffffffffffffffffffffffffffffffffffffffff1673ffffffffffffffffffffffffffffffffffffffff1681526020019081526020015f206004015f6101000a81548173ffffffffffffffffffffffffffffffffffffffff021916908373ffffffffffffffffffffffffffffffffffffffff16021790555060015f805f8773ffffffffffffffffffffffffffffffffffffffff1673ffffffffffffffffffffffffffffffffffffffff1681526020019081526020015f206003015f9054906101000a900473ffffffffffffffffffffffffffffffffffffffff1673ffffffffffffffffffffffffffffffffffffffff1673ffffffffffffffffffffffffffffffffffffffff1681526020019081526020015f205f6101000a81549073ffffffffffffffffffffffffffffffffffffffff02191690555f808573ffffffffffffffffffffffffffffffffffffffff1673ffffffffffffffffffffffffffffffffffffffff1681526020019081526020015f205f8082015f6101000a81549060ff0219169055600182015f9055600282015f9055600382015f6101000a81549073ffffffffffffffffffffffffffffffffffffffff0219169055600482015f6101000a81549073ffffffffffffffffffffffffffffffffffffffff02191690555050600160075f015f6101000a81548160ff02191690831515021790555050505050505050565b6200127c816200134e565b5f73ffffffffffffffffffffffffffffffffffffffff165f808373ffffffffffffffffffffffffffffffffffffffff1673ffffffffffffffffffffffffffffffffffffffff1681526020019081526020015f206004015f9054906101000a900473ffffffffffffffffffffffffffffffffffffffff1673ffffffffffffffffffffffffffffffffffffffff16146200134b576040517f08c379a0000000000000000000000000000000000000000000000000000000008152600401620013429062001dae565b60405180910390fd5b50565b5f808273ffffffffffffffffffffffffffffffffffffffff1673ffffffffffffffffffffffffffffffffffffffff1681526020019081526020015f205f015f9054906101000a900460ff16620013db576040517f08c379a0000000000000000000000000000000000000000000000000000000008152600401620013d29062001e1c565b60405180910390fd5b50565b5f805f808573ffffffffffffffffffffffffffffffffffffffff1673ffffffffffffffffffffffffffffffffffffffff1681526020019081526020015f206004015f9054906101000a900473ffffffffffffffffffffffffffffffffffffffff1690505f73ffffffffffffffffffffffffffffffffffffffff168173ffffffffffffffffffffffffffffffffffffffff1603620014b2576040517f08c379a0000000000000000000000000000000000000000000000000000000008152600401620014a99062001e8a565b60405180910390fd5b5f808473ffffffffffffffffffffffffffffffffffffffff1673ffffffffffffffffffffffffffffffffffffffff1681526020019081526020015f206004015f9054906101000a900473ffffffffffffffffffffffffffffffffffffffff1673ffffffffffffffffffffffffffffffffffffffff168173ffffffffffffffffffffffffffffffffffffffff161462001581576040517f08c379a0000000000000000000000000000000000000000000000000000000008152600401620015789062001ef8565b60405180910390fd5b8091505092915050565b6103b08062001f1983390190565b5f8115159050919050565b620015af8162001599565b82525050565b5f73ffffffffffffffffffffffffffffffffffffffff82169050919050565b5f620015e082620015b5565b9050919050565b620015f281620015d4565b82525050565b5f819050919050565b6200160c81620015f8565b82525050565b5f60c082019050620016275f830189620015a4565b620016366020830188620015e7565b620016456040830187620015e7565b620016546060830186620015e7565b62001663608083018562001601565b6200167260a083018462001601565b979650505050505050565b5f602082019050620016925f83018462001601565b92915050565b5f80fd5b5f80fd5b5f81905082602060020282011115620016be57620016bd6200169c565b5b92915050565b5f81905082602060020282011115620016e257620016e16200169c565b5b92915050565b5f806080838503121562001701576200170062001698565b5b5f6200171085828601620016a0565b92505060406200172385828601620016c4565b9150509250929050565b5f602082019050620017425f830184620015e7565b92915050565b6200175381620015d4565b81146200175e575f80fd5b50565b5f81359050620017718162001748565b92915050565b5f602082840312156200178f576200178e62001698565b5b5f6200179e8482850162001761565b91505092915050565b620017b281620015f8565b8114620017bd575f80fd5b50565b5f81359050620017d081620017a7565b92915050565b5f8060408385031215620017ef57620017ee62001698565b5b5f620017fe85828601620017c0565b92505060206200181185828601620017c0565b9150509250929050565b5f805f806080858703121562001836576200183562001698565b5b5f620018458782880162001761565b9450506020620018588782880162001761565b93505060406200186b87828801620017c0565b92505060606200187e87828801620017c0565b91505092959194509250565b5f60208284031215620018a257620018a162001698565b5b5f620018b184828501620017c0565b91505092915050565b5f60a082019050620018cf5f830188620015a4565b620018de602083018762001601565b620018ed604083018662001601565b620018fc6060830185620015e7565b6200190b6080830184620015e7565b9695505050505050565b5f80604083850312156200192e576200192d62001698565b5b5f6200193d8582860162001761565b9250506020620019508582860162001761565b9150509250929050565b5f82825260208201905092915050565b7f4e6f744f70657261746f720000000000000000000000000000000000000000005f82015250565b5f620019a0600b836200195a565b9150620019ad826200196a565b602082019050919050565b5f6020820190508181035f830152620019d18162001992565b9050919050565b7f4e487b71000000000000000000000000000000000000000000000000000000005f52603260045260245ffd5b7f57726f6e674f72646572000000000000000000000000000000000000000000005f82015250565b5f62001a3b600a836200195a565b915062001a488262001a05565b602082019050919050565b5f6020820190508181035f83015262001a6c8162001a2d565b9050919050565b7f556e70726f706f736564417373657274696f6e000000000000000000000000005f82015250565b5f62001aa96013836200195a565b915062001ab68262001a73565b602082019050919050565b5f6020820190508181035f83015262001ada8162001a9b565b9050919050565b7f417373657274696f6e416c72656164795265736f6c76656400000000000000005f82015250565b5f62001b176018836200195a565b915062001b248262001ae1565b602082019050919050565b5f6020820190508181035f83015262001b488162001b09565b9050919050565b7f446966666572656e74506172656e7400000000000000000000000000000000005f82015250565b5f62001b85600f836200195a565b915062001b928262001b4f565b602082019050919050565b5f6020820190508181035f83015262001bb68162001b77565b9050919050565b7f646566656e64657220616e64206368616c6c656e6765206d757374206e6f74205f8201527f657175616c000000000000000000000000000000000000000000000000000000602082015250565b5f62001c196025836200195a565b915062001c268262001bbd565b604082019050919050565b5f6020820190508181035f83015262001c4a8162001c0b565b9050919050565b7f4e6f744368616c6c656e676500000000000000000000000000000000000000005f82015250565b5f62001c87600c836200195a565b915062001c948262001c51565b602082019050919050565b5f6020820190508181035f83015262001cb88162001c79565b9050919050565b7f4e487b71000000000000000000000000000000000000000000000000000000005f52601160045260245ffd5b5f62001cf882620015f8565b915062001d0583620015f8565b925082820390508181111562001d205762001d1f62001cbf565b5b92915050565b5f62001d3282620015f8565b915062001d3f83620015f8565b925082820190508082111562001d5a5762001d5962001cbf565b5b92915050565b7f4368616c6c656e6765645374616b6572000000000000000000000000000000005f82015250565b5f62001d966010836200195a565b915062001da38262001d60565b602082019050919050565b5f6020820190508181035f83015262001dc78162001d88565b9050919050565b7f4e6f745374616b656400000000000000000000000000000000000000000000005f82015250565b5f62001e046009836200195a565b915062001e118262001dce565b602082019050919050565b5f6020820190508181035f83015262001e358162001df6565b9050919050565b7f4e6f74496e4368616c6c656e67650000000000000000000000000000000000005f82015250565b5f62001e72600e836200195a565b915062001e7f8262001e3c565b602082019050919050565b5f6020820190508181035f83015262001ea38162001e64565b9050919050565b7f496e446966666572656e744368616c6c656e67650000000000000000000000005f82015250565b5f62001ee06014836200195a565b915062001eed8262001eaa565b602082019050919050565b5f6020820190508181035f83015262001f118162001ed2565b905091905056fe60a060405234801561000f575f80fd5b506040516103b03803806103b0833981810160405281019061003191906100c9565b8073ffffffffffffffffffffffffffffffffffffffff1660808173ffffffffffffffffffffffffffffffffffffffff1681525050506100f4565b5f80fd5b5f73ffffffffffffffffffffffffffffffffffffffff82169050919050565b5f6100988261006f565b9050919050565b6100a88161008e565b81146100b2575f80fd5b50565b5f815190506100c38161009f565b92915050565b5f602082840312156100de576100dd61006b565b5b5f6100eb848285016100b5565b91505092915050565b60805161029e6101125f395f818160740152610100015261029e5ff3fe608060405234801561000f575f80fd5b5060043610610034575f3560e01c80639db32a8f14610038578063cb23bcb514610054575b5f80fd5b610052600480360381019061004d9190610180565b610072565b005b61005c6100fe565b6040516100699190610219565b60405180910390f35b7f000000000000000000000000000000000000000000000000000000000000000073ffffffffffffffffffffffffffffffffffffffff1663fa7803e683836040518363ffffffff1660e01b81526004016100cd929190610241565b5f604051808303815f87803b1580156100e4575f80fd5b505af11580156100f6573d5f803e3d5ffd5b505050505050565b7f000000000000000000000000000000000000000000000000000000000000000081565b5f80fd5b5f73ffffffffffffffffffffffffffffffffffffffff82169050919050565b5f61014f82610126565b9050919050565b61015f81610145565b8114610169575f80fd5b50565b5f8135905061017a81610156565b92915050565b5f806040838503121561019657610195610122565b5b5f6101a38582860161016c565b92505060206101b48582860161016c565b9150509250929050565b5f819050919050565b5f6101e16101dc6101d784610126565b6101be565b610126565b9050919050565b5f6101f2826101c7565b9050919050565b5f610203826101e8565b9050919050565b610213816101f9565b82525050565b5f60208201905061022c5f83018461020a565b92915050565b61023b81610145565b82525050565b5f6040820190506102545f830185610232565b6102616020830184610232565b939250505056fea2646970667358221220aefe0e8eb037370df5d72eac193e34389430de62f759b45f693b524f653b2c0d64736f6c63430008180033a264697066735822122074770d5d5f12fa73c91ad48f3065634fcefe3c6285041daf78cf99dfc865dd2464736f6c63430008180033","linkReferences":{}},"methodIdentifiers":{"action_open_mismatched_challenge()":"2a0caf98","action_register_challenge_operator()":"35a56d87","action_settle()":"a235088a","attackerOperator()":"99c8db52","attackerStaker()":"493be565","challengeAddr()":"b6fd7b28","echidna_victim_not_forced_into_unrelated_challenge()":"1d413c36","echidna_victim_not_slashed_by_unrelated_assertions()":"61c15b8e","opened()":"5f88eade","rollup()":"cb23bcb5","syntheticChallengeStaker()":"322f0a88","victimOperator()":"14ab52f7","victimStaker()":"370f3c3f"},"storageLayout":{"storage":[{"astId":8,"contract":"src/EchidnaF4ChallengeBindingHarness.sol:EchidnaF4ChallengeBindingHarness","label":"rollup","offset":0,"slot":"0","type":"t_contract(ChallengeBindingRollupHarness)717"},{"astId":10,"contract":"src/EchidnaF4ChallengeBindingHarness.sol:EchidnaF4ChallengeBindingHarness","label":"attackerOperator","offset":0,"slot":"1","type":"t_address"},{"astId":12,"contract":"src/EchidnaF4ChallengeBindingHarness.sol:EchidnaF4ChallengeBindingHarness","label":"victimOperator","offset":0,"slot":"2","type":"t_address"},{"astId":14,"contract":"src/EchidnaF4ChallengeBindingHarness.sol:EchidnaF4ChallengeBindingHarness","label":"attackerStaker","offset":0,"slot":"3","type":"t_address"},{"astId":16,"contract":"src/EchidnaF4ChallengeBindingHarness.sol:EchidnaF4ChallengeBindingHarness","label":"victimStaker","offset":0,"slot":"4","type":"t_address"},{"astId":18,"contract":"src/EchidnaF4ChallengeBindingHarness.sol:EchidnaF4ChallengeBindingHarness","label":"syntheticChallengeStaker","offset":0,"slot":"5","type":"t_address"},{"astId":20,"contract":"src/EchidnaF4ChallengeBindingHarness.sol:EchidnaF4ChallengeBindingHarness","label":"challengeAddr","offset":0,"slot":"6","type":"t_address"},{"astId":22,"contract":"src/EchidnaF4ChallengeBindingHarness.sol:EchidnaF4ChallengeBindingHarness","label":"opened","offset":20,"slot":"6","type":"t_bool"}],"types":{"t_address":{"encoding":"inplace","label":"address","numberOfBytes":"20"},"t_bool":{"encoding":"inplace","label":"bool","numberOfBytes":"1"},"t_contract(ChallengeBindingRollupHarness)717":{"encoding":"inplace","label":"contract ChallengeBindingRollupHarness","numberOfBytes":"20"}}},"id":0}