{"abi":[{"type":"constructor","inputs":[],"stateMutability":"nonpayable"},{"type":"function","name":"action_attacker_poison_genesis","inputs":[],"outputs":[],"stateMutability":"nonpayable"},{"type":"function","name":"attacker","inputs":[],"outputs":[{"name":"","type":"address","internalType":"contract LineaReinitDosAttacker"}],"stateMutability":"view"},{"type":"function","name":"property_genesis_submission_path_remains_valid","inputs":[],"outputs":[{"name":"","type":"bool","internalType":"bool"}],"stateMutability":"view"},{"type":"function","name":"proxy","inputs":[],"outputs":[{"name":"","type":"address","internalType":"contract LineaF1SimpleProxy"}],"stateMutability":"view"},{"type":"function","name":"rollup","inputs":[],"outputs":[{"name":"","type":"address","internalType":"contract ILineaRollupLike"}],"stateMutability":"view"}],"bytecode":{"object":"0x608060405234801561000f575f80fd5b505f60405161001d90610280565b604051809103905ff080158015610036573d5f803e3d5ffd5b509050306040516100469061028e565b61005091906102e9565b604051809103905ff080158015610069573d5f803e3d5ffd5b505f806101000a81548173ffffffffffffffffffffffffffffffffffffffff021916908373ffffffffffffffffffffffffffffffffffffffff1602179055505f8054906101000a900473ffffffffffffffffffffffffffffffffffffffff1673ffffffffffffffffffffffffffffffffffffffff16633659cfe6826040518263ffffffff1660e01b815260040161010091906102e9565b5f604051808303815f87803b158015610117575f80fd5b505af1158015610129573d5f803e3d5ffd5b505050505f8054906101000a900473ffffffffffffffffffffffffffffffffffffffff1660015f6101000a81548173ffffffffffffffffffffffffffffffffffffffff021916908373ffffffffffffffffffffffffffffffffffffffff16021790555060015f9054906101000a900473ffffffffffffffffffffffffffffffffffffffff1673ffffffffffffffffffffffffffffffffffffffff1663da35a26f5f306040518363ffffffff1660e01b81526004016101e892919061034d565b5f604051808303815f87803b1580156101ff575f80fd5b505af1158015610211573d5f803e3d5ffd5b505050506040516102219061029c565b604051809103905ff08015801561023a573d5f803e3d5ffd5b5060025f6101000a81548173ffffffffffffffffffffffffffffffffffffffff021916908373ffffffffffffffffffffffffffffffffffffffff16021790555050610374565b610b07806200099883390190565b610532806200149f83390190565b61055c80620019d183390190565b5f73ffffffffffffffffffffffffffffffffffffffff82169050919050565b5f6102d3826102aa565b9050919050565b6102e3816102c9565b82525050565b5f6020820190506102fc5f8301846102da565b92915050565b5f819050919050565b5f819050919050565b5f819050919050565b5f61033761033261032d84610302565b610314565b61030b565b9050919050565b6103478161031d565b82525050565b5f6040820190506103605f83018561033e565b61036d60208301846102da565b9392505050565b61061680620003825f395ff3fe608060405234801561000f575f80fd5b5060043610610055575f3560e01c806348eb76ee14610059578063c4e2d3b214610077578063cb23bcb514610095578063ec556889146100b3578063fbbad670146100d1575b5f80fd5b6100616100db565b60405161006e919061039b565b60405180910390f35b61007f610100565b60405161008c91906103ce565b60405180910390f35b61009d610231565b6040516100aa9190610407565b60405180910390f35b6100bb610256565b6040516100c89190610451565b60405180910390f35b6100d9610279565b005b60025f9054906101000a900473ffffffffffffffffffffffffffffffffffffffff1681565b5f60015f9054906101000a900473ffffffffffffffffffffffffffffffffffffffff1673ffffffffffffffffffffffffffffffffffffffff166396ddb53560015f9054906101000a900473ffffffffffffffffffffffffffffffffffffffff1673ffffffffffffffffffffffffffffffffffffffff1663e97a1e9e6040518163ffffffff1660e01b8152600401602060405180830381865afa1580156101a8573d5f803e3d5ffd5b505050506040513d601f19601f820116820180604052508101906101cc91906104a1565b6001806040518463ffffffff1660e01b81526004016101ed9392919061051d565b602060405180830381865afa158015610208573d5f803e3d5ffd5b505050506040513d601f19601f8201168201806040525081019061022c919061057c565b905090565b60015f9054906101000a900473ffffffffffffffffffffffffffffffffffffffff1681565b5f8054906101000a900473ffffffffffffffffffffffffffffffffffffffff1681565b60025f9054906101000a900473ffffffffffffffffffffffffffffffffffffffff1673ffffffffffffffffffffffffffffffffffffffff16632dbb10735f8054906101000a900473ffffffffffffffffffffffffffffffffffffffff166040518263ffffffff1660e01b81526004016102f291906105c7565b5f604051808303815f87803b158015610309575f80fd5b505af115801561031b573d5f803e3d5ffd5b50505050565b5f73ffffffffffffffffffffffffffffffffffffffff82169050919050565b5f819050919050565b5f61036361035e61035984610321565b610340565b610321565b9050919050565b5f61037482610349565b9050919050565b5f6103858261036a565b9050919050565b6103958161037b565b82525050565b5f6020820190506103ae5f83018461038c565b92915050565b5f8115159050919050565b6103c8816103b4565b82525050565b5f6020820190506103e15f8301846103bf565b92915050565b5f6103f18261036a565b9050919050565b610401816103e7565b82525050565b5f60208201905061041a5f8301846103f8565b92915050565b5f61042a82610349565b9050919050565b5f61043b82610420565b9050919050565b61044b81610431565b82525050565b5f6020820190506104645f830184610442565b92915050565b5f80fd5b5f819050919050565b6104808161046e565b811461048a575f80fd5b50565b5f8151905061049b81610477565b92915050565b5f602082840312156104b6576104b561046a565b5b5f6104c38482850161048d565b91505092915050565b6104d58161046e565b82525050565b5f819050919050565b5f819050919050565b5f6105076105026104fd846104db565b610340565b6104e4565b9050919050565b610517816104ed565b82525050565b5f6060820190506105305f8301866104cc565b61053d602083018561050e565b61054a604083018461050e565b949350505050565b61055b816103b4565b8114610565575f80fd5b50565b5f8151905061057681610552565b92915050565b5f602082840312156105915761059061046a565b5b5f61059e84828501610568565b91505092915050565b5f6105b182610321565b9050919050565b6105c1816105a7565b82525050565b5f6020820190506105da5f8301846105b8565b9291505056fea264697066735822122001d4d148566a3cc1084d3592838e2214205b105300c56e3f9a9e05fe35490f1f64736f6c63430008180033608060405234801561000f575f80fd5b5061001e61002360201b60201c565b610041565b60ff600360146101000a81548160ff021916908360ff160217905550565b610ab98061004e5f395ff3fe608060405234801561000f575f80fd5b5060043610610091575f3560e01c8063921b278e11610064578063921b278e1461010957806396ddb53514610127578063da35a26f14610157578063e97a1e9e14610173578063f93e98571461019157610091565b8063570ca73514610095578063695378f5146100b35780638116d995146100d15780638a8ac469146100ed575b5f80fd5b61009d6101c1565b6040516100aa919061067b565b60405180910390f35b6100bb6101e6565b6040516100c891906106ac565b60405180910390f35b6100eb60048036038101906100e69190610783565b6101ec565b005b6101076004803603810190610102919061085e565b61032e565b005b610111610414565b60405161011e91906108bd565b60405180910390f35b610141600480360381019061013c919061085e565b61041a565b60405161014e91906108f0565b60405180910390f35b610171600480360381019061016c9190610933565b610442565b005b61017b61058f565b60405161018891906108bd565b60405180910390f35b6101ab60048036038101906101a69190610971565b6105e9565b6040516101b891906106ac565b60405180910390f35b60035f9054906101000a900473ffffffffffffffffffffffffffffffffffffffff1681565b60015481565b60058060ff16600360149054906101000a900460ff1660ff161061023c576040517f0dc149f000000000000000000000000000000000000000000000000000000000815260040160405180910390fd5b80600360146101000a81548160ff021916908360ff160217905550828290508585905014610296576040517f1df89e8b00000000000000000000000000000000000000000000000000000000815260040160405180910390fd5b5f5b858590508110156102f7578383828181106102b6576102b561099c565b5b905060200201355f808888858181106102d2576102d161099c565b5b9050602002013581526020019081526020015f20819055508080600101915050610298565b5060015460405160200161030b91906106ac565b604051602081830303815290604052805190602001206002819055505050505050565b60035f9054906101000a900473ffffffffffffffffffffffffffffffffffffffff1673ffffffffffffffffffffffffffffffffffffffff163373ffffffffffffffffffffffffffffffffffffffff16146103b4576040517f82b4290000000000000000000000000000000000000000000000000000000000815260040160405180910390fd5b6103d25f808581526020019081526020015f205460015484846105fd565b610408576040517ff956cee400000000000000000000000000000000000000000000000000000000815260040160405180910390fd5b80600181905550505050565b60025481565b5f6104395f808681526020019081526020015f205460015485856105fd565b90509392505050565b6001600360149054906101000a900460ff1660ff161061048e576040517f0dc149f000000000000000000000000000000000000000000000000000000000815260040160405180910390fd5b6001600360146101000a81548160ff021916908360ff1602179055508060035f6101000a81548173ffffffffffffffffffffffffffffffffffffffff021916908373ffffffffffffffffffffffffffffffffffffffff16021790555081600181905550815f80805f1b5f801b7f072ead6777750dc20232d1cee8dc9a395c2d350df4bbaa5096c6f59b214dcecd5f801b5f801b604051602001610535959493929190610a0b565b6040516020818303038152906040528051906020012081526020019081526020015f2081905550818160405160200161056f929190610a5c565b604051602081830303815290604052805190602001206002819055505050565b5f801b5f801b7f072ead6777750dc20232d1cee8dc9a395c2d350df4bbaa5096c6f59b214dcecd5f801b5f801b6040516020016105d0959493929190610a0b565b6040516020818303038152906040528051906020012081565b5f602052805f5260405f205f915090505481565b5f826001860114610610575f9050610634565b83831161061f575f9050610634565b8183111561062f575f9050610634565b600190505b949350505050565b5f73ffffffffffffffffffffffffffffffffffffffff82169050919050565b5f6106658261063c565b9050919050565b6106758161065b565b82525050565b5f60208201905061068e5f83018461066c565b92915050565b5f819050919050565b6106a681610694565b82525050565b5f6020820190506106bf5f83018461069d565b92915050565b5f80fd5b5f80fd5b5f80fd5b5f80fd5b5f80fd5b5f8083601f8401126106ee576106ed6106cd565b5b8235905067ffffffffffffffff81111561070b5761070a6106d1565b5b602083019150836020820283011115610727576107266106d5565b5b9250929050565b5f8083601f840112610743576107426106cd565b5b8235905067ffffffffffffffff8111156107605761075f6106d1565b5b60208301915083602082028301111561077c5761077b6106d5565b5b9250929050565b5f805f806040858703121561079b5761079a6106c5565b5b5f85013567ffffffffffffffff8111156107b8576107b76106c9565b5b6107c4878288016106d9565b9450945050602085013567ffffffffffffffff8111156107e7576107e66106c9565b5b6107f38782880161072e565b925092505092959194509250565b5f819050919050565b61081381610801565b811461081d575f80fd5b50565b5f8135905061082e8161080a565b92915050565b61083d81610694565b8114610847575f80fd5b50565b5f8135905061085881610834565b92915050565b5f805f60608486031215610875576108746106c5565b5b5f61088286828701610820565b93505060206108938682870161084a565b92505060406108a48682870161084a565b9150509250925092565b6108b781610801565b82525050565b5f6020820190506108d05f8301846108ae565b92915050565b5f8115159050919050565b6108ea816108d6565b82525050565b5f6020820190506109035f8301846108e1565b92915050565b6109128161065b565b811461091c575f80fd5b50565b5f8135905061092d81610909565b92915050565b5f8060408385031215610949576109486106c5565b5b5f6109568582860161084a565b92505060206109678582860161091f565b9150509250929050565b5f60208284031215610986576109856106c5565b5b5f61099384828501610820565b91505092915050565b7f4e487b71000000000000000000000000000000000000000000000000000000005f52603260045260245ffd5b5f819050919050565b5f819050919050565b5f6109f56109f06109eb846109c9565b6109d2565b610694565b9050919050565b610a05816109db565b82525050565b5f60a082019050610a1e5f8301886108ae565b610a2b60208301876108ae565b610a3860408301866109fc565b610a4560608301856108ae565b610a5260808301846108ae565b9695505050505050565b5f604082019050610a6f5f83018561069d565b610a7c602083018461066c565b939250505056fea2646970667358221220298cfc498266546431159342265c68dab13f402bc4c924bbcbbede8c94a5d83164736f6c63430008180033608060405234801561000f575f80fd5b50604051610532380380610532833981810160405281019061003191906100cd565b5f60017fa6ba867db7b78f18e19611b27d0942d33ce5006dbf35bfed60f10503eddf92f45f1c610061919061012e565b5f1b90508181555050610161565b5f80fd5b5f73ffffffffffffffffffffffffffffffffffffffff82169050919050565b5f61009c82610073565b9050919050565b6100ac81610092565b81146100b6575f80fd5b50565b5f815190506100c7816100a3565b92915050565b5f602082840312156100e2576100e161006f565b5b5f6100ef848285016100b9565b91505092915050565b5f819050919050565b7f4e487b71000000000000000000000000000000000000000000000000000000005f52601160045260245ffd5b5f610138826100f8565b9150610143836100f8565b925082820390508181111561015b5761015a610101565b5b92915050565b6103c48061016e5f395ff3fe608060405260043610610037575f3560e01c80633659cfe6146100485780635c60da1b14610070578063f851a4401461009a5761003e565b3661003e57005b6100466100c4565b005b348015610053575f80fd5b5061006e600480360381019061006991906102d2565b610153565b005b34801561007b575f80fd5b506100846101fa565b604051610091919061030c565b60405180910390f35b3480156100a5575f80fd5b506100ae610237565b6040516100bb919061030c565b60405180910390f35b5f6100cd6101fa565b90505f73ffffffffffffffffffffffffffffffffffffffff168173ffffffffffffffffffffffffffffffffffffffff1603610134576040517f40dde93500000000000000000000000000000000000000000000000000000000815260040160405180910390fd5b365f80375f80365f845af43d5f803e805f811461014f573d5ff35b3d5ffd5b61015b610237565b73ffffffffffffffffffffffffffffffffffffffff163373ffffffffffffffffffffffffffffffffffffffff16146101bf576040517f82b4290000000000000000000000000000000000000000000000000000000000815260040160405180910390fd5b5f60017f1163d170cb25f7b17b9d9cf3abceba187b877f90d3b487448a20a5dc3a9ff0025f1c6101ef919061035b565b5f1b90508181555050565b5f8060017f1163d170cb25f7b17b9d9cf3abceba187b877f90d3b487448a20a5dc3a9ff0025f1c61022b919061035b565b5f1b9050805491505090565b5f8060017fa6ba867db7b78f18e19611b27d0942d33ce5006dbf35bfed60f10503eddf92f45f1c610268919061035b565b5f1b9050805491505090565b5f80fd5b5f73ffffffffffffffffffffffffffffffffffffffff82169050919050565b5f6102a182610278565b9050919050565b6102b181610297565b81146102bb575f80fd5b50565b5f813590506102cc816102a8565b92915050565b5f602082840312156102e7576102e6610274565b5b5f6102f4848285016102be565b91505092915050565b61030681610297565b82525050565b5f60208201905061031f5f8301846102fd565b92915050565b5f819050919050565b7f4e487b71000000000000000000000000000000000000000000000000000000005f52601160045260245ffd5b5f61036582610325565b915061037083610325565b92508282039050818111156103885761038761032e565b5b9291505056fea26469706673582212203fc9614de07589d921444919979796770c6eb386bd15f8628932d07c19eebdce64736f6c63430008180033608060405234801561000f575f80fd5b5061053f8061001d5f395ff3fe608060405234801561000f575f80fd5b5060043610610029575f3560e01c80632dbb10731461002d575b5f80fd5b6100476004803603810190610042919061027a565b610049565b005b5f600167ffffffffffffffff811115610065576100646102a5565b5b6040519080825280602002602001820160405280156100935781602001602082028036833780820191505090505b5090505f600167ffffffffffffffff8111156100b2576100b16102a5565b5b6040519080825280602002602001820160405280156100e05781602001602082028036833780820191505090505b5090508273ffffffffffffffffffffffffffffffffffffffff1663e97a1e9e6040518163ffffffff1660e01b8152600401602060405180830381865afa15801561012c573d5f803e3d5ffd5b505050506040513d601f19601f820116820180604052508101906101509190610305565b825f8151811061016357610162610330565b5b6020026020010181815250507fffffffffffffffffffffffffffffffffffffffffffffffffffffffffffffffff815f815181106101a3576101a2610330565b5b6020026020010181815250508273ffffffffffffffffffffffffffffffffffffffff16638116d99583836040518363ffffffff1660e01b81526004016101ea9291906104d4565b5f604051808303815f87803b158015610201575f80fd5b505af1158015610213573d5f803e3d5ffd5b50505050505050565b5f80fd5b5f73ffffffffffffffffffffffffffffffffffffffff82169050919050565b5f61024982610220565b9050919050565b6102598161023f565b8114610263575f80fd5b50565b5f8135905061027481610250565b92915050565b5f6020828403121561028f5761028e61021c565b5b5f61029c84828501610266565b91505092915050565b7f4e487b71000000000000000000000000000000000000000000000000000000005f52604160045260245ffd5b5f819050919050565b6102e4816102d2565b81146102ee575f80fd5b50565b5f815190506102ff816102db565b92915050565b5f6020828403121561031a5761031961021c565b5b5f610327848285016102f1565b91505092915050565b7f4e487b71000000000000000000000000000000000000000000000000000000005f52603260045260245ffd5b5f81519050919050565b5f82825260208201905092915050565b5f819050602082019050919050565b61038f816102d2565b82525050565b5f6103a08383610386565b60208301905092915050565b5f602082019050919050565b5f6103c28261035d565b6103cc8185610367565b93506103d783610377565b805f5b838110156104075781516103ee8882610395565b97506103f9836103ac565b9250506001810190506103da565b5085935050505092915050565b5f81519050919050565b5f82825260208201905092915050565b5f819050602082019050919050565b5f819050919050565b61044f8161043d565b82525050565b5f6104608383610446565b60208301905092915050565b5f602082019050919050565b5f61048282610414565b61048c818561041e565b93506104978361042e565b805f5b838110156104c75781516104ae8882610455565b97506104b98361046c565b92505060018101905061049a565b5085935050505092915050565b5f6040820190508181035f8301526104ec81856103b8565b905081810360208301526105008184610478565b9050939250505056fea2646970667358221220971a6e7c70ccc89cf3876950d5702b96dc7e12db49ac8c7d2031c3e3cdd5423a64736f6c63430008180033","linkReferences":{}},"methodIdentifiers":{"action_attacker_poison_genesis()":"fbbad670","attacker()":"48eb76ee","property_genesis_submission_path_remains_valid()":"c4e2d3b2","proxy()":"ec556889","rollup()":"cb23bcb5"},"storageLayout":{"storage":[{"astId":622,"contract":"src/MedusaLineaF1ReinitializerDosHarness.sol:MedusaLineaF1ReinitializerDosHarness","label":"proxy","offset":0,"slot":"0","type":"t_contract(LineaF1SimpleProxy)278"},{"astId":625,"contract":"src/MedusaLineaF1ReinitializerDosHarness.sol:MedusaLineaF1ReinitializerDosHarness","label":"rollup","offset":0,"slot":"1","type":"t_contract(ILineaRollupLike)162"},{"astId":628,"contract":"src/MedusaLineaF1ReinitializerDosHarness.sol:MedusaLineaF1ReinitializerDosHarness","label":"attacker","offset":0,"slot":"2","type":"t_contract(LineaReinitDosAttacker)611"}],"types":{"t_contract(ILineaRollupLike)162":{"encoding":"inplace","label":"contract ILineaRollupLike","numberOfBytes":"20"},"t_contract(LineaF1SimpleProxy)278":{"encoding":"inplace","label":"contract LineaF1SimpleProxy","numberOfBytes":"20"},"t_contract(LineaReinitDosAttacker)611":{"encoding":"inplace","label":"contract LineaReinitDosAttacker","numberOfBytes":"20"}}},"id":2}