{"abi":[{"type":"function","name":"attestToken","inputs":[{"name":"_token","type":"address","internalType":"address"}],"outputs":[{"name":"_decimals","type":"uint8","internalType":"uint8"},{"name":"_symbol","type":"bytes32","internalType":"bytes32"},{"name":"_name","type":"bytes32","internalType":"bytes32"}],"stateMutability":"view"},{"type":"function","name":"transferTokens","inputs":[{"name":"_token","type":"address","internalType":"address"},{"name":"_amount","type":"uint256","internalType":"uint256"}],"outputs":[{"name":"_normalized","type":"uint256","internalType":"uint256"}],"stateMutability":"view"}],"bytecode":{"object":"0x608060405234801561000f575f80fd5b50610be98061001d5f395ff3fe608060405234801561000f575f80fd5b5060043610610034575f3560e01c8063bec3fa1714610038578063cd916cf814610068575b5f80fd5b610052600480360381019061004d91906105f6565b61009a565b60405161005f9190610643565b60405180910390f35b610082600480360381019061007d919061065c565b6101b8565b604051610091939291906106ba565b60405180910390f35b5f808373ffffffffffffffffffffffffffffffffffffffff166040516024016040516020818303038152906040527f313ce567000000000000000000000000000000000000000000000000000000007bffffffffffffffffffffffffffffffffffffffffffffffffffffffff19166020820180517bffffffffffffffffffffffffffffffffffffffffffffffffffffffff8381831617835250505050604051610143919061075b565b5f60405180830381855afa9150503d805f811461017b576040519150601f19603f3d011682016040523d82523d5f602084013e610180565b606091505b509150505f81806020019051810190610199919061079b565b90506101ae6101a885836104d4565b82610516565b9250505092915050565b5f805f808473ffffffffffffffffffffffffffffffffffffffff166040516024016040516020818303038152906040527f313ce567000000000000000000000000000000000000000000000000000000007bffffffffffffffffffffffffffffffffffffffffffffffffffffffff19166020820180517bffffffffffffffffffffffffffffffffffffffffffffffffffffffff8381831617835250505050604051610263919061075b565b5f60405180830381855afa9150503d805f811461029b576040519150601f19603f3d011682016040523d82523d5f602084013e6102a0565b606091505b509150505f8573ffffffffffffffffffffffffffffffffffffffff166040516024016040516020818303038152906040527f95d89b41000000000000000000000000000000000000000000000000000000007bffffffffffffffffffffffffffffffffffffffffffffffffffffffff19166020820180517bffffffffffffffffffffffffffffffffffffffffffffffffffffffff838183161783525050505060405161034c919061075b565b5f60405180830381855afa9150503d805f8114610384576040519150601f19603f3d011682016040523d82523d5f602084013e610389565b606091505b509150505f8673ffffffffffffffffffffffffffffffffffffffff166040516024016040516020818303038152906040527f06fdde03000000000000000000000000000000000000000000000000000000007bffffffffffffffffffffffffffffffffffffffffffffffffffffffff19166020820180517bffffffffffffffffffffffffffffffffffffffffffffffffffffffff8381831617835250505050604051610435919061075b565b5f60405180830381855afa9150503d805f811461046d576040519150601f19603f3d011682016040523d82523d5f602084013e610472565b606091505b509150508280602001905181019061048a919061079b565b95505f828060200190518101906104a191906108f4565b90505f828060200190518101906104b891906108f4565b9050602082015196506020810151955050505050509193909250565b5f60088260ff16111561050c576008826104ee9190610968565b600a6104fa9190610acb565b836105059190610b42565b9050610510565b8290505b92915050565b5f60088260ff16111561054e576008826105309190610968565b600a61053c9190610acb565b836105479190610b72565b9050610552565b8290505b92915050565b5f604051905090565b5f80fd5b5f80fd5b5f73ffffffffffffffffffffffffffffffffffffffff82169050919050565b5f61059282610569565b9050919050565b6105a281610588565b81146105ac575f80fd5b50565b5f813590506105bd81610599565b92915050565b5f819050919050565b6105d5816105c3565b81146105df575f80fd5b50565b5f813590506105f0816105cc565b92915050565b5f806040838503121561060c5761060b610561565b5b5f610619858286016105af565b925050602061062a858286016105e2565b9150509250929050565b61063d816105c3565b82525050565b5f6020820190506106565f830184610634565b92915050565b5f6020828403121561067157610670610561565b5b5f61067e848285016105af565b91505092915050565b5f60ff82169050919050565b61069c81610687565b82525050565b5f819050919050565b6106b4816106a2565b82525050565b5f6060820190506106cd5f830186610693565b6106da60208301856106ab565b6106e760408301846106ab565b949350505050565b5f81519050919050565b5f81905092915050565b5f5b83811015610720578082015181840152602081019050610705565b5f8484015250505050565b5f610735826106ef565b61073f81856106f9565b935061074f818560208601610703565b80840191505092915050565b5f610766828461072b565b915081905092915050565b61077a81610687565b8114610784575f80fd5b50565b5f8151905061079581610771565b92915050565b5f602082840312156107b0576107af610561565b5b5f6107bd84828501610787565b91505092915050565b5f80fd5b5f80fd5b5f601f19601f8301169050919050565b7f4e487b71000000000000000000000000000000000000000000000000000000005f52604160045260245ffd5b610814826107ce565b810181811067ffffffffffffffff82111715610833576108326107de565b5b80604052505050565b5f610845610558565b9050610851828261080b565b919050565b5f67ffffffffffffffff8211156108705761086f6107de565b5b610879826107ce565b9050602081019050919050565b5f61089861089384610856565b61083c565b9050828152602081018484840111156108b4576108b36107ca565b5b6108bf848285610703565b509392505050565b5f82601f8301126108db576108da6107c6565b5b81516108eb848260208601610886565b91505092915050565b5f6020828403121561090957610908610561565b5b5f82015167ffffffffffffffff81111561092657610925610565565b5b610932848285016108c7565b91505092915050565b7f4e487b71000000000000000000000000000000000000000000000000000000005f52601160045260245ffd5b5f61097282610687565b915061097d83610687565b9250828203905060ff8111156109965761099561093b565b5b92915050565b5f8160011c9050919050565b5f808291508390505b60018511156109f1578086048111156109cd576109cc61093b565b5b60018516156109dc5780820291505b80810290506109ea8561099c565b94506109b1565b94509492505050565b5f82610a095760019050610ac4565b81610a16575f9050610ac4565b8160018114610a2c5760028114610a3657610a65565b6001915050610ac4565b60ff841115610a4857610a4761093b565b5b8360020a915084821115610a5f57610a5e61093b565b5b50610ac4565b5060208310610133831016604e8410600b8410161715610a9a5782820a905083811115610a9557610a9461093b565b5b610ac4565b610aa784848460016109a8565b92509050818404811115610abe57610abd61093b565b5b81810290505b9392505050565b5f610ad5826105c3565b9150610ae083610687565b9250610b0d7fffffffffffffffffffffffffffffffffffffffffffffffffffffffffffffffff84846109fa565b905092915050565b7f4e487b71000000000000000000000000000000000000000000000000000000005f52601260045260245ffd5b5f610b4c826105c3565b9150610b57836105c3565b925082610b6757610b66610b15565b5b828204905092915050565b5f610b7c826105c3565b9150610b87836105c3565b9250828202610b95816105c3565b91508282048414831517610bac57610bab61093b565b5b509291505056fea2646970667358221220ccefeffcdfd5c84f793a213b50e7818c9a93a5d5ea293f510c865ddd362db2b264736f6c63430008180033","linkReferences":{}},"methodIdentifiers":{"attestToken(address)":"cd916cf8","transferTokens(address,uint256)":"bec3fa17"},"id":0}