{"abi":[{"type":"function","name":"attestToken","inputs":[{"name":"_token","type":"address","internalType":"address"}],"outputs":[{"name":"_decimals","type":"uint8","internalType":"uint8"},{"name":"_symbol","type":"bytes32","internalType":"bytes32"},{"name":"_name","type":"bytes32","internalType":"bytes32"}],"stateMutability":"view"},{"type":"function","name":"decodeString","inputs":[{"name":"data","type":"bytes","internalType":"bytes"}],"outputs":[{"name":"","type":"string","internalType":"string"}],"stateMutability":"pure"},{"type":"function","name":"transferTokens","inputs":[{"name":"_token","type":"address","internalType":"address"},{"name":"_amount","type":"uint256","internalType":"uint256"}],"outputs":[{"name":"_normalized","type":"uint256","internalType":"uint256"}],"stateMutability":"view"}],"bytecode":{"object":"0x608060405234801561000f575f80fd5b50610f088061001d5f395ff3fe608060405234801561000f575f80fd5b506004361061003f575f3560e01c806395ce3e9314610043578063bec3fa1714610073578063cd916cf8146100a3575b5f80fd5b61005d600480360381019061005891906107f7565b6100d5565b60405161006a91906108b8565b60405180910390f35b61008d60048036038101906100889190610965565b6100f2565b60405161009a91906109b2565b60405180910390f35b6100bd60048036038101906100b891906109cb565b61011b565b6040516100cc93929190610a29565b60405180910390f35b6060818060200190518101906100eb9190610afc565b9050919050565b5f806100fd84610146565b905061011261010c848361026e565b826102b0565b91505092915050565b5f805f61012784610146565b9250610132846102f2565b915061013d846104ce565b90509193909250565b5f805f8373ffffffffffffffffffffffffffffffffffffffff166040516024016040516020818303038152906040527f313ce567000000000000000000000000000000000000000000000000000000007bffffffffffffffffffffffffffffffffffffffffffffffffffffffff19166020820180517bffffffffffffffffffffffffffffffffffffffffffffffffffffffff83818316178352505050506040516101f09190610b87565b5f60405180830381855afa9150503d805f8114610228576040519150601f19603f3d011682016040523d82523d5f602084013e61022d565b606091505b5091509150811580610240575060208151105b1561025057601292505050610269565b808060200190518101906102649190610bc7565b925050505b919050565b5f60088260ff1611156102a6576008826102889190610c1f565b600a6102949190610d82565b8361029f9190610df9565b90506102aa565b8290505b92915050565b5f60088260ff1611156102e8576008826102ca9190610c1f565b600a6102d69190610d82565b836102e19190610e29565b90506102ec565b8290505b92915050565b5f805f8373ffffffffffffffffffffffffffffffffffffffff166040516024016040516020818303038152906040527f95d89b41000000000000000000000000000000000000000000000000000000007bffffffffffffffffffffffffffffffffffffffffffffffffffffffff19166020820180517bffffffffffffffffffffffffffffffffffffffffffffffffffffffff838183161783525050505060405161039c9190610b87565b5f60405180830381855afa9150503d805f81146103d4576040519150601f19603f3d011682016040523d82523d5f602084013e6103d9565b606091505b50915091508115806103ec575060408151105b1561041b577f554e4b4e4f574e00000000000000000000000000000000000000000000000000925050506104c9565b3073ffffffffffffffffffffffffffffffffffffffff166395ce3e93826040518263ffffffff1660e01b81526004016104549190610eb2565b5f60405180830381865afa92505050801561049157506040513d5f823e3d601f19601f8201168201806040525081019061048e9190610afc565b60015b6104bd577f554e4b4e4f574e0000000000000000000000000000000000000000000000000092506104c6565b60208101519350505b50505b919050565b5f805f8373ffffffffffffffffffffffffffffffffffffffff166040516024016040516020818303038152906040527f06fdde03000000000000000000000000000000000000000000000000000000007bffffffffffffffffffffffffffffffffffffffffffffffffffffffff19166020820180517bffffffffffffffffffffffffffffffffffffffffffffffffffffffff83818316178352505050506040516105789190610b87565b5f60405180830381855afa9150503d805f81146105b0576040519150601f19603f3d011682016040523d82523d5f602084013e6105b5565b606091505b50915091508115806105c8575060408151105b156105f7577f554e4b4e4f574e00000000000000000000000000000000000000000000000000925050506106a5565b3073ffffffffffffffffffffffffffffffffffffffff166395ce3e93826040518263ffffffff1660e01b81526004016106309190610eb2565b5f60405180830381865afa92505050801561066d57506040513d5f823e3d601f19601f8201168201806040525081019061066a9190610afc565b60015b610699577f554e4b4e4f574e0000000000000000000000000000000000000000000000000092506106a2565b60208101519350505b50505b919050565b5f604051905090565b5f80fd5b5f80fd5b5f80fd5b5f80fd5b5f601f19601f8301169050919050565b7f4e487b71000000000000000000000000000000000000000000000000000000005f52604160045260245ffd5b610709826106c3565b810181811067ffffffffffffffff82111715610728576107276106d3565b5b80604052505050565b5f61073a6106aa565b90506107468282610700565b919050565b5f67ffffffffffffffff821115610765576107646106d3565b5b61076e826106c3565b9050602081019050919050565b828183375f83830152505050565b5f61079b6107968461074b565b610731565b9050828152602081018484840111156107b7576107b66106bf565b5b6107c284828561077b565b509392505050565b5f82601f8301126107de576107dd6106bb565b5b81356107ee848260208601610789565b91505092915050565b5f6020828403121561080c5761080b6106b3565b5b5f82013567ffffffffffffffff811115610829576108286106b7565b5b610835848285016107ca565b91505092915050565b5f81519050919050565b5f82825260208201905092915050565b5f5b8381101561087557808201518184015260208101905061085a565b5f8484015250505050565b5f61088a8261083e565b6108948185610848565b93506108a4818560208601610858565b6108ad816106c3565b840191505092915050565b5f6020820190508181035f8301526108d08184610880565b905092915050565b5f73ffffffffffffffffffffffffffffffffffffffff82169050919050565b5f610901826108d8565b9050919050565b610911816108f7565b811461091b575f80fd5b50565b5f8135905061092c81610908565b92915050565b5f819050919050565b61094481610932565b811461094e575f80fd5b50565b5f8135905061095f8161093b565b92915050565b5f806040838503121561097b5761097a6106b3565b5b5f6109888582860161091e565b925050602061099985828601610951565b9150509250929050565b6109ac81610932565b82525050565b5f6020820190506109c55f8301846109a3565b92915050565b5f602082840312156109e0576109df6106b3565b5b5f6109ed8482850161091e565b91505092915050565b5f60ff82169050919050565b610a0b816109f6565b82525050565b5f819050919050565b610a2381610a11565b82525050565b5f606082019050610a3c5f830186610a02565b610a496020830185610a1a565b610a566040830184610a1a565b949350505050565b5f67ffffffffffffffff821115610a7857610a776106d3565b5b610a81826106c3565b9050602081019050919050565b5f610aa0610a9b84610a5e565b610731565b905082815260208101848484011115610abc57610abb6106bf565b5b610ac7848285610858565b509392505050565b5f82601f830112610ae357610ae26106bb565b5b8151610af3848260208601610a8e565b91505092915050565b5f60208284031215610b1157610b106106b3565b5b5f82015167ffffffffffffffff811115610b2e57610b2d6106b7565b5b610b3a84828501610acf565b91505092915050565b5f81519050919050565b5f81905092915050565b5f610b6182610b43565b610b6b8185610b4d565b9350610b7b818560208601610858565b80840191505092915050565b5f610b928284610b57565b915081905092915050565b610ba6816109f6565b8114610bb0575f80fd5b50565b5f81519050610bc181610b9d565b92915050565b5f60208284031215610bdc57610bdb6106b3565b5b5f610be984828501610bb3565b91505092915050565b7f4e487b71000000000000000000000000000000000000000000000000000000005f52601160045260245ffd5b5f610c29826109f6565b9150610c34836109f6565b9250828203905060ff811115610c4d57610c4c610bf2565b5b92915050565b5f8160011c9050919050565b5f808291508390505b6001851115610ca857808604811115610c8457610c83610bf2565b5b6001851615610c935780820291505b8081029050610ca185610c53565b9450610c68565b94509492505050565b5f82610cc05760019050610d7b565b81610ccd575f9050610d7b565b8160018114610ce35760028114610ced57610d1c565b6001915050610d7b565b60ff841115610cff57610cfe610bf2565b5b8360020a915084821115610d1657610d15610bf2565b5b50610d7b565b5060208310610133831016604e8410600b8410161715610d515782820a905083811115610d4c57610d4b610bf2565b5b610d7b565b610d5e8484846001610c5f565b92509050818404811115610d7557610d74610bf2565b5b81810290505b9392505050565b5f610d8c82610932565b9150610d97836109f6565b9250610dc47fffffffffffffffffffffffffffffffffffffffffffffffffffffffffffffffff8484610cb1565b905092915050565b7f4e487b71000000000000000000000000000000000000000000000000000000005f52601260045260245ffd5b5f610e0382610932565b9150610e0e83610932565b925082610e1e57610e1d610dcc565b5b828204905092915050565b5f610e3382610932565b9150610e3e83610932565b9250828202610e4c81610932565b91508282048414831517610e6357610e62610bf2565b5b5092915050565b5f82825260208201905092915050565b5f610e8482610b43565b610e8e8185610e6a565b9350610e9e818560208601610858565b610ea7816106c3565b840191505092915050565b5f6020820190508181035f830152610eca8184610e7a565b90509291505056fea26469706673582212206b9e0824a78a018105afd30f2c0f28f410aa3e88cee5d1fb92358874228c63f264736f6c63430008180033","linkReferences":{}},"methodIdentifiers":{"attestToken(address)":"cd916cf8","decodeString(bytes)":"95ce3e93","transferTokens(address,uint256)":"bec3fa17"},"id":0}