{"abi":[{"type":"function","name":"allowance","inputs":[{"name":"","type":"address","internalType":"address"},{"name":"","type":"address","internalType":"address"}],"outputs":[{"name":"","type":"uint256","internalType":"uint256"}],"stateMutability":"view"},{"type":"function","name":"approve","inputs":[{"name":"_spender","type":"address","internalType":"address"},{"name":"_amount","type":"uint256","internalType":"uint256"}],"outputs":[{"name":"","type":"bool","internalType":"bool"}],"stateMutability":"nonpayable"},{"type":"function","name":"balanceOf","inputs":[{"name":"","type":"address","internalType":"address"}],"outputs":[{"name":"","type":"uint256","internalType":"uint256"}],"stateMutability":"view"},{"type":"function","name":"decimals","inputs":[],"outputs":[{"name":"","type":"uint8","internalType":"uint8"}],"stateMutability":"pure"},{"type":"function","name":"mint","inputs":[{"name":"_to","type":"address","internalType":"address"},{"name":"_amount","type":"uint256","internalType":"uint256"}],"outputs":[],"stateMutability":"nonpayable"},{"type":"function","name":"name","inputs":[],"outputs":[{"name":"","type":"string","internalType":"string"}],"stateMutability":"pure"},{"type":"function","name":"symbol","inputs":[],"outputs":[{"name":"","type":"string","internalType":"string"}],"stateMutability":"pure"},{"type":"function","name":"transfer","inputs":[{"name":"_to","type":"address","internalType":"address"},{"name":"_amount","type":"uint256","internalType":"uint256"}],"outputs":[{"name":"","type":"bool","internalType":"bool"}],"stateMutability":"nonpayable"},{"type":"function","name":"transferFrom","inputs":[{"name":"_from","type":"address","internalType":"address"},{"name":"_to","type":"address","internalType":"address"},{"name":"_amount","type":"uint256","internalType":"uint256"}],"outputs":[{"name":"","type":"bool","internalType":"bool"}],"stateMutability":"nonpayable"}],"bytecode":{"object":"0x608060405234801561000f575f80fd5b50610b3e8061001d5f395ff3fe608060405234801561000f575f80fd5b5060043610610091575f3560e01c806340c10f191161006457806340c10f191461013157806370a082311461014d57806395d89b411461017d578063a9059cbb1461019b578063dd62ed3e146101cb57610091565b806306fdde0314610095578063095ea7b3146100b357806323b872dd146100e3578063313ce56714610113575b5f80fd5b61009d6101fb565b6040516100aa91906107a1565b60405180910390f35b6100cd60048036038101906100c89190610852565b610238565b6040516100da91906108aa565b60405180910390f35b6100fd60048036038101906100f891906108c3565b6102c0565b60405161010a91906108aa565b60405180910390f35b61011b610524565b604051610128919061092e565b60405180910390f35b61014b60048036038101906101469190610852565b61052c565b005b61016760048036038101906101629190610947565b610582565b6040516101749190610981565b60405180910390f35b610185610596565b60405161019291906107a1565b60405180910390f35b6101b560048036038101906101b09190610852565b6105d3565b6040516101c291906108aa565b60405180910390f35b6101e560048036038101906101e0919061099a565b6106f7565b6040516101f29190610981565b60405180910390f35b60606040518060400160405280600e81526020017f4d6574616461746120546f6b656e000000000000000000000000000000000000815250905090565b5f8160015f3373ffffffffffffffffffffffffffffffffffffffff1673ffffffffffffffffffffffffffffffffffffffff1681526020019081526020015f205f8573ffffffffffffffffffffffffffffffffffffffff1673ffffffffffffffffffffffffffffffffffffffff1681526020019081526020015f20819055506001905092915050565b5f8060015f8673ffffffffffffffffffffffffffffffffffffffff1673ffffffffffffffffffffffffffffffffffffffff1681526020019081526020015f205f3373ffffffffffffffffffffffffffffffffffffffff1673ffffffffffffffffffffffffffffffffffffffff1681526020019081526020015f2054905082811015610380576040517f08c379a000000000000000000000000000000000000000000000000000000000815260040161037790610a22565b60405180910390fd5b5f805f8773ffffffffffffffffffffffffffffffffffffffff1673ffffffffffffffffffffffffffffffffffffffff1681526020019081526020015f2054905083811015610403576040517f08c379a00000000000000000000000000000000000000000000000000000000081526004016103fa90610a8a565b60405180910390fd5b83820360015f8873ffffffffffffffffffffffffffffffffffffffff1673ffffffffffffffffffffffffffffffffffffffff1681526020019081526020015f205f3373ffffffffffffffffffffffffffffffffffffffff1673ffffffffffffffffffffffffffffffffffffffff1681526020019081526020015f20819055508381035f808873ffffffffffffffffffffffffffffffffffffffff1673ffffffffffffffffffffffffffffffffffffffff1681526020019081526020015f2081905550835f808773ffffffffffffffffffffffffffffffffffffffff1673ffffffffffffffffffffffffffffffffffffffff1681526020019081526020015f205f8282546105109190610ad5565b925050819055506001925050509392505050565b5f6012905090565b805f808473ffffffffffffffffffffffffffffffffffffffff1673ffffffffffffffffffffffffffffffffffffffff1681526020019081526020015f205f8282546105779190610ad5565b925050819055505050565b5f602052805f5260405f205f915090505481565b60606040518060400160405280600481526020017f4d45544100000000000000000000000000000000000000000000000000000000815250905090565b5f805f803373ffffffffffffffffffffffffffffffffffffffff1673ffffffffffffffffffffffffffffffffffffffff1681526020019081526020015f2054905082811015610657576040517f08c379a000000000000000000000000000000000000000000000000000000000815260040161064e90610a8a565b60405180910390fd5b8281035f803373ffffffffffffffffffffffffffffffffffffffff1673ffffffffffffffffffffffffffffffffffffffff1681526020019081526020015f2081905550825f808673ffffffffffffffffffffffffffffffffffffffff1673ffffffffffffffffffffffffffffffffffffffff1681526020019081526020015f205f8282546106e59190610ad5565b92505081905550600191505092915050565b6001602052815f5260405f20602052805f5260405f205f91509150505481565b5f81519050919050565b5f82825260208201905092915050565b5f5b8381101561074e578082015181840152602081019050610733565b5f8484015250505050565b5f601f19601f8301169050919050565b5f61077382610717565b61077d8185610721565b935061078d818560208601610731565b61079681610759565b840191505092915050565b5f6020820190508181035f8301526107b98184610769565b905092915050565b5f80fd5b5f73ffffffffffffffffffffffffffffffffffffffff82169050919050565b5f6107ee826107c5565b9050919050565b6107fe816107e4565b8114610808575f80fd5b50565b5f81359050610819816107f5565b92915050565b5f819050919050565b6108318161081f565b811461083b575f80fd5b50565b5f8135905061084c81610828565b92915050565b5f8060408385031215610868576108676107c1565b5b5f6108758582860161080b565b92505060206108868582860161083e565b9150509250929050565b5f8115159050919050565b6108a481610890565b82525050565b5f6020820190506108bd5f83018461089b565b92915050565b5f805f606084860312156108da576108d96107c1565b5b5f6108e78682870161080b565b93505060206108f88682870161080b565b92505060406109098682870161083e565b9150509250925092565b5f60ff82169050919050565b61092881610913565b82525050565b5f6020820190506109415f83018461091f565b92915050565b5f6020828403121561095c5761095b6107c1565b5b5f6109698482850161080b565b91505092915050565b61097b8161081f565b82525050565b5f6020820190506109945f830184610972565b92915050565b5f80604083850312156109b0576109af6107c1565b5b5f6109bd8582860161080b565b92505060206109ce8582860161080b565b9150509250929050565b7f21616c6c6f77616e6365000000000000000000000000000000000000000000005f82015250565b5f610a0c600a83610721565b9150610a17826109d8565b602082019050919050565b5f6020820190508181035f830152610a3981610a00565b9050919050565b7f2162616c616e63650000000000000000000000000000000000000000000000005f82015250565b5f610a74600883610721565b9150610a7f82610a40565b602082019050919050565b5f6020820190508181035f830152610aa181610a68565b9050919050565b7f4e487b71000000000000000000000000000000000000000000000000000000005f52601160045260245ffd5b5f610adf8261081f565b9150610aea8361081f565b9250828201905080821115610b0257610b01610aa8565b5b9291505056fea2646970667358221220820c6cfb1f54ba2d67012549b37c9ecca7c9801b9853b09fb959954106b195ef64736f6c63430008180033","linkReferences":{}},"methodIdentifiers":{"allowance(address,address)":"dd62ed3e","approve(address,uint256)":"095ea7b3","balanceOf(address)":"70a08231","decimals()":"313ce567","mint(address,uint256)":"40c10f19","name()":"06fdde03","symbol()":"95d89b41","transfer(address,uint256)":"a9059cbb","transferFrom(address,address,uint256)":"23b872dd"},"id":0}