{"abi":[{"type":"function","name":"poisonGenesis","inputs":[{"name":"proxy","type":"address","internalType":"address"}],"outputs":[],"stateMutability":"nonpayable"}],"bytecode":{"object":"0x608060405234801561000f575f80fd5b5061053f8061001d5f395ff3fe608060405234801561000f575f80fd5b5060043610610029575f3560e01c80632dbb10731461002d575b5f80fd5b6100476004803603810190610042919061027a565b610049565b005b5f600167ffffffffffffffff811115610065576100646102a5565b5b6040519080825280602002602001820160405280156100935781602001602082028036833780820191505090505b5090505f600167ffffffffffffffff8111156100b2576100b16102a5565b5b6040519080825280602002602001820160405280156100e05781602001602082028036833780820191505090505b5090508273ffffffffffffffffffffffffffffffffffffffff1663e97a1e9e6040518163ffffffff1660e01b8152600401602060405180830381865afa15801561012c573d5f803e3d5ffd5b505050506040513d601f19601f820116820180604052508101906101509190610305565b825f8151811061016357610162610330565b5b6020026020010181815250507fffffffffffffffffffffffffffffffffffffffffffffffffffffffffffffffff815f815181106101a3576101a2610330565b5b6020026020010181815250508273ffffffffffffffffffffffffffffffffffffffff16638116d99583836040518363ffffffff1660e01b81526004016101ea9291906104d4565b5f604051808303815f87803b158015610201575f80fd5b505af1158015610213573d5f803e3d5ffd5b50505050505050565b5f80fd5b5f73ffffffffffffffffffffffffffffffffffffffff82169050919050565b5f61024982610220565b9050919050565b6102598161023f565b8114610263575f80fd5b50565b5f8135905061027481610250565b92915050565b5f6020828403121561028f5761028e61021c565b5b5f61029c84828501610266565b91505092915050565b7f4e487b71000000000000000000000000000000000000000000000000000000005f52604160045260245ffd5b5f819050919050565b6102e4816102d2565b81146102ee575f80fd5b50565b5f815190506102ff816102db565b92915050565b5f6020828403121561031a5761031961021c565b5b5f610327848285016102f1565b91505092915050565b7f4e487b71000000000000000000000000000000000000000000000000000000005f52603260045260245ffd5b5f81519050919050565b5f82825260208201905092915050565b5f819050602082019050919050565b61038f816102d2565b82525050565b5f6103a08383610386565b60208301905092915050565b5f602082019050919050565b5f6103c28261035d565b6103cc8185610367565b93506103d783610377565b805f5b838110156104075781516103ee8882610395565b97506103f9836103ac565b9250506001810190506103da565b5085935050505092915050565b5f81519050919050565b5f82825260208201905092915050565b5f819050602082019050919050565b5f819050919050565b61044f8161043d565b82525050565b5f6104608383610446565b60208301905092915050565b5f602082019050919050565b5f61048282610414565b61048c818561041e565b93506104978361042e565b805f5b838110156104c75781516104ae8882610455565b97506104b98361046c565b92505060018101905061049a565b5085935050505092915050565b5f6040820190508181035f8301526104ec81856103b8565b905081810360208301526105008184610478565b9050939250505056fea2646970667358221220971a6e7c70ccc89cf3876950d5702b96dc7e12db49ac8c7d2031c3e3cdd5423a64736f6c63430008180033","linkReferences":{}},"methodIdentifiers":{"poisonGenesis(address)":"2dbb1073"},"storageLayout":{"storage":[],"types":{}},"id":1}