{"abi":[{"type":"constructor","inputs":[],"stateMutability":"nonpayable"},{"type":"function","name":"GENESIS_SHNARF","inputs":[],"outputs":[{"name":"","type":"bytes32","internalType":"bytes32"}],"stateMutability":"view"},{"type":"function","name":"canSubmitData","inputs":[{"name":"parentShnarf","type":"bytes32","internalType":"bytes32"},{"name":"firstBlockInData","type":"uint256","internalType":"uint256"},{"name":"finalBlockInData","type":"uint256","internalType":"uint256"}],"outputs":[{"name":"","type":"bool","internalType":"bool"}],"stateMutability":"view"},{"type":"function","name":"currentFinalizedState","inputs":[],"outputs":[{"name":"","type":"bytes32","internalType":"bytes32"}],"stateMutability":"view"},{"type":"function","name":"currentL2BlockNumber","inputs":[],"outputs":[{"name":"","type":"uint256","internalType":"uint256"}],"stateMutability":"view"},{"type":"function","name":"initialize","inputs":[{"name":"initialL2BlockNumber","type":"uint256","internalType":"uint256"},{"name":"operator_","type":"address","internalType":"address"}],"outputs":[],"stateMutability":"nonpayable"},{"type":"function","name":"initializeParentShnarfsAndFinalizedState","inputs":[{"name":"shnarfs","type":"bytes32[]","internalType":"bytes32[]"},{"name":"finalBlockNumbers","type":"uint256[]","internalType":"uint256[]"}],"outputs":[],"stateMutability":"nonpayable"},{"type":"function","name":"operator","inputs":[],"outputs":[{"name":"","type":"address","internalType":"address"}],"stateMutability":"view"},{"type":"function","name":"shnarfFinalBlockNumbers","inputs":[{"name":"shnarf","type":"bytes32","internalType":"bytes32"}],"outputs":[{"name":"finalBlockNumber","type":"uint256","internalType":"uint256"}],"stateMutability":"view"},{"type":"function","name":"submitData","inputs":[{"name":"parentShnarf","type":"bytes32","internalType":"bytes32"},{"name":"firstBlockInData","type":"uint256","internalType":"uint256"},{"name":"finalBlockInData","type":"uint256","internalType":"uint256"}],"outputs":[],"stateMutability":"nonpayable"},{"type":"error","name":"AlreadyInitialized","inputs":[]},{"type":"error","name":"InvalidLengths","inputs":[]},{"type":"error","name":"InvalidSubmission","inputs":[]},{"type":"error","name":"Unauthorized","inputs":[]}],"bytecode":{"object":"0x608060405234801561000f575f80fd5b5061001e61002360201b60201c565b610041565b60ff600360146101000a81548160ff021916908360ff160217905550565b610ab98061004e5f395ff3fe608060405234801561000f575f80fd5b5060043610610091575f3560e01c8063921b278e11610064578063921b278e1461010957806396ddb53514610127578063da35a26f14610157578063e97a1e9e14610173578063f93e98571461019157610091565b8063570ca73514610095578063695378f5146100b35780638116d995146100d15780638a8ac469146100ed575b5f80fd5b61009d6101c1565b6040516100aa919061067b565b60405180910390f35b6100bb6101e6565b6040516100c891906106ac565b60405180910390f35b6100eb60048036038101906100e69190610783565b6101ec565b005b6101076004803603810190610102919061085e565b61032e565b005b610111610414565b60405161011e91906108bd565b60405180910390f35b610141600480360381019061013c919061085e565b61041a565b60405161014e91906108f0565b60405180910390f35b610171600480360381019061016c9190610933565b610442565b005b61017b61058f565b60405161018891906108bd565b60405180910390f35b6101ab60048036038101906101a69190610971565b6105e9565b6040516101b891906106ac565b60405180910390f35b60035f9054906101000a900473ffffffffffffffffffffffffffffffffffffffff1681565b60015481565b60058060ff16600360149054906101000a900460ff1660ff161061023c576040517f0dc149f000000000000000000000000000000000000000000000000000000000815260040160405180910390fd5b80600360146101000a81548160ff021916908360ff160217905550828290508585905014610296576040517f1df89e8b00000000000000000000000000000000000000000000000000000000815260040160405180910390fd5b5f5b858590508110156102f7578383828181106102b6576102b561099c565b5b905060200201355f808888858181106102d2576102d161099c565b5b9050602002013581526020019081526020015f20819055508080600101915050610298565b5060015460405160200161030b91906106ac565b604051602081830303815290604052805190602001206002819055505050505050565b60035f9054906101000a900473ffffffffffffffffffffffffffffffffffffffff1673ffffffffffffffffffffffffffffffffffffffff163373ffffffffffffffffffffffffffffffffffffffff16146103b4576040517f82b4290000000000000000000000000000000000000000000000000000000000815260040160405180910390fd5b6103d25f808581526020019081526020015f205460015484846105fd565b610408576040517ff956cee400000000000000000000000000000000000000000000000000000000815260040160405180910390fd5b80600181905550505050565b60025481565b5f6104395f808681526020019081526020015f205460015485856105fd565b90509392505050565b6001600360149054906101000a900460ff1660ff161061048e576040517f0dc149f000000000000000000000000000000000000000000000000000000000815260040160405180910390fd5b6001600360146101000a81548160ff021916908360ff1602179055508060035f6101000a81548173ffffffffffffffffffffffffffffffffffffffff021916908373ffffffffffffffffffffffffffffffffffffffff16021790555081600181905550815f80805f1b5f801b7f072ead6777750dc20232d1cee8dc9a395c2d350df4bbaa5096c6f59b214dcecd5f801b5f801b604051602001610535959493929190610a0b565b6040516020818303038152906040528051906020012081526020019081526020015f2081905550818160405160200161056f929190610a5c565b604051602081830303815290604052805190602001206002819055505050565b5f801b5f801b7f072ead6777750dc20232d1cee8dc9a395c2d350df4bbaa5096c6f59b214dcecd5f801b5f801b6040516020016105d0959493929190610a0b565b6040516020818303038152906040528051906020012081565b5f602052805f5260405f205f915090505481565b5f826001860114610610575f9050610634565b83831161061f575f9050610634565b8183111561062f575f9050610634565b600190505b949350505050565b5f73ffffffffffffffffffffffffffffffffffffffff82169050919050565b5f6106658261063c565b9050919050565b6106758161065b565b82525050565b5f60208201905061068e5f83018461066c565b92915050565b5f819050919050565b6106a681610694565b82525050565b5f6020820190506106bf5f83018461069d565b92915050565b5f80fd5b5f80fd5b5f80fd5b5f80fd5b5f80fd5b5f8083601f8401126106ee576106ed6106cd565b5b8235905067ffffffffffffffff81111561070b5761070a6106d1565b5b602083019150836020820283011115610727576107266106d5565b5b9250929050565b5f8083601f840112610743576107426106cd565b5b8235905067ffffffffffffffff8111156107605761075f6106d1565b5b60208301915083602082028301111561077c5761077b6106d5565b5b9250929050565b5f805f806040858703121561079b5761079a6106c5565b5b5f85013567ffffffffffffffff8111156107b8576107b76106c9565b5b6107c4878288016106d9565b9450945050602085013567ffffffffffffffff8111156107e7576107e66106c9565b5b6107f38782880161072e565b925092505092959194509250565b5f819050919050565b61081381610801565b811461081d575f80fd5b50565b5f8135905061082e8161080a565b92915050565b61083d81610694565b8114610847575f80fd5b50565b5f8135905061085881610834565b92915050565b5f805f60608486031215610875576108746106c5565b5b5f61088286828701610820565b93505060206108938682870161084a565b92505060406108a48682870161084a565b9150509250925092565b6108b781610801565b82525050565b5f6020820190506108d05f8301846108ae565b92915050565b5f8115159050919050565b6108ea816108d6565b82525050565b5f6020820190506109035f8301846108e1565b92915050565b6109128161065b565b811461091c575f80fd5b50565b5f8135905061092d81610909565b92915050565b5f8060408385031215610949576109486106c5565b5b5f6109568582860161084a565b92505060206109678582860161091f565b9150509250929050565b5f60208284031215610986576109856106c5565b5b5f61099384828501610820565b91505092915050565b7f4e487b71000000000000000000000000000000000000000000000000000000005f52603260045260245ffd5b5f819050919050565b5f819050919050565b5f6109f56109f06109eb846109c9565b6109d2565b610694565b9050919050565b610a05816109db565b82525050565b5f60a082019050610a1e5f8301886108ae565b610a2b60208301876108ae565b610a3860408301866109fc565b610a4560608301856108ae565b610a5260808301846108ae565b9695505050505050565b5f604082019050610a6f5f83018561069d565b610a7c602083018461066c565b939250505056fea2646970667358221220298cfc498266546431159342265c68dab13f402bc4c924bbcbbede8c94a5d83164736f6c63430008180033","linkReferences":{}},"methodIdentifiers":{"GENESIS_SHNARF()":"e97a1e9e","canSubmitData(bytes32,uint256,uint256)":"96ddb535","currentFinalizedState()":"921b278e","currentL2BlockNumber()":"695378f5","initialize(uint256,address)":"da35a26f","initializeParentShnarfsAndFinalizedState(bytes32[],uint256[])":"8116d995","operator()":"570ca735","shnarfFinalBlockNumbers(bytes32)":"f93e9857","submitData(bytes32,uint256,uint256)":"8a8ac469"},"storageLayout":{"storage":[{"astId":301,"contract":"src/LineaF1ReinitializerDosHarness.sol:LineaRollupLike","label":"shnarfFinalBlockNumbers","offset":0,"slot":"0","type":"t_mapping(t_bytes32,t_uint256)"},{"astId":303,"contract":"src/LineaF1ReinitializerDosHarness.sol:LineaRollupLike","label":"currentL2BlockNumber","offset":0,"slot":"1","type":"t_uint256"},{"astId":305,"contract":"src/LineaF1ReinitializerDosHarness.sol:LineaRollupLike","label":"currentFinalizedState","offset":0,"slot":"2","type":"t_bytes32"},{"astId":307,"contract":"src/LineaF1ReinitializerDosHarness.sol:LineaRollupLike","label":"operator","offset":0,"slot":"3","type":"t_address"},{"astId":309,"contract":"src/LineaF1ReinitializerDosHarness.sol:LineaRollupLike","label":"initializedVersion","offset":20,"slot":"3","type":"t_uint8"}],"types":{"t_address":{"encoding":"inplace","label":"address","numberOfBytes":"20"},"t_bytes32":{"encoding":"inplace","label":"bytes32","numberOfBytes":"32"},"t_mapping(t_bytes32,t_uint256)":{"encoding":"mapping","key":"t_bytes32","label":"mapping(bytes32 => uint256)","numberOfBytes":"32","value":"t_uint256"},"t_uint256":{"encoding":"inplace","label":"uint256","numberOfBytes":"32"},"t_uint8":{"encoding":"inplace","label":"uint8","numberOfBytes":"1"}}},"id":1}