{"abi":[{"type":"constructor","inputs":[],"stateMutability":"nonpayable"},{"type":"function","name":"action_attempt_settlement","inputs":[{"name":"result","type":"bool","internalType":"bool"}],"outputs":[],"stateMutability":"nonpayable"},{"type":"function","name":"action_register_challenge_operator","inputs":[],"outputs":[],"stateMutability":"nonpayable"},{"type":"function","name":"attemptedSettlement","inputs":[],"outputs":[{"name":"","type":"bool","internalType":"bool"}],"stateMutability":"view"},{"type":"function","name":"challenge","inputs":[],"outputs":[{"name":"","type":"address","internalType":"contract ChallengeSettlementHarness"}],"stateMutability":"view"},{"type":"function","name":"challengerOperator","inputs":[],"outputs":[{"name":"","type":"address","internalType":"address"}],"stateMutability":"view"},{"type":"function","name":"challengerStaker","inputs":[],"outputs":[{"name":"","type":"address","internalType":"address"}],"stateMutability":"view"},{"type":"function","name":"defenderBot","inputs":[],"outputs":[{"name":"","type":"address","internalType":"contract DefenderCaller"}],"stateMutability":"view"},{"type":"function","name":"defenderOperator","inputs":[],"outputs":[{"name":"","type":"address","internalType":"address"}],"stateMutability":"view"},{"type":"function","name":"defenderStaker","inputs":[],"outputs":[{"name":"","type":"address","internalType":"address"}],"stateMutability":"view"},{"type":"function","name":"echidna_settlement_progresses_without_hidden_registration","inputs":[],"outputs":[{"name":"","type":"bool","internalType":"bool"}],"stateMutability":"view"},{"type":"function","name":"registeredChallengeOperator","inputs":[],"outputs":[{"name":"","type":"bool","internalType":"bool"}],"stateMutability":"view"},{"type":"function","name":"rollup","inputs":[],"outputs":[{"name":"","type":"address","internalType":"contract RollupOperatorGateHarness"}],"stateMutability":"view"},{"type":"function","name":"syntheticChallengeOperatorStaker","inputs":[],"outputs":[{"name":"","type":"address","internalType":"address"}],"stateMutability":"view"}],"bytecode":{"object":"0x608060405234801562000010575f80fd5b506040516200001f906200065f565b604051809103905ff08015801562000039573d5f803e3d5ffd5b505f806101000a81548173ffffffffffffffffffffffffffffffffffffffff021916908373ffffffffffffffffffffffffffffffffffffffff16021790555060405162000086906200066d565b604051809103905ff080158015620000a0573d5f803e3d5ffd5b5060015f6101000a81548173ffffffffffffffffffffffffffffffffffffffff021916908373ffffffffffffffffffffffffffffffffffffffff16021790555060015f9054906101000a900473ffffffffffffffffffffffffffffffffffffffff1660035f6101000a81548173ffffffffffffffffffffffffffffffffffffffff021916908373ffffffffffffffffffffffffffffffffffffffff16021790555061beef60045f6101000a81548173ffffffffffffffffffffffffffffffffffffffff021916908373ffffffffffffffffffffffffffffffffffffffff16021790555061aa0160055f6101000a81548173ffffffffffffffffffffffffffffffffffffffff021916908373ffffffffffffffffffffffffffffffffffffffff16021790555061bb0260065f6101000a81548173ffffffffffffffffffffffffffffffffffffffff021916908373ffffffffffffffffffffffffffffffffffffffff16021790555061cc0360075f6101000a81548173ffffffffffffffffffffffffffffffffffffffff021916908373ffffffffffffffffffffffffffffffffffffffff1602179055505f8054906101000a900473ffffffffffffffffffffffffffffffffffffffff1673ffffffffffffffffffffffffffffffffffffffff1663aa67735460035f9054906101000a900473ffffffffffffffffffffffffffffffffffffffff1660055f9054906101000a900473ffffffffffffffffffffffffffffffffffffffff166040518363ffffffff1660e01b8152600401620002e7929190620006cc565b5f604051808303815f87803b158015620002ff575f80fd5b505af115801562000312573d5f803e3d5ffd5b505050505f8054906101000a900473ffffffffffffffffffffffffffffffffffffffff1673ffffffffffffffffffffffffffffffffffffffff1663aa67735460045f9054906101000a900473ffffffffffffffffffffffffffffffffffffffff1660065f9054906101000a900473ffffffffffffffffffffffffffffffffffffffff166040518363ffffffff1660e01b8152600401620003b4929190620006cc565b5f604051808303815f87803b158015620003cc575f80fd5b505af1158015620003df573d5f803e3d5ffd5b5050505060035f9054906101000a900473ffffffffffffffffffffffffffffffffffffffff1660045f9054906101000a900473ffffffffffffffffffffffffffffffffffffffff165f8054906101000a900473ffffffffffffffffffffffffffffffffffffffff1660405162000455906200067b565b6200046393929190620006f7565b604051809103905ff0801580156200047d573d5f803e3d5ffd5b5060025f6101000a81548173ffffffffffffffffffffffffffffffffffffffff021916908373ffffffffffffffffffffffffffffffffffffffff1602179055505f8054906101000a900473ffffffffffffffffffffffffffffffffffffffff1673ffffffffffffffffffffffffffffffffffffffff166318a8e57860035f9054906101000a900473ffffffffffffffffffffffffffffffffffffffff1660045f9054906101000a900473ffffffffffffffffffffffffffffffffffffffff1660025f9054906101000a900473ffffffffffffffffffffffffffffffffffffffff166040518463ffffffff1660e01b81526004016200057e93929190620006f7565b5f604051808303815f87803b15801562000596575f80fd5b505af1158015620005a9573d5f803e3d5ffd5b5050505060025f9054906101000a900473ffffffffffffffffffffffffffffffffffffffff1673ffffffffffffffffffffffffffffffffffffffff1663d9fca76960035f9054906101000a900473ffffffffffffffffffffffffffffffffffffffff166040518263ffffffff1660e01b81526004016200062a919062000732565b5f604051808303815f87803b15801562000642575f80fd5b505af115801562000655573d5f803e3d5ffd5b505050506200074d565b610cb48062000fe483390190565b6102108062001c9883390190565b610a718062001ea883390190565b5f73ffffffffffffffffffffffffffffffffffffffff82169050919050565b5f620006b48262000689565b9050919050565b620006c681620006a8565b82525050565b5f604082019050620006e15f830185620006bb565b620006f06020830184620006bb565b9392505050565b5f6060820190506200070c5f830186620006bb565b6200071b6020830185620006bb565b6200072a6040830184620006bb565b949350505050565b5f602082019050620007475f830184620006bb565b92915050565b610889806200075b5f395ff3fe608060405234801561000f575f80fd5b50600436106100cd575f3560e01c80636175b81b1161008a578063d2ef739811610064578063d2ef7398146101c9578063db796f37146101e7578063ef9b48e114610205578063f76cc17914610223576100cd565b80636175b81b1461016f578063cb23bcb51461018d578063d1526404146101ab576100cd565b8063020ae736146100d157806311e79262146100ef57806316f764d21461010d57806335a56d871461012b57806337311fef14610135578063522dc25514610151575b5f80fd5b6100d9610241565b6040516100e69190610616565b60405180910390f35b6100f76102f1565b604051610104919061066e565b60405180910390f35b610115610316565b604051610122919061066e565b60405180910390f35b61013361033b565b005b61014f600480360381019061014a91906106b5565b610436565b005b6101596104fa565b6040516101669190610616565b60405180910390f35b61017761050d565b604051610184919061073b565b60405180910390f35b610195610532565b6040516101a29190610774565b60405180910390f35b6101b3610555565b6040516101c09190610616565b60405180910390f35b6101d1610568565b6040516101de91906107ad565b60405180910390f35b6101ef61058d565b6040516101fc919061066e565b60405180910390f35b61020d6105b2565b60405161021a919061066e565b60405180910390f35b61022b6105d7565b604051610238919061066e565b60405180910390f35b5f600760149054906101000a900460ff1661025f57600190506102ee565b5f8054906101000a900473ffffffffffffffffffffffffffffffffffffffff1673ffffffffffffffffffffffffffffffffffffffff1663e10226026040518163ffffffff1660e01b8152600401602060405180830381865afa1580156102c7573d5f803e3d5ffd5b505050506040513d601f19601f820116820180604052508101906102eb91906107da565b90505b90565b60055f9054906101000a900473ffffffffffffffffffffffffffffffffffffffff1681565b60075f9054906101000a900473ffffffffffffffffffffffffffffffffffffffff1681565b600760159054906101000a900460ff16610434575f8054906101000a900473ffffffffffffffffffffffffffffffffffffffff1673ffffffffffffffffffffffffffffffffffffffff1663aa67735460025f9054906101000a900473ffffffffffffffffffffffffffffffffffffffff1660075f9054906101000a900473ffffffffffffffffffffffffffffffffffffffff166040518363ffffffff1660e01b81526004016103eb929190610805565b5f604051808303815f87803b158015610402575f80fd5b505af1158015610414573d5f803e3d5ffd5b505050506001600760156101000a81548160ff0219169083151502179055505b565b6001600760146101000a81548160ff02191690831515021790555060015f9054906101000a900473ffffffffffffffffffffffffffffffffffffffff1673ffffffffffffffffffffffffffffffffffffffff16632a33743160025f9054906101000a900473ffffffffffffffffffffffffffffffffffffffff16836040518363ffffffff1660e01b81526004016104ce92919061082c565b5f604051808303815f87803b1580156104e5575f80fd5b505af19250505080156104f6575060015b5050565b600760159054906101000a900460ff1681565b60015f9054906101000a900473ffffffffffffffffffffffffffffffffffffffff1681565b5f8054906101000a900473ffffffffffffffffffffffffffffffffffffffff1681565b600760149054906101000a900460ff1681565b60025f9054906101000a900473ffffffffffffffffffffffffffffffffffffffff1681565b60045f9054906101000a900473ffffffffffffffffffffffffffffffffffffffff1681565b60065f9054906101000a900473ffffffffffffffffffffffffffffffffffffffff1681565b60035f9054906101000a900473ffffffffffffffffffffffffffffffffffffffff1681565b5f8115159050919050565b610610816105fc565b82525050565b5f6020820190506106295f830184610607565b92915050565b5f73ffffffffffffffffffffffffffffffffffffffff82169050919050565b5f6106588261062f565b9050919050565b6106688161064e565b82525050565b5f6020820190506106815f83018461065f565b92915050565b5f80fd5b610694816105fc565b811461069e575f80fd5b50565b5f813590506106af8161068b565b92915050565b5f602082840312156106ca576106c9610687565b5b5f6106d7848285016106a1565b91505092915050565b5f819050919050565b5f6107036106fe6106f98461062f565b6106e0565b61062f565b9050919050565b5f610714826106e9565b9050919050565b5f6107258261070a565b9050919050565b6107358161071b565b82525050565b5f60208201905061074e5f83018461072c565b92915050565b5f61075e8261070a565b9050919050565b61076e81610754565b82525050565b5f6020820190506107875f830184610765565b92915050565b5f6107978261070a565b9050919050565b6107a78161078d565b82525050565b5f6020820190506107c05f83018461079e565b92915050565b5f815190506107d48161068b565b92915050565b5f602082840312156107ef576107ee610687565b5b5f6107fc848285016107c6565b91505092915050565b5f6040820190506108185f83018561065f565b610825602083018461065f565b9392505050565b5f60408201905061083f5f83018561079e565b61084c6020830184610607565b939250505056fea2646970667358221220067c6606f3b62d45b2189ce3124f4367226aab7bff47540163a0bac768540cbc64736f6c63430008180033608060405234801561000f575f80fd5b50610c978061001d5f395ff3fe608060405234801561000f575f80fd5b5060043610610060575f3560e01c806318a8e578146100645780636aabc350146100805780639168ae72146100b0578063aa677354146100e1578063e1022602146100fd578063fa7803e61461011b575b5f80fd5b61007e6004803603810190610079919061090e565b610137565b005b61009a6004803603810190610095919061095e565b6102f8565b6040516100a79190610998565b60405180910390f35b6100ca60048036038101906100c5919061095e565b610328565b6040516100d89291906109cb565b60405180910390f35b6100fb60048036038101906100f691906109f2565b610372565b005b610105610447565b6040516101129190610a30565b60405180910390f35b610135600480360381019061013091906109f2565b610459565b005b5f60015f8573ffffffffffffffffffffffffffffffffffffffff1673ffffffffffffffffffffffffffffffffffffffff1681526020019081526020015f205f9054906101000a900473ffffffffffffffffffffffffffffffffffffffff1690505f60015f8573ffffffffffffffffffffffffffffffffffffffff1673ffffffffffffffffffffffffffffffffffffffff1681526020019081526020015f205f9054906101000a900473ffffffffffffffffffffffffffffffffffffffff169050825f808473ffffffffffffffffffffffffffffffffffffffff1673ffffffffffffffffffffffffffffffffffffffff1681526020019081526020015f205f0160016101000a81548173ffffffffffffffffffffffffffffffffffffffff021916908373ffffffffffffffffffffffffffffffffffffffff160217905550825f808373ffffffffffffffffffffffffffffffffffffffff1673ffffffffffffffffffffffffffffffffffffffff1681526020019081526020015f205f0160016101000a81548173ffffffffffffffffffffffffffffffffffffffff021916908373ffffffffffffffffffffffffffffffffffffffff1602179055505050505050565b6001602052805f5260405f205f915054906101000a900473ffffffffffffffffffffffffffffffffffffffff1681565b5f602052805f5260405f205f91509050805f015f9054906101000a900460ff1690805f0160019054906101000a900473ffffffffffffffffffffffffffffffffffffffff16905082565b8060015f8473ffffffffffffffffffffffffffffffffffffffff1673ffffffffffffffffffffffffffffffffffffffff1681526020019081526020015f205f6101000a81548173ffffffffffffffffffffffffffffffffffffffff021916908373ffffffffffffffffffffffffffffffffffffffff16021790555060015f808373ffffffffffffffffffffffffffffffffffffffff1673ffffffffffffffffffffffffffffffffffffffff1681526020019081526020015f205f015f6101000a81548160ff0219169083151502179055505050565b60025f9054906101000a900460ff1681565b5f73ffffffffffffffffffffffffffffffffffffffff1660015f3373ffffffffffffffffffffffffffffffffffffffff1673ffffffffffffffffffffffffffffffffffffffff1681526020019081526020015f205f9054906101000a900473ffffffffffffffffffffffffffffffffffffffff1673ffffffffffffffffffffffffffffffffffffffff1603610523576040517f08c379a000000000000000000000000000000000000000000000000000000000815260040161051a90610aa3565b60405180910390fd5b5f60015f8473ffffffffffffffffffffffffffffffffffffffff1673ffffffffffffffffffffffffffffffffffffffff1681526020019081526020015f205f9054906101000a900473ffffffffffffffffffffffffffffffffffffffff1690505f60015f8473ffffffffffffffffffffffffffffffffffffffff1673ffffffffffffffffffffffffffffffffffffffff1681526020019081526020015f205f9054906101000a900473ffffffffffffffffffffffffffffffffffffffff1690505f808273ffffffffffffffffffffffffffffffffffffffff1673ffffffffffffffffffffffffffffffffffffffff1681526020019081526020015f205f015f9054906101000a900460ff1661066d576040517f08c379a000000000000000000000000000000000000000000000000000000000815260040161066490610b0b565b60405180910390fd5b5f6106788383610709565b90508073ffffffffffffffffffffffffffffffffffffffff163373ffffffffffffffffffffffffffffffffffffffff16146106e8576040517f08c379a00000000000000000000000000000000000000000000000000000000081526004016106df90610b73565b60405180910390fd5b600160025f6101000a81548160ff0219169083151502179055505050505050565b5f805f808573ffffffffffffffffffffffffffffffffffffffff1673ffffffffffffffffffffffffffffffffffffffff1681526020019081526020015f205f0160019054906101000a900473ffffffffffffffffffffffffffffffffffffffff1690505f73ffffffffffffffffffffffffffffffffffffffff168173ffffffffffffffffffffffffffffffffffffffff16036107da576040517f08c379a00000000000000000000000000000000000000000000000000000000081526004016107d190610bdb565b60405180910390fd5b5f808473ffffffffffffffffffffffffffffffffffffffff1673ffffffffffffffffffffffffffffffffffffffff1681526020019081526020015f205f0160019054906101000a900473ffffffffffffffffffffffffffffffffffffffff1673ffffffffffffffffffffffffffffffffffffffff168173ffffffffffffffffffffffffffffffffffffffff16146108a6576040517f08c379a000000000000000000000000000000000000000000000000000000000815260040161089d90610c43565b60405180910390fd5b8091505092915050565b5f80fd5b5f73ffffffffffffffffffffffffffffffffffffffff82169050919050565b5f6108dd826108b4565b9050919050565b6108ed816108d3565b81146108f7575f80fd5b50565b5f81359050610908816108e4565b92915050565b5f805f60608486031215610925576109246108b0565b5b5f610932868287016108fa565b9350506020610943868287016108fa565b9250506040610954868287016108fa565b9150509250925092565b5f60208284031215610973576109726108b0565b5b5f610980848285016108fa565b91505092915050565b610992816108d3565b82525050565b5f6020820190506109ab5f830184610989565b92915050565b5f8115159050919050565b6109c5816109b1565b82525050565b5f6040820190506109de5f8301856109bc565b6109eb6020830184610989565b9392505050565b5f8060408385031215610a0857610a076108b0565b5b5f610a15858286016108fa565b9250506020610a26858286016108fa565b9150509250929050565b5f602082019050610a435f8301846109bc565b92915050565b5f82825260208201905092915050565b7f4e6f744f70657261746f720000000000000000000000000000000000000000005f82015250565b5f610a8d600b83610a49565b9150610a9882610a59565b602082019050919050565b5f6020820190508181035f830152610aba81610a81565b9050919050565b7f4e6f745374616b656400000000000000000000000000000000000000000000005f82015250565b5f610af5600983610a49565b9150610b0082610ac1565b602082019050919050565b5f6020820190508181035f830152610b2281610ae9565b9050919050565b7f4e6f744368616c6c656e676500000000000000000000000000000000000000005f82015250565b5f610b5d600c83610a49565b9150610b6882610b29565b602082019050919050565b5f6020820190508181035f830152610b8a81610b51565b9050919050565b7f4e6f74496e4368616c6c656e67650000000000000000000000000000000000005f82015250565b5f610bc5600e83610a49565b9150610bd082610b91565b602082019050919050565b5f6020820190508181035f830152610bf281610bb9565b9050919050565b7f496e446966666572656e744368616c6c656e67650000000000000000000000005f82015250565b5f610c2d601483610a49565b9150610c3882610bf9565b602082019050919050565b5f6020820190508181035f830152610c5a81610c21565b905091905056fea2646970667358221220d87ce3bbec5fc6e183cd3a52a09a38923f91ab719431dd12c8e13cd00b3367af64736f6c63430008180033608060405234801561000f575f80fd5b506101f38061001d5f395ff3fe608060405234801561000f575f80fd5b5060043610610029575f3560e01c80632a3374311461002d575b5f80fd5b61004760048036038101906100429190610157565b610049565b005b8173ffffffffffffffffffffffffffffffffffffffff1663f2858aa3826040518263ffffffff1660e01b815260040161008291906101a4565b5f604051808303815f87803b158015610099575f80fd5b505af11580156100ab573d5f803e3d5ffd5b505050505050565b5f80fd5b5f73ffffffffffffffffffffffffffffffffffffffff82169050919050565b5f6100e0826100b7565b9050919050565b5f6100f1826100d6565b9050919050565b610101816100e7565b811461010b575f80fd5b50565b5f8135905061011c816100f8565b92915050565b5f8115159050919050565b61013681610122565b8114610140575f80fd5b50565b5f813590506101518161012d565b92915050565b5f806040838503121561016d5761016c6100b3565b5b5f61017a8582860161010e565b925050602061018b85828601610143565b9150509250929050565b61019e81610122565b82525050565b5f6020820190506101b75f830184610195565b9291505056fea26469706673582212201bc415ef95fc4c555d53887d4ff67ff876b637ed55bc18d7d3a520015cc2a54064736f6c63430008180033608060405234801561000f575f80fd5b50604051610a71380380610a7183398181016040528101906100319190610156565b825f806101000a81548173ffffffffffffffffffffffffffffffffffffffff021916908373ffffffffffffffffffffffffffffffffffffffff1602179055508160015f6101000a81548173ffffffffffffffffffffffffffffffffffffffff021916908373ffffffffffffffffffffffffffffffffffffffff1602179055508060025f6101000a81548173ffffffffffffffffffffffffffffffffffffffff021916908373ffffffffffffffffffffffffffffffffffffffff1602179055505050506101a6565b5f80fd5b5f73ffffffffffffffffffffffffffffffffffffffff82169050919050565b5f610125826100fc565b9050919050565b6101358161011b565b811461013f575f80fd5b50565b5f815190506101508161012c565b92915050565b5f805f6060848603121561016d5761016c6100f8565b5b5f61017a86828701610142565b935050602061018b86828701610142565b925050604061019c86828701610142565b9150509250925092565b6108be806101b35f395ff3fe608060405234801561000f575f80fd5b5060043610610060575f3560e01c80633504f1d714610064578063534db0e2146100825780637f4c91c5146100a0578063d9fca769146100be578063dfbf53ae146100da578063f2858aa3146100f8575b5f80fd5b61006c610114565b6040516100799190610647565b60405180910390f35b61008a610139565b6040516100979190610647565b60405180910390f35b6100a861015e565b6040516100b59190610647565b60405180910390f35b6100d860048036038101906100d3919061068e565b610181565b005b6100e26101c4565b6040516100ef9190610647565b60405180910390f35b610112600480360381019061010d91906106ee565b6101e9565b005b60025f9054906101000a900473ffffffffffffffffffffffffffffffffffffffff1681565b60015f9054906101000a900473ffffffffffffffffffffffffffffffffffffffff1681565b5f8054906101000a900473ffffffffffffffffffffffffffffffffffffffff1681565b8060035f6101000a81548173ffffffffffffffffffffffffffffffffffffffff021916908373ffffffffffffffffffffffffffffffffffffffff16021790555050565b60035f9054906101000a900473ffffffffffffffffffffffffffffffffffffffff1681565b5f73ffffffffffffffffffffffffffffffffffffffff165f8054906101000a900473ffffffffffffffffffffffffffffffffffffffff1673ffffffffffffffffffffffffffffffffffffffff1603610276576040517f08c379a000000000000000000000000000000000000000000000000000000000815260040161026d90610773565b60405180910390fd5b5f8054906101000a900473ffffffffffffffffffffffffffffffffffffffff1673ffffffffffffffffffffffffffffffffffffffff163373ffffffffffffffffffffffffffffffffffffffff1614610303576040517f08c379a00000000000000000000000000000000000000000000000000000000081526004016102fa906107db565b60405180910390fd5b5f73ffffffffffffffffffffffffffffffffffffffff1660035f9054906101000a900473ffffffffffffffffffffffffffffffffffffffff1673ffffffffffffffffffffffffffffffffffffffff1603610392576040517f08c379a000000000000000000000000000000000000000000000000000000000815260040161038990610843565b60405180910390fd5b60015f9054906101000a900473ffffffffffffffffffffffffffffffffffffffff1673ffffffffffffffffffffffffffffffffffffffff1660035f9054906101000a900473ffffffffffffffffffffffffffffffffffffffff1673ffffffffffffffffffffffffffffffffffffffff160361053b5780156104db5760025f9054906101000a900473ffffffffffffffffffffffffffffffffffffffff1673ffffffffffffffffffffffffffffffffffffffff1663fa7803e660015f9054906101000a900473ffffffffffffffffffffffffffffffffffffffff165f8054906101000a900473ffffffffffffffffffffffffffffffffffffffff166040518363ffffffff1660e01b81526004016104a9929190610861565b5f604051808303815f87803b1580156104c0575f80fd5b505af11580156104d2573d5f803e3d5ffd5b50505050610605565b5f8054906101000a900473ffffffffffffffffffffffffffffffffffffffff1660035f6101000a81548173ffffffffffffffffffffffffffffffffffffffff021916908373ffffffffffffffffffffffffffffffffffffffff1602179055505b60025f9054906101000a900473ffffffffffffffffffffffffffffffffffffffff1673ffffffffffffffffffffffffffffffffffffffff1663fa7803e65f8054906101000a900473ffffffffffffffffffffffffffffffffffffffff1660015f9054906101000a900473ffffffffffffffffffffffffffffffffffffffff166040518363ffffffff1660e01b81526004016105d7929190610861565b5f604051808303815f87803b1580156105ee575f80fd5b505af1158015610600573d5f803e3d5ffd5b505050505b50565b5f73ffffffffffffffffffffffffffffffffffffffff82169050919050565b5f61063182610608565b9050919050565b61064181610627565b82525050565b5f60208201905061065a5f830184610638565b92915050565b5f80fd5b61066d81610627565b8114610677575f80fd5b50565b5f8135905061068881610664565b92915050565b5f602082840312156106a3576106a2610660565b5b5f6106b08482850161067a565b91505092915050565b5f8115159050919050565b6106cd816106b9565b81146106d7575f80fd5b50565b5f813590506106e8816106c4565b92915050565b5f6020828403121561070357610702610660565b5b5f610710848285016106da565b91505092915050565b5f82825260208201905092915050565b7f446566656e646572206e6f7420736574000000000000000000000000000000005f82015250565b5f61075d601083610719565b915061076882610729565b602082019050919050565b5f6020820190508181035f83015261078a81610751565b9050919050565b7f43616c6c6572206e6f7420646566656e646572000000000000000000000000005f82015250565b5f6107c5601383610719565b91506107d082610791565b602082019050919050565b5f6020820190508181035f8301526107f2816107b9565b9050919050565b7f446f206e6f7420686176652077696e6e657200000000000000000000000000005f82015250565b5f61082d601283610719565b9150610838826107f9565b602082019050919050565b5f6020820190508181035f83015261085a81610821565b9050919050565b5f6040820190506108745f830185610638565b6108816020830184610638565b939250505056fea2646970667358221220dd50ca84bff8075056d01179e38706bae4b8d5638f0529e4e402b08ef27d7a7464736f6c63430008180033","linkReferences":{}},"methodIdentifiers":{"action_attempt_settlement(bool)":"37311fef","action_register_challenge_operator()":"35a56d87","attemptedSettlement()":"d1526404","challenge()":"d2ef7398","challengerOperator()":"db796f37","challengerStaker()":"ef9b48e1","defenderBot()":"6175b81b","defenderOperator()":"f76cc179","defenderStaker()":"11e79262","echidna_settlement_progresses_without_hidden_registration()":"020ae736","registeredChallengeOperator()":"522dc255","rollup()":"cb23bcb5","syntheticChallengeOperatorStaker()":"16f764d2"},"storageLayout":{"storage":[{"astId":145,"contract":"src/EchidnaMantleHarnesses.sol:EchidnaF3OperatorGateHarness","label":"rollup","offset":0,"slot":"0","type":"t_contract(RollupOperatorGateHarness)522"},{"astId":148,"contract":"src/EchidnaMantleHarnesses.sol:EchidnaF3OperatorGateHarness","label":"defenderBot","offset":0,"slot":"1","type":"t_contract(DefenderCaller)650"},{"astId":151,"contract":"src/EchidnaMantleHarnesses.sol:EchidnaF3OperatorGateHarness","label":"challenge","offset":0,"slot":"2","type":"t_contract(ChallengeSettlementHarness)634"},{"astId":153,"contract":"src/EchidnaMantleHarnesses.sol:EchidnaF3OperatorGateHarness","label":"defenderOperator","offset":0,"slot":"3","type":"t_address"},{"astId":155,"contract":"src/EchidnaMantleHarnesses.sol:EchidnaF3OperatorGateHarness","label":"challengerOperator","offset":0,"slot":"4","type":"t_address"},{"astId":157,"contract":"src/EchidnaMantleHarnesses.sol:EchidnaF3OperatorGateHarness","label":"defenderStaker","offset":0,"slot":"5","type":"t_address"},{"astId":159,"contract":"src/EchidnaMantleHarnesses.sol:EchidnaF3OperatorGateHarness","label":"challengerStaker","offset":0,"slot":"6","type":"t_address"},{"astId":161,"contract":"src/EchidnaMantleHarnesses.sol:EchidnaF3OperatorGateHarness","label":"syntheticChallengeOperatorStaker","offset":0,"slot":"7","type":"t_address"},{"astId":163,"contract":"src/EchidnaMantleHarnesses.sol:EchidnaF3OperatorGateHarness","label":"attemptedSettlement","offset":20,"slot":"7","type":"t_bool"},{"astId":165,"contract":"src/EchidnaMantleHarnesses.sol:EchidnaF3OperatorGateHarness","label":"registeredChallengeOperator","offset":21,"slot":"7","type":"t_bool"}],"types":{"t_address":{"encoding":"inplace","label":"address","numberOfBytes":"20"},"t_bool":{"encoding":"inplace","label":"bool","numberOfBytes":"1"},"t_contract(ChallengeSettlementHarness)634":{"encoding":"inplace","label":"contract ChallengeSettlementHarness","numberOfBytes":"20"},"t_contract(DefenderCaller)650":{"encoding":"inplace","label":"contract DefenderCaller","numberOfBytes":"20"},"t_contract(RollupOperatorGateHarness)522":{"encoding":"inplace","label":"contract RollupOperatorGateHarness","numberOfBytes":"20"}}},"id":0}