{"abi":[{"type":"constructor","inputs":[],"stateMutability":"nonpayable"},{"type":"function","name":"action_attemptBugUpgradeWithStaleSet","inputs":[{"name":"_seed","type":"uint96","internalType":"uint96"}],"outputs":[],"stateMutability":"nonpayable"},{"type":"function","name":"action_attemptCoreUpgradeWithStaleSet","inputs":[{"name":"_seed","type":"uint96","internalType":"uint96"}],"outputs":[],"stateMutability":"nonpayable"},{"type":"function","name":"action_attemptFixedUpgradeWithStaleSet","inputs":[{"name":"_seed","type":"uint96","internalType":"uint96"}],"outputs":[],"stateMutability":"nonpayable"},{"type":"function","name":"bridgeBug","inputs":[],"outputs":[{"name":"","type":"address","internalType":"contract BridgeGovernanceBugModel"}],"stateMutability":"view"},{"type":"function","name":"bridgeFixed","inputs":[],"outputs":[{"name":"","type":"address","internalType":"contract BridgeGovernanceFixedModel"}],"stateMutability":"view"},{"type":"function","name":"bugAcceptedStaleSet","inputs":[],"outputs":[{"name":"","type":"bool","internalType":"bool"}],"stateMutability":"view"},{"type":"function","name":"core","inputs":[],"outputs":[{"name":"","type":"address","internalType":"contract CoreGovernanceModel"}],"stateMutability":"view"},{"type":"function","name":"coreAcceptedStaleSet","inputs":[],"outputs":[{"name":"","type":"bool","internalType":"bool"}],"stateMutability":"view"},{"type":"function","name":"echidna_stale_set_must_not_authorize_bridge_governance","inputs":[],"outputs":[{"name":"","type":"bool","internalType":"bool"}],"stateMutability":"view"},{"type":"function","name":"fixedAcceptedStaleSet","inputs":[],"outputs":[{"name":"","type":"bool","internalType":"bool"}],"stateMutability":"view"},{"type":"function","name":"property_core_rejects_stale_guardian_set","inputs":[],"outputs":[{"name":"","type":"bool","internalType":"bool"}],"stateMutability":"view"},{"type":"function","name":"property_fixed_bridge_rejects_stale_guardian_set","inputs":[],"outputs":[{"name":"","type":"bool","internalType":"bool"}],"stateMutability":"view"},{"type":"function","name":"property_stale_set_must_not_authorize_bridge_governance","inputs":[],"outputs":[{"name":"","type":"bool","internalType":"bool"}],"stateMutability":"view"},{"type":"function","name":"wormhole","inputs":[],"outputs":[{"name":"","type":"address","internalType":"contract WormholeVerificationModel"}],"stateMutability":"view"}],"bytecode":{"object":"0x608060405234801562000010575f80fd5b506040516200001f9062000424565b604051809103905ff08015801562000039573d5f803e3d5ffd5b505f806101000a81548173ffffffffffffffffffffffffffffffffffffffff021916908373ffffffffffffffffffffffffffffffffffffffff1602179055505f8054906101000a900473ffffffffffffffffffffffffffffffffffffffff1673ffffffffffffffffffffffffffffffffffffffff16638787f94760066201518042620000c6919062000492565b6040518363ffffffff1660e01b8152600401620000e5929190620004fd565b5f604051808303815f87803b158015620000fd575f80fd5b505af115801562000110573d5f803e3d5ffd5b505050505f8054906101000a900473ffffffffffffffffffffffffffffffffffffffff1673ffffffffffffffffffffffffffffffffffffffff16638787f94760077fffffffffffffffffffffffffffffffffffffffffffffffffffffffffffffffff6040518363ffffffff1660e01b815260040162000191929190620004fd565b5f604051808303815f87803b158015620001a9575f80fd5b505af1158015620001bc573d5f803e3d5ffd5b505050505f8054906101000a900473ffffffffffffffffffffffffffffffffffffffff1673ffffffffffffffffffffffffffffffffffffffff1663f9c6c6b260076040518263ffffffff1660e01b81526004016200021b919062000528565b5f604051808303815f87803b15801562000233575f80fd5b505af115801562000246573d5f803e3d5ffd5b505050505f8054906101000a900473ffffffffffffffffffffffffffffffffffffffff16600160045f1b6040516200027e9062000432565b6200028c9392919062000601565b604051809103905ff080158015620002a6573d5f803e3d5ffd5b5060015f6101000a81548173ffffffffffffffffffffffffffffffffffffffff021916908373ffffffffffffffffffffffffffffffffffffffff1602179055505f8054906101000a900473ffffffffffffffffffffffffffffffffffffffff16600160045f1b6040516200031a9062000440565b620003289392919062000601565b604051809103905ff08015801562000342573d5f803e3d5ffd5b5060025f6101000a81548173ffffffffffffffffffffffffffffffffffffffff021916908373ffffffffffffffffffffffffffffffffffffffff1602179055505f8054906101000a900473ffffffffffffffffffffffffffffffffffffffff16600160045f1b604051620003b6906200044e565b620003c49392919062000601565b604051809103905ff080158015620003de573d5f803e3d5ffd5b5060035f6101000a81548173ffffffffffffffffffffffffffffffffffffffff021916908373ffffffffffffffffffffffffffffffffffffffff1602179055506200063c565b6109f380620011ed83390190565b610fb08062001be083390190565b610e138062002b9083390190565b610fb080620039a383390190565b5f819050919050565b7f4e487b71000000000000000000000000000000000000000000000000000000005f52601160045260245ffd5b5f6200049e826200045c565b9150620004ab836200045c565b9250828201905080821115620004c657620004c562000465565b5b92915050565b5f63ffffffff82169050919050565b620004e681620004cc565b82525050565b620004f7816200045c565b82525050565b5f604082019050620005125f830185620004db565b620005216020830184620004ec565b9392505050565b5f6020820190506200053d5f830184620004db565b92915050565b5f73ffffffffffffffffffffffffffffffffffffffff82169050919050565b5f819050919050565b5f6200058b620005856200057f8462000543565b62000562565b62000543565b9050919050565b5f6200059e826200056b565b9050919050565b5f620005b18262000592565b9050919050565b620005c381620005a5565b82525050565b5f61ffff82169050919050565b620005e181620005c9565b82525050565b5f819050919050565b620005fb81620005e7565b82525050565b5f606082019050620006165f830186620005b8565b620006256020830185620005d6565b620006346040830184620005f0565b949350505050565b610ba3806200064a5f395ff3fe608060405234801561000f575f80fd5b50600436106100e8575f3560e01c8063c0f689af1161008a578063dbc53df211610064578063dbc53df214610212578063deb5938714610230578063f2f4eb261461024e578063fb207e6c1461026c576100e8565b8063c0f689af146101bc578063c3ec7308146101da578063ce8dbaaa146101f6576100e8565b806384acd1bb116100c657806384acd1bb14610144578063910688b814610162578063994d49bf14610180578063999559eb1461019e576100e8565b806302c81e88146100ec57806320b34b921461010a5780637bfea44514610126575b5f80fd5b6100f461028a565b6040516101019190610713565b60405180910390f35b610124600480360381019061011f9190610771565b6102af565b005b61012e610388565b60405161013b91906107bc565b60405180910390f35b61014c6103ad565b60405161015991906107f5565b60405180910390f35b61016a6103d0565b6040516101779190610828565b60405180910390f35b6101886103e3565b6040516101959190610828565b60405180910390f35b6101a66103f6565b6040516101b39190610828565b60405180910390f35b6101c4610409565b6040516101d19190610828565b60405180910390f35b6101f460048036038101906101ef9190610771565b610420565b005b610210600480360381019061020b9190610771565b6104f9565b005b61021a6105d2565b6040516102279190610828565b60405180910390f35b6102386105e9565b6040516102459190610828565b60405180910390f35b610256610600565b6040516102639190610861565b60405180910390f35b610274610625565b6040516102819190610828565b60405180910390f35b60025f9054906101000a900473ffffffffffffffffffffffffffffffffffffffff1681565b5f816040516020016102c19190610902565b60405160208183030381529060405280519060200120905060015f9054906101000a900473ffffffffffffffffffffffffffffffffffffffff1673ffffffffffffffffffffffffffffffffffffffff16635cb8cae261031f8361063c565b6040518263ffffffff1660e01b815260040161033b91906109b1565b5f604051808303815f87803b158015610352575f80fd5b505af1925050508015610363575060015b15610384576001600360156101000a81548160ff0219169083151502179055505b5050565b60035f9054906101000a900473ffffffffffffffffffffffffffffffffffffffff1681565b5f8054906101000a900473ffffffffffffffffffffffffffffffffffffffff1681565b600360149054906101000a900460ff1681565b600360159054906101000a900460ff1681565b600360169054906101000a900460ff1681565b5f600360149054906101000a900460ff1615905090565b5f816040516020016104329190610a1b565b60405160208183030381529060405280519060200120905060035f9054906101000a900473ffffffffffffffffffffffffffffffffffffffff1673ffffffffffffffffffffffffffffffffffffffff1663253946456104908361063c565b6040518263ffffffff1660e01b81526004016104ac91906109b1565b5f604051808303815f87803b1580156104c3575f80fd5b505af19250505080156104d4575060015b156104f5576001600360166101000a81548160ff0219169083151502179055505b5050565b5f8160405160200161050b9190610a8a565b60405160208183030381529060405280519060200120905060025f9054906101000a900473ffffffffffffffffffffffffffffffffffffffff1673ffffffffffffffffffffffffffffffffffffffff1663253946456105698361063c565b6040518263ffffffff1660e01b815260040161058591906109b1565b5f604051808303815f87803b15801561059c575f80fd5b505af19250505080156105ad575060015b156105ce576001600360146101000a81548160ff0219169083151502179055505b5050565b5f600360149054906101000a900460ff1615905090565b5f600360169054906101000a900460ff1615905090565b60015f9054906101000a900473ffffffffffffffffffffffffffffffffffffffff1681565b5f600360159054906101000a900460ff1615905090565b60605f6040518060800160405280600663ffffffff168152602001600161ffff16815260200160045f1b8152602001848152509050806040516020016106829190610b54565b604051602081830303815290604052915050919050565b5f73ffffffffffffffffffffffffffffffffffffffff82169050919050565b5f819050919050565b5f6106db6106d66106d184610699565b6106b8565b610699565b9050919050565b5f6106ec826106c1565b9050919050565b5f6106fd826106e2565b9050919050565b61070d816106f3565b82525050565b5f6020820190506107265f830184610704565b92915050565b5f80fd5b5f6bffffffffffffffffffffffff82169050919050565b61075081610730565b811461075a575f80fd5b50565b5f8135905061076b81610747565b92915050565b5f602082840312156107865761078561072c565b5b5f6107938482850161075d565b91505092915050565b5f6107a6826106e2565b9050919050565b6107b68161079c565b82525050565b5f6020820190506107cf5f8301846107ad565b92915050565b5f6107df826106e2565b9050919050565b6107ef816107d5565b82525050565b5f6020820190506108085f8301846107e6565b92915050565b5f8115159050919050565b6108228161080e565b82525050565b5f60208201905061083b5f830184610819565b92915050565b5f61084b826106e2565b9050919050565b61085b81610841565b82525050565b5f6020820190506108745f830184610852565b92915050565b5f81905092915050565b7f636f72652d7374616c65000000000000000000000000000000000000000000005f82015250565b5f6108b8600a8361087a565b91506108c382610884565b600a82019050919050565b5f8160a01b9050919050565b5f6108e4826108ce565b9050919050565b6108fc6108f782610730565b6108da565b82525050565b5f61090c826108ac565b915061091882846108eb565b600c8201915081905092915050565b5f81519050919050565b5f82825260208201905092915050565b5f5b8381101561095e578082015181840152602081019050610943565b5f8484015250505050565b5f601f19601f8301169050919050565b5f61098382610927565b61098d8185610931565b935061099d818560208601610941565b6109a681610969565b840191505092915050565b5f6020820190508181035f8301526109c98184610979565b905092915050565b7f66697865642d7374616c650000000000000000000000000000000000000000005f82015250565b5f610a05600b8361087a565b9150610a10826109d1565b600b82019050919050565b5f610a25826109f9565b9150610a3182846108eb565b600c8201915081905092915050565b7f6275672d7374616c6500000000000000000000000000000000000000000000005f82015250565b5f610a7460098361087a565b9150610a7f82610a40565b600982019050919050565b5f610a9482610a68565b9150610aa082846108eb565b600c8201915081905092915050565b5f63ffffffff82169050919050565b610ac781610aaf565b82525050565b5f61ffff82169050919050565b610ae381610acd565b82525050565b5f819050919050565b610afb81610ae9565b82525050565b608082015f820151610b155f850182610abe565b506020820151610b286020850182610ada565b506040820151610b3b6040850182610af2565b506060820151610b4e6060850182610af2565b50505050565b5f608082019050610b675f830184610b01565b9291505056fea2646970667358221220a04a17a2da489de8bdb5d170784ed884d5be13a1a479de852f9948f91774b8f964736f6c63430008180033608060405234801561000f575f80fd5b506109d68061001d5f395ff3fe608060405234801561000f575f80fd5b5060043610610060575f3560e01c806338528f53146100645780638787f94714610082578063a6e0c88c1461009e578063c071377a146100ce578063c0fd8bde146100fe578063f9c6c6b214610130575b5f80fd5b61006c61014c565b6040516100799190610412565b60405180910390f35b61009c60048036038101906100979190610499565b61015f565b005b6100b860048036038101906100b391906104d7565b6101b9565b6040516100c59190610511565b60405180910390f35b6100e860048036038101906100e391906104d7565b6101ce565b6040516100f59190610544565b60405180910390f35b61011860048036038101906101139190610699565b6101eb565b604051610127939291906107f0565b60405180910390f35b61014a600480360381019061014591906104d7565b610335565b005b5f8054906101000a900463ffffffff1681565b6001805f8463ffffffff1663ffffffff1681526020019081526020015f205f6101000a81548160ff0219169083151502179055508060025f8463ffffffff1663ffffffff1681526020019081526020015f20819055505050565b6002602052805f5260405f205f915090505481565b6001602052805f5260405f205f915054906101000a900460ff1681565b6101f36103c0565b5f60608380602001905181019061020a919061090d565b925060015f845f015163ffffffff1663ffffffff1681526020019081526020015f205f9054906101000a900460ff1661028057825f6040518060400160405280601481526020017f696e76616c696420677561726469616e2073657400000000000000000000000081525092509250925061032e565b5f8054906101000a900463ffffffff1663ffffffff16835f015163ffffffff16141580156102cd57504260025f855f015163ffffffff1663ffffffff1681526020019081526020015f2054105b1561031557825f6040518060400160405280601881526020017f677561726469616e20736574206861732065787069726564000000000000000081525092509250925061032e565b82600160405180602001604052805f8152509250925092505b9193909250565b60015f8263ffffffff1663ffffffff1681526020019081526020015f205f9054906101000a900460ff1661039e576040517f08c379a000000000000000000000000000000000000000000000000000000000815260040161039590610982565b60405180910390fd5b805f806101000a81548163ffffffff021916908363ffffffff16021790555050565b60405180608001604052805f63ffffffff1681526020015f61ffff1681526020015f80191681526020015f80191681525090565b5f63ffffffff82169050919050565b61040c816103f4565b82525050565b5f6020820190506104255f830184610403565b92915050565b5f604051905090565b5f80fd5b5f80fd5b610445816103f4565b811461044f575f80fd5b50565b5f813590506104608161043c565b92915050565b5f819050919050565b61047881610466565b8114610482575f80fd5b50565b5f813590506104938161046f565b92915050565b5f80604083850312156104af576104ae610434565b5b5f6104bc85828601610452565b92505060206104cd85828601610485565b9150509250929050565b5f602082840312156104ec576104eb610434565b5b5f6104f984828501610452565b91505092915050565b61050b81610466565b82525050565b5f6020820190506105245f830184610502565b92915050565b5f8115159050919050565b61053e8161052a565b82525050565b5f6020820190506105575f830184610535565b92915050565b5f80fd5b5f80fd5b5f601f19601f8301169050919050565b7f4e487b71000000000000000000000000000000000000000000000000000000005f52604160045260245ffd5b6105ab82610565565b810181811067ffffffffffffffff821117156105ca576105c9610575565b5b80604052505050565b5f6105dc61042b565b90506105e882826105a2565b919050565b5f67ffffffffffffffff82111561060757610606610575565b5b61061082610565565b9050602081019050919050565b828183375f83830152505050565b5f61063d610638846105ed565b6105d3565b90508281526020810184848401111561065957610658610561565b5b61066484828561061d565b509392505050565b5f82601f8301126106805761067f61055d565b5b813561069084826020860161062b565b91505092915050565b5f602082840312156106ae576106ad610434565b5b5f82013567ffffffffffffffff8111156106cb576106ca610438565b5b6106d78482850161066c565b91505092915050565b6106e9816103f4565b82525050565b5f61ffff82169050919050565b610705816106ef565b82525050565b5f819050919050565b61071d8161070b565b82525050565b608082015f8201516107375f8501826106e0565b50602082015161074a60208501826106fc565b50604082015161075d6040850182610714565b5060608201516107706060850182610714565b50505050565b5f81519050919050565b5f82825260208201905092915050565b5f5b838110156107ad578082015181840152602081019050610792565b5f8484015250505050565b5f6107c282610776565b6107cc8185610780565b93506107dc818560208601610790565b6107e581610565565b840191505092915050565b5f60c0820190506108035f830186610723565b6108106080830185610535565b81810360a083015261082281846107b8565b9050949350505050565b5f80fd5b5f8151905061083e8161043c565b92915050565b61084d816106ef565b8114610857575f80fd5b50565b5f8151905061086881610844565b92915050565b6108778161070b565b8114610881575f80fd5b50565b5f815190506108928161086e565b92915050565b5f608082840312156108ad576108ac61082c565b5b6108b760806105d3565b90505f6108c684828501610830565b5f8301525060206108d98482850161085a565b60208301525060406108ed84828501610884565b604083015250606061090184828501610884565b60608301525092915050565b5f6080828403121561092257610921610434565b5b5f61092f84828501610898565b91505092915050565b7f756e6b6e6f776e207365740000000000000000000000000000000000000000005f82015250565b5f61096c600b83610780565b915061097782610938565b602082019050919050565b5f6020820190508181035f83015261099981610960565b905091905056fea264697066735822122069820e8213872436511ac6e50c5d8cf8ed604f32b60c0e4a496d8c6e21d118a464736f6c6343000818003360e060405234801562000010575f80fd5b5060405162000fb038038062000fb0833981810160405281019062000036919062000177565b8273ffffffffffffffffffffffffffffffffffffffff1660808173ffffffffffffffffffffffffffffffffffffffff16815250508161ffff1660a08161ffff16815250508060c08181525050505050620001d0565b5f80fd5b5f73ffffffffffffffffffffffffffffffffffffffff82169050919050565b5f620000ba826200008f565b9050919050565b5f620000cd82620000ae565b9050919050565b620000df81620000c1565b8114620000ea575f80fd5b50565b5f81519050620000fd81620000d4565b92915050565b5f61ffff82169050919050565b6200011b8162000103565b811462000126575f80fd5b50565b5f81519050620001398162000110565b92915050565b5f819050919050565b62000153816200013f565b81146200015e575f80fd5b50565b5f81519050620001718162000148565b92915050565b5f805f606084860312156200019157620001906200008b565b5b5f620001a086828701620000ed565b9350506020620001b38682870162000129565b9250506040620001c68682870162000161565b9150509250925092565b60805160a05160c051610d99620002175f395f818161037901526104af01525f818161030b01526104e501525f81816101490152818161022e015261048b0152610d995ff3fe608060405234801561000f575f80fd5b5060043610610060575f3560e01c80633b05869d146100645780635cb8cae21461009457806384acd1bb146100b0578063b172b222146100ce578063c28de2cd146100ec578063fbe3c2cd1461010a575b5f80fd5b61007e6004803603810190610079919061054b565b610128565b60405161008b9190610590565b60405180910390f35b6100ae60048036038101906100a991906106e5565b610144565b005b6100b8610489565b6040516100c591906107a6565b60405180910390f35b6100d66104ad565b6040516100e391906107ce565b60405180910390f35b6100f46104d1565b6040516101019190610590565b60405180910390f35b6101126104e3565b60405161011f9190610803565b60405180910390f35b5f602052805f5260405f205f915054906101000a900460ff1681565b5f805f7f000000000000000000000000000000000000000000000000000000000000000073ffffffffffffffffffffffffffffffffffffffff1663c0fd8bde856040518263ffffffff1660e01b81526004016101a09190610896565b5f60405180830381865afa1580156101ba573d5f803e3d5ffd5b505050506040513d5f823e3d601f19601f820116820180604052508101906101e29190610a6e565b92509250925081819061022b576040517f08c379a00000000000000000000000000000000000000000000000000000000081526004016102229190610b2c565b60405180910390fd5b507f000000000000000000000000000000000000000000000000000000000000000073ffffffffffffffffffffffffffffffffffffffff166338528f536040518163ffffffff1660e01b8152600401602060405180830381865afa158015610295573d5f803e3d5ffd5b505050506040513d601f19601f820116820180604052508101906102b99190610b4c565b63ffffffff16835f015163ffffffff1614610309576040517f08c379a000000000000000000000000000000000000000000000000000000000815260040161030090610be7565b60405180910390fd5b7f000000000000000000000000000000000000000000000000000000000000000061ffff16836020015161ffff1614610377576040517f08c379a000000000000000000000000000000000000000000000000000000000815260040161036e90610c4f565b60405180910390fd5b7f00000000000000000000000000000000000000000000000000000000000000008360400151146103dd576040517f08c379a00000000000000000000000000000000000000000000000000000000081526004016103d490610cb7565b60405180910390fd5b5f80846060015181526020019081526020015f205f9054906101000a900460ff161561043e576040517f08c379a000000000000000000000000000000000000000000000000000000000815260040161043590610d45565b60405180910390fd5b60015f80856060015181526020019081526020015f205f6101000a81548160ff0219169083151502179055506001805f6101000a81548160ff02191690831515021790555050505050565b7f000000000000000000000000000000000000000000000000000000000000000081565b7f000000000000000000000000000000000000000000000000000000000000000081565b60015f9054906101000a900460ff1681565b7f000000000000000000000000000000000000000000000000000000000000000081565b5f604051905090565b5f80fd5b5f80fd5b5f819050919050565b61052a81610518565b8114610534575f80fd5b50565b5f8135905061054581610521565b92915050565b5f602082840312156105605761055f610510565b5b5f61056d84828501610537565b91505092915050565b5f8115159050919050565b61058a81610576565b82525050565b5f6020820190506105a35f830184610581565b92915050565b5f80fd5b5f80fd5b5f601f19601f8301169050919050565b7f4e487b71000000000000000000000000000000000000000000000000000000005f52604160045260245ffd5b6105f7826105b1565b810181811067ffffffffffffffff82111715610616576106156105c1565b5b80604052505050565b5f610628610507565b905061063482826105ee565b919050565b5f67ffffffffffffffff821115610653576106526105c1565b5b61065c826105b1565b9050602081019050919050565b828183375f83830152505050565b5f61068961068484610639565b61061f565b9050828152602081018484840111156106a5576106a46105ad565b5b6106b0848285610669565b509392505050565b5f82601f8301126106cc576106cb6105a9565b5b81356106dc848260208601610677565b91505092915050565b5f602082840312156106fa576106f9610510565b5b5f82013567ffffffffffffffff81111561071757610716610514565b5b610723848285016106b8565b91505092915050565b5f73ffffffffffffffffffffffffffffffffffffffff82169050919050565b5f819050919050565b5f61076e6107696107648461072c565b61074b565b61072c565b9050919050565b5f61077f82610754565b9050919050565b5f61079082610775565b9050919050565b6107a081610786565b82525050565b5f6020820190506107b95f830184610797565b92915050565b6107c881610518565b82525050565b5f6020820190506107e15f8301846107bf565b92915050565b5f61ffff82169050919050565b6107fd816107e7565b82525050565b5f6020820190506108165f8301846107f4565b92915050565b5f81519050919050565b5f82825260208201905092915050565b5f5b83811015610853578082015181840152602081019050610838565b5f8484015250505050565b5f6108688261081c565b6108728185610826565b9350610882818560208601610836565b61088b816105b1565b840191505092915050565b5f6020820190508181035f8301526108ae818461085e565b905092915050565b5f80fd5b5f63ffffffff82169050919050565b6108d2816108ba565b81146108dc575f80fd5b50565b5f815190506108ed816108c9565b92915050565b6108fc816107e7565b8114610906575f80fd5b50565b5f81519050610917816108f3565b92915050565b5f8151905061092b81610521565b92915050565b5f60808284031215610946576109456108b6565b5b610950608061061f565b90505f61095f848285016108df565b5f83015250602061097284828501610909565b60208301525060406109868482850161091d565b604083015250606061099a8482850161091d565b60608301525092915050565b6109af81610576565b81146109b9575f80fd5b50565b5f815190506109ca816109a6565b92915050565b5f67ffffffffffffffff8211156109ea576109e96105c1565b5b6109f3826105b1565b9050602081019050919050565b5f610a12610a0d846109d0565b61061f565b905082815260208101848484011115610a2e57610a2d6105ad565b5b610a39848285610836565b509392505050565b5f82601f830112610a5557610a546105a9565b5b8151610a65848260208601610a00565b91505092915050565b5f805f60c08486031215610a8557610a84610510565b5b5f610a9286828701610931565b9350506080610aa3868287016109bc565b92505060a084015167ffffffffffffffff811115610ac457610ac3610514565b5b610ad086828701610a41565b9150509250925092565b5f81519050919050565b5f82825260208201905092915050565b5f610afe82610ada565b610b088185610ae4565b9350610b18818560208601610836565b610b21816105b1565b840191505092915050565b5f6020820190508181035f830152610b448184610af4565b905092915050565b5f60208284031215610b6157610b60610510565b5b5f610b6e848285016108df565b91505092915050565b7f6e6f74207369676e65642062792063757272656e7420677561726469616e20735f8201527f6574000000000000000000000000000000000000000000000000000000000000602082015250565b5f610bd1602283610ae4565b9150610bdc82610b77565b604082019050919050565b5f6020820190508181035f830152610bfe81610bc5565b9050919050565b7f77726f6e6720676f7665726e616e636520636861696e000000000000000000005f82015250565b5f610c39601683610ae4565b9150610c4482610c05565b602082019050919050565b5f6020820190508181035f830152610c6681610c2d565b9050919050565b7f77726f6e6720676f7665726e616e636520636f6e7472616374000000000000005f82015250565b5f610ca1601983610ae4565b9150610cac82610c6d565b602082019050919050565b5f6020820190508181035f830152610cce81610c95565b9050919050565b7f676f7665726e616e636520616374696f6e20616c726561647920636f6e73756d5f8201527f6564000000000000000000000000000000000000000000000000000000000000602082015250565b5f610d2f602283610ae4565b9150610d3a82610cd5565b604082019050919050565b5f6020820190508181035f830152610d5c81610d23565b905091905056fea2646970667358221220ff58c92d092cb9adb86f1e7fedeea0f1c165816313d5767a86182302741b07e764736f6c6343000818003360e060405234801562000010575f80fd5b5060405162000e1338038062000e13833981810160405281019062000036919062000177565b8273ffffffffffffffffffffffffffffffffffffffff1660808173ffffffffffffffffffffffffffffffffffffffff16815250508161ffff1660a08161ffff16815250508060c08181525050505050620001d0565b5f80fd5b5f73ffffffffffffffffffffffffffffffffffffffff82169050919050565b5f620000ba826200008f565b9050919050565b5f620000cd82620000ae565b9050919050565b620000df81620000c1565b8114620000ea575f80fd5b50565b5f81519050620000fd81620000d4565b92915050565b5f61ffff82169050919050565b6200011b8162000103565b811462000126575f80fd5b50565b5f81519050620001398162000110565b92915050565b5f819050919050565b62000153816200013f565b81146200015e575f80fd5b50565b5f81519050620001718162000148565b92915050565b5f805f606084860312156200019157620001906200008b565b5b5f620001a086828701620000ed565b9350506020620001b38682870162000129565b9250506040620001c68682870162000161565b9150509250925092565b60805160a05160c051610c03620002105f395f818161028001526103d201525f8181610212015261040801525f818161012d01526103ae0152610c035ff3fe608060405234801561000f575f80fd5b5060043610610060575f3560e01c806325394645146100645780633b05869d1461008057806384acd1bb146100b0578063b172b222146100ce578063c28de2cd146100ec578063fbe3c2cd1461010a575b5f80fd5b61007e60048036038101906100799190610577565b610128565b005b61009a600480360381019061009591906105f1565b610390565b6040516100a79190610636565b60405180910390f35b6100b86103ac565b6040516100c591906106c9565b60405180910390f35b6100d66103d0565b6040516100e391906106f1565b60405180910390f35b6100f46103f4565b6040516101019190610636565b60405180910390f35b610112610406565b60405161011f9190610726565b60405180910390f35b5f805f7f000000000000000000000000000000000000000000000000000000000000000073ffffffffffffffffffffffffffffffffffffffff1663c0fd8bde856040518263ffffffff1660e01b815260040161018491906107b9565b5f60405180830381865afa15801561019e573d5f803e3d5ffd5b505050506040513d5f823e3d601f19601f820116820180604052508101906101c69190610991565b92509250925081819061020f576040517f08c379a00000000000000000000000000000000000000000000000000000000081526004016102069190610a4f565b60405180910390fd5b507f000000000000000000000000000000000000000000000000000000000000000061ffff16836020015161ffff161461027e576040517f08c379a000000000000000000000000000000000000000000000000000000000815260040161027590610ab9565b60405180910390fd5b7f00000000000000000000000000000000000000000000000000000000000000008360400151146102e4576040517f08c379a00000000000000000000000000000000000000000000000000000000081526004016102db90610b21565b60405180910390fd5b5f80846060015181526020019081526020015f205f9054906101000a900460ff1615610345576040517f08c379a000000000000000000000000000000000000000000000000000000000815260040161033c90610baf565b60405180910390fd5b60015f80856060015181526020019081526020015f205f6101000a81548160ff0219169083151502179055506001805f6101000a81548160ff02191690831515021790555050505050565b5f602052805f5260405f205f915054906101000a900460ff1681565b7f000000000000000000000000000000000000000000000000000000000000000081565b7f000000000000000000000000000000000000000000000000000000000000000081565b60015f9054906101000a900460ff1681565b7f000000000000000000000000000000000000000000000000000000000000000081565b5f604051905090565b5f80fd5b5f80fd5b5f80fd5b5f80fd5b5f601f19601f8301169050919050565b7f4e487b71000000000000000000000000000000000000000000000000000000005f52604160045260245ffd5b61048982610443565b810181811067ffffffffffffffff821117156104a8576104a7610453565b5b80604052505050565b5f6104ba61042a565b90506104c68282610480565b919050565b5f67ffffffffffffffff8211156104e5576104e4610453565b5b6104ee82610443565b9050602081019050919050565b828183375f83830152505050565b5f61051b610516846104cb565b6104b1565b9050828152602081018484840111156105375761053661043f565b5b6105428482856104fb565b509392505050565b5f82601f83011261055e5761055d61043b565b5b813561056e848260208601610509565b91505092915050565b5f6020828403121561058c5761058b610433565b5b5f82013567ffffffffffffffff8111156105a9576105a8610437565b5b6105b58482850161054a565b91505092915050565b5f819050919050565b6105d0816105be565b81146105da575f80fd5b50565b5f813590506105eb816105c7565b92915050565b5f6020828403121561060657610605610433565b5b5f610613848285016105dd565b91505092915050565b5f8115159050919050565b6106308161061c565b82525050565b5f6020820190506106495f830184610627565b92915050565b5f73ffffffffffffffffffffffffffffffffffffffff82169050919050565b5f819050919050565b5f61069161068c6106878461064f565b61066e565b61064f565b9050919050565b5f6106a282610677565b9050919050565b5f6106b382610698565b9050919050565b6106c3816106a9565b82525050565b5f6020820190506106dc5f8301846106ba565b92915050565b6106eb816105be565b82525050565b5f6020820190506107045f8301846106e2565b92915050565b5f61ffff82169050919050565b6107208161070a565b82525050565b5f6020820190506107395f830184610717565b92915050565b5f81519050919050565b5f82825260208201905092915050565b5f5b8381101561077657808201518184015260208101905061075b565b5f8484015250505050565b5f61078b8261073f565b6107958185610749565b93506107a5818560208601610759565b6107ae81610443565b840191505092915050565b5f6020820190508181035f8301526107d18184610781565b905092915050565b5f80fd5b5f63ffffffff82169050919050565b6107f5816107dd565b81146107ff575f80fd5b50565b5f81519050610810816107ec565b92915050565b61081f8161070a565b8114610829575f80fd5b50565b5f8151905061083a81610816565b92915050565b5f8151905061084e816105c7565b92915050565b5f60808284031215610869576108686107d9565b5b61087360806104b1565b90505f61088284828501610802565b5f8301525060206108958482850161082c565b60208301525060406108a984828501610840565b60408301525060606108bd84828501610840565b60608301525092915050565b6108d28161061c565b81146108dc575f80fd5b50565b5f815190506108ed816108c9565b92915050565b5f67ffffffffffffffff82111561090d5761090c610453565b5b61091682610443565b9050602081019050919050565b5f610935610930846108f3565b6104b1565b9050828152602081018484840111156109515761095061043f565b5b61095c848285610759565b509392505050565b5f82601f8301126109785761097761043b565b5b8151610988848260208601610923565b91505092915050565b5f805f60c084860312156109a8576109a7610433565b5b5f6109b586828701610854565b93505060806109c6868287016108df565b92505060a084015167ffffffffffffffff8111156109e7576109e6610437565b5b6109f386828701610964565b9150509250925092565b5f81519050919050565b5f82825260208201905092915050565b5f610a21826109fd565b610a2b8185610a07565b9350610a3b818560208601610759565b610a4481610443565b840191505092915050565b5f6020820190508181035f830152610a678184610a17565b905092915050565b7f77726f6e6720676f7665726e616e636520636861696e000000000000000000005f82015250565b5f610aa3601683610a07565b9150610aae82610a6f565b602082019050919050565b5f6020820190508181035f830152610ad081610a97565b9050919050565b7f77726f6e6720676f7665726e616e636520636f6e7472616374000000000000005f82015250565b5f610b0b601983610a07565b9150610b1682610ad7565b602082019050919050565b5f6020820190508181035f830152610b3881610aff565b9050919050565b7f676f7665726e616e636520616374696f6e20616c726561647920636f6e73756d5f8201527f6564000000000000000000000000000000000000000000000000000000000000602082015250565b5f610b99602283610a07565b9150610ba482610b3f565b604082019050919050565b5f6020820190508181035f830152610bc681610b8d565b905091905056fea26469706673582212206f22bbe7c84510983e4b4c89c8bb9266813e712a2c7163dc30c6df3ee5ac079364736f6c6343000818003360e060405234801562000010575f80fd5b5060405162000fb038038062000fb0833981810160405281019062000036919062000177565b8273ffffffffffffffffffffffffffffffffffffffff1660808173ffffffffffffffffffffffffffffffffffffffff16815250508161ffff1660a08161ffff16815250508060c08181525050505050620001d0565b5f80fd5b5f73ffffffffffffffffffffffffffffffffffffffff82169050919050565b5f620000ba826200008f565b9050919050565b5f620000cd82620000ae565b9050919050565b620000df81620000c1565b8114620000ea575f80fd5b50565b5f81519050620000fd81620000d4565b92915050565b5f61ffff82169050919050565b6200011b8162000103565b811462000126575f80fd5b50565b5f81519050620001398162000110565b92915050565b5f819050919050565b62000153816200013f565b81146200015e575f80fd5b50565b5f81519050620001718162000148565b92915050565b5f805f606084860312156200019157620001906200008b565b5b5f620001a086828701620000ed565b9350506020620001b38682870162000129565b9250506040620001c68682870162000161565b9150509250925092565b60805160a05160c051610d99620002175f395f818161035d01526104af01525f81816102ef01526104e501525f818161012d01528181610212015261048b0152610d995ff3fe608060405234801561000f575f80fd5b5060043610610060575f3560e01c806325394645146100645780633b05869d1461008057806384acd1bb146100b0578063b172b222146100ce578063c28de2cd146100ec578063fbe3c2cd1461010a575b5f80fd5b61007e60048036038101906100799190610654565b610128565b005b61009a600480360381019061009591906106ce565b61046d565b6040516100a79190610713565b60405180910390f35b6100b8610489565b6040516100c591906107a6565b60405180910390f35b6100d66104ad565b6040516100e391906107ce565b60405180910390f35b6100f46104d1565b6040516101019190610713565b60405180910390f35b6101126104e3565b60405161011f9190610803565b60405180910390f35b5f805f7f000000000000000000000000000000000000000000000000000000000000000073ffffffffffffffffffffffffffffffffffffffff1663c0fd8bde856040518263ffffffff1660e01b81526004016101849190610896565b5f60405180830381865afa15801561019e573d5f803e3d5ffd5b505050506040513d5f823e3d601f19601f820116820180604052508101906101c69190610a6e565b92509250925081819061020f576040517f08c379a00000000000000000000000000000000000000000000000000000000081526004016102069190610b2c565b60405180910390fd5b507f000000000000000000000000000000000000000000000000000000000000000073ffffffffffffffffffffffffffffffffffffffff166338528f536040518163ffffffff1660e01b8152600401602060405180830381865afa158015610279573d5f803e3d5ffd5b505050506040513d601f19601f8201168201806040525081019061029d9190610b4c565b63ffffffff16835f015163ffffffff16146102ed576040517f08c379a00000000000000000000000000000000000000000000000000000000081526004016102e490610be7565b60405180910390fd5b7f000000000000000000000000000000000000000000000000000000000000000061ffff16836020015161ffff161461035b576040517f08c379a000000000000000000000000000000000000000000000000000000000815260040161035290610c4f565b60405180910390fd5b7f00000000000000000000000000000000000000000000000000000000000000008360400151146103c1576040517f08c379a00000000000000000000000000000000000000000000000000000000081526004016103b890610cb7565b60405180910390fd5b5f80846060015181526020019081526020015f205f9054906101000a900460ff1615610422576040517f08c379a000000000000000000000000000000000000000000000000000000000815260040161041990610d45565b60405180910390fd5b60015f80856060015181526020019081526020015f205f6101000a81548160ff0219169083151502179055506001805f6101000a81548160ff02191690831515021790555050505050565b5f602052805f5260405f205f915054906101000a900460ff1681565b7f000000000000000000000000000000000000000000000000000000000000000081565b7f000000000000000000000000000000000000000000000000000000000000000081565b60015f9054906101000a900460ff1681565b7f000000000000000000000000000000000000000000000000000000000000000081565b5f604051905090565b5f80fd5b5f80fd5b5f80fd5b5f80fd5b5f601f19601f8301169050919050565b7f4e487b71000000000000000000000000000000000000000000000000000000005f52604160045260245ffd5b61056682610520565b810181811067ffffffffffffffff8211171561058557610584610530565b5b80604052505050565b5f610597610507565b90506105a3828261055d565b919050565b5f67ffffffffffffffff8211156105c2576105c1610530565b5b6105cb82610520565b9050602081019050919050565b828183375f83830152505050565b5f6105f86105f3846105a8565b61058e565b9050828152602081018484840111156106145761061361051c565b5b61061f8482856105d8565b509392505050565b5f82601f83011261063b5761063a610518565b5b813561064b8482602086016105e6565b91505092915050565b5f6020828403121561066957610668610510565b5b5f82013567ffffffffffffffff81111561068657610685610514565b5b61069284828501610627565b91505092915050565b5f819050919050565b6106ad8161069b565b81146106b7575f80fd5b50565b5f813590506106c8816106a4565b92915050565b5f602082840312156106e3576106e2610510565b5b5f6106f0848285016106ba565b91505092915050565b5f8115159050919050565b61070d816106f9565b82525050565b5f6020820190506107265f830184610704565b92915050565b5f73ffffffffffffffffffffffffffffffffffffffff82169050919050565b5f819050919050565b5f61076e6107696107648461072c565b61074b565b61072c565b9050919050565b5f61077f82610754565b9050919050565b5f61079082610775565b9050919050565b6107a081610786565b82525050565b5f6020820190506107b95f830184610797565b92915050565b6107c88161069b565b82525050565b5f6020820190506107e15f8301846107bf565b92915050565b5f61ffff82169050919050565b6107fd816107e7565b82525050565b5f6020820190506108165f8301846107f4565b92915050565b5f81519050919050565b5f82825260208201905092915050565b5f5b83811015610853578082015181840152602081019050610838565b5f8484015250505050565b5f6108688261081c565b6108728185610826565b9350610882818560208601610836565b61088b81610520565b840191505092915050565b5f6020820190508181035f8301526108ae818461085e565b905092915050565b5f80fd5b5f63ffffffff82169050919050565b6108d2816108ba565b81146108dc575f80fd5b50565b5f815190506108ed816108c9565b92915050565b6108fc816107e7565b8114610906575f80fd5b50565b5f81519050610917816108f3565b92915050565b5f8151905061092b816106a4565b92915050565b5f60808284031215610946576109456108b6565b5b610950608061058e565b90505f61095f848285016108df565b5f83015250602061097284828501610909565b60208301525060406109868482850161091d565b604083015250606061099a8482850161091d565b60608301525092915050565b6109af816106f9565b81146109b9575f80fd5b50565b5f815190506109ca816109a6565b92915050565b5f67ffffffffffffffff8211156109ea576109e9610530565b5b6109f382610520565b9050602081019050919050565b5f610a12610a0d846109d0565b61058e565b905082815260208101848484011115610a2e57610a2d61051c565b5b610a39848285610836565b509392505050565b5f82601f830112610a5557610a54610518565b5b8151610a65848260208601610a00565b91505092915050565b5f805f60c08486031215610a8557610a84610510565b5b5f610a9286828701610931565b9350506080610aa3868287016109bc565b92505060a084015167ffffffffffffffff811115610ac457610ac3610514565b5b610ad086828701610a41565b9150509250925092565b5f81519050919050565b5f82825260208201905092915050565b5f610afe82610ada565b610b088185610ae4565b9350610b18818560208601610836565b610b2181610520565b840191505092915050565b5f6020820190508181035f830152610b448184610af4565b905092915050565b5f60208284031215610b6157610b60610510565b5b5f610b6e848285016108df565b91505092915050565b7f6e6f74207369676e65642062792063757272656e7420677561726469616e20735f8201527f6574000000000000000000000000000000000000000000000000000000000000602082015250565b5f610bd1602283610ae4565b9150610bdc82610b77565b604082019050919050565b5f6020820190508181035f830152610bfe81610bc5565b9050919050565b7f77726f6e6720676f7665726e616e636520636861696e000000000000000000005f82015250565b5f610c39601683610ae4565b9150610c4482610c05565b602082019050919050565b5f6020820190508181035f830152610c6681610c2d565b9050919050565b7f77726f6e6720676f7665726e616e636520636f6e7472616374000000000000005f82015250565b5f610ca1601983610ae4565b9150610cac82610c6d565b602082019050919050565b5f6020820190508181035f830152610cce81610c95565b9050919050565b7f676f7665726e616e636520616374696f6e20616c726561647920636f6e73756d5f8201527f6564000000000000000000000000000000000000000000000000000000000000602082015250565b5f610d2f602283610ae4565b9150610d3a82610cd5565b604082019050919050565b5f6020820190508181035f830152610d5c81610d23565b905091905056fea264697066735822122041a4cc4c2de6ec6d7f16b87e11072c710a58812883911f7a4a0bae20f94f2c5564736f6c63430008180033","linkReferences":{}},"methodIdentifiers":{"action_attemptBugUpgradeWithStaleSet(uint96)":"ce8dbaaa","action_attemptCoreUpgradeWithStaleSet(uint96)":"20b34b92","action_attemptFixedUpgradeWithStaleSet(uint96)":"c3ec7308","bridgeBug()":"02c81e88","bridgeFixed()":"7bfea445","bugAcceptedStaleSet()":"910688b8","core()":"f2f4eb26","coreAcceptedStaleSet()":"994d49bf","echidna_stale_set_must_not_authorize_bridge_governance()":"c0f689af","fixedAcceptedStaleSet()":"999559eb","property_core_rejects_stale_guardian_set()":"fb207e6c","property_fixed_bridge_rejects_stale_guardian_set()":"deb59387","property_stale_set_must_not_authorize_bridge_governance()":"dbc53df2","wormhole()":"84acd1bb"},"id":0}