{"src/EchidnaTaikoF1GetBadgeBoundaryHarness.sol":{"EchidnaTaikoF1GetBadgeBoundaryHarness":{"abi":[{"type":"function","name":"action_mint","inputs":[{"name":"_badgeType","type":"uint8","internalType":"uint8"},{"name":"_movementType","type":"uint8","internalType":"uint8"}],"outputs":[],"stateMutability":"nonpayable"},{"type":"function","name":"echidna_first_minted_token_must_be_readable","inputs":[],"outputs":[{"name":"","type":"bool","internalType":"bool"}],"stateMutability":"nonpayable"},{"type":"function","name":"echidna_unminted_token_must_revert","inputs":[],"outputs":[{"name":"","type":"bool","internalType":"bool"}],"stateMutability":"nonpayable"},{"type":"function","name":"getBadge","inputs":[{"name":"_tokenId","type":"uint256","internalType":"uint256"}],"outputs":[{"name":"","type":"tuple","internalType":"struct TrailblazersBadgesS2Like.Badge","components":[{"name":"tokenId","type":"uint256","internalType":"uint256"},{"name":"badgeType","type":"uint8","internalType":"enum TrailblazersBadgesS2Like.BadgeType"},{"name":"movementType","type":"uint8","internalType":"enum TrailblazersBadgesS2Like.MovementType"}]}],"stateMutability":"view"},{"type":"function","name":"mintMock","inputs":[{"name":"_badgeType","type":"uint8","internalType":"uint8"},{"name":"_movementType","type":"uint8","internalType":"uint8"}],"outputs":[{"name":"tokenId_","type":"uint256","internalType":"uint256"}],"stateMutability":"nonpayable"},{"type":"function","name":"totalSupply","inputs":[],"outputs":[{"name":"","type":"uint256","internalType":"uint256"}],"stateMutability":"view"},{"type":"error","name":"TOKEN_NOT_MINTED","inputs":[]}],"userdoc":{},"devdoc":{},"evm":{"bytecode":{"object":"608060405234801561000f575f80fd5b50610a678061001d5f395ff3fe608060405234801561000f575f80fd5b5060043610610060575f3560e01c806318160ddd146100645780631d4188b51461008257806332c4f0fc146100a05780636669eb27146100d057806384141d88146100ee5780638d8386221461010a575b5f80fd5b61006c61013a565b604051610079919061051d565b60405180910390f35b61008a610143565b6040516100979190610550565b60405180910390f35b6100ba60048036038101906100b591906105ac565b6101e9565b6040516100c7919061051d565b60405180910390f35b6100d8610301565b6040516100e59190610550565b60405180910390f35b610108600480360381019061010391906105ac565b6103ba565b005b610124600480360381019061011f9190610614565b6103da565b6040516101319190610747565b60405180910390f35b5f600154905090565b5f8061014d61013a565b0361015b57600190506101e6565b3073ffffffffffffffffffffffffffffffffffffffff16638d83862260016040518263ffffffff1660e01b815260040161019591906107a2565b606060405180830381865afa9250505080156101cf57506040513d601f19601f820116820180604052508101906101cc9190610902565b60015b6101db575f90506101e6565b6001815f0151149150505b90565b5f60015f81546101f89061095a565b9190508190559050604051806060016040528082815260200160088560ff1661022191906109ce565b60078111156102335761023261064e565b5b60078111156102455761024461064e565b5b815260200160038460ff1661025a91906109ce565b600281111561026c5761026b61064e565b5b600281111561027e5761027d61064e565b5b8152505f808381526020019081526020015f205f820151815f01556020820151816001015f6101000a81548160ff021916908360078111156102c3576102c261064e565b5b021790555060408201518160010160016101000a81548160ff021916908360028111156102f3576102f261064e565b5b021790555090505092915050565b5f8061030b61013a565b0361031957600190506103b7565b5f600161032461013a565b61032e91906109fe565b90503073ffffffffffffffffffffffffffffffffffffffff16638d838622826040518263ffffffff1660e01b8152600401610369919061051d565b606060405180830381865afa9250505080156103a357506040513d601f19601f820116820180604052508101906103a09190610902565b60015b6103b15760019150506103b7565b5f925050505b90565b60086103c461013a565b10156103d6576103d482826101e9565b505b5050565b6103e26104c3565b6103ea61013a565b821015610423576040517f507b1e4400000000000000000000000000000000000000000000000000000000815260040160405180910390fd5b5f808381526020019081526020015f206040518060600160405290815f8201548152602001600182015f9054906101000a900460ff16600781111561046b5761046a61064e565b5b600781111561047d5761047c61064e565b5b81526020016001820160019054906101000a900460ff1660028111156104a6576104a561064e565b5b60028111156104b8576104b761064e565b5b815250509050919050565b60405180606001604052805f81526020015f60078111156104e7576104e661064e565b5b81526020015f60028111156104ff576104fe61064e565b5b81525090565b5f819050919050565b61051781610505565b82525050565b5f6020820190506105305f83018461050e565b92915050565b5f8115159050919050565b61054a81610536565b82525050565b5f6020820190506105635f830184610541565b92915050565b5f604051905090565b5f80fd5b5f60ff82169050919050565b61058b81610576565b8114610595575f80fd5b50565b5f813590506105a681610582565b92915050565b5f80604083850312156105c2576105c1610572565b5b5f6105cf85828601610598565b92505060206105e085828601610598565b9150509250929050565b6105f381610505565b81146105fd575f80fd5b50565b5f8135905061060e816105ea565b92915050565b5f6020828403121561062957610628610572565b5b5f61063684828501610600565b91505092915050565b61064881610505565b82525050565b7f4e487b71000000000000000000000000000000000000000000000000000000005f52602160045260245ffd5b6008811061068c5761068b61064e565b5b50565b5f81905061069c8261067b565b919050565b5f6106ab8261068f565b9050919050565b6106bb816106a1565b82525050565b600381106106d2576106d161064e565b5b50565b5f8190506106e2826106c1565b919050565b5f6106f1826106d5565b9050919050565b610701816106e7565b82525050565b606082015f82015161071b5f85018261063f565b50602082015161072e60208501826106b2565b50604082015161074160408501826106f8565b50505050565b5f60608201905061075a5f830184610707565b92915050565b5f819050919050565b5f819050919050565b5f61078c61078761078284610760565b610769565b610505565b9050919050565b61079c81610772565b82525050565b5f6020820190506107b55f830184610793565b92915050565b5f80fd5b5f601f19601f8301169050919050565b7f4e487b71000000000000000000000000000000000000000000000000000000005f52604160045260245ffd5b610805826107bf565b810181811067ffffffffffffffff82111715610824576108236107cf565b5b80604052505050565b5f610836610569565b905061084282826107fc565b919050565b5f81519050610855816105ea565b92915050565b60088110610867575f80fd5b50565b5f815190506108788161085b565b92915050565b6003811061088a575f80fd5b50565b5f8151905061089b8161087e565b92915050565b5f606082840312156108b6576108b56107bb565b5b6108c0606061082d565b90505f6108cf84828501610847565b5f8301525060206108e28482850161086a565b60208301525060406108f68482850161088d565b60408301525092915050565b5f6060828403121561091757610916610572565b5b5f610924848285016108a1565b91505092915050565b7f4e487b71000000000000000000000000000000000000000000000000000000005f52601160045260245ffd5b5f61096482610505565b91507fffffffffffffffffffffffffffffffffffffffffffffffffffffffffffffffff82036109965761099561092d565b5b600182019050919050565b7f4e487b71000000000000000000000000000000000000000000000000000000005f52601260045260245ffd5b5f6109d882610505565b91506109e383610505565b9250826109f3576109f26109a1565b5b828206905092915050565b5f610a0882610505565b9150610a1383610505565b9250828201905080821115610a2b57610a2a61092d565b5b9291505056fea26469706673582212205887cceff0e36b3003eea7f03654f31fd1371d03ab384c830605944a8418780364736f6c63430008180033","linkReferences":{}},"methodIdentifiers":{"action_mint(uint8,uint8)":"84141d88","echidna_first_minted_token_must_be_readable()":"1d4188b5","echidna_unminted_token_must_revert()":"6669eb27","getBadge(uint256)":"8d838622","mintMock(uint8,uint8)":"32c4f0fc","totalSupply()":"18160ddd"}}}}}