{"src/TaikoF1GetBadgeBoundaryHarness.sol":{"TrailblazersBadgesS2Like":{"abi":[{"type":"function","name":"getBadge","inputs":[{"name":"_tokenId","type":"uint256","internalType":"uint256"}],"outputs":[{"name":"","type":"tuple","internalType":"struct TrailblazersBadgesS2Like.Badge","components":[{"name":"tokenId","type":"uint256","internalType":"uint256"},{"name":"badgeType","type":"uint8","internalType":"enum TrailblazersBadgesS2Like.BadgeType"},{"name":"movementType","type":"uint8","internalType":"enum TrailblazersBadgesS2Like.MovementType"}]}],"stateMutability":"view"},{"type":"function","name":"mintMock","inputs":[{"name":"_badgeType","type":"uint8","internalType":"uint8"},{"name":"_movementType","type":"uint8","internalType":"uint8"}],"outputs":[{"name":"tokenId_","type":"uint256","internalType":"uint256"}],"stateMutability":"nonpayable"},{"type":"function","name":"totalSupply","inputs":[],"outputs":[{"name":"","type":"uint256","internalType":"uint256"}],"stateMutability":"view"},{"type":"error","name":"TOKEN_NOT_MINTED","inputs":[]}],"userdoc":{},"devdoc":{},"evm":{"bytecode":{"object":"608060405234801561000f575f80fd5b506106338061001d5f395ff3fe608060405234801561000f575f80fd5b506004361061003f575f3560e01c806318160ddd1461004357806332c4f0fc146100615780638d83862214610091575b5f80fd5b61004b6100c1565b6040516100589190610325565b60405180910390f35b61007b60048036038101906100769190610378565b6100ca565b6040516100889190610325565b60405180910390f35b6100ab60048036038101906100a691906103e0565b6101e2565b6040516100b89190610513565b60405180910390f35b5f600154905090565b5f60015f81546100d990610559565b9190508190559050604051806060016040528082815260200160088560ff1661010291906105cd565b60078111156101145761011361041a565b5b60078111156101265761012561041a565b5b815260200160038460ff1661013b91906105cd565b600281111561014d5761014c61041a565b5b600281111561015f5761015e61041a565b5b8152505f808381526020019081526020015f205f820151815f01556020820151816001015f6101000a81548160ff021916908360078111156101a4576101a361041a565b5b021790555060408201518160010160016101000a81548160ff021916908360028111156101d4576101d361041a565b5b021790555090505092915050565b6101ea6102cb565b6101f26100c1565b82101561022b576040517f507b1e4400000000000000000000000000000000000000000000000000000000815260040160405180910390fd5b5f808381526020019081526020015f206040518060600160405290815f8201548152602001600182015f9054906101000a900460ff1660078111156102735761027261041a565b5b60078111156102855761028461041a565b5b81526020016001820160019054906101000a900460ff1660028111156102ae576102ad61041a565b5b60028111156102c0576102bf61041a565b5b815250509050919050565b60405180606001604052805f81526020015f60078111156102ef576102ee61041a565b5b81526020015f60028111156103075761030661041a565b5b81525090565b5f819050919050565b61031f8161030d565b82525050565b5f6020820190506103385f830184610316565b92915050565b5f80fd5b5f60ff82169050919050565b61035781610342565b8114610361575f80fd5b50565b5f813590506103728161034e565b92915050565b5f806040838503121561038e5761038d61033e565b5b5f61039b85828601610364565b92505060206103ac85828601610364565b9150509250929050565b6103bf8161030d565b81146103c9575f80fd5b50565b5f813590506103da816103b6565b92915050565b5f602082840312156103f5576103f461033e565b5b5f610402848285016103cc565b91505092915050565b6104148161030d565b82525050565b7f4e487b71000000000000000000000000000000000000000000000000000000005f52602160045260245ffd5b600881106104585761045761041a565b5b50565b5f81905061046882610447565b919050565b5f6104778261045b565b9050919050565b6104878161046d565b82525050565b6003811061049e5761049d61041a565b5b50565b5f8190506104ae8261048d565b919050565b5f6104bd826104a1565b9050919050565b6104cd816104b3565b82525050565b606082015f8201516104e75f85018261040b565b5060208201516104fa602085018261047e565b50604082015161050d60408501826104c4565b50505050565b5f6060820190506105265f8301846104d3565b92915050565b7f4e487b71000000000000000000000000000000000000000000000000000000005f52601160045260245ffd5b5f6105638261030d565b91507fffffffffffffffffffffffffffffffffffffffffffffffffffffffffffffffff82036105955761059461052c565b5b600182019050919050565b7f4e487b71000000000000000000000000000000000000000000000000000000005f52601260045260245ffd5b5f6105d78261030d565b91506105e28361030d565b9250826105f2576105f16105a0565b5b82820690509291505056fea2646970667358221220c002989158a3930f3bafc5fbec7af96d3c4a56b61880a3f1d50f3ac479b6e7a664736f6c63430008180033","linkReferences":{}},"methodIdentifiers":{"getBadge(uint256)":"8d838622","mintMock(uint8,uint8)":"32c4f0fc","totalSupply()":"18160ddd"}}}}}