{"abi":[{"type":"constructor","inputs":[],"stateMutability":"nonpayable"},{"type":"function","name":"action_attempt_settlement","inputs":[{"name":"result","type":"bool","internalType":"bool"}],"outputs":[],"stateMutability":"nonpayable"},{"type":"function","name":"action_register_challenge_as_operator","inputs":[],"outputs":[],"stateMutability":"nonpayable"},{"type":"function","name":"action_setup","inputs":[],"outputs":[],"stateMutability":"nonpayable"},{"type":"function","name":"attemptedSettlement","inputs":[],"outputs":[{"name":"","type":"bool","internalType":"bool"}],"stateMutability":"view"},{"type":"function","name":"challenge","inputs":[],"outputs":[{"name":"","type":"address","internalType":"contract ChallengeSettlementHarness"}],"stateMutability":"view"},{"type":"function","name":"challengerOperator","inputs":[],"outputs":[{"name":"","type":"address","internalType":"address"}],"stateMutability":"view"},{"type":"function","name":"challengerStaker","inputs":[],"outputs":[{"name":"","type":"address","internalType":"address"}],"stateMutability":"view"},{"type":"function","name":"defenderBot","inputs":[],"outputs":[{"name":"","type":"address","internalType":"contract DefenderCaller"}],"stateMutability":"view"},{"type":"function","name":"defenderOperator","inputs":[],"outputs":[{"name":"","type":"address","internalType":"address"}],"stateMutability":"view"},{"type":"function","name":"defenderStaker","inputs":[],"outputs":[{"name":"","type":"address","internalType":"address"}],"stateMutability":"view"},{"type":"function","name":"initialized","inputs":[],"outputs":[{"name":"","type":"bool","internalType":"bool"}],"stateMutability":"view"},{"type":"function","name":"property_settlement_progresses_without_hidden_registration","inputs":[],"outputs":[{"name":"","type":"bool","internalType":"bool"}],"stateMutability":"view"},{"type":"function","name":"rollup","inputs":[],"outputs":[{"name":"","type":"address","internalType":"contract RollupOperatorGateHarness"}],"stateMutability":"view"},{"type":"function","name":"settlementSucceeded","inputs":[],"outputs":[{"name":"","type":"bool","internalType":"bool"}],"stateMutability":"view"},{"type":"function","name":"syntheticChallengeOperatorStaker","inputs":[],"outputs":[{"name":"","type":"address","internalType":"address"}],"stateMutability":"view"},{"type":"function","name":"syntheticRegistrationDone","inputs":[],"outputs":[{"name":"","type":"bool","internalType":"bool"}],"stateMutability":"view"}],"bytecode":{"object":"0x608060405234801561000f575f80fd5b5060405161001c90610248565b604051809103905ff080158015610035573d5f803e3d5ffd5b505f806101000a81548173ffffffffffffffffffffffffffffffffffffffff021916908373ffffffffffffffffffffffffffffffffffffffff16021790555060405161008090610255565b604051809103905ff080158015610099573d5f803e3d5ffd5b5060015f6101000a81548173ffffffffffffffffffffffffffffffffffffffff021916908373ffffffffffffffffffffffffffffffffffffffff16021790555060015f9054906101000a900473ffffffffffffffffffffffffffffffffffffffff1660035f6101000a81548173ffffffffffffffffffffffffffffffffffffffff021916908373ffffffffffffffffffffffffffffffffffffffff16021790555062c0ffee60045f6101000a81548173ffffffffffffffffffffffffffffffffffffffff021916908373ffffffffffffffffffffffffffffffffffffffff16021790555061aa0160055f6101000a81548173ffffffffffffffffffffffffffffffffffffffff021916908373ffffffffffffffffffffffffffffffffffffffff16021790555061bb0260065f6101000a81548173ffffffffffffffffffffffffffffffffffffffff021916908373ffffffffffffffffffffffffffffffffffffffff16021790555061cc0360075f6101000a81548173ffffffffffffffffffffffffffffffffffffffff021916908373ffffffffffffffffffffffffffffffffffffffff160217905550610262565b610cb480611adc83390190565b6102108061279083390190565b61186d8061026f5f395ff3fe608060405234801562000010575f80fd5b506004361062000116575f3560e01c8063c992508d11620000a3578063db796f37116200006d578063db796f371462000284578063e486e1a514620002a6578063ef9b48e114620002c8578063f76cc17914620002ea5762000116565b8063c992508d14620001fc578063cb23bcb5146200021e578063d15264041462000240578063d2ef739814620002625762000116565b806337311fef11620000e557806337311fef14620001a25780636175b81b14620001c2578063bad19ca314620001e4578063bbc7434214620001f05762000116565b806311e79262146200011a578063158ef93e146200013c57806316f764d2146200015e57806321f6d6ec1462000180575b5f80fd5b620001246200030c565b60405162000133919062000b80565b60405180910390f35b6200014662000331565b60405162000155919062000bb7565b60405180910390f35b6200016862000344565b60405162000177919062000b80565b60405180910390f35b6200018a62000369565b60405162000199919062000bb7565b60405180910390f35b620001c06004803603810190620001ba919062000c05565b6200037c565b005b620001cc6200049b565b604051620001db919062000c9c565b60405180910390f35b620001ee620004c0565b005b620001fa62000903565b005b6200020662000a1c565b60405162000215919062000bb7565b60405180910390f35b6200022862000a2f565b60405162000237919062000cdb565b60405180910390f35b6200024a62000a52565b60405162000259919062000bb7565b60405180910390f35b6200026c62000a65565b6040516200027b919062000d1a565b60405180910390f35b6200028e62000a8a565b6040516200029d919062000b80565b60405180910390f35b620002b062000aaf565b604051620002bf919062000bb7565b60405180910390f35b620002d262000ae5565b604051620002e1919062000b80565b60405180910390f35b620002f462000b0a565b60405162000303919062000b80565b60405180910390f35b60055f9054906101000a900473ffffffffffffffffffffffffffffffffffffffff1681565b600760149054906101000a900460ff1681565b60075f9054906101000a900473ffffffffffffffffffffffffffffffffffffffff1681565b600760179054906101000a900460ff1681565b600760149054906101000a900460ff161562000498576001600760166101000a81548160ff02191690831515021790555060015f9054906101000a900473ffffffffffffffffffffffffffffffffffffffff1673ffffffffffffffffffffffffffffffffffffffff16632a33743160025f9054906101000a900473ffffffffffffffffffffffffffffffffffffffff16836040518363ffffffff1660e01b81526004016200042c92919062000d35565b5f604051808303815f87803b15801562000444575f80fd5b505af192505050801562000456575060015b6200047b575f600760176101000a81548160ff02191690831515021790555062000497565b6001600760176101000a81548160ff0219169083151502179055505b5b50565b60015f9054906101000a900473ffffffffffffffffffffffffffffffffffffffff1681565b600760149054906101000a900460ff1662000901575f8054906101000a900473ffffffffffffffffffffffffffffffffffffffff1673ffffffffffffffffffffffffffffffffffffffff1663aa67735460035f9054906101000a900473ffffffffffffffffffffffffffffffffffffffff1660055f9054906101000a900473ffffffffffffffffffffffffffffffffffffffff166040518363ffffffff1660e01b81526004016200057392919062000d60565b5f604051808303815f87803b1580156200058b575f80fd5b505af11580156200059e573d5f803e3d5ffd5b505050505f8054906101000a900473ffffffffffffffffffffffffffffffffffffffff1673ffffffffffffffffffffffffffffffffffffffff1663aa67735460045f9054906101000a900473ffffffffffffffffffffffffffffffffffffffff1660065f9054906101000a900473ffffffffffffffffffffffffffffffffffffffff166040518363ffffffff1660e01b81526004016200064092919062000d60565b5f604051808303815f87803b15801562000658575f80fd5b505af11580156200066b573d5f803e3d5ffd5b5050505060035f9054906101000a900473ffffffffffffffffffffffffffffffffffffffff1660045f9054906101000a900473ffffffffffffffffffffffffffffffffffffffff165f8054906101000a900473ffffffffffffffffffffffffffffffffffffffff16604051620006e19062000b2f565b620006ef9392919062000d8b565b604051809103905ff08015801562000709573d5f803e3d5ffd5b5060025f6101000a81548173ffffffffffffffffffffffffffffffffffffffff021916908373ffffffffffffffffffffffffffffffffffffffff1602179055505f8054906101000a900473ffffffffffffffffffffffffffffffffffffffff1673ffffffffffffffffffffffffffffffffffffffff166318a8e57860035f9054906101000a900473ffffffffffffffffffffffffffffffffffffffff1660045f9054906101000a900473ffffffffffffffffffffffffffffffffffffffff1660025f9054906101000a900473ffffffffffffffffffffffffffffffffffffffff166040518463ffffffff1660e01b81526004016200080a9392919062000d8b565b5f604051808303815f87803b15801562000822575f80fd5b505af115801562000835573d5f803e3d5ffd5b5050505060025f9054906101000a900473ffffffffffffffffffffffffffffffffffffffff1673ffffffffffffffffffffffffffffffffffffffff1663d9fca76960035f9054906101000a900473ffffffffffffffffffffffffffffffffffffffff166040518263ffffffff1660e01b8152600401620008b6919062000b80565b5f604051808303815f87803b158015620008ce575f80fd5b505af1158015620008e1573d5f803e3d5ffd5b505050506001600760146101000a81548160ff0219169083151502179055505b565b600760149054906101000a900460ff1615806200092c5750600760159054906101000a900460ff165b62000a1a575f8054906101000a900473ffffffffffffffffffffffffffffffffffffffff1673ffffffffffffffffffffffffffffffffffffffff1663aa67735460025f9054906101000a900473ffffffffffffffffffffffffffffffffffffffff1660075f9054906101000a900473ffffffffffffffffffffffffffffffffffffffff166040518363ffffffff1660e01b8152600401620009cf92919062000d60565b5f604051808303815f87803b158015620009e7575f80fd5b505af1158015620009fa573d5f803e3d5ffd5b505050506001600760156101000a81548160ff0219169083151502179055505b565b600760159054906101000a900460ff1681565b5f8054906101000a900473ffffffffffffffffffffffffffffffffffffffff1681565b600760169054906101000a900460ff1681565b60025f9054906101000a900473ffffffffffffffffffffffffffffffffffffffff1681565b60045f9054906101000a900473ffffffffffffffffffffffffffffffffffffffff1681565b5f600760169054906101000a900460ff1662000acf576001905062000ae2565b600760179054906101000a900460ff1690505b90565b60065f9054906101000a900473ffffffffffffffffffffffffffffffffffffffff1681565b60035f9054906101000a900473ffffffffffffffffffffffffffffffffffffffff1681565b610a718062000dc783390190565b5f73ffffffffffffffffffffffffffffffffffffffff82169050919050565b5f62000b688262000b3d565b9050919050565b62000b7a8162000b5c565b82525050565b5f60208201905062000b955f83018462000b6f565b92915050565b5f8115159050919050565b62000bb18162000b9b565b82525050565b5f60208201905062000bcc5f83018462000ba6565b92915050565b5f80fd5b62000be18162000b9b565b811462000bec575f80fd5b50565b5f8135905062000bff8162000bd6565b92915050565b5f6020828403121562000c1d5762000c1c62000bd2565b5b5f62000c2c8482850162000bef565b91505092915050565b5f819050919050565b5f62000c5e62000c5862000c528462000b3d565b62000c35565b62000b3d565b9050919050565b5f62000c718262000c3e565b9050919050565b5f62000c848262000c65565b9050919050565b62000c968162000c78565b82525050565b5f60208201905062000cb15f83018462000c8b565b92915050565b5f62000cc38262000c65565b9050919050565b62000cd58162000cb7565b82525050565b5f60208201905062000cf05f83018462000cca565b92915050565b5f62000d028262000c65565b9050919050565b62000d148162000cf6565b82525050565b5f60208201905062000d2f5f83018462000d09565b92915050565b5f60408201905062000d4a5f83018562000d09565b62000d59602083018462000ba6565b9392505050565b5f60408201905062000d755f83018562000b6f565b62000d84602083018462000b6f565b9392505050565b5f60608201905062000da05f83018662000b6f565b62000daf602083018562000b6f565b62000dbe604083018462000b6f565b94935050505056fe608060405234801561000f575f80fd5b50604051610a71380380610a7183398181016040528101906100319190610156565b825f806101000a81548173ffffffffffffffffffffffffffffffffffffffff021916908373ffffffffffffffffffffffffffffffffffffffff1602179055508160015f6101000a81548173ffffffffffffffffffffffffffffffffffffffff021916908373ffffffffffffffffffffffffffffffffffffffff1602179055508060025f6101000a81548173ffffffffffffffffffffffffffffffffffffffff021916908373ffffffffffffffffffffffffffffffffffffffff1602179055505050506101a6565b5f80fd5b5f73ffffffffffffffffffffffffffffffffffffffff82169050919050565b5f610125826100fc565b9050919050565b6101358161011b565b811461013f575f80fd5b50565b5f815190506101508161012c565b92915050565b5f805f6060848603121561016d5761016c6100f8565b5b5f61017a86828701610142565b935050602061018b86828701610142565b925050604061019c86828701610142565b9150509250925092565b6108be806101b35f395ff3fe608060405234801561000f575f80fd5b5060043610610060575f3560e01c80633504f1d714610064578063534db0e2146100825780637f4c91c5146100a0578063d9fca769146100be578063dfbf53ae146100da578063f2858aa3146100f8575b5f80fd5b61006c610114565b6040516100799190610647565b60405180910390f35b61008a610139565b6040516100979190610647565b60405180910390f35b6100a861015e565b6040516100b59190610647565b60405180910390f35b6100d860048036038101906100d3919061068e565b610181565b005b6100e26101c4565b6040516100ef9190610647565b60405180910390f35b610112600480360381019061010d91906106ee565b6101e9565b005b60025f9054906101000a900473ffffffffffffffffffffffffffffffffffffffff1681565b60015f9054906101000a900473ffffffffffffffffffffffffffffffffffffffff1681565b5f8054906101000a900473ffffffffffffffffffffffffffffffffffffffff1681565b8060035f6101000a81548173ffffffffffffffffffffffffffffffffffffffff021916908373ffffffffffffffffffffffffffffffffffffffff16021790555050565b60035f9054906101000a900473ffffffffffffffffffffffffffffffffffffffff1681565b5f73ffffffffffffffffffffffffffffffffffffffff165f8054906101000a900473ffffffffffffffffffffffffffffffffffffffff1673ffffffffffffffffffffffffffffffffffffffff1603610276576040517f08c379a000000000000000000000000000000000000000000000000000000000815260040161026d90610773565b60405180910390fd5b5f8054906101000a900473ffffffffffffffffffffffffffffffffffffffff1673ffffffffffffffffffffffffffffffffffffffff163373ffffffffffffffffffffffffffffffffffffffff1614610303576040517f08c379a00000000000000000000000000000000000000000000000000000000081526004016102fa906107db565b60405180910390fd5b5f73ffffffffffffffffffffffffffffffffffffffff1660035f9054906101000a900473ffffffffffffffffffffffffffffffffffffffff1673ffffffffffffffffffffffffffffffffffffffff1603610392576040517f08c379a000000000000000000000000000000000000000000000000000000000815260040161038990610843565b60405180910390fd5b60015f9054906101000a900473ffffffffffffffffffffffffffffffffffffffff1673ffffffffffffffffffffffffffffffffffffffff1660035f9054906101000a900473ffffffffffffffffffffffffffffffffffffffff1673ffffffffffffffffffffffffffffffffffffffff160361053b5780156104db5760025f9054906101000a900473ffffffffffffffffffffffffffffffffffffffff1673ffffffffffffffffffffffffffffffffffffffff1663fa7803e660015f9054906101000a900473ffffffffffffffffffffffffffffffffffffffff165f8054906101000a900473ffffffffffffffffffffffffffffffffffffffff166040518363ffffffff1660e01b81526004016104a9929190610861565b5f604051808303815f87803b1580156104c0575f80fd5b505af11580156104d2573d5f803e3d5ffd5b50505050610605565b5f8054906101000a900473ffffffffffffffffffffffffffffffffffffffff1660035f6101000a81548173ffffffffffffffffffffffffffffffffffffffff021916908373ffffffffffffffffffffffffffffffffffffffff1602179055505b60025f9054906101000a900473ffffffffffffffffffffffffffffffffffffffff1673ffffffffffffffffffffffffffffffffffffffff1663fa7803e65f8054906101000a900473ffffffffffffffffffffffffffffffffffffffff1660015f9054906101000a900473ffffffffffffffffffffffffffffffffffffffff166040518363ffffffff1660e01b81526004016105d7929190610861565b5f604051808303815f87803b1580156105ee575f80fd5b505af1158015610600573d5f803e3d5ffd5b505050505b50565b5f73ffffffffffffffffffffffffffffffffffffffff82169050919050565b5f61063182610608565b9050919050565b61064181610627565b82525050565b5f60208201905061065a5f830184610638565b92915050565b5f80fd5b61066d81610627565b8114610677575f80fd5b50565b5f8135905061068881610664565b92915050565b5f602082840312156106a3576106a2610660565b5b5f6106b08482850161067a565b91505092915050565b5f8115159050919050565b6106cd816106b9565b81146106d7575f80fd5b50565b5f813590506106e8816106c4565b92915050565b5f6020828403121561070357610702610660565b5b5f610710848285016106da565b91505092915050565b5f82825260208201905092915050565b7f446566656e646572206e6f7420736574000000000000000000000000000000005f82015250565b5f61075d601083610719565b915061076882610729565b602082019050919050565b5f6020820190508181035f83015261078a81610751565b9050919050565b7f43616c6c6572206e6f7420646566656e646572000000000000000000000000005f82015250565b5f6107c5601383610719565b91506107d082610791565b602082019050919050565b5f6020820190508181035f8301526107f2816107b9565b9050919050565b7f446f206e6f7420686176652077696e6e657200000000000000000000000000005f82015250565b5f61082d601283610719565b9150610838826107f9565b602082019050919050565b5f6020820190508181035f83015261085a81610821565b9050919050565b5f6040820190506108745f830185610638565b6108816020830184610638565b939250505056fea2646970667358221220dd50ca84bff8075056d01179e38706bae4b8d5638f0529e4e402b08ef27d7a7464736f6c63430008180033a26469706673582212201f04c9caaf70acf8029b7d1e28af23bbdb81d8f18f4031257fea98e775d0160b64736f6c63430008180033608060405234801561000f575f80fd5b50610c978061001d5f395ff3fe608060405234801561000f575f80fd5b5060043610610060575f3560e01c806318a8e578146100645780636aabc350146100805780639168ae72146100b0578063aa677354146100e1578063e1022602146100fd578063fa7803e61461011b575b5f80fd5b61007e6004803603810190610079919061090e565b610137565b005b61009a6004803603810190610095919061095e565b6102f8565b6040516100a79190610998565b60405180910390f35b6100ca60048036038101906100c5919061095e565b610328565b6040516100d89291906109cb565b60405180910390f35b6100fb60048036038101906100f691906109f2565b610372565b005b610105610447565b6040516101129190610a30565b60405180910390f35b610135600480360381019061013091906109f2565b610459565b005b5f60015f8573ffffffffffffffffffffffffffffffffffffffff1673ffffffffffffffffffffffffffffffffffffffff1681526020019081526020015f205f9054906101000a900473ffffffffffffffffffffffffffffffffffffffff1690505f60015f8573ffffffffffffffffffffffffffffffffffffffff1673ffffffffffffffffffffffffffffffffffffffff1681526020019081526020015f205f9054906101000a900473ffffffffffffffffffffffffffffffffffffffff169050825f808473ffffffffffffffffffffffffffffffffffffffff1673ffffffffffffffffffffffffffffffffffffffff1681526020019081526020015f205f0160016101000a81548173ffffffffffffffffffffffffffffffffffffffff021916908373ffffffffffffffffffffffffffffffffffffffff160217905550825f808373ffffffffffffffffffffffffffffffffffffffff1673ffffffffffffffffffffffffffffffffffffffff1681526020019081526020015f205f0160016101000a81548173ffffffffffffffffffffffffffffffffffffffff021916908373ffffffffffffffffffffffffffffffffffffffff1602179055505050505050565b6001602052805f5260405f205f915054906101000a900473ffffffffffffffffffffffffffffffffffffffff1681565b5f602052805f5260405f205f91509050805f015f9054906101000a900460ff1690805f0160019054906101000a900473ffffffffffffffffffffffffffffffffffffffff16905082565b8060015f8473ffffffffffffffffffffffffffffffffffffffff1673ffffffffffffffffffffffffffffffffffffffff1681526020019081526020015f205f6101000a81548173ffffffffffffffffffffffffffffffffffffffff021916908373ffffffffffffffffffffffffffffffffffffffff16021790555060015f808373ffffffffffffffffffffffffffffffffffffffff1673ffffffffffffffffffffffffffffffffffffffff1681526020019081526020015f205f015f6101000a81548160ff0219169083151502179055505050565b60025f9054906101000a900460ff1681565b5f73ffffffffffffffffffffffffffffffffffffffff1660015f3373ffffffffffffffffffffffffffffffffffffffff1673ffffffffffffffffffffffffffffffffffffffff1681526020019081526020015f205f9054906101000a900473ffffffffffffffffffffffffffffffffffffffff1673ffffffffffffffffffffffffffffffffffffffff1603610523576040517f08c379a000000000000000000000000000000000000000000000000000000000815260040161051a90610aa3565b60405180910390fd5b5f60015f8473ffffffffffffffffffffffffffffffffffffffff1673ffffffffffffffffffffffffffffffffffffffff1681526020019081526020015f205f9054906101000a900473ffffffffffffffffffffffffffffffffffffffff1690505f60015f8473ffffffffffffffffffffffffffffffffffffffff1673ffffffffffffffffffffffffffffffffffffffff1681526020019081526020015f205f9054906101000a900473ffffffffffffffffffffffffffffffffffffffff1690505f808273ffffffffffffffffffffffffffffffffffffffff1673ffffffffffffffffffffffffffffffffffffffff1681526020019081526020015f205f015f9054906101000a900460ff1661066d576040517f08c379a000000000000000000000000000000000000000000000000000000000815260040161066490610b0b565b60405180910390fd5b5f6106788383610709565b90508073ffffffffffffffffffffffffffffffffffffffff163373ffffffffffffffffffffffffffffffffffffffff16146106e8576040517f08c379a00000000000000000000000000000000000000000000000000000000081526004016106df90610b73565b60405180910390fd5b600160025f6101000a81548160ff0219169083151502179055505050505050565b5f805f808573ffffffffffffffffffffffffffffffffffffffff1673ffffffffffffffffffffffffffffffffffffffff1681526020019081526020015f205f0160019054906101000a900473ffffffffffffffffffffffffffffffffffffffff1690505f73ffffffffffffffffffffffffffffffffffffffff168173ffffffffffffffffffffffffffffffffffffffff16036107da576040517f08c379a00000000000000000000000000000000000000000000000000000000081526004016107d190610bdb565b60405180910390fd5b5f808473ffffffffffffffffffffffffffffffffffffffff1673ffffffffffffffffffffffffffffffffffffffff1681526020019081526020015f205f0160019054906101000a900473ffffffffffffffffffffffffffffffffffffffff1673ffffffffffffffffffffffffffffffffffffffff168173ffffffffffffffffffffffffffffffffffffffff16146108a6576040517f08c379a000000000000000000000000000000000000000000000000000000000815260040161089d90610c43565b60405180910390fd5b8091505092915050565b5f80fd5b5f73ffffffffffffffffffffffffffffffffffffffff82169050919050565b5f6108dd826108b4565b9050919050565b6108ed816108d3565b81146108f7575f80fd5b50565b5f81359050610908816108e4565b92915050565b5f805f60608486031215610925576109246108b0565b5b5f610932868287016108fa565b9350506020610943868287016108fa565b9250506040610954868287016108fa565b9150509250925092565b5f60208284031215610973576109726108b0565b5b5f610980848285016108fa565b91505092915050565b610992816108d3565b82525050565b5f6020820190506109ab5f830184610989565b92915050565b5f8115159050919050565b6109c5816109b1565b82525050565b5f6040820190506109de5f8301856109bc565b6109eb6020830184610989565b9392505050565b5f8060408385031215610a0857610a076108b0565b5b5f610a15858286016108fa565b9250506020610a26858286016108fa565b9150509250929050565b5f602082019050610a435f8301846109bc565b92915050565b5f82825260208201905092915050565b7f4e6f744f70657261746f720000000000000000000000000000000000000000005f82015250565b5f610a8d600b83610a49565b9150610a9882610a59565b602082019050919050565b5f6020820190508181035f830152610aba81610a81565b9050919050565b7f4e6f745374616b656400000000000000000000000000000000000000000000005f82015250565b5f610af5600983610a49565b9150610b0082610ac1565b602082019050919050565b5f6020820190508181035f830152610b2281610ae9565b9050919050565b7f4e6f744368616c6c656e676500000000000000000000000000000000000000005f82015250565b5f610b5d600c83610a49565b9150610b6882610b29565b602082019050919050565b5f6020820190508181035f830152610b8a81610b51565b9050919050565b7f4e6f74496e4368616c6c656e67650000000000000000000000000000000000005f82015250565b5f610bc5600e83610a49565b9150610bd082610b91565b602082019050919050565b5f6020820190508181035f830152610bf281610bb9565b9050919050565b7f496e446966666572656e744368616c6c656e67650000000000000000000000005f82015250565b5f610c2d601483610a49565b9150610c3882610bf9565b602082019050919050565b5f6020820190508181035f830152610c5a81610c21565b905091905056fea2646970667358221220d87ce3bbec5fc6e183cd3a52a09a38923f91ab719431dd12c8e13cd00b3367af64736f6c63430008180033608060405234801561000f575f80fd5b506101f38061001d5f395ff3fe608060405234801561000f575f80fd5b5060043610610029575f3560e01c80632a3374311461002d575b5f80fd5b61004760048036038101906100429190610157565b610049565b005b8173ffffffffffffffffffffffffffffffffffffffff1663f2858aa3826040518263ffffffff1660e01b815260040161008291906101a4565b5f604051808303815f87803b158015610099575f80fd5b505af11580156100ab573d5f803e3d5ffd5b505050505050565b5f80fd5b5f73ffffffffffffffffffffffffffffffffffffffff82169050919050565b5f6100e0826100b7565b9050919050565b5f6100f1826100d6565b9050919050565b610101816100e7565b811461010b575f80fd5b50565b5f8135905061011c816100f8565b92915050565b5f8115159050919050565b61013681610122565b8114610140575f80fd5b50565b5f813590506101518161012d565b92915050565b5f806040838503121561016d5761016c6100b3565b5b5f61017a8582860161010e565b925050602061018b85828601610143565b9150509250929050565b61019e81610122565b82525050565b5f6020820190506101b75f830184610195565b9291505056fea26469706673582212201bc415ef95fc4c555d53887d4ff67ff876b637ed55bc18d7d3a520015cc2a54064736f6c63430008180033","linkReferences":{}},"methodIdentifiers":{"action_attempt_settlement(bool)":"37311fef","action_register_challenge_as_operator()":"bbc74342","action_setup()":"bad19ca3","attemptedSettlement()":"d1526404","challenge()":"d2ef7398","challengerOperator()":"db796f37","challengerStaker()":"ef9b48e1","defenderBot()":"6175b81b","defenderOperator()":"f76cc179","defenderStaker()":"11e79262","initialized()":"158ef93e","property_settlement_progresses_without_hidden_registration()":"e486e1a5","rollup()":"cb23bcb5","settlementSucceeded()":"21f6d6ec","syntheticChallengeOperatorStaker()":"16f764d2","syntheticRegistrationDone()":"c992508d"},"storageLayout":{"storage":[{"astId":660,"contract":"src/MedusaF3OperatorGateHarness.sol:MedusaF3OperatorGateHarness","label":"rollup","offset":0,"slot":"0","type":"t_contract(RollupOperatorGateHarness)522"},{"astId":663,"contract":"src/MedusaF3OperatorGateHarness.sol:MedusaF3OperatorGateHarness","label":"defenderBot","offset":0,"slot":"1","type":"t_contract(DefenderCaller)650"},{"astId":666,"contract":"src/MedusaF3OperatorGateHarness.sol:MedusaF3OperatorGateHarness","label":"challenge","offset":0,"slot":"2","type":"t_contract(ChallengeSettlementHarness)634"},{"astId":668,"contract":"src/MedusaF3OperatorGateHarness.sol:MedusaF3OperatorGateHarness","label":"defenderOperator","offset":0,"slot":"3","type":"t_address"},{"astId":670,"contract":"src/MedusaF3OperatorGateHarness.sol:MedusaF3OperatorGateHarness","label":"challengerOperator","offset":0,"slot":"4","type":"t_address"},{"astId":672,"contract":"src/MedusaF3OperatorGateHarness.sol:MedusaF3OperatorGateHarness","label":"defenderStaker","offset":0,"slot":"5","type":"t_address"},{"astId":674,"contract":"src/MedusaF3OperatorGateHarness.sol:MedusaF3OperatorGateHarness","label":"challengerStaker","offset":0,"slot":"6","type":"t_address"},{"astId":676,"contract":"src/MedusaF3OperatorGateHarness.sol:MedusaF3OperatorGateHarness","label":"syntheticChallengeOperatorStaker","offset":0,"slot":"7","type":"t_address"},{"astId":678,"contract":"src/MedusaF3OperatorGateHarness.sol:MedusaF3OperatorGateHarness","label":"initialized","offset":20,"slot":"7","type":"t_bool"},{"astId":680,"contract":"src/MedusaF3OperatorGateHarness.sol:MedusaF3OperatorGateHarness","label":"syntheticRegistrationDone","offset":21,"slot":"7","type":"t_bool"},{"astId":682,"contract":"src/MedusaF3OperatorGateHarness.sol:MedusaF3OperatorGateHarness","label":"attemptedSettlement","offset":22,"slot":"7","type":"t_bool"},{"astId":684,"contract":"src/MedusaF3OperatorGateHarness.sol:MedusaF3OperatorGateHarness","label":"settlementSucceeded","offset":23,"slot":"7","type":"t_bool"}],"types":{"t_address":{"encoding":"inplace","label":"address","numberOfBytes":"20"},"t_bool":{"encoding":"inplace","label":"bool","numberOfBytes":"1"},"t_contract(ChallengeSettlementHarness)634":{"encoding":"inplace","label":"contract ChallengeSettlementHarness","numberOfBytes":"20"},"t_contract(DefenderCaller)650":{"encoding":"inplace","label":"contract DefenderCaller","numberOfBytes":"20"},"t_contract(RollupOperatorGateHarness)522":{"encoding":"inplace","label":"contract RollupOperatorGateHarness","numberOfBytes":"20"}}},"id":2}