{"abi":[{"type":"constructor","inputs":[],"stateMutability":"nonpayable"},{"type":"function","name":"action_attacker_initialize","inputs":[],"outputs":[],"stateMutability":"nonpayable"},{"type":"function","name":"attacker","inputs":[],"outputs":[{"name":"","type":"address","internalType":"contract ScrollChainInitAttacker"}],"stateMutability":"view"},{"type":"function","name":"attackerOwner","inputs":[],"outputs":[{"name":"","type":"address","internalType":"address"}],"stateMutability":"view"},{"type":"function","name":"echidna_non_admin_cannot_take_scrollchain_owner","inputs":[],"outputs":[{"name":"","type":"bool","internalType":"bool"}],"stateMutability":"view"},{"type":"function","name":"proxy","inputs":[],"outputs":[{"name":"","type":"address","internalType":"contract ScrollF1SimpleProxy"}],"stateMutability":"view"},{"type":"function","name":"rollup","inputs":[],"outputs":[{"name":"","type":"address","internalType":"contract IScrollChainLike"}],"stateMutability":"view"}],"bytecode":{"object":"0x608060405234801561000f575f80fd5b505f60405161001d90610258565b604051809103905ff080158015610036573d5f803e3d5ffd5b5090503060405161004690610265565b61005091906102be565b604051809103905ff080158015610069573d5f803e3d5ffd5b505f806101000a81548173ffffffffffffffffffffffffffffffffffffffff021916908373ffffffffffffffffffffffffffffffffffffffff1602179055505f8054906101000a900473ffffffffffffffffffffffffffffffffffffffff1673ffffffffffffffffffffffffffffffffffffffff16633659cfe6826040518263ffffffff1660e01b815260040161010091906102be565b5f604051808303815f87803b158015610117575f80fd5b505af1158015610129573d5f803e3d5ffd5b505050505f8054906101000a900473ffffffffffffffffffffffffffffffffffffffff1660015f6101000a81548173ffffffffffffffffffffffffffffffffffffffff021916908373ffffffffffffffffffffffffffffffffffffffff16021790555060405161019890610272565b604051809103905ff0801580156101b1573d5f803e3d5ffd5b5060025f6101000a81548173ffffffffffffffffffffffffffffffffffffffff021916908373ffffffffffffffffffffffffffffffffffffffff16021790555060025f9054906101000a900473ffffffffffffffffffffffffffffffffffffffff1660035f6101000a81548173ffffffffffffffffffffffffffffffffffffffff021916908373ffffffffffffffffffffffffffffffffffffffff160217905550506102d7565b610661806108a383390190565b61053280610f0483390190565b61042b8061143683390190565b5f73ffffffffffffffffffffffffffffffffffffffff82169050919050565b5f6102a88261027f565b9050919050565b6102b88161029e565b82525050565b5f6020820190506102d15f8301846102af565b92915050565b6105bf806102e45f395ff3fe608060405234801561000f575f80fd5b5060043610610060575f3560e01c80630e80aa851461006457806348eb76ee1461006e5780635231a2b61461008c5780637b0ebe7a146100aa578063cb23bcb5146100c8578063ec556889146100e6575b5f80fd5b61006c610104565b005b6100766101b3565b60405161008391906103a3565b60405180910390f35b6100946101d8565b6040516100a191906103d6565b60405180910390f35b6100b26102bc565b6040516100bf919061040f565b60405180910390f35b6100d06102e1565b6040516100dd9190610448565b60405180910390f35b6100ee610306565b6040516100fb9190610492565b60405180910390f35b60025f9054906101000a900473ffffffffffffffffffffffffffffffffffffffff1673ffffffffffffffffffffffffffffffffffffffff1663f1fb58a85f8054906101000a900473ffffffffffffffffffffffffffffffffffffffff1661111161222260646040518563ffffffff1660e01b815260040161018894939291906104ed565b5f604051808303815f87803b15801561019f575f80fd5b505af19250505080156101b0575060015b50565b60025f9054906101000a900473ffffffffffffffffffffffffffffffffffffffff1681565b5f60035f9054906101000a900473ffffffffffffffffffffffffffffffffffffffff1673ffffffffffffffffffffffffffffffffffffffff1660015f9054906101000a900473ffffffffffffffffffffffffffffffffffffffff1673ffffffffffffffffffffffffffffffffffffffff16638da5cb5b6040518163ffffffff1660e01b8152600401602060405180830381865afa15801561027b573d5f803e3d5ffd5b505050506040513d601f19601f8201168201806040525081019061029f919061055e565b73ffffffffffffffffffffffffffffffffffffffff161415905090565b60035f9054906101000a900473ffffffffffffffffffffffffffffffffffffffff1681565b60015f9054906101000a900473ffffffffffffffffffffffffffffffffffffffff1681565b5f8054906101000a900473ffffffffffffffffffffffffffffffffffffffff1681565b5f73ffffffffffffffffffffffffffffffffffffffff82169050919050565b5f819050919050565b5f61036b61036661036184610329565b610348565b610329565b9050919050565b5f61037c82610351565b9050919050565b5f61038d82610372565b9050919050565b61039d81610383565b82525050565b5f6020820190506103b65f830184610394565b92915050565b5f8115159050919050565b6103d0816103bc565b82525050565b5f6020820190506103e95f8301846103c7565b92915050565b5f6103f982610329565b9050919050565b610409816103ef565b82525050565b5f6020820190506104225f830184610400565b92915050565b5f61043282610372565b9050919050565b61044281610428565b82525050565b5f60208201905061045b5f830184610439565b92915050565b5f61046b82610351565b9050919050565b5f61047c82610461565b9050919050565b61048c81610472565b82525050565b5f6020820190506104a55f830184610483565b92915050565b5f819050919050565b5f819050919050565b5f6104d76104d26104cd846104ab565b610348565b6104b4565b9050919050565b6104e7816104bd565b82525050565b5f6080820190506105005f830187610400565b61050d6020830186610400565b61051a6040830185610400565b61052760608301846104de565b95945050505050565b5f80fd5b61053d816103ef565b8114610547575f80fd5b50565b5f8151905061055881610534565b92915050565b5f6020828403121561057357610572610530565b5b5f6105808482850161054a565b9150509291505056fea264697066735822122043c147d8fcb35e94f1dda77e9f6833e0697f61b68322bb8b289c85bae758cfe864736f6c63430008180033608060405234801561000f575f80fd5b5060015f806101000a81548160ff02191690831515021790555061062b806100365f395ff3fe608060405234801561000f575f80fd5b5060043610610060575f3560e01c80631794bb3c146100645780635c975abb146100805780636d46e9871461009e5780638a336231146100ce5780638da5cb5b146100ea578063bedb86fb14610108575b5f80fd5b61007e600480360381019061007991906104ca565b610124565b005b61008861022b565b6040516100959190610534565b60405180910390f35b6100b860048036038101906100b3919061054d565b610240565b6040516100c59190610534565b60405180910390f35b6100e860048036038101906100e3919061054d565b610292565b005b6100f261036f565b6040516100ff9190610587565b60405180910390f35b610122600480360381019061011d91906105ca565b610397565b005b5f8054906101000a900460ff1615610168576040517f0dc149f000000000000000000000000000000000000000000000000000000000815260040160405180910390fd5b5f73ffffffffffffffffffffffffffffffffffffffff168273ffffffffffffffffffffffffffffffffffffffff16036101cd576040517fd92e233d00000000000000000000000000000000000000000000000000000000815260040160405180910390fd5b60015f806101000a81548160ff021916908315150217905550335f60016101000a81548173ffffffffffffffffffffffffffffffffffffffff021916908373ffffffffffffffffffffffffffffffffffffffff160217905550505050565b5f8060159054906101000a900460ff16905090565b5f60015f8373ffffffffffffffffffffffffffffffffffffffff1673ffffffffffffffffffffffffffffffffffffffff1681526020019081526020015f205f9054906101000a900460ff169050919050565b5f60019054906101000a900473ffffffffffffffffffffffffffffffffffffffff1673ffffffffffffffffffffffffffffffffffffffff163373ffffffffffffffffffffffffffffffffffffffff1614610318576040517f82b4290000000000000000000000000000000000000000000000000000000000815260040160405180910390fd5b6001805f8373ffffffffffffffffffffffffffffffffffffffff1673ffffffffffffffffffffffffffffffffffffffff1681526020019081526020015f205f6101000a81548160ff02191690831515021790555050565b5f8060019054906101000a900473ffffffffffffffffffffffffffffffffffffffff16905090565b5f60019054906101000a900473ffffffffffffffffffffffffffffffffffffffff1673ffffffffffffffffffffffffffffffffffffffff163373ffffffffffffffffffffffffffffffffffffffff161461041d576040517f82b4290000000000000000000000000000000000000000000000000000000000815260040160405180910390fd5b805f60156101000a81548160ff02191690831515021790555050565b5f80fd5b5f73ffffffffffffffffffffffffffffffffffffffff82169050919050565b5f6104668261043d565b9050919050565b6104768161045c565b8114610480575f80fd5b50565b5f813590506104918161046d565b92915050565b5f819050919050565b6104a981610497565b81146104b3575f80fd5b50565b5f813590506104c4816104a0565b92915050565b5f805f606084860312156104e1576104e0610439565b5b5f6104ee86828701610483565b93505060206104ff86828701610483565b9250506040610510868287016104b6565b9150509250925092565b5f8115159050919050565b61052e8161051a565b82525050565b5f6020820190506105475f830184610525565b92915050565b5f6020828403121561056257610561610439565b5b5f61056f84828501610483565b91505092915050565b6105818161045c565b82525050565b5f60208201905061059a5f830184610578565b92915050565b6105a98161051a565b81146105b3575f80fd5b50565b5f813590506105c4816105a0565b92915050565b5f602082840312156105df576105de610439565b5b5f6105ec848285016105b6565b9150509291505056fea26469706673582212209d362cc0843987e328f2a577209e5a7d33e8cf4c8f17354f3b53d6824ce1618264736f6c63430008180033608060405234801561000f575f80fd5b50604051610532380380610532833981810160405281019061003191906100cd565b5f60017fb6b8eadf8d5c759fe58fb56342533756dc0988fde261b0ef26d3fd42408946565f1c610061919061012e565b5f1b90508181555050610161565b5f80fd5b5f73ffffffffffffffffffffffffffffffffffffffff82169050919050565b5f61009c82610073565b9050919050565b6100ac81610092565b81146100b6575f80fd5b50565b5f815190506100c7816100a3565b92915050565b5f602082840312156100e2576100e161006f565b5b5f6100ef848285016100b9565b91505092915050565b5f819050919050565b7f4e487b71000000000000000000000000000000000000000000000000000000005f52601160045260245ffd5b5f610138826100f8565b9150610143836100f8565b925082820390508181111561015b5761015a610101565b5b92915050565b6103c48061016e5f395ff3fe608060405260043610610037575f3560e01c80633659cfe6146100485780635c60da1b14610070578063f851a4401461009a5761003e565b3661003e57005b6100466100c4565b005b348015610053575f80fd5b5061006e600480360381019061006991906102d2565b610153565b005b34801561007b575f80fd5b506100846101fa565b604051610091919061030c565b60405180910390f35b3480156100a5575f80fd5b506100ae610237565b6040516100bb919061030c565b60405180910390f35b5f6100cd6101fa565b90505f73ffffffffffffffffffffffffffffffffffffffff168173ffffffffffffffffffffffffffffffffffffffff1603610134576040517f40dde93500000000000000000000000000000000000000000000000000000000815260040160405180910390fd5b365f80375f80365f845af43d5f803e805f811461014f573d5ff35b3d5ffd5b61015b610237565b73ffffffffffffffffffffffffffffffffffffffff163373ffffffffffffffffffffffffffffffffffffffff16146101bf576040517f82b4290000000000000000000000000000000000000000000000000000000000815260040160405180910390fd5b5f60017f537a6f5941bb72adf213b945567599a1ee3174a6202c6d25c48ac7c8a10db3315f1c6101ef919061035b565b5f1b90508181555050565b5f8060017f537a6f5941bb72adf213b945567599a1ee3174a6202c6d25c48ac7c8a10db3315f1c61022b919061035b565b5f1b9050805491505090565b5f8060017fb6b8eadf8d5c759fe58fb56342533756dc0988fde261b0ef26d3fd42408946565f1c610268919061035b565b5f1b9050805491505090565b5f80fd5b5f73ffffffffffffffffffffffffffffffffffffffff82169050919050565b5f6102a182610278565b9050919050565b6102b181610297565b81146102bb575f80fd5b50565b5f813590506102cc816102a8565b92915050565b5f602082840312156102e7576102e6610274565b5b5f6102f4848285016102be565b91505092915050565b61030681610297565b82525050565b5f60208201905061031f5f8301846102fd565b92915050565b5f819050919050565b7f4e487b71000000000000000000000000000000000000000000000000000000005f52601160045260245ffd5b5f61036582610325565b915061037083610325565b92508282039050818111156103885761038761032e565b5b9291505056fea2646970667358221220aec1ac0c2bf2d2f630c7bd2f7b858fa8ba5771d0c7e47ddc6cc57ec6369b126864736f6c63430008180033608060405234801561000f575f80fd5b5061040e8061001d5f395ff3fe608060405234801561000f575f80fd5b506004361061003f575f3560e01c80633fca5f5c146100435780639e5621f31461005f578063f1fb58a81461007b575b5f80fd5b61005d60048036038101906100589190610239565b610097565b005b61007960048036038101906100749190610277565b610101565b005b610095600480360381019061009091906102d5565b61016b565b005b8173ffffffffffffffffffffffffffffffffffffffff16638a336231826040518263ffffffff1660e01b81526004016100d09190610348565b5f604051808303815f87803b1580156100e7575f80fd5b505af11580156100f9573d5f803e3d5ffd5b505050505050565b8073ffffffffffffffffffffffffffffffffffffffff1663bedb86fb60016040518263ffffffff1660e01b815260040161013b919061037b565b5f604051808303815f87803b158015610152575f80fd5b505af1158015610164573d5f803e3d5ffd5b5050505050565b8373ffffffffffffffffffffffffffffffffffffffff16631794bb3c8484846040518463ffffffff1660e01b81526004016101a8939291906103a3565b5f604051808303815f87803b1580156101bf575f80fd5b505af11580156101d1573d5f803e3d5ffd5b5050505050505050565b5f80fd5b5f73ffffffffffffffffffffffffffffffffffffffff82169050919050565b5f610208826101df565b9050919050565b610218816101fe565b8114610222575f80fd5b50565b5f813590506102338161020f565b92915050565b5f806040838503121561024f5761024e6101db565b5b5f61025c85828601610225565b925050602061026d85828601610225565b9150509250929050565b5f6020828403121561028c5761028b6101db565b5b5f61029984828501610225565b91505092915050565b5f819050919050565b6102b4816102a2565b81146102be575f80fd5b50565b5f813590506102cf816102ab565b92915050565b5f805f80608085870312156102ed576102ec6101db565b5b5f6102fa87828801610225565b945050602061030b87828801610225565b935050604061031c87828801610225565b925050606061032d878288016102c1565b91505092959194509250565b610342816101fe565b82525050565b5f60208201905061035b5f830184610339565b92915050565b5f8115159050919050565b61037581610361565b82525050565b5f60208201905061038e5f83018461036c565b92915050565b61039d816102a2565b82525050565b5f6060820190506103b65f830186610339565b6103c36020830185610339565b6103d06040830184610394565b94935050505056fea264697066735822122097e019e1220466bf54357382185a03df5cae6a3f12c5b9dce9ec275b9aed336f64736f6c63430008180033","linkReferences":{}},"methodIdentifiers":{"action_attacker_initialize()":"0e80aa85","attacker()":"48eb76ee","attackerOwner()":"7b0ebe7a","echidna_non_admin_cannot_take_scrollchain_owner()":"5231a2b6","proxy()":"ec556889","rollup()":"cb23bcb5"},"storageLayout":{"storage":[{"astId":10,"contract":"src/EchidnaScrollF1ScrollChainInitHijackHarness.sol:EchidnaScrollF1ScrollChainInitHijackHarness","label":"proxy","offset":0,"slot":"0","type":"t_contract(ScrollF1SimpleProxy)385"},{"astId":13,"contract":"src/EchidnaScrollF1ScrollChainInitHijackHarness.sol:EchidnaScrollF1ScrollChainInitHijackHarness","label":"rollup","offset":0,"slot":"1","type":"t_contract(IScrollChainLike)269"},{"astId":16,"contract":"src/EchidnaScrollF1ScrollChainInitHijackHarness.sol:EchidnaScrollF1ScrollChainInitHijackHarness","label":"attacker","offset":0,"slot":"2","type":"t_contract(ScrollChainInitAttacker)561"},{"astId":18,"contract":"src/EchidnaScrollF1ScrollChainInitHijackHarness.sol:EchidnaScrollF1ScrollChainInitHijackHarness","label":"attackerOwner","offset":0,"slot":"3","type":"t_address"}],"types":{"t_address":{"encoding":"inplace","label":"address","numberOfBytes":"20"},"t_contract(IScrollChainLike)269":{"encoding":"inplace","label":"contract IScrollChainLike","numberOfBytes":"20"},"t_contract(ScrollChainInitAttacker)561":{"encoding":"inplace","label":"contract ScrollChainInitAttacker","numberOfBytes":"20"},"t_contract(ScrollF1SimpleProxy)385":{"encoding":"inplace","label":"contract ScrollF1SimpleProxy","numberOfBytes":"20"}}},"id":0}