{"abi":[{"type":"constructor","inputs":[],"stateMutability":"nonpayable"},{"type":"function","name":"addPessimisticVKeyRoute","inputs":[{"name":"pessimisticVKeySelector","type":"bytes4","internalType":"bytes4"},{"name":"verifier","type":"address","internalType":"address"},{"name":"pessimisticVKey","type":"bytes32","internalType":"bytes32"}],"outputs":[],"stateMutability":"nonpayable"},{"type":"function","name":"freezePessimisticVKeyRoute","inputs":[{"name":"pessimisticVKeySelector","type":"bytes4","internalType":"bytes4"}],"outputs":[],"stateMutability":"nonpayable"},{"type":"function","name":"hasRole","inputs":[{"name":"role","type":"bytes32","internalType":"bytes32"},{"name":"account","type":"address","internalType":"address"}],"outputs":[{"name":"","type":"bool","internalType":"bool"}],"stateMutability":"view"},{"type":"function","name":"initialize","inputs":[{"name":"defaultAdmin","type":"address","internalType":"address"},{"name":"aggchainDefaultVKeyRole","type":"address","internalType":"address"},{"name":"addRouteRole","type":"address","internalType":"address"},{"name":"freezeRouteRole","type":"address","internalType":"address"},{"name":"pessimisticVKeySelector","type":"bytes4","internalType":"bytes4"},{"name":"verifier","type":"address","internalType":"address"},{"name":"pessimisticVKey","type":"bytes32","internalType":"bytes32"}],"outputs":[],"stateMutability":"nonpayable"},{"type":"function","name":"routeInfo","inputs":[{"name":"pessimisticVKeySelector","type":"bytes4","internalType":"bytes4"}],"outputs":[{"name":"verifier","type":"address","internalType":"address"},{"name":"pessimisticVKey","type":"bytes32","internalType":"bytes32"},{"name":"frozen","type":"bool","internalType":"bool"}],"stateMutability":"view"},{"type":"function","name":"verifyPessimisticProof","inputs":[{"name":"publicValues","type":"bytes","internalType":"bytes"},{"name":"proofBytes","type":"bytes","internalType":"bytes"}],"outputs":[],"stateMutability":"view"},{"type":"error","name":"AlreadyInitialized","inputs":[]},{"type":"error","name":"InvalidProofBytesLength","inputs":[]},{"type":"error","name":"InvalidZeroAddress","inputs":[]},{"type":"error","name":"PPSelectorCannotBeZero","inputs":[]},{"type":"error","name":"RouteAlreadyExists","inputs":[{"name":"selector","type":"bytes4","internalType":"bytes4"},{"name":"existingVerifier","type":"address","internalType":"address"}]},{"type":"error","name":"RouteIsAlreadyFrozen","inputs":[{"name":"selector","type":"bytes4","internalType":"bytes4"}]},{"type":"error","name":"RouteIsFrozen","inputs":[{"name":"selector","type":"bytes4","internalType":"bytes4"}]},{"type":"error","name":"RouteNotFound","inputs":[{"name":"selector","type":"bytes4","internalType":"bytes4"}]},{"type":"error","name":"Unauthorized","inputs":[]},{"type":"error","name":"VKeyCannotBeZero","inputs":[]}],"bytecode":{"object":"0x608060405234801561000f575f80fd5b50600160025f6101000a81548160ff02191690831515021790555061119b806100375f395ff3fe608060405234801561000f575f80fd5b5060043610610060575f3560e01c80631fb93840146100645780637b552bea1461009657806391d14854146100b25780639584a516146100e257806395d2a391146100fe578063a48fd3771461011a575b5f80fd5b61007e60048036038101906100799190610c77565b610136565b60405161008d93929190610d13565b60405180910390f35b6100b060048036038101906100ab9190610d9c565b6101d1565b005b6100cc60048036038101906100c79190610e39565b6103d7565b6040516100d99190610e77565b60405180910390f35b6100fc60048036038101906100f79190610e90565b610439565b005b61011860048036038101906101139190610c77565b6104fa565b005b610134600480360381019061012f9190610f41565b610701565b005b5f805f805f80867bffffffffffffffffffffffffffffffffffffffffffffffffffffffff19167bffffffffffffffffffffffffffffffffffffffffffffffffffffffff191681526020019081526020015f209050805f015f9054906101000a900473ffffffffffffffffffffffffffffffffffffffff168160010154826002015f9054906101000a900460ff16935093509350509193909250565b60025f9054906101000a900460ff1615610217576040517f0dc149f000000000000000000000000000000000000000000000000000000000815260040160405180910390fd5b5f73ffffffffffffffffffffffffffffffffffffffff168773ffffffffffffffffffffffffffffffffffffffff16148061027c57505f73ffffffffffffffffffffffffffffffffffffffff168673ffffffffffffffffffffffffffffffffffffffff16145b806102b257505f73ffffffffffffffffffffffffffffffffffffffff168573ffffffffffffffffffffffffffffffffffffffff16145b806102e857505f73ffffffffffffffffffffffffffffffffffffffff168473ffffffffffffffffffffffffffffffffffffffff16145b1561031f576040517ff6b2911f00000000000000000000000000000000000000000000000000000000815260040160405180910390fd5b600160025f6101000a81548160ff0219169083151502179055506103455f801b88610942565b61036f7f131410eab1236cee2db19035b0e825c94e5ab705dffe23321dd53856da53161787610942565b6103997f0fdc2a718b96bc741c7544001e3dd7c26730802c54781668fa78a120e622629b86610942565b6103c37fca75ae4228cde6195f9fa3dbde8dc352fb30aa63780717a378ccfc50274355dd85610942565b6103ce8383836109a9565b50505050505050565b5f60015f8481526020019081526020015f205f8373ffffffffffffffffffffffffffffffffffffffff1673ffffffffffffffffffffffffffffffffffffffff1681526020019081526020015f205f9054906101000a900460ff16905092915050565b7f0fdc2a718b96bc741c7544001e3dd7c26730802c54781668fa78a120e622629b60015f8281526020019081526020015f205f3373ffffffffffffffffffffffffffffffffffffffff1673ffffffffffffffffffffffffffffffffffffffff1681526020019081526020015f205f9054906101000a900460ff166104e9576040517f82b4290000000000000000000000000000000000000000000000000000000000815260040160405180910390fd5b6104f48484846109a9565b50505050565b7fca75ae4228cde6195f9fa3dbde8dc352fb30aa63780717a378ccfc50274355dd60015f8281526020019081526020015f205f3373ffffffffffffffffffffffffffffffffffffffff1673ffffffffffffffffffffffffffffffffffffffff1681526020019081526020015f205f9054906101000a900460ff166105aa576040517f82b4290000000000000000000000000000000000000000000000000000000000815260040160405180910390fd5b5f805f847bffffffffffffffffffffffffffffffffffffffffffffffffffffffff19167bffffffffffffffffffffffffffffffffffffffffffffffffffffffff191681526020019081526020015f2090505f73ffffffffffffffffffffffffffffffffffffffff16815f015f9054906101000a900473ffffffffffffffffffffffffffffffffffffffff1673ffffffffffffffffffffffffffffffffffffffff160361068d57826040517ff208777e0000000000000000000000000000000000000000000000000000000081526004016106849190610fce565b60405180910390fd5b806002015f9054906101000a900460ff16156106e057826040517fc7b4a1f20000000000000000000000000000000000000000000000000000000081526004016106d79190610fce565b60405180910390fd5b6001816002015f6101000a81548160ff021916908315150217905550505050565b600482829050101561073f576040517fae80851c00000000000000000000000000000000000000000000000000000000815260040160405180910390fd5b5f82825f9060049261075393929190610fef565b9061075e919061103f565b90505f805f837bffffffffffffffffffffffffffffffffffffffffffffffffffffffff19167bffffffffffffffffffffffffffffffffffffffffffffffffffffffff191681526020019081526020015f2090505f73ffffffffffffffffffffffffffffffffffffffff16815f015f9054906101000a900473ffffffffffffffffffffffffffffffffffffffff1673ffffffffffffffffffffffffffffffffffffffff160361084357816040517ff208777e00000000000000000000000000000000000000000000000000000000815260040161083a9190610fce565b60405180910390fd5b806002015f9054906101000a900460ff161561089657816040517febf1082300000000000000000000000000000000000000000000000000000000815260040161088d9190610fce565b60405180910390fd5b805f015f9054906101000a900473ffffffffffffffffffffffffffffffffffffffff1673ffffffffffffffffffffffffffffffffffffffff166341493c6082600101548888888860049080926108ee93929190610fef565b6040518663ffffffff1660e01b815260040161090e9594939291906110f7565b5f6040518083038186803b158015610924575f80fd5b505afa158015610936573d5f803e3d5ffd5b50505050505050505050565b6001805f8481526020019081526020015f205f8373ffffffffffffffffffffffffffffffffffffffff1673ffffffffffffffffffffffffffffffffffffffff1681526020019081526020015f205f6101000a81548160ff0219169083151502179055505050565b5f73ffffffffffffffffffffffffffffffffffffffff168273ffffffffffffffffffffffffffffffffffffffff1603610a0e576040517ff6b2911f00000000000000000000000000000000000000000000000000000000815260040160405180910390fd5b5f60e01b7bffffffffffffffffffffffffffffffffffffffffffffffffffffffff1916837bffffffffffffffffffffffffffffffffffffffffffffffffffffffff191603610a88576040517f7500f20900000000000000000000000000000000000000000000000000000000815260040160405180910390fd5b5f801b8103610ac3576040517f6745305e00000000000000000000000000000000000000000000000000000000815260040160405180910390fd5b5f805f857bffffffffffffffffffffffffffffffffffffffffffffffffffffffff19167bffffffffffffffffffffffffffffffffffffffffffffffffffffffff191681526020019081526020015f2090505f73ffffffffffffffffffffffffffffffffffffffff16815f015f9054906101000a900473ffffffffffffffffffffffffffffffffffffffff1673ffffffffffffffffffffffffffffffffffffffff1614610bca5783815f015f9054906101000a900473ffffffffffffffffffffffffffffffffffffffff166040517f4bc7c278000000000000000000000000000000000000000000000000000000008152600401610bc192919061113e565b60405180910390fd5b82815f015f6101000a81548173ffffffffffffffffffffffffffffffffffffffff021916908373ffffffffffffffffffffffffffffffffffffffff16021790555081816001018190555050505050565b5f80fd5b5f80fd5b5f7fffffffff0000000000000000000000000000000000000000000000000000000082169050919050565b610c5681610c22565b8114610c60575f80fd5b50565b5f81359050610c7181610c4d565b92915050565b5f60208284031215610c8c57610c8b610c1a565b5b5f610c9984828501610c63565b91505092915050565b5f73ffffffffffffffffffffffffffffffffffffffff82169050919050565b5f610ccb82610ca2565b9050919050565b610cdb81610cc1565b82525050565b5f819050919050565b610cf381610ce1565b82525050565b5f8115159050919050565b610d0d81610cf9565b82525050565b5f606082019050610d265f830186610cd2565b610d336020830185610cea565b610d406040830184610d04565b949350505050565b610d5181610cc1565b8114610d5b575f80fd5b50565b5f81359050610d6c81610d48565b92915050565b610d7b81610ce1565b8114610d85575f80fd5b50565b5f81359050610d9681610d72565b92915050565b5f805f805f805f60e0888a031215610db757610db6610c1a565b5b5f610dc48a828b01610d5e565b9750506020610dd58a828b01610d5e565b9650506040610de68a828b01610d5e565b9550506060610df78a828b01610d5e565b9450506080610e088a828b01610c63565b93505060a0610e198a828b01610d5e565b92505060c0610e2a8a828b01610d88565b91505092959891949750929550565b5f8060408385031215610e4f57610e4e610c1a565b5b5f610e5c85828601610d88565b9250506020610e6d85828601610d5e565b9150509250929050565b5f602082019050610e8a5f830184610d04565b92915050565b5f805f60608486031215610ea757610ea6610c1a565b5b5f610eb486828701610c63565b9350506020610ec586828701610d5e565b9250506040610ed686828701610d88565b9150509250925092565b5f80fd5b5f80fd5b5f80fd5b5f8083601f840112610f0157610f00610ee0565b5b8235905067ffffffffffffffff811115610f1e57610f1d610ee4565b5b602083019150836001820283011115610f3a57610f39610ee8565b5b9250929050565b5f805f8060408587031215610f5957610f58610c1a565b5b5f85013567ffffffffffffffff811115610f7657610f75610c1e565b5b610f8287828801610eec565b9450945050602085013567ffffffffffffffff811115610fa557610fa4610c1e565b5b610fb187828801610eec565b925092505092959194509250565b610fc881610c22565b82525050565b5f602082019050610fe15f830184610fbf565b92915050565b5f80fd5b5f80fd5b5f808585111561100257611001610fe7565b5b8386111561101357611012610feb565b5b6001850283019150848603905094509492505050565b5f82905092915050565b5f82821b905092915050565b5f61104a8383611029565b826110558135610c22565b92506004821015611095576110907fffffffff0000000000000000000000000000000000000000000000000000000083600403600802611033565b831692505b505092915050565b5f82825260208201905092915050565b828183375f83830152505050565b5f601f19601f8301169050919050565b5f6110d6838561109d565b93506110e38385846110ad565b6110ec836110bb565b840190509392505050565b5f60608201905061110a5f830188610cea565b818103602083015261111d8186886110cb565b905081810360408301526111328184866110cb565b90509695505050505050565b5f6040820190506111515f830185610fbf565b61115e6020830184610cd2565b939250505056fea264697066735822122017e6f6e7f6d0d1174684ceaafdb08eac93382a5c0da2f4b9113556cefd9c35de64736f6c63430008180033","linkReferences":{}},"methodIdentifiers":{"addPessimisticVKeyRoute(bytes4,address,bytes32)":"9584a516","freezePessimisticVKeyRoute(bytes4)":"95d2a391","hasRole(bytes32,address)":"91d14854","initialize(address,address,address,address,bytes4,address,bytes32)":"7b552bea","routeInfo(bytes4)":"1fb93840","verifyPessimisticProof(bytes,bytes)":"a48fd377"},"id":0}