{"abi":[{"type":"function","name":"verifyProof","inputs":[{"name":"","type":"bytes32","internalType":"bytes32"},{"name":"","type":"bytes","internalType":"bytes"},{"name":"","type":"bytes","internalType":"bytes"}],"outputs":[],"stateMutability":"pure"}],"bytecode":{"object":"0x608060405234801561000f575f80fd5b506101b38061001d5f395ff3fe608060405234801561000f575f80fd5b5060043610610029575f3560e01c806341493c601461002d575b5f80fd5b610047600480360381019061004291906100ec565b610049565b005b5050505050565b5f80fd5b5f80fd5b5f819050919050565b61006a81610058565b8114610074575f80fd5b50565b5f8135905061008581610061565b92915050565b5f80fd5b5f80fd5b5f80fd5b5f8083601f8401126100ac576100ab61008b565b5b8235905067ffffffffffffffff8111156100c9576100c861008f565b5b6020830191508360018202830111156100e5576100e4610093565b5b9250929050565b5f805f805f6060868803121561010557610104610050565b5b5f61011288828901610077565b955050602086013567ffffffffffffffff81111561013357610132610054565b5b61013f88828901610097565b9450945050604086013567ffffffffffffffff81111561016257610161610054565b5b61016e88828901610097565b9250925050929550929590935056fea2646970667358221220a85d098cabe7158541f191e42b0f0a6dec4b9182740a2009b000d6371fc9f3f464736f6c63430008180033","linkReferences":{}},"methodIdentifiers":{"verifyProof(bytes32,bytes,bytes)":"41493c60"},"id":0}