{"abi":[{"type":"function","name":"completeTransfer","inputs":[{"name":"vmHash","type":"bytes32","internalType":"bytes32"}],"outputs":[],"stateMutability":"nonpayable"},{"type":"function","name":"completed","inputs":[{"name":"","type":"bytes32","internalType":"bytes32"}],"outputs":[{"name":"","type":"bool","internalType":"bool"}],"stateMutability":"view"},{"type":"function","name":"outstanding","inputs":[{"name":"","type":"address","internalType":"address"}],"outputs":[{"name":"","type":"uint256","internalType":"uint256"}],"stateMutability":"view"},{"type":"function","name":"redeemCount","inputs":[{"name":"","type":"bytes32","internalType":"bytes32"}],"outputs":[{"name":"","type":"uint256","internalType":"uint256"}],"stateMutability":"view"},{"type":"function","name":"registerTransfer","inputs":[{"name":"vmHash","type":"bytes32","internalType":"bytes32"},{"name":"token","type":"address","internalType":"address"},{"name":"recipient","type":"address","internalType":"address"},{"name":"amount","type":"uint256","internalType":"uint256"}],"outputs":[],"stateMutability":"nonpayable"},{"type":"function","name":"seed","inputs":[{"name":"token","type":"address","internalType":"address"},{"name":"from","type":"address","internalType":"address"},{"name":"amount","type":"uint256","internalType":"uint256"}],"outputs":[],"stateMutability":"nonpayable"},{"type":"function","name":"transfers","inputs":[{"name":"","type":"bytes32","internalType":"bytes32"}],"outputs":[{"name":"token","type":"address","internalType":"address"},{"name":"recipient","type":"address","internalType":"address"},{"name":"amount","type":"uint256","internalType":"uint256"},{"name":"valid","type":"bool","internalType":"bool"}],"stateMutability":"view"}],"bytecode":{"object":"0x608060405234801561000f575f80fd5b50610dd98061001d5f395ff3fe608060405234801561000f575f80fd5b506004361061007b575f3560e01c8063a1febf8111610059578063a1febf81146100fe578063d9c7428a1461011a578063de58bafa14610136578063f6419d96146101665761007b565b80633c64f04b1461007f578063605dde30146100b25780638ca57441146100e2575b5f80fd5b61009960048036038101906100949190610836565b610196565b6040516100a994939291906108d2565b60405180910390f35b6100cc60048036038101906100c79190610836565b61020c565b6040516100d99190610915565b60405180910390f35b6100fc60048036038101906100f79190610982565b610221565b005b61011860048036038101906101139190610836565b610334565b005b610134600480360381019061012f91906109d2565b6106b1565b005b610150600480360381019061014b9190610a36565b6107ce565b60405161015d9190610915565b60405180910390f35b610180600480360381019061017b9190610836565b6107e2565b60405161018d9190610a61565b60405180910390f35b6003602052805f5260405f205f91509050805f015f9054906101000a900473ffffffffffffffffffffffffffffffffffffffff1690806001015f9054906101000a900473ffffffffffffffffffffffffffffffffffffffff1690806002015490806003015f9054906101000a900460ff16905084565b6002602052805f5260405f205f915090505481565b8273ffffffffffffffffffffffffffffffffffffffff166323b872dd8330846040518463ffffffff1660e01b815260040161025e93929190610a7a565b6020604051808303815f875af115801561027a573d5f803e3d5ffd5b505050506040513d601f19601f8201168201806040525081019061029e9190610ad9565b6102dd576040517f08c379a00000000000000000000000000000000000000000000000000000000081526004016102d490610b5e565b60405180910390fd5b805f808573ffffffffffffffffffffffffffffffffffffffff1673ffffffffffffffffffffffffffffffffffffffff1681526020019081526020015f205f8282546103289190610ba9565b92505081905550505050565b5f60035f8381526020019081526020015f206040518060800160405290815f82015f9054906101000a900473ffffffffffffffffffffffffffffffffffffffff1673ffffffffffffffffffffffffffffffffffffffff1673ffffffffffffffffffffffffffffffffffffffff168152602001600182015f9054906101000a900473ffffffffffffffffffffffffffffffffffffffff1673ffffffffffffffffffffffffffffffffffffffff1673ffffffffffffffffffffffffffffffffffffffff16815260200160028201548152602001600382015f9054906101000a900460ff16151515158152505090508060600151610464576040517f08c379a000000000000000000000000000000000000000000000000000000000815260040161045b90610c26565b60405180910390fd5b60015f8381526020019081526020015f205f9054906101000a900460ff16156104c2576040517f08c379a00000000000000000000000000000000000000000000000000000000081526004016104b990610c8e565b60405180910390fd5b80604001515f80835f015173ffffffffffffffffffffffffffffffffffffffff1673ffffffffffffffffffffffffffffffffffffffff1681526020019081526020015f20541015610548576040517f08c379a000000000000000000000000000000000000000000000000000000000815260040161053f90610cf6565b60405180910390fd5b805f015173ffffffffffffffffffffffffffffffffffffffff1663a9059cbb826020015183604001516040518363ffffffff1660e01b815260040161058e929190610d14565b6020604051808303815f875af11580156105aa573d5f803e3d5ffd5b505050506040513d601f19601f820116820180604052508101906105ce9190610ad9565b61060d576040517f08c379a000000000000000000000000000000000000000000000000000000000815260040161060490610d85565b60405180910390fd5b6001805f8481526020019081526020015f205f6101000a81548160ff02191690831515021790555080604001515f80835f015173ffffffffffffffffffffffffffffffffffffffff1673ffffffffffffffffffffffffffffffffffffffff1681526020019081526020015f205f8282540392505081905550600160025f8481526020019081526020015f205f8282546106a69190610ba9565b925050819055505050565b60405180608001604052808473ffffffffffffffffffffffffffffffffffffffff1681526020018373ffffffffffffffffffffffffffffffffffffffff1681526020018281526020016001151581525060035f8681526020019081526020015f205f820151815f015f6101000a81548173ffffffffffffffffffffffffffffffffffffffff021916908373ffffffffffffffffffffffffffffffffffffffff1602179055506020820151816001015f6101000a81548173ffffffffffffffffffffffffffffffffffffffff021916908373ffffffffffffffffffffffffffffffffffffffff160217905550604082015181600201556060820151816003015f6101000a81548160ff02191690831515021790555090505050505050565b5f602052805f5260405f205f915090505481565b6001602052805f5260405f205f915054906101000a900460ff1681565b5f80fd5b5f819050919050565b61081581610803565b811461081f575f80fd5b50565b5f813590506108308161080c565b92915050565b5f6020828403121561084b5761084a6107ff565b5b5f61085884828501610822565b91505092915050565b5f73ffffffffffffffffffffffffffffffffffffffff82169050919050565b5f61088a82610861565b9050919050565b61089a81610880565b82525050565b5f819050919050565b6108b2816108a0565b82525050565b5f8115159050919050565b6108cc816108b8565b82525050565b5f6080820190506108e55f830187610891565b6108f26020830186610891565b6108ff60408301856108a9565b61090c60608301846108c3565b95945050505050565b5f6020820190506109285f8301846108a9565b92915050565b61093781610880565b8114610941575f80fd5b50565b5f813590506109528161092e565b92915050565b610961816108a0565b811461096b575f80fd5b50565b5f8135905061097c81610958565b92915050565b5f805f60608486031215610999576109986107ff565b5b5f6109a686828701610944565b93505060206109b786828701610944565b92505060406109c88682870161096e565b9150509250925092565b5f805f80608085870312156109ea576109e96107ff565b5b5f6109f787828801610822565b9450506020610a0887828801610944565b9350506040610a1987828801610944565b9250506060610a2a8782880161096e565b91505092959194509250565b5f60208284031215610a4b57610a4a6107ff565b5b5f610a5884828501610944565b91505092915050565b5f602082019050610a745f8301846108c3565b92915050565b5f606082019050610a8d5f830186610891565b610a9a6020830185610891565b610aa760408301846108a9565b949350505050565b610ab8816108b8565b8114610ac2575f80fd5b50565b5f81519050610ad381610aaf565b92915050565b5f60208284031215610aee57610aed6107ff565b5b5f610afb84828501610ac5565b91505092915050565b5f82825260208201905092915050565b7f73656564207472616e7366657246726f6d206661696c656400000000000000005f82015250565b5f610b48601883610b04565b9150610b5382610b14565b602082019050919050565b5f6020820190508181035f830152610b7581610b3c565b9050919050565b7f4e487b71000000000000000000000000000000000000000000000000000000005f52601160045260245ffd5b5f610bb3826108a0565b9150610bbe836108a0565b9250828201905080821115610bd657610bd5610b7c565b5b92915050565b7f696e76616c696420766d000000000000000000000000000000000000000000005f82015250565b5f610c10600a83610b04565b9150610c1b82610bdc565b602082019050919050565b5f6020820190508181035f830152610c3d81610c04565b9050919050565b7f7472616e7366657220616c726561647920636f6d706c657465640000000000005f82015250565b5f610c78601a83610b04565b9150610c8382610c44565b602082019050919050565b5f6020820190508181035f830152610ca581610c6c565b9050919050565b7f696e73756666696369656e74206f75747374616e64696e6700000000000000005f82015250565b5f610ce0601883610b04565b9150610ceb82610cac565b602082019050919050565b5f6020820190508181035f830152610d0d81610cd4565b9050919050565b5f604082019050610d275f830185610891565b610d3460208301846108a9565b9392505050565b7f7472616e73666572206661696c656400000000000000000000000000000000005f82015250565b5f610d6f600f83610b04565b9150610d7a82610d3b565b602082019050919050565b5f6020820190508181035f830152610d9c81610d63565b905091905056fea264697066735822122014c25e43e3dbc091ca9ce6e62e4ee623b85273c3a501bc5e032ceaff0721d34c64736f6c63430008180033","linkReferences":{}},"methodIdentifiers":{"completeTransfer(bytes32)":"a1febf81","completed(bytes32)":"f6419d96","outstanding(address)":"de58bafa","redeemCount(bytes32)":"605dde30","registerTransfer(bytes32,address,address,uint256)":"d9c7428a","seed(address,address,uint256)":"8ca57441","transfers(bytes32)":"3c64f04b"},"id":1}