{"abi":[{"type":"constructor","inputs":[{"name":"_bridge","type":"address","internalType":"address"}],"stateMutability":"nonpayable"},{"type":"function","name":"allowance","inputs":[{"name":"","type":"address","internalType":"address"},{"name":"","type":"address","internalType":"address"}],"outputs":[{"name":"","type":"uint256","internalType":"uint256"}],"stateMutability":"view"},{"type":"function","name":"approve","inputs":[{"name":"spender","type":"address","internalType":"address"},{"name":"amount","type":"uint256","internalType":"uint256"}],"outputs":[{"name":"","type":"bool","internalType":"bool"}],"stateMutability":"nonpayable"},{"type":"function","name":"balanceOf","inputs":[{"name":"","type":"address","internalType":"address"}],"outputs":[{"name":"","type":"uint256","internalType":"uint256"}],"stateMutability":"view"},{"type":"function","name":"bridge","inputs":[],"outputs":[{"name":"","type":"address","internalType":"address"}],"stateMutability":"view"},{"type":"function","name":"configureHook","inputs":[{"name":"vmHash","type":"bytes32","internalType":"bytes32"},{"name":"enabled","type":"bool","internalType":"bool"}],"outputs":[],"stateMutability":"nonpayable"},{"type":"function","name":"decimals","inputs":[],"outputs":[{"name":"","type":"uint8","internalType":"uint8"}],"stateMutability":"view"},{"type":"function","name":"entered","inputs":[],"outputs":[{"name":"","type":"bool","internalType":"bool"}],"stateMutability":"view"},{"type":"function","name":"hookEnabled","inputs":[],"outputs":[{"name":"","type":"bool","internalType":"bool"}],"stateMutability":"view"},{"type":"function","name":"hookVmHash","inputs":[],"outputs":[{"name":"","type":"bytes32","internalType":"bytes32"}],"stateMutability":"view"},{"type":"function","name":"mint","inputs":[{"name":"to","type":"address","internalType":"address"},{"name":"amount","type":"uint256","internalType":"uint256"}],"outputs":[],"stateMutability":"nonpayable"},{"type":"function","name":"name","inputs":[],"outputs":[{"name":"","type":"string","internalType":"string"}],"stateMutability":"view"},{"type":"function","name":"symbol","inputs":[],"outputs":[{"name":"","type":"string","internalType":"string"}],"stateMutability":"view"},{"type":"function","name":"transfer","inputs":[{"name":"to","type":"address","internalType":"address"},{"name":"amount","type":"uint256","internalType":"uint256"}],"outputs":[{"name":"","type":"bool","internalType":"bool"}],"stateMutability":"nonpayable"},{"type":"function","name":"transferFrom","inputs":[{"name":"from","type":"address","internalType":"address"},{"name":"to","type":"address","internalType":"address"},{"name":"amount","type":"uint256","internalType":"uint256"}],"outputs":[{"name":"","type":"bool","internalType":"bool"}],"stateMutability":"nonpayable"}],"bytecode":{"object":"0x60a060405234801562000010575f80fd5b506040516200100c3803806200100c833981810160405281019062000036919062000147565b5f73ffffffffffffffffffffffffffffffffffffffff168173ffffffffffffffffffffffffffffffffffffffff1603620000a7576040517f08c379a00000000000000000000000000000000000000000000000000000000081526004016200009e90620001d5565b60405180910390fd5b8073ffffffffffffffffffffffffffffffffffffffff1660808173ffffffffffffffffffffffffffffffffffffffff168152505050620001f5565b5f80fd5b5f73ffffffffffffffffffffffffffffffffffffffff82169050919050565b5f6200011182620000e6565b9050919050565b620001238162000105565b81146200012e575f80fd5b50565b5f81519050620001418162000118565b92915050565b5f602082840312156200015f576200015e620000e2565b5b5f6200016e8482850162000131565b91505092915050565b5f82825260208201905092915050565b7f6272696467653d300000000000000000000000000000000000000000000000005f82015250565b5f620001bd60088362000177565b9150620001ca8262000187565b602082019050919050565b5f6020820190508181035f830152620001ee81620001af565b9050919050565b608051610df06200021c5f395f8181610662015281816107b601526108550152610df05ff3fe608060405234801561000f575f80fd5b50600436106100e8575f3560e01c8063a77f05e91161008a578063dd62ed3e11610064578063dd62ed3e1461025c578063e78cea921461028c578063ee4349f3146102aa578063f128f4b1146102c8576100e8565b8063a77f05e9146101f2578063a9059cbb14610210578063b4e0b4e914610240576100e8565b8063313ce567116100c6578063313ce5671461016a57806340c10f191461018857806370a08231146101a457806395d89b41146101d4576100e8565b806306fdde03146100ec578063095ea7b31461010a57806323b872dd1461013a575b5f80fd5b6100f46102e6565b6040516101019190610968565b60405180910390f35b610124600480360381019061011f9190610a19565b61031f565b6040516101319190610a71565b60405180910390f35b610154600480360381019061014f9190610a8a565b6103a7565b6040516101619190610a71565b60405180910390f35b610172610531565b60405161017f9190610af5565b60405180910390f35b6101a2600480360381019061019d9190610a19565b610536565b005b6101be60048036038101906101b99190610b0e565b61058c565b6040516101cb9190610b48565b60405180910390f35b6101dc6105a0565b6040516101e99190610968565b60405180910390f35b6101fa6105d9565b6040516102079190610a71565b60405180910390f35b61022a60048036038101906102259190610a19565b6105ec565b6040516102379190610a71565b60405180910390f35b61025a60048036038101906102559190610bbe565b610602565b005b61027660048036038101906102719190610bfc565b610640565b6040516102839190610b48565b60405180910390f35b610294610660565b6040516102a19190610c49565b60405180910390f35b6102b2610684565b6040516102bf9190610c71565b60405180910390f35b6102d061068a565b6040516102dd9190610a71565b60405180910390f35b6040518060400160405280600f81526020017f5265656e7472616e7420546f6b656e000000000000000000000000000000000081525081565b5f8160015f3373ffffffffffffffffffffffffffffffffffffffff1673ffffffffffffffffffffffffffffffffffffffff1681526020019081526020015f205f8573ffffffffffffffffffffffffffffffffffffffff1673ffffffffffffffffffffffffffffffffffffffff1681526020019081526020015f20819055506001905092915050565b5f8373ffffffffffffffffffffffffffffffffffffffff163373ffffffffffffffffffffffffffffffffffffffff161461051b575f60015f8673ffffffffffffffffffffffffffffffffffffffff1673ffffffffffffffffffffffffffffffffffffffff1681526020019081526020015f205f3373ffffffffffffffffffffffffffffffffffffffff1673ffffffffffffffffffffffffffffffffffffffff1681526020019081526020015f205490508281101561049a576040517f08c379a000000000000000000000000000000000000000000000000000000000815260040161049190610cd4565b60405180910390fd5b82810360015f8773ffffffffffffffffffffffffffffffffffffffff1673ffffffffffffffffffffffffffffffffffffffff1681526020019081526020015f205f3373ffffffffffffffffffffffffffffffffffffffff1673ffffffffffffffffffffffffffffffffffffffff1681526020019081526020015f2081905550505b61052684848461069c565b600190509392505050565b601281565b805f808473ffffffffffffffffffffffffffffffffffffffff1673ffffffffffffffffffffffffffffffffffffffff1681526020019081526020015f205f8282546105819190610d1f565b925050819055505050565b5f602052805f5260405f205f915090505481565b6040518060400160405280600381526020017f524e54000000000000000000000000000000000000000000000000000000000081525081565b600260019054906101000a900460ff1681565b5f6105f833848461069c565b6001905092915050565b816003819055508060025f6101000a81548160ff0219169083151502179055505f600260016101000a81548160ff0219169083151502179055505050565b6001602052815f5260405f20602052805f5260405f205f91509150505481565b7f000000000000000000000000000000000000000000000000000000000000000081565b60035481565b60025f9054906101000a900460ff1681565b5f805f8573ffffffffffffffffffffffffffffffffffffffff1673ffffffffffffffffffffffffffffffffffffffff1681526020019081526020015f205490508181101561071f576040517f08c379a000000000000000000000000000000000000000000000000000000000815260040161071690610d9c565b60405180910390fd5b8181035f808673ffffffffffffffffffffffffffffffffffffffff1673ffffffffffffffffffffffffffffffffffffffff1681526020019081526020015f2081905550815f808573ffffffffffffffffffffffffffffffffffffffff1673ffffffffffffffffffffffffffffffffffffffff1681526020019081526020015f205f8282546107ad9190610d1f565b925050819055507f000000000000000000000000000000000000000000000000000000000000000073ffffffffffffffffffffffffffffffffffffffff168473ffffffffffffffffffffffffffffffffffffffff1614801561081a575060025f9054906101000a900460ff165b80156108335750600260019054906101000a900460ff16155b156108d8576001600260016101000a81548160ff0219169083151502179055507f000000000000000000000000000000000000000000000000000000000000000073ffffffffffffffffffffffffffffffffffffffff1663a1febf816003546040518263ffffffff1660e01b81526004016108ae9190610c71565b5f604051808303815f87803b1580156108c5575f80fd5b505af19250505080156108d6575060015b505b50505050565b5f81519050919050565b5f82825260208201905092915050565b5f5b838110156109155780820151818401526020810190506108fa565b5f8484015250505050565b5f601f19601f8301169050919050565b5f61093a826108de565b61094481856108e8565b93506109548185602086016108f8565b61095d81610920565b840191505092915050565b5f6020820190508181035f8301526109808184610930565b905092915050565b5f80fd5b5f73ffffffffffffffffffffffffffffffffffffffff82169050919050565b5f6109b58261098c565b9050919050565b6109c5816109ab565b81146109cf575f80fd5b50565b5f813590506109e0816109bc565b92915050565b5f819050919050565b6109f8816109e6565b8114610a02575f80fd5b50565b5f81359050610a13816109ef565b92915050565b5f8060408385031215610a2f57610a2e610988565b5b5f610a3c858286016109d2565b9250506020610a4d85828601610a05565b9150509250929050565b5f8115159050919050565b610a6b81610a57565b82525050565b5f602082019050610a845f830184610a62565b92915050565b5f805f60608486031215610aa157610aa0610988565b5b5f610aae868287016109d2565b9350506020610abf868287016109d2565b9250506040610ad086828701610a05565b9150509250925092565b5f60ff82169050919050565b610aef81610ada565b82525050565b5f602082019050610b085f830184610ae6565b92915050565b5f60208284031215610b2357610b22610988565b5b5f610b30848285016109d2565b91505092915050565b610b42816109e6565b82525050565b5f602082019050610b5b5f830184610b39565b92915050565b5f819050919050565b610b7381610b61565b8114610b7d575f80fd5b50565b5f81359050610b8e81610b6a565b92915050565b610b9d81610a57565b8114610ba7575f80fd5b50565b5f81359050610bb881610b94565b92915050565b5f8060408385031215610bd457610bd3610988565b5b5f610be185828601610b80565b9250506020610bf285828601610baa565b9150509250929050565b5f8060408385031215610c1257610c11610988565b5b5f610c1f858286016109d2565b9250506020610c30858286016109d2565b9150509250929050565b610c43816109ab565b82525050565b5f602082019050610c5c5f830184610c3a565b92915050565b610c6b81610b61565b82525050565b5f602082019050610c845f830184610c62565b92915050565b7f21616c6c6f77616e6365000000000000000000000000000000000000000000005f82015250565b5f610cbe600a836108e8565b9150610cc982610c8a565b602082019050919050565b5f6020820190508181035f830152610ceb81610cb2565b9050919050565b7f4e487b71000000000000000000000000000000000000000000000000000000005f52601160045260245ffd5b5f610d29826109e6565b9150610d34836109e6565b9250828201905080821115610d4c57610d4b610cf2565b5b92915050565b7f2162616c616e63650000000000000000000000000000000000000000000000005f82015250565b5f610d866008836108e8565b9150610d9182610d52565b602082019050919050565b5f6020820190508181035f830152610db381610d7a565b905091905056fea2646970667358221220208d0b31a88e35e97691739eea5f45f3e5b8b3e7fa18cb15e47e0bdac1c9c80464736f6c63430008180033","linkReferences":{}},"methodIdentifiers":{"allowance(address,address)":"dd62ed3e","approve(address,uint256)":"095ea7b3","balanceOf(address)":"70a08231","bridge()":"e78cea92","configureHook(bytes32,bool)":"b4e0b4e9","decimals()":"313ce567","entered()":"a77f05e9","hookEnabled()":"f128f4b1","hookVmHash()":"ee4349f3","mint(address,uint256)":"40c10f19","name()":"06fdde03","symbol()":"95d89b41","transfer(address,uint256)":"a9059cbb","transferFrom(address,address,uint256)":"23b872dd"},"id":1}