{"abi":[{"type":"function","name":"action_mint","inputs":[{"name":"_badgeType","type":"uint8","internalType":"uint8"},{"name":"_movementType","type":"uint8","internalType":"uint8"}],"outputs":[],"stateMutability":"nonpayable"},{"type":"function","name":"getBadge","inputs":[{"name":"_tokenId","type":"uint256","internalType":"uint256"}],"outputs":[{"name":"","type":"tuple","internalType":"struct TrailblazersBadgesS2Like.Badge","components":[{"name":"tokenId","type":"uint256","internalType":"uint256"},{"name":"badgeType","type":"uint8","internalType":"enum TrailblazersBadgesS2Like.BadgeType"},{"name":"movementType","type":"uint8","internalType":"enum TrailblazersBadgesS2Like.MovementType"}]}],"stateMutability":"view"},{"type":"function","name":"mintMock","inputs":[{"name":"_badgeType","type":"uint8","internalType":"uint8"},{"name":"_movementType","type":"uint8","internalType":"uint8"}],"outputs":[{"name":"tokenId_","type":"uint256","internalType":"uint256"}],"stateMutability":"nonpayable"},{"type":"function","name":"property_first_minted_token_must_be_readable","inputs":[],"outputs":[{"name":"","type":"bool","internalType":"bool"}],"stateMutability":"nonpayable"},{"type":"function","name":"property_unminted_token_must_revert","inputs":[],"outputs":[{"name":"","type":"bool","internalType":"bool"}],"stateMutability":"nonpayable"},{"type":"function","name":"totalSupply","inputs":[],"outputs":[{"name":"","type":"uint256","internalType":"uint256"}],"stateMutability":"view"},{"type":"error","name":"TOKEN_NOT_MINTED","inputs":[]}],"bytecode":{"object":"0x608060405234801561000f575f80fd5b50610a678061001d5f395ff3fe608060405234801561000f575f80fd5b5060043610610060575f3560e01c806318160ddd1461006457806332c4f0fc146100825780633c9ae9be146100b2578063783dc0cf146100d057806384141d88146100ee5780638d8386221461010a575b5f80fd5b61006c61013a565b604051610079919061051d565b60405180910390f35b61009c60048036038101906100979190610579565b610143565b6040516100a9919061051d565b60405180910390f35b6100ba61025b565b6040516100c791906105d1565b60405180910390f35b6100d8610301565b6040516100e591906105d1565b60405180910390f35b61010860048036038101906101039190610579565b6103ba565b005b610124600480360381019061011f9190610614565b6103da565b6040516101319190610747565b60405180910390f35b5f600154905090565b5f60015f81546101529061078d565b9190508190559050604051806060016040528082815260200160088560ff1661017b9190610801565b600781111561018d5761018c61064e565b5b600781111561019f5761019e61064e565b5b815260200160038460ff166101b49190610801565b60028111156101c6576101c561064e565b5b60028111156101d8576101d761064e565b5b8152505f808381526020019081526020015f205f820151815f01556020820151816001015f6101000a81548160ff0219169083600781111561021d5761021c61064e565b5b021790555060408201518160010160016101000a81548160ff0219169083600281111561024d5761024c61064e565b5b021790555090505092915050565b5f8061026561013a565b0361027357600190506102fe565b3073ffffffffffffffffffffffffffffffffffffffff16638d83862260016040518263ffffffff1660e01b81526004016102ad9190610873565b606060405180830381865afa9250505080156102e757506040513d601f19601f820116820180604052508101906102e491906109d3565b60015b6102f3575f90506102fe565b6001815f0151149150505b90565b5f8061030b61013a565b0361031957600190506103b7565b5f600161032461013a565b61032e91906109fe565b90503073ffffffffffffffffffffffffffffffffffffffff16638d838622826040518263ffffffff1660e01b8152600401610369919061051d565b606060405180830381865afa9250505080156103a357506040513d601f19601f820116820180604052508101906103a091906109d3565b60015b6103b15760019150506103b7565b5f925050505b90565b60086103c461013a565b10156103d6576103d48282610143565b505b5050565b6103e26104c3565b6103ea61013a565b821015610423576040517f507b1e4400000000000000000000000000000000000000000000000000000000815260040160405180910390fd5b5f808381526020019081526020015f206040518060600160405290815f8201548152602001600182015f9054906101000a900460ff16600781111561046b5761046a61064e565b5b600781111561047d5761047c61064e565b5b81526020016001820160019054906101000a900460ff1660028111156104a6576104a561064e565b5b60028111156104b8576104b761064e565b5b815250509050919050565b60405180606001604052805f81526020015f60078111156104e7576104e661064e565b5b81526020015f60028111156104ff576104fe61064e565b5b81525090565b5f819050919050565b61051781610505565b82525050565b5f6020820190506105305f83018461050e565b92915050565b5f604051905090565b5f80fd5b5f60ff82169050919050565b61055881610543565b8114610562575f80fd5b50565b5f813590506105738161054f565b92915050565b5f806040838503121561058f5761058e61053f565b5b5f61059c85828601610565565b92505060206105ad85828601610565565b9150509250929050565b5f8115159050919050565b6105cb816105b7565b82525050565b5f6020820190506105e45f8301846105c2565b92915050565b6105f381610505565b81146105fd575f80fd5b50565b5f8135905061060e816105ea565b92915050565b5f602082840312156106295761062861053f565b5b5f61063684828501610600565b91505092915050565b61064881610505565b82525050565b7f4e487b71000000000000000000000000000000000000000000000000000000005f52602160045260245ffd5b6008811061068c5761068b61064e565b5b50565b5f81905061069c8261067b565b919050565b5f6106ab8261068f565b9050919050565b6106bb816106a1565b82525050565b600381106106d2576106d161064e565b5b50565b5f8190506106e2826106c1565b919050565b5f6106f1826106d5565b9050919050565b610701816106e7565b82525050565b606082015f82015161071b5f85018261063f565b50602082015161072e60208501826106b2565b50604082015161074160408501826106f8565b50505050565b5f60608201905061075a5f830184610707565b92915050565b7f4e487b71000000000000000000000000000000000000000000000000000000005f52601160045260245ffd5b5f61079782610505565b91507fffffffffffffffffffffffffffffffffffffffffffffffffffffffffffffffff82036107c9576107c8610760565b5b600182019050919050565b7f4e487b71000000000000000000000000000000000000000000000000000000005f52601260045260245ffd5b5f61080b82610505565b915061081683610505565b925082610826576108256107d4565b5b828206905092915050565b5f819050919050565b5f819050919050565b5f61085d61085861085384610831565b61083a565b610505565b9050919050565b61086d81610843565b82525050565b5f6020820190506108865f830184610864565b92915050565b5f80fd5b5f601f19601f8301169050919050565b7f4e487b71000000000000000000000000000000000000000000000000000000005f52604160045260245ffd5b6108d682610890565b810181811067ffffffffffffffff821117156108f5576108f46108a0565b5b80604052505050565b5f610907610536565b905061091382826108cd565b919050565b5f81519050610926816105ea565b92915050565b60088110610938575f80fd5b50565b5f815190506109498161092c565b92915050565b6003811061095b575f80fd5b50565b5f8151905061096c8161094f565b92915050565b5f606082840312156109875761098661088c565b5b61099160606108fe565b90505f6109a084828501610918565b5f8301525060206109b38482850161093b565b60208301525060406109c78482850161095e565b60408301525092915050565b5f606082840312156109e8576109e761053f565b5b5f6109f584828501610972565b91505092915050565b5f610a0882610505565b9150610a1383610505565b9250828201905080821115610a2b57610a2a610760565b5b9291505056fea2646970667358221220748ce7a376c2bd12d9539d891e4a6f89a3b4a9d57ba1892c199adcc8a727d4c564736f6c63430008180033","linkReferences":{}},"methodIdentifiers":{"action_mint(uint8,uint8)":"84141d88","getBadge(uint256)":"8d838622","mintMock(uint8,uint8)":"32c4f0fc","property_first_minted_token_must_be_readable()":"3c9ae9be","property_unminted_token_must_revert()":"783dc0cf","totalSupply()":"18160ddd"},"storageLayout":{"storage":[{"astId":227,"contract":"src/MedusaTaikoF1GetBadgeBoundaryHarness.sol:MedusaTaikoF1GetBadgeBoundaryHarness","label":"badges","offset":0,"slot":"0","type":"t_mapping(t_uint256,t_struct(Badge)222_storage)"},{"astId":229,"contract":"src/MedusaTaikoF1GetBadgeBoundaryHarness.sol:MedusaTaikoF1GetBadgeBoundaryHarness","label":"_totalSupply","offset":0,"slot":"1","type":"t_uint256"}],"types":{"t_enum(BadgeType)209":{"encoding":"inplace","label":"enum TrailblazersBadgesS2Like.BadgeType","numberOfBytes":"1"},"t_enum(MovementType)213":{"encoding":"inplace","label":"enum TrailblazersBadgesS2Like.MovementType","numberOfBytes":"1"},"t_mapping(t_uint256,t_struct(Badge)222_storage)":{"encoding":"mapping","key":"t_uint256","label":"mapping(uint256 => struct TrailblazersBadgesS2Like.Badge)","numberOfBytes":"32","value":"t_struct(Badge)222_storage"},"t_struct(Badge)222_storage":{"encoding":"inplace","label":"struct TrailblazersBadgesS2Like.Badge","numberOfBytes":"64","members":[{"astId":215,"contract":"src/MedusaTaikoF1GetBadgeBoundaryHarness.sol:MedusaTaikoF1GetBadgeBoundaryHarness","label":"tokenId","offset":0,"slot":"0","type":"t_uint256"},{"astId":218,"contract":"src/MedusaTaikoF1GetBadgeBoundaryHarness.sol:MedusaTaikoF1GetBadgeBoundaryHarness","label":"badgeType","offset":0,"slot":"1","type":"t_enum(BadgeType)209"},{"astId":221,"contract":"src/MedusaTaikoF1GetBadgeBoundaryHarness.sol:MedusaTaikoF1GetBadgeBoundaryHarness","label":"movementType","offset":1,"slot":"1","type":"t_enum(MovementType)213"}]},"t_uint256":{"encoding":"inplace","label":"uint256","numberOfBytes":"32"}}},"id":1}