{"abi":[{"type":"constructor","inputs":[{"name":"profitWallet_","type":"address","internalType":"address payable"}],"stateMutability":"nonpayable"},{"type":"receive","stateMutability":"payable"},{"type":"function","name":"PROFIT_WALLET","inputs":[],"outputs":[{"name":"","type":"address","internalType":"address payable"}],"stateMutability":"view"},{"type":"function","name":"initialize","inputs":[{"name":"systemAddresses_","type":"address[]","internalType":"address payable[]"},{"name":"targetBalances_","type":"uint256[]","internalType":"uint256[]"}],"outputs":[],"stateMutability":"nonpayable"},{"type":"function","name":"initializedVersion","inputs":[],"outputs":[{"name":"","type":"uint8","internalType":"uint8"}],"stateMutability":"view"},{"type":"function","name":"processFees","inputs":[],"outputs":[],"stateMutability":"nonpayable"},{"type":"function","name":"systemAddresses","inputs":[{"name":"","type":"uint256","internalType":"uint256"}],"outputs":[{"name":"","type":"address","internalType":"address payable"}],"stateMutability":"view"},{"type":"function","name":"systemAddressesLength","inputs":[],"outputs":[{"name":"","type":"uint256","internalType":"uint256"}],"stateMutability":"view"},{"type":"function","name":"targetBalances","inputs":[{"name":"","type":"uint256","internalType":"uint256"}],"outputs":[{"name":"","type":"uint256","internalType":"uint256"}],"stateMutability":"view"},{"type":"error","name":"AlreadyInitialized","inputs":[]},{"type":"error","name":"InvalidAddress","inputs":[]},{"type":"error","name":"InvalidLength","inputs":[]}],"bytecode":{"object":"0x60a060405234801561000f575f80fd5b50604051610da2380380610da283398181016040528101906100319190610148565b5f73ffffffffffffffffffffffffffffffffffffffff168173ffffffffffffffffffffffffffffffffffffffff1603610096576040517fe6c4247b00000000000000000000000000000000000000000000000000000000815260040160405180910390fd5b8073ffffffffffffffffffffffffffffffffffffffff1660808173ffffffffffffffffffffffffffffffffffffffff168152505060ff5f806101000a81548160ff021916908360ff16021790555050610173565b5f80fd5b5f73ffffffffffffffffffffffffffffffffffffffff82169050919050565b5f610117826100ee565b9050919050565b6101278161010d565b8114610131575f80fd5b50565b5f815190506101428161011e565b92915050565b5f6020828403121561015d5761015c6100ea565b5b5f61016a84828501610134565b91505092915050565b608051610c106101925f395f81816103f601526105c30152610c105ff3fe608060405260043610610073575f3560e01c8063871105411161004d578063871105411461010c578063927a1a7714610136578063981949e814610172578063ba69ebed1461019c5761007a565b806308828eb71461007e5780630a565720146100a85780637fbbe46f146100e45761007a565b3661007a57005b5f80fd5b348015610089575f80fd5b506100926101b2565b60405161009f9190610754565b60405180910390f35b3480156100b3575f80fd5b506100ce60048036038101906100c991906107b1565b6101c6565b6040516100db91906107eb565b60405180910390f35b3480156100ef575f80fd5b5061010a60048036038101906101059190610a6e565b6101e6565b005b348015610117575f80fd5b506101206103ad565b60405161012d91906107eb565b60405180910390f35b348015610141575f80fd5b5061015c600480360381019061015791906107b1565b6103b9565b6040516101699190610af3565b60405180910390f35b34801561017d575f80fd5b506101866103f4565b6040516101939190610af3565b60405180910390f35b3480156101a7575f80fd5b506101b0610418565b005b5f805f9054906101000a900460ff16905090565b600281815481106101d5575f80fd5b905f5260205f20015f915090505481565b60025f8054906101000a900460ff1660ff161061022f576040517f0dc149f000000000000000000000000000000000000000000000000000000000815260040160405180910390fd5b5f825103610269576040517f947d5a8400000000000000000000000000000000000000000000000000000000815260040160405180910390fd5b80518251146102a4576040517f947d5a8400000000000000000000000000000000000000000000000000000000815260040160405180910390fd5b5f5b8251811015610360575f73ffffffffffffffffffffffffffffffffffffffff168382815181106102d9576102d8610b0c565b5b602002602001015173ffffffffffffffffffffffffffffffffffffffff16148061031c57505f82828151811061031257610311610b0c565b5b6020026020010151145b15610353576040517fe6c4247b00000000000000000000000000000000000000000000000000000000815260040160405180910390fd5b80806001019150506102a6565b5060025f806101000a81548160ff021916908360ff160217905550816001908051906020019061039192919061064c565b5080600290805190602001906103a89291906106d3565b505050565b5f600180549050905090565b600181815481106103c8575f80fd5b905f5260205f20015f915054906101000a900473ffffffffffffffffffffffffffffffffffffffff1681565b7f000000000000000000000000000000000000000000000000000000000000000081565b5f60018054905090505f810361045a576040517f947d5a8400000000000000000000000000000000000000000000000000000000815260040160405180910390fd5b5f5b818110156105bf575f6001828154811061047957610478610b0c565b5b905f5260205f20015f9054906101000a900473ffffffffffffffffffffffffffffffffffffffff1673ffffffffffffffffffffffffffffffffffffffff163190505f600283815481106104cf576104ce610b0c565b5b905f5260205f20015490508082106104e85750506105b2565b5f82826104f59190610b66565b90505f4782116105055781610507565b475b90505f6001868154811061051e5761051d610b0c565b5b905f5260205f20015f9054906101000a900473ffffffffffffffffffffffffffffffffffffffff1673ffffffffffffffffffffffffffffffffffffffff168260405161056990610bc6565b5f6040518083038185875af1925050503d805f81146105a3576040519150601f19603f3d011682016040523d82523d5f602084013e6105a8565b606091505b5050905050505050505b808060010191505061045c565b505f7f000000000000000000000000000000000000000000000000000000000000000073ffffffffffffffffffffffffffffffffffffffff164760405161060590610bc6565b5f6040518083038185875af1925050503d805f811461063f576040519150601f19603f3d011682016040523d82523d5f602084013e610644565b606091505b505090505050565b828054828255905f5260205f209081019282156106c2579160200282015b828111156106c1578251825f6101000a81548173ffffffffffffffffffffffffffffffffffffffff021916908373ffffffffffffffffffffffffffffffffffffffff1602179055509160200191906001019061066a565b5b5090506106cf919061071e565b5090565b828054828255905f5260205f2090810192821561070d579160200282015b8281111561070c5782518255916020019190600101906106f1565b5b50905061071a919061071e565b5090565b5b80821115610735575f815f90555060010161071f565b5090565b5f60ff82169050919050565b61074e81610739565b82525050565b5f6020820190506107675f830184610745565b92915050565b5f604051905090565b5f80fd5b5f80fd5b5f819050919050565b6107908161077e565b811461079a575f80fd5b50565b5f813590506107ab81610787565b92915050565b5f602082840312156107c6576107c5610776565b5b5f6107d38482850161079d565b91505092915050565b6107e58161077e565b82525050565b5f6020820190506107fe5f8301846107dc565b92915050565b5f80fd5b5f601f19601f8301169050919050565b7f4e487b71000000000000000000000000000000000000000000000000000000005f52604160045260245ffd5b61084e82610808565b810181811067ffffffffffffffff8211171561086d5761086c610818565b5b80604052505050565b5f61087f61076d565b905061088b8282610845565b919050565b5f67ffffffffffffffff8211156108aa576108a9610818565b5b602082029050602081019050919050565b5f80fd5b5f73ffffffffffffffffffffffffffffffffffffffff82169050919050565b5f6108e8826108bf565b9050919050565b6108f8816108de565b8114610902575f80fd5b50565b5f81359050610913816108ef565b92915050565b5f61092b61092684610890565b610876565b9050808382526020820190506020840283018581111561094e5761094d6108bb565b5b835b8181101561097757806109638882610905565b845260208401935050602081019050610950565b5050509392505050565b5f82601f83011261099557610994610804565b5b81356109a5848260208601610919565b91505092915050565b5f67ffffffffffffffff8211156109c8576109c7610818565b5b602082029050602081019050919050565b5f6109eb6109e6846109ae565b610876565b90508083825260208201905060208402830185811115610a0e57610a0d6108bb565b5b835b81811015610a375780610a23888261079d565b845260208401935050602081019050610a10565b5050509392505050565b5f82601f830112610a5557610a54610804565b5b8135610a658482602086016109d9565b91505092915050565b5f8060408385031215610a8457610a83610776565b5b5f83013567ffffffffffffffff811115610aa157610aa061077a565b5b610aad85828601610981565b925050602083013567ffffffffffffffff811115610ace57610acd61077a565b5b610ada85828601610a41565b9150509250929050565b610aed816108de565b82525050565b5f602082019050610b065f830184610ae4565b92915050565b7f4e487b71000000000000000000000000000000000000000000000000000000005f52603260045260245ffd5b7f4e487b71000000000000000000000000000000000000000000000000000000005f52601160045260245ffd5b5f610b708261077e565b9150610b7b8361077e565b9250828203905081811115610b9357610b92610b39565b5b92915050565b5f81905092915050565b50565b5f610bb15f83610b99565b9150610bbc82610ba3565b5f82019050919050565b5f610bd082610ba6565b915081905091905056fea2646970667358221220142692fb3f92bab1c4b7b4a5364e3cef2867d2e7414079cd873b85ae0b5158b364736f6c63430008180033","linkReferences":{}},"methodIdentifiers":{"PROFIT_WALLET()":"981949e8","initialize(address[],uint256[])":"7fbbe46f","initializedVersion()":"08828eb7","processFees()":"ba69ebed","systemAddresses(uint256)":"927a1a77","systemAddressesLength()":"87110541","targetBalances(uint256)":"0a565720"},"storageLayout":{"storage":[{"astId":145,"contract":"src/BaseF1InitializerHijackHarness.sol:BaseF1BalanceTrackerLike","label":"_initializedVersion","offset":0,"slot":"0","type":"t_uint8"},{"astId":150,"contract":"src/BaseF1InitializerHijackHarness.sol:BaseF1BalanceTrackerLike","label":"systemAddresses","offset":0,"slot":"1","type":"t_array(t_address_payable)dyn_storage"},{"astId":153,"contract":"src/BaseF1InitializerHijackHarness.sol:BaseF1BalanceTrackerLike","label":"targetBalances","offset":0,"slot":"2","type":"t_array(t_uint256)dyn_storage"}],"types":{"t_address_payable":{"encoding":"inplace","label":"address payable","numberOfBytes":"20"},"t_array(t_address_payable)dyn_storage":{"encoding":"dynamic_array","label":"address payable[]","numberOfBytes":"32","base":"t_address_payable"},"t_array(t_uint256)dyn_storage":{"encoding":"dynamic_array","label":"uint256[]","numberOfBytes":"32","base":"t_uint256"},"t_uint256":{"encoding":"inplace","label":"uint256","numberOfBytes":"32"},"t_uint8":{"encoding":"inplace","label":"uint8","numberOfBytes":"1"}}},"id":0}