{"abi":[{"type":"constructor","inputs":[],"stateMutability":"nonpayable"},{"type":"function","name":"bridgehub","inputs":[],"outputs":[{"name":"","type":"address","internalType":"address"}],"stateMutability":"view"},{"type":"function","name":"changeDeployer","inputs":[{"name":"_newDeployer","type":"address","internalType":"address"}],"outputs":[],"stateMutability":"nonpayable"},{"type":"function","name":"initialize","inputs":[{"name":"_bridgehub","type":"address","internalType":"address"},{"name":"_l2Deployer","type":"address","internalType":"address"},{"name":"_ownerAddress","type":"address","internalType":"address"}],"outputs":[],"stateMutability":"nonpayable"},{"type":"function","name":"l2Deployer","inputs":[],"outputs":[{"name":"","type":"address","internalType":"address"}],"stateMutability":"view"},{"type":"function","name":"owner","inputs":[],"outputs":[{"name":"","type":"address","internalType":"address"}],"stateMutability":"view"},{"type":"function","name":"proposeChainRegistration","inputs":[{"name":"_chainId","type":"uint256","internalType":"uint256"},{"name":"_baseTokenAddress","type":"address","internalType":"address"},{"name":"_gasPriceMultiplierNominator","type":"uint128","internalType":"uint128"},{"name":"_gasPriceMultiplierDenominator","type":"uint128","internalType":"uint128"}],"outputs":[],"stateMutability":"nonpayable"},{"type":"function","name":"proposed","inputs":[{"name":"author","type":"address","internalType":"address"},{"name":"chainId","type":"uint256","internalType":"uint256"}],"outputs":[{"name":"proposed","type":"bool","internalType":"bool"}],"stateMutability":"view"},{"type":"error","name":"AlreadyInitialized","inputs":[]},{"type":"error","name":"ChainIsAlreadyProposed","inputs":[]},{"type":"error","name":"Unauthorized","inputs":[]}],"bytecode":{"object":"0x608060405234801561000f575f80fd5b5060015f806101000a81548160ff021916908315150217905550610b7c806100365f395ff3fe608060405234801561000f575f80fd5b506004361061007b575f3560e01c80639ac810a8116100595780639ac810a8146100d7578063a432298014610107578063c0c53b8b14610125578063defdfae6146101415761007b565b806347d755dc1461007f5780635d38962d1461009b5780638da5cb5b146100b9575b5f80fd5b610099600480360381019061009491906107b3565b61015d565b005b6100a3610456565b6040516100b09190610826565b60405180910390f35b6100c161047b565b6040516100ce9190610826565b60405180910390f35b6100f160048036038101906100ec919061083f565b6104a3565b6040516100fe9190610897565b60405180910390f35b61010f6104cd565b60405161011c9190610826565b60405180910390f35b61013f600480360381019061013a91906108b0565b6104f2565b005b61015b60048036038101906101569190610900565b610614565b005b60035f3373ffffffffffffffffffffffffffffffffffffffff1673ffffffffffffffffffffffffffffffffffffffff1681526020019081526020015f205f8581526020019081526020015f205f9054906101000a900460ff16156101ed576040517f19ddfc4d00000000000000000000000000000000000000000000000000000000815260040160405180910390fd5b600160035f3373ffffffffffffffffffffffffffffffffffffffff1673ffffffffffffffffffffffffffffffffffffffff1681526020019081526020015f205f8681526020019081526020015f205f6101000a81548160ff021916908315150217905550600173ffffffffffffffffffffffffffffffffffffffff168373ffffffffffffffffffffffffffffffffffffffff1614610450575f816fffffffffffffffffffffffffffffffff16836fffffffffffffffffffffffffffffffff16670de0b6b3a76400006102bf9190610958565b6102c991906109c6565b9050808473ffffffffffffffffffffffffffffffffffffffff166370a0823160015f9054906101000a900473ffffffffffffffffffffffffffffffffffffffff166040518263ffffffff1660e01b81526004016103269190610826565b602060405180830381865afa158015610341573d5f803e3d5ffd5b505050506040513d601f19601f820116820180604052508101906103659190610a0a565b101561044e575f8473ffffffffffffffffffffffffffffffffffffffff166323b872dd3360015f9054906101000a900473ffffffffffffffffffffffffffffffffffffffff16856040518463ffffffff1660e01b81526004016103ca93929190610a44565b6020604051808303815f875af11580156103e6573d5f803e3d5ffd5b505050506040513d601f19601f8201168201806040525081019061040a9190610aa3565b90508061044c576040517f08c379a000000000000000000000000000000000000000000000000000000000815260040161044390610b28565b60405180910390fd5b505b505b50505050565b60025f9054906101000a900473ffffffffffffffffffffffffffffffffffffffff1681565b5f8060019054906101000a900473ffffffffffffffffffffffffffffffffffffffff16905090565b6003602052815f5260405f20602052805f5260405f205f915091509054906101000a900460ff1681565b60015f9054906101000a900473ffffffffffffffffffffffffffffffffffffffff1681565b5f8054906101000a900460ff1615610536576040517f0dc149f000000000000000000000000000000000000000000000000000000000815260040160405180910390fd5b60015f806101000a81548160ff0219169083151502179055508260025f6101000a81548173ffffffffffffffffffffffffffffffffffffffff021916908373ffffffffffffffffffffffffffffffffffffffff1602179055508160015f6101000a81548173ffffffffffffffffffffffffffffffffffffffff021916908373ffffffffffffffffffffffffffffffffffffffff160217905550805f60016101000a81548173ffffffffffffffffffffffffffffffffffffffff021916908373ffffffffffffffffffffffffffffffffffffffff160217905550505050565b5f60019054906101000a900473ffffffffffffffffffffffffffffffffffffffff1673ffffffffffffffffffffffffffffffffffffffff163373ffffffffffffffffffffffffffffffffffffffff161461069a576040517f82b4290000000000000000000000000000000000000000000000000000000000815260040160405180910390fd5b8060015f6101000a81548173ffffffffffffffffffffffffffffffffffffffff021916908373ffffffffffffffffffffffffffffffffffffffff16021790555050565b5f80fd5b5f819050919050565b6106f3816106e1565b81146106fd575f80fd5b50565b5f8135905061070e816106ea565b92915050565b5f73ffffffffffffffffffffffffffffffffffffffff82169050919050565b5f61073d82610714565b9050919050565b61074d81610733565b8114610757575f80fd5b50565b5f8135905061076881610744565b92915050565b5f6fffffffffffffffffffffffffffffffff82169050919050565b6107928161076e565b811461079c575f80fd5b50565b5f813590506107ad81610789565b92915050565b5f805f80608085870312156107cb576107ca6106dd565b5b5f6107d887828801610700565b94505060206107e98782880161075a565b93505060406107fa8782880161079f565b925050606061080b8782880161079f565b91505092959194509250565b61082081610733565b82525050565b5f6020820190506108395f830184610817565b92915050565b5f8060408385031215610855576108546106dd565b5b5f6108628582860161075a565b925050602061087385828601610700565b9150509250929050565b5f8115159050919050565b6108918161087d565b82525050565b5f6020820190506108aa5f830184610888565b92915050565b5f805f606084860312156108c7576108c66106dd565b5b5f6108d48682870161075a565b93505060206108e58682870161075a565b92505060406108f68682870161075a565b9150509250925092565b5f60208284031215610915576109146106dd565b5b5f6109228482850161075a565b91505092915050565b7f4e487b71000000000000000000000000000000000000000000000000000000005f52601160045260245ffd5b5f610962826106e1565b915061096d836106e1565b925082820261097b816106e1565b915082820484148315176109925761099161092b565b5b5092915050565b7f4e487b71000000000000000000000000000000000000000000000000000000005f52601260045260245ffd5b5f6109d0826106e1565b91506109db836106e1565b9250826109eb576109ea610999565b5b828204905092915050565b5f81519050610a04816106ea565b92915050565b5f60208284031215610a1f57610a1e6106dd565b5b5f610a2c848285016109f6565b91505092915050565b610a3e816106e1565b82525050565b5f606082019050610a575f830186610817565b610a646020830185610817565b610a716040830184610a35565b949350505050565b610a828161087d565b8114610a8c575f80fd5b50565b5f81519050610a9d81610a79565b92915050565b5f60208284031215610ab857610ab76106dd565b5b5f610ac584828501610a8f565b91505092915050565b5f82825260208201905092915050565b7f7472616e7366657246726f6d206661696c6564000000000000000000000000005f82015250565b5f610b12601383610ace565b9150610b1d82610ade565b602082019050919050565b5f6020820190508181035f830152610b3f81610b06565b905091905056fea2646970667358221220244566a242dcf3c52d101b4cc63f8ffd011cfba80a28477a991b738dc0e5b83d64736f6c63430008180033","linkReferences":{}},"methodIdentifiers":{"bridgehub()":"5d38962d","changeDeployer(address)":"defdfae6","initialize(address,address,address)":"c0c53b8b","l2Deployer()":"a4322980","owner()":"8da5cb5b","proposeChainRegistration(uint256,address,uint128,uint128)":"47d755dc","proposed(address,uint256)":"9ac810a8"},"storageLayout":{"storage":[{"astId":515,"contract":"src/EraContractsF1ChainRegistrarInitHijackHarness.sol:ChainRegistrarLike","label":"initialized","offset":0,"slot":"0","type":"t_bool"},{"astId":517,"contract":"src/EraContractsF1ChainRegistrarInitHijackHarness.sol:ChainRegistrarLike","label":"_owner","offset":1,"slot":"0","type":"t_address"},{"astId":519,"contract":"src/EraContractsF1ChainRegistrarInitHijackHarness.sol:ChainRegistrarLike","label":"l2Deployer","offset":0,"slot":"1","type":"t_address"},{"astId":521,"contract":"src/EraContractsF1ChainRegistrarInitHijackHarness.sol:ChainRegistrarLike","label":"bridgehub","offset":0,"slot":"2","type":"t_address"},{"astId":527,"contract":"src/EraContractsF1ChainRegistrarInitHijackHarness.sol:ChainRegistrarLike","label":"proposed","offset":0,"slot":"3","type":"t_mapping(t_address,t_mapping(t_uint256,t_bool))"}],"types":{"t_address":{"encoding":"inplace","label":"address","numberOfBytes":"20"},"t_bool":{"encoding":"inplace","label":"bool","numberOfBytes":"1"},"t_mapping(t_address,t_mapping(t_uint256,t_bool))":{"encoding":"mapping","key":"t_address","label":"mapping(address => mapping(uint256 => bool))","numberOfBytes":"32","value":"t_mapping(t_uint256,t_bool)"},"t_mapping(t_uint256,t_bool)":{"encoding":"mapping","key":"t_uint256","label":"mapping(uint256 => bool)","numberOfBytes":"32","value":"t_bool"},"t_uint256":{"encoding":"inplace","label":"uint256","numberOfBytes":"32"}}},"id":1}