{"abi":[{"type":"constructor","inputs":[{"name":"_bridge","type":"address","internalType":"address"},{"name":"_feeCollector","type":"address","internalType":"address"},{"name":"_bridgeSenderTaxBps","type":"uint16","internalType":"uint16"}],"stateMutability":"nonpayable"},{"type":"function","name":"allowance","inputs":[{"name":"","type":"address","internalType":"address"},{"name":"","type":"address","internalType":"address"}],"outputs":[{"name":"","type":"uint256","internalType":"uint256"}],"stateMutability":"view"},{"type":"function","name":"approve","inputs":[{"name":"spender","type":"address","internalType":"address"},{"name":"amount","type":"uint256","internalType":"uint256"}],"outputs":[{"name":"","type":"bool","internalType":"bool"}],"stateMutability":"nonpayable"},{"type":"function","name":"balanceOf","inputs":[{"name":"","type":"address","internalType":"address"}],"outputs":[{"name":"","type":"uint256","internalType":"uint256"}],"stateMutability":"view"},{"type":"function","name":"bridge","inputs":[],"outputs":[{"name":"","type":"address","internalType":"address"}],"stateMutability":"view"},{"type":"function","name":"bridgeSenderTaxBps","inputs":[],"outputs":[{"name":"","type":"uint16","internalType":"uint16"}],"stateMutability":"view"},{"type":"function","name":"decimals","inputs":[],"outputs":[{"name":"","type":"uint8","internalType":"uint8"}],"stateMutability":"view"},{"type":"function","name":"feeCollector","inputs":[],"outputs":[{"name":"","type":"address","internalType":"address"}],"stateMutability":"view"},{"type":"function","name":"mint","inputs":[{"name":"to","type":"address","internalType":"address"},{"name":"amount","type":"uint256","internalType":"uint256"}],"outputs":[],"stateMutability":"nonpayable"},{"type":"function","name":"name","inputs":[],"outputs":[{"name":"","type":"string","internalType":"string"}],"stateMutability":"view"},{"type":"function","name":"symbol","inputs":[],"outputs":[{"name":"","type":"string","internalType":"string"}],"stateMutability":"view"},{"type":"function","name":"transfer","inputs":[{"name":"to","type":"address","internalType":"address"},{"name":"amount","type":"uint256","internalType":"uint256"}],"outputs":[{"name":"","type":"bool","internalType":"bool"}],"stateMutability":"nonpayable"},{"type":"function","name":"transferFrom","inputs":[{"name":"from","type":"address","internalType":"address"},{"name":"to","type":"address","internalType":"address"},{"name":"amount","type":"uint256","internalType":"uint256"}],"outputs":[{"name":"","type":"bool","internalType":"bool"}],"stateMutability":"nonpayable"}],"bytecode":{"object":"0x60e060405234801562000010575f80fd5b506040516200121b3803806200121b833981810160405281019062000036919062000286565b5f73ffffffffffffffffffffffffffffffffffffffff168373ffffffffffffffffffffffffffffffffffffffff1603620000a7576040517f08c379a00000000000000000000000000000000000000000000000000000000081526004016200009e906200033d565b60405180910390fd5b5f73ffffffffffffffffffffffffffffffffffffffff168273ffffffffffffffffffffffffffffffffffffffff160362000118576040517f08c379a00000000000000000000000000000000000000000000000000000000081526004016200010f90620003ab565b60405180910390fd5b6127108161ffff16111562000164576040517f08c379a00000000000000000000000000000000000000000000000000000000081526004016200015b9062000419565b60405180910390fd5b8273ffffffffffffffffffffffffffffffffffffffff1660808173ffffffffffffffffffffffffffffffffffffffff16815250508173ffffffffffffffffffffffffffffffffffffffff1660a08173ffffffffffffffffffffffffffffffffffffffff16815250508061ffff1660c08161ffff168152505050505062000439565b5f80fd5b5f73ffffffffffffffffffffffffffffffffffffffff82169050919050565b5f6200021482620001e9565b9050919050565b620002268162000208565b811462000231575f80fd5b50565b5f8151905062000244816200021b565b92915050565b5f61ffff82169050919050565b62000262816200024a565b81146200026d575f80fd5b50565b5f81519050620002808162000257565b92915050565b5f805f60608486031215620002a0576200029f620001e5565b5b5f620002af8682870162000234565b9350506020620002c28682870162000234565b9250506040620002d58682870162000270565b9150509250925092565b5f82825260208201905092915050565b7f6272696467653d300000000000000000000000000000000000000000000000005f82015250565b5f62000325600883620002df565b91506200033282620002ef565b602082019050919050565b5f6020820190508181035f830152620003568162000317565b9050919050565b7f636f6c6c6563746f723d300000000000000000000000000000000000000000005f82015250565b5f62000393600b83620002df565b9150620003a0826200035d565b602082019050919050565b5f6020820190508181035f830152620003c48162000385565b9050919050565b7f62707320746f6f206869676800000000000000000000000000000000000000005f82015250565b5f62000401600c83620002df565b91506200040e82620003cb565b602082019050919050565b5f6020820190508181035f8301526200043281620003f3565b9050919050565b60805160a05160c051610d9b620004805f395f818161051e01528181610665015261069401525f81816105a5015261080301525f81816105e9015261060e0152610d9b5ff3fe608060405234801561000f575f80fd5b50600436106100b2575f3560e01c806370a082311161006f57806370a082311461018c57806395d89b41146101bc578063a9059cbb146101da578063c415b95c1461020a578063dd62ed3e14610228578063e78cea9214610258576100b2565b806306fdde03146100b6578063095ea7b3146100d457806323b872dd14610104578063313ce5671461013457806340c10f1914610152578063696e43401461016e575b5f80fd5b6100be610276565b6040516100cb9190610903565b60405180910390f35b6100ee60048036038101906100e991906109b4565b6102af565b6040516100fb9190610a0c565b60405180910390f35b61011e60048036038101906101199190610a25565b610337565b60405161012b9190610a0c565b60405180910390f35b61013c6104c1565b6040516101499190610a90565b60405180910390f35b61016c600480360381019061016791906109b4565b6104c6565b005b61017661051c565b6040516101839190610ac5565b60405180910390f35b6101a660048036038101906101a19190610ade565b610540565b6040516101b39190610b18565b60405180910390f35b6101c4610554565b6040516101d19190610903565b60405180910390f35b6101f460048036038101906101ef91906109b4565b61058d565b6040516102019190610a0c565b60405180910390f35b6102126105a3565b60405161021f9190610b40565b60405180910390f35b610242600480360381019061023d9190610b59565b6105c7565b60405161024f9190610b18565b60405180910390f35b6102606105e7565b60405161026d9190610b40565b60405180910390f35b6040518060400160405280601781526020017f4272696467652053656e6465722054617820546f6b656e00000000000000000081525081565b5f8160015f3373ffffffffffffffffffffffffffffffffffffffff1673ffffffffffffffffffffffffffffffffffffffff1681526020019081526020015f205f8573ffffffffffffffffffffffffffffffffffffffff1673ffffffffffffffffffffffffffffffffffffffff1681526020019081526020015f20819055506001905092915050565b5f8373ffffffffffffffffffffffffffffffffffffffff163373ffffffffffffffffffffffffffffffffffffffff16146104ab575f60015f8673ffffffffffffffffffffffffffffffffffffffff1673ffffffffffffffffffffffffffffffffffffffff1681526020019081526020015f205f3373ffffffffffffffffffffffffffffffffffffffff1673ffffffffffffffffffffffffffffffffffffffff1681526020019081526020015f205490508281101561042a576040517f08c379a000000000000000000000000000000000000000000000000000000000815260040161042190610be1565b60405180910390fd5b82810360015f8773ffffffffffffffffffffffffffffffffffffffff1673ffffffffffffffffffffffffffffffffffffffff1681526020019081526020015f205f3373ffffffffffffffffffffffffffffffffffffffff1673ffffffffffffffffffffffffffffffffffffffff1681526020019081526020015f2081905550505b6104b684848461060b565b600190509392505050565b601281565b805f808473ffffffffffffffffffffffffffffffffffffffff1673ffffffffffffffffffffffffffffffffffffffff1681526020019081526020015f205f8282546105119190610c2c565b925050819055505050565b7f000000000000000000000000000000000000000000000000000000000000000081565b5f602052805f5260405f205f915090505481565b6040518060400160405280600381526020017f425354000000000000000000000000000000000000000000000000000000000081525081565b5f61059933848461060b565b6001905092915050565b7f000000000000000000000000000000000000000000000000000000000000000081565b6001602052815f5260405f20602052805f5260405f205f91509150505481565b7f000000000000000000000000000000000000000000000000000000000000000081565b5f7f000000000000000000000000000000000000000000000000000000000000000073ffffffffffffffffffffffffffffffffffffffff168473ffffffffffffffffffffffffffffffffffffffff1614801561068a57505f7f000000000000000000000000000000000000000000000000000000000000000061ffff16115b156106cf576127107f000000000000000000000000000000000000000000000000000000000000000061ffff16836106c29190610c5f565b6106cc9190610ccd565b90505b5f81836106dc9190610c2c565b90505f805f8773ffffffffffffffffffffffffffffffffffffffff1673ffffffffffffffffffffffffffffffffffffffff1681526020019081526020015f2054905081811015610761576040517f08c379a000000000000000000000000000000000000000000000000000000000815260040161075890610d47565b60405180910390fd5b8181035f808873ffffffffffffffffffffffffffffffffffffffff1673ffffffffffffffffffffffffffffffffffffffff1681526020019081526020015f2081905550835f808773ffffffffffffffffffffffffffffffffffffffff1673ffffffffffffffffffffffffffffffffffffffff1681526020019081526020015f205f8282546107ef9190610c2c565b925050819055505f83111561087157825f807f000000000000000000000000000000000000000000000000000000000000000073ffffffffffffffffffffffffffffffffffffffff1673ffffffffffffffffffffffffffffffffffffffff1681526020019081526020015f205f8282546108699190610c2c565b925050819055505b505050505050565b5f81519050919050565b5f82825260208201905092915050565b5f5b838110156108b0578082015181840152602081019050610895565b5f8484015250505050565b5f601f19601f8301169050919050565b5f6108d582610879565b6108df8185610883565b93506108ef818560208601610893565b6108f8816108bb565b840191505092915050565b5f6020820190508181035f83015261091b81846108cb565b905092915050565b5f80fd5b5f73ffffffffffffffffffffffffffffffffffffffff82169050919050565b5f61095082610927565b9050919050565b61096081610946565b811461096a575f80fd5b50565b5f8135905061097b81610957565b92915050565b5f819050919050565b61099381610981565b811461099d575f80fd5b50565b5f813590506109ae8161098a565b92915050565b5f80604083850312156109ca576109c9610923565b5b5f6109d78582860161096d565b92505060206109e8858286016109a0565b9150509250929050565b5f8115159050919050565b610a06816109f2565b82525050565b5f602082019050610a1f5f8301846109fd565b92915050565b5f805f60608486031215610a3c57610a3b610923565b5b5f610a498682870161096d565b9350506020610a5a8682870161096d565b9250506040610a6b868287016109a0565b9150509250925092565b5f60ff82169050919050565b610a8a81610a75565b82525050565b5f602082019050610aa35f830184610a81565b92915050565b5f61ffff82169050919050565b610abf81610aa9565b82525050565b5f602082019050610ad85f830184610ab6565b92915050565b5f60208284031215610af357610af2610923565b5b5f610b008482850161096d565b91505092915050565b610b1281610981565b82525050565b5f602082019050610b2b5f830184610b09565b92915050565b610b3a81610946565b82525050565b5f602082019050610b535f830184610b31565b92915050565b5f8060408385031215610b6f57610b6e610923565b5b5f610b7c8582860161096d565b9250506020610b8d8582860161096d565b9150509250929050565b7f21616c6c6f77616e6365000000000000000000000000000000000000000000005f82015250565b5f610bcb600a83610883565b9150610bd682610b97565b602082019050919050565b5f6020820190508181035f830152610bf881610bbf565b9050919050565b7f4e487b71000000000000000000000000000000000000000000000000000000005f52601160045260245ffd5b5f610c3682610981565b9150610c4183610981565b9250828201905080821115610c5957610c58610bff565b5b92915050565b5f610c6982610981565b9150610c7483610981565b9250828202610c8281610981565b91508282048414831517610c9957610c98610bff565b5b5092915050565b7f4e487b71000000000000000000000000000000000000000000000000000000005f52601260045260245ffd5b5f610cd782610981565b9150610ce283610981565b925082610cf257610cf1610ca0565b5b828204905092915050565b7f2162616c616e63650000000000000000000000000000000000000000000000005f82015250565b5f610d31600883610883565b9150610d3c82610cfd565b602082019050919050565b5f6020820190508181035f830152610d5e81610d25565b905091905056fea2646970667358221220e44806e018f1f932c6f0413b95b12507f66463826359486ee6f8becb15de681164736f6c63430008180033","linkReferences":{}},"methodIdentifiers":{"allowance(address,address)":"dd62ed3e","approve(address,uint256)":"095ea7b3","balanceOf(address)":"70a08231","bridge()":"e78cea92","bridgeSenderTaxBps()":"696e4340","decimals()":"313ce567","feeCollector()":"c415b95c","mint(address,uint256)":"40c10f19","name()":"06fdde03","symbol()":"95d89b41","transfer(address,uint256)":"a9059cbb","transferFrom(address,address,uint256)":"23b872dd"},"id":1}