{"abi":[{"type":"function","name":"collateral","inputs":[{"name":"token","type":"address","internalType":"address"}],"outputs":[{"name":"","type":"uint256","internalType":"uint256"}],"stateMutability":"view"},{"type":"function","name":"completeTransfer","inputs":[{"name":"token","type":"address","internalType":"address"},{"name":"recipient","type":"address","internalType":"address"},{"name":"amount","type":"uint256","internalType":"uint256"}],"outputs":[],"stateMutability":"nonpayable"},{"type":"function","name":"depositAndBridgeOut","inputs":[{"name":"token","type":"address","internalType":"address"},{"name":"from","type":"address","internalType":"address"},{"name":"amount","type":"uint256","internalType":"uint256"}],"outputs":[{"name":"received","type":"uint256","internalType":"uint256"}],"stateMutability":"nonpayable"},{"type":"function","name":"outstanding","inputs":[{"name":"","type":"address","internalType":"address"}],"outputs":[{"name":"","type":"uint256","internalType":"uint256"}],"stateMutability":"view"}],"bytecode":{"object":"0x608060405234801561000f575f80fd5b50610bf18061001d5f395ff3fe608060405234801561000f575f80fd5b506004361061004a575f3560e01c806396f50e381461004e578063a5fdc5de1461007e578063aee445a5146100ae578063de58bafa146100ca575b5f80fd5b6100686004803603810190610063919061074a565b6100fa565b60405161007591906107a9565b60405180910390f35b610098600480360381019061009391906107c2565b610316565b6040516100a591906107a9565b60405180910390f35b6100c860048036038101906100c3919061074a565b610396565b005b6100e460048036038101906100df91906107c2565b6106a5565b6040516100f191906107a9565b60405180910390f35b5f808473ffffffffffffffffffffffffffffffffffffffff166370a08231306040518263ffffffff1660e01b815260040161013591906107fc565b602060405180830381865afa158015610150573d5f803e3d5ffd5b505050506040513d601f19601f820116820180604052508101906101749190610829565b90508473ffffffffffffffffffffffffffffffffffffffff166323b872dd8530866040518463ffffffff1660e01b81526004016101b393929190610854565b6020604051808303815f875af11580156101cf573d5f803e3d5ffd5b505050506040513d601f19601f820116820180604052508101906101f391906108be565b610232576040517f08c379a000000000000000000000000000000000000000000000000000000000815260040161022990610943565b60405180910390fd5b5f8573ffffffffffffffffffffffffffffffffffffffff166370a08231306040518263ffffffff1660e01b815260040161026c91906107fc565b602060405180830381865afa158015610287573d5f803e3d5ffd5b505050506040513d601f19601f820116820180604052508101906102ab9190610829565b905081816102b9919061098e565b9250825f808873ffffffffffffffffffffffffffffffffffffffff1673ffffffffffffffffffffffffffffffffffffffff1681526020019081526020015f205f82825461030691906109c1565b9250508190555050509392505050565b5f8173ffffffffffffffffffffffffffffffffffffffff166370a08231306040518263ffffffff1660e01b815260040161035091906107fc565b602060405180830381865afa15801561036b573d5f803e3d5ffd5b505050506040513d601f19601f8201168201806040525081019061038f9190610829565b9050919050565b805f808573ffffffffffffffffffffffffffffffffffffffff1673ffffffffffffffffffffffffffffffffffffffff1681526020019081526020015f20541015610415576040517f08c379a000000000000000000000000000000000000000000000000000000000815260040161040c90610a3e565b60405180910390fd5b5f8373ffffffffffffffffffffffffffffffffffffffff166370a08231306040518263ffffffff1660e01b815260040161044f91906107fc565b602060405180830381865afa15801561046a573d5f803e3d5ffd5b505050506040513d601f19601f8201168201806040525081019061048e9190610829565b90508373ffffffffffffffffffffffffffffffffffffffff1663a9059cbb84846040518363ffffffff1660e01b81526004016104cb929190610a5c565b6020604051808303815f875af11580156104e7573d5f803e3d5ffd5b505050506040513d601f19601f8201168201806040525081019061050b91906108be565b61054a576040517f08c379a000000000000000000000000000000000000000000000000000000000815260040161054190610acd565b60405180910390fd5b5f8473ffffffffffffffffffffffffffffffffffffffff166370a08231306040518263ffffffff1660e01b815260040161058491906107fc565b602060405180830381865afa15801561059f573d5f803e3d5ffd5b505050506040513d601f19601f820116820180604052508101906105c39190610829565b905080821015610608576040517f08c379a00000000000000000000000000000000000000000000000000000000081526004016105ff90610b35565b60405180910390fd5b828183610615919061098e565b14610655576040517f08c379a000000000000000000000000000000000000000000000000000000000815260040161064c90610b9d565b60405180910390fd5b825f808773ffffffffffffffffffffffffffffffffffffffff1673ffffffffffffffffffffffffffffffffffffffff1681526020019081526020015f205f82825403925050819055505050505050565b5f602052805f5260405f205f915090505481565b5f80fd5b5f73ffffffffffffffffffffffffffffffffffffffff82169050919050565b5f6106e6826106bd565b9050919050565b6106f6816106dc565b8114610700575f80fd5b50565b5f81359050610711816106ed565b92915050565b5f819050919050565b61072981610717565b8114610733575f80fd5b50565b5f8135905061074481610720565b92915050565b5f805f60608486031215610761576107606106b9565b5b5f61076e86828701610703565b935050602061077f86828701610703565b925050604061079086828701610736565b9150509250925092565b6107a381610717565b82525050565b5f6020820190506107bc5f83018461079a565b92915050565b5f602082840312156107d7576107d66106b9565b5b5f6107e484828501610703565b91505092915050565b6107f6816106dc565b82525050565b5f60208201905061080f5f8301846107ed565b92915050565b5f8151905061082381610720565b92915050565b5f6020828403121561083e5761083d6106b9565b5b5f61084b84828501610815565b91505092915050565b5f6060820190506108675f8301866107ed565b61087460208301856107ed565b610881604083018461079a565b949350505050565b5f8115159050919050565b61089d81610889565b81146108a7575f80fd5b50565b5f815190506108b881610894565b92915050565b5f602082840312156108d3576108d26106b9565b5b5f6108e0848285016108aa565b91505092915050565b5f82825260208201905092915050565b7f7472616e7366657246726f6d206661696c6564000000000000000000000000005f82015250565b5f61092d6013836108e9565b9150610938826108f9565b602082019050919050565b5f6020820190508181035f83015261095a81610921565b9050919050565b7f4e487b71000000000000000000000000000000000000000000000000000000005f52601160045260245ffd5b5f61099882610717565b91506109a383610717565b92508282039050818111156109bb576109ba610961565b5b92915050565b5f6109cb82610717565b91506109d683610717565b92508282019050808211156109ee576109ed610961565b5b92915050565b7f696e73756666696369656e74206f75747374616e64696e6700000000000000005f82015250565b5f610a286018836108e9565b9150610a33826109f4565b602082019050919050565b5f6020820190508181035f830152610a5581610a1c565b9050919050565b5f604082019050610a6f5f8301856107ed565b610a7c602083018461079a565b9392505050565b7f7472616e73666572206661696c656400000000000000000000000000000000005f82015250565b5f610ab7600f836108e9565b9150610ac282610a83565b602082019050919050565b5f6020820190508181035f830152610ae481610aab565b9050919050565b7f62616c616e636520696e637265617365640000000000000000000000000000005f82015250565b5f610b1f6011836108e9565b9150610b2a82610aeb565b602082019050919050565b5f6020820190508181035f830152610b4c81610b13565b9050919050565b7f756e65787065637465642073656e6465722d73696465206465626974000000005f82015250565b5f610b87601c836108e9565b9150610b9282610b53565b602082019050919050565b5f6020820190508181035f830152610bb481610b7b565b905091905056fea2646970667358221220237f244d7fcaf8b85a0bd4e8783c3c88942019ea2d54c6316caf8b3a11ca3b3e64736f6c63430008180033","linkReferences":{}},"methodIdentifiers":{"collateral(address)":"a5fdc5de","completeTransfer(address,address,uint256)":"aee445a5","depositAndBridgeOut(address,address,uint256)":"96f50e38","outstanding(address)":"de58bafa"},"id":1}