{"abi":[{"type":"constructor","inputs":[],"stateMutability":"nonpayable"},{"type":"function","name":"action_attacker_initialize","inputs":[],"outputs":[],"stateMutability":"nonpayable"},{"type":"function","name":"attacked","inputs":[],"outputs":[{"name":"","type":"bool","internalType":"bool"}],"stateMutability":"view"},{"type":"function","name":"attacker","inputs":[],"outputs":[{"name":"","type":"address","internalType":"contract BaseF1InitializerAttacker"}],"stateMutability":"view"},{"type":"function","name":"attackerRecipient","inputs":[],"outputs":[{"name":"","type":"address","internalType":"address payable"}],"stateMutability":"view"},{"type":"function","name":"profitWallet","inputs":[],"outputs":[{"name":"","type":"address","internalType":"address payable"}],"stateMutability":"view"},{"type":"function","name":"property_non_admin_cannot_take_first_system_address","inputs":[],"outputs":[{"name":"","type":"bool","internalType":"bool"}],"stateMutability":"view"},{"type":"function","name":"proxy","inputs":[],"outputs":[{"name":"","type":"address","internalType":"contract BaseF1SimpleProxy"}],"stateMutability":"view"},{"type":"function","name":"tracker","inputs":[],"outputs":[{"name":"","type":"address","internalType":"contract IBalanceTrackerLike"}],"stateMutability":"view"}],"bytecode":{"object":"0x608060405234801562000010575f80fd5b5061f00d60035f6101000a81548173ffffffffffffffffffffffffffffffffffffffff021916908373ffffffffffffffffffffffffffffffffffffffff16021790555061beef60045f6101000a81548173ffffffffffffffffffffffffffffffffffffffff021916908373ffffffffffffffffffffffffffffffffffffffff1602179055505f60035f9054906101000a900473ffffffffffffffffffffffffffffffffffffffff16604051620000c690620002ba565b620000d2919062000327565b604051809103905ff080158015620000ec573d5f803e3d5ffd5b50905030604051620000fe90620002c8565b6200010a919062000366565b604051809103905ff08015801562000124573d5f803e3d5ffd5b505f806101000a81548173ffffffffffffffffffffffffffffffffffffffff021916908373ffffffffffffffffffffffffffffffffffffffff1602179055505f8054906101000a900473ffffffffffffffffffffffffffffffffffffffff1673ffffffffffffffffffffffffffffffffffffffff16633659cfe6826040518263ffffffff1660e01b8152600401620001bd919062000366565b5f604051808303815f87803b158015620001d5575f80fd5b505af1158015620001e8573d5f803e3d5ffd5b505050505f8054906101000a900473ffffffffffffffffffffffffffffffffffffffff1660015f6101000a81548173ffffffffffffffffffffffffffffffffffffffff021916908373ffffffffffffffffffffffffffffffffffffffff1602179055506040516200025990620002d6565b604051809103905ff08015801562000273573d5f803e3d5ffd5b5060025f6101000a81548173ffffffffffffffffffffffffffffffffffffffff021916908373ffffffffffffffffffffffffffffffffffffffff1602179055505062000381565b610da28062000b9483390190565b610532806200193683390190565b61052c8062001e6883390190565b5f73ffffffffffffffffffffffffffffffffffffffff82169050919050565b5f6200030f82620002e4565b9050919050565b620003218162000303565b82525050565b5f6020820190506200033c5f83018462000316565b92915050565b5f6200034e82620002e4565b9050919050565b620003608162000342565b82525050565b5f6020820190506200037b5f83018462000355565b92915050565b610805806200038f5f395ff3fe608060405234801561000f575f80fd5b5060043610610086575f3560e01c8063a423ece211610059578063a423ece2146100ee578063c086668d1461010c578063ec5568891461012a578063f52bccad1461014857610086565b80630e80aa851461008a5780631105f941146100945780632301d775146100b257806348eb76ee146100d0575b5f80fd5b610092610166565b005b61009c610283565b6040516100a991906104fa565b60405180910390f35b6100ba610296565b6040516100c79190610552565b60405180910390f35b6100d86102bb565b6040516100e591906105c6565b60405180910390f35b6100f66102e0565b6040516101039190610552565b60405180910390f35b610114610305565b60405161012191906104fa565b60405180910390f35b610132610498565b60405161013f9190610610565b60405180910390f35b6101506104bb565b60405161015d9190610649565b60405180910390f35b600460149054906101000a900460ff166102815760025f9054906101000a900473ffffffffffffffffffffffffffffffffffffffff1673ffffffffffffffffffffffffffffffffffffffff166382185c915f8054906101000a900473ffffffffffffffffffffffffffffffffffffffff1660045f9054906101000a900473ffffffffffffffffffffffffffffffffffffffff167fffffffffffffffffffffffffffffffffffffffffffffffffffffffffffffffff6040518463ffffffff1660e01b81526004016102389392919061069a565b5f604051808303815f87803b15801561024f575f80fd5b505af1158015610261573d5f803e3d5ffd5b505050506001600460146101000a81548160ff0219169083151502179055505b565b600460149054906101000a900460ff1681565b60035f9054906101000a900473ffffffffffffffffffffffffffffffffffffffff1681565b60025f9054906101000a900473ffffffffffffffffffffffffffffffffffffffff1681565b60045f9054906101000a900473ffffffffffffffffffffffffffffffffffffffff1681565b5f8060015f9054906101000a900473ffffffffffffffffffffffffffffffffffffffff1673ffffffffffffffffffffffffffffffffffffffff1663871105416040518163ffffffff1660e01b8152600401602060405180830381865afa158015610371573d5f803e3d5ffd5b505050506040513d601f19601f8201168201806040525081019061039591906106fd565b90505f81036103a8576001915050610495565b60045f9054906101000a900473ffffffffffffffffffffffffffffffffffffffff1673ffffffffffffffffffffffffffffffffffffffff1660015f9054906101000a900473ffffffffffffffffffffffffffffffffffffffff1673ffffffffffffffffffffffffffffffffffffffff1663927a1a775f6040518263ffffffff1660e01b815260040161043a9190610761565b602060405180830381865afa158015610455573d5f803e3d5ffd5b505050506040513d601f19601f8201168201806040525081019061047991906107a4565b73ffffffffffffffffffffffffffffffffffffffff1614159150505b90565b5f8054906101000a900473ffffffffffffffffffffffffffffffffffffffff1681565b60015f9054906101000a900473ffffffffffffffffffffffffffffffffffffffff1681565b5f8115159050919050565b6104f4816104e0565b82525050565b5f60208201905061050d5f8301846104eb565b92915050565b5f73ffffffffffffffffffffffffffffffffffffffff82169050919050565b5f61053c82610513565b9050919050565b61054c81610532565b82525050565b5f6020820190506105655f830184610543565b92915050565b5f819050919050565b5f61058e61058961058484610513565b61056b565b610513565b9050919050565b5f61059f82610574565b9050919050565b5f6105b082610595565b9050919050565b6105c0816105a6565b82525050565b5f6020820190506105d95f8301846105b7565b92915050565b5f6105e982610574565b9050919050565b5f6105fa826105df565b9050919050565b61060a816105f0565b82525050565b5f6020820190506106235f830184610601565b92915050565b5f61063382610595565b9050919050565b61064381610629565b82525050565b5f60208201905061065c5f83018461063a565b92915050565b5f61066c82610513565b9050919050565b61067c81610662565b82525050565b5f819050919050565b61069481610682565b82525050565b5f6060820190506106ad5f830186610673565b6106ba6020830185610543565b6106c7604083018461068b565b949350505050565b5f80fd5b6106dc81610682565b81146106e6575f80fd5b50565b5f815190506106f7816106d3565b92915050565b5f60208284031215610712576107116106cf565b5b5f61071f848285016106e9565b91505092915050565b5f819050919050565b5f61074b61074661074184610728565b61056b565b610682565b9050919050565b61075b81610731565b82525050565b5f6020820190506107745f830184610752565b92915050565b61078381610532565b811461078d575f80fd5b50565b5f8151905061079e8161077a565b92915050565b5f602082840312156107b9576107b86106cf565b5b5f6107c684828501610790565b9150509291505056fea26469706673582212204687777f1fed0b1f30bf7a6d012479237c158f499dd5207322036f626cf639ae64736f6c6343000818003360a060405234801561000f575f80fd5b50604051610da2380380610da283398181016040528101906100319190610148565b5f73ffffffffffffffffffffffffffffffffffffffff168173ffffffffffffffffffffffffffffffffffffffff1603610096576040517fe6c4247b00000000000000000000000000000000000000000000000000000000815260040160405180910390fd5b8073ffffffffffffffffffffffffffffffffffffffff1660808173ffffffffffffffffffffffffffffffffffffffff168152505060ff5f806101000a81548160ff021916908360ff16021790555050610173565b5f80fd5b5f73ffffffffffffffffffffffffffffffffffffffff82169050919050565b5f610117826100ee565b9050919050565b6101278161010d565b8114610131575f80fd5b50565b5f815190506101428161011e565b92915050565b5f6020828403121561015d5761015c6100ea565b5b5f61016a84828501610134565b91505092915050565b608051610c106101925f395f81816103f601526105c30152610c105ff3fe608060405260043610610073575f3560e01c8063871105411161004d578063871105411461010c578063927a1a7714610136578063981949e814610172578063ba69ebed1461019c5761007a565b806308828eb71461007e5780630a565720146100a85780637fbbe46f146100e45761007a565b3661007a57005b5f80fd5b348015610089575f80fd5b506100926101b2565b60405161009f9190610754565b60405180910390f35b3480156100b3575f80fd5b506100ce60048036038101906100c991906107b1565b6101c6565b6040516100db91906107eb565b60405180910390f35b3480156100ef575f80fd5b5061010a60048036038101906101059190610a6e565b6101e6565b005b348015610117575f80fd5b506101206103ad565b60405161012d91906107eb565b60405180910390f35b348015610141575f80fd5b5061015c600480360381019061015791906107b1565b6103b9565b6040516101699190610af3565b60405180910390f35b34801561017d575f80fd5b506101866103f4565b6040516101939190610af3565b60405180910390f35b3480156101a7575f80fd5b506101b0610418565b005b5f805f9054906101000a900460ff16905090565b600281815481106101d5575f80fd5b905f5260205f20015f915090505481565b60025f8054906101000a900460ff1660ff161061022f576040517f0dc149f000000000000000000000000000000000000000000000000000000000815260040160405180910390fd5b5f825103610269576040517f947d5a8400000000000000000000000000000000000000000000000000000000815260040160405180910390fd5b80518251146102a4576040517f947d5a8400000000000000000000000000000000000000000000000000000000815260040160405180910390fd5b5f5b8251811015610360575f73ffffffffffffffffffffffffffffffffffffffff168382815181106102d9576102d8610b0c565b5b602002602001015173ffffffffffffffffffffffffffffffffffffffff16148061031c57505f82828151811061031257610311610b0c565b5b6020026020010151145b15610353576040517fe6c4247b00000000000000000000000000000000000000000000000000000000815260040160405180910390fd5b80806001019150506102a6565b5060025f806101000a81548160ff021916908360ff160217905550816001908051906020019061039192919061064c565b5080600290805190602001906103a89291906106d3565b505050565b5f600180549050905090565b600181815481106103c8575f80fd5b905f5260205f20015f915054906101000a900473ffffffffffffffffffffffffffffffffffffffff1681565b7f000000000000000000000000000000000000000000000000000000000000000081565b5f60018054905090505f810361045a576040517f947d5a8400000000000000000000000000000000000000000000000000000000815260040160405180910390fd5b5f5b818110156105bf575f6001828154811061047957610478610b0c565b5b905f5260205f20015f9054906101000a900473ffffffffffffffffffffffffffffffffffffffff1673ffffffffffffffffffffffffffffffffffffffff163190505f600283815481106104cf576104ce610b0c565b5b905f5260205f20015490508082106104e85750506105b2565b5f82826104f59190610b66565b90505f4782116105055781610507565b475b90505f6001868154811061051e5761051d610b0c565b5b905f5260205f20015f9054906101000a900473ffffffffffffffffffffffffffffffffffffffff1673ffffffffffffffffffffffffffffffffffffffff168260405161056990610bc6565b5f6040518083038185875af1925050503d805f81146105a3576040519150601f19603f3d011682016040523d82523d5f602084013e6105a8565b606091505b5050905050505050505b808060010191505061045c565b505f7f000000000000000000000000000000000000000000000000000000000000000073ffffffffffffffffffffffffffffffffffffffff164760405161060590610bc6565b5f6040518083038185875af1925050503d805f811461063f576040519150601f19603f3d011682016040523d82523d5f602084013e610644565b606091505b505090505050565b828054828255905f5260205f209081019282156106c2579160200282015b828111156106c1578251825f6101000a81548173ffffffffffffffffffffffffffffffffffffffff021916908373ffffffffffffffffffffffffffffffffffffffff1602179055509160200191906001019061066a565b5b5090506106cf919061071e565b5090565b828054828255905f5260205f2090810192821561070d579160200282015b8281111561070c5782518255916020019190600101906106f1565b5b50905061071a919061071e565b5090565b5b80821115610735575f815f90555060010161071f565b5090565b5f60ff82169050919050565b61074e81610739565b82525050565b5f6020820190506107675f830184610745565b92915050565b5f604051905090565b5f80fd5b5f80fd5b5f819050919050565b6107908161077e565b811461079a575f80fd5b50565b5f813590506107ab81610787565b92915050565b5f602082840312156107c6576107c5610776565b5b5f6107d38482850161079d565b91505092915050565b6107e58161077e565b82525050565b5f6020820190506107fe5f8301846107dc565b92915050565b5f80fd5b5f601f19601f8301169050919050565b7f4e487b71000000000000000000000000000000000000000000000000000000005f52604160045260245ffd5b61084e82610808565b810181811067ffffffffffffffff8211171561086d5761086c610818565b5b80604052505050565b5f61087f61076d565b905061088b8282610845565b919050565b5f67ffffffffffffffff8211156108aa576108a9610818565b5b602082029050602081019050919050565b5f80fd5b5f73ffffffffffffffffffffffffffffffffffffffff82169050919050565b5f6108e8826108bf565b9050919050565b6108f8816108de565b8114610902575f80fd5b50565b5f81359050610913816108ef565b92915050565b5f61092b61092684610890565b610876565b9050808382526020820190506020840283018581111561094e5761094d6108bb565b5b835b8181101561097757806109638882610905565b845260208401935050602081019050610950565b5050509392505050565b5f82601f83011261099557610994610804565b5b81356109a5848260208601610919565b91505092915050565b5f67ffffffffffffffff8211156109c8576109c7610818565b5b602082029050602081019050919050565b5f6109eb6109e6846109ae565b610876565b90508083825260208201905060208402830185811115610a0e57610a0d6108bb565b5b835b81811015610a375780610a23888261079d565b845260208401935050602081019050610a10565b5050509392505050565b5f82601f830112610a5557610a54610804565b5b8135610a658482602086016109d9565b91505092915050565b5f8060408385031215610a8457610a83610776565b5b5f83013567ffffffffffffffff811115610aa157610aa061077a565b5b610aad85828601610981565b925050602083013567ffffffffffffffff811115610ace57610acd61077a565b5b610ada85828601610a41565b9150509250929050565b610aed816108de565b82525050565b5f602082019050610b065f830184610ae4565b92915050565b7f4e487b71000000000000000000000000000000000000000000000000000000005f52603260045260245ffd5b7f4e487b71000000000000000000000000000000000000000000000000000000005f52601160045260245ffd5b5f610b708261077e565b9150610b7b8361077e565b9250828203905081811115610b9357610b92610b39565b5b92915050565b5f81905092915050565b50565b5f610bb15f83610b99565b9150610bbc82610ba3565b5f82019050919050565b5f610bd082610ba6565b915081905091905056fea2646970667358221220142692fb3f92bab1c4b7b4a5364e3cef2867d2e7414079cd873b85ae0b5158b364736f6c63430008180033608060405234801561000f575f80fd5b50604051610532380380610532833981810160405281019061003191906100cd565b5f60017f9ae2939b08968afa926e2b0061b5660d288d22c4ea656066f98f61cdd35263f45f1c610061919061012e565b5f1b90508181555050610161565b5f80fd5b5f73ffffffffffffffffffffffffffffffffffffffff82169050919050565b5f61009c82610073565b9050919050565b6100ac81610092565b81146100b6575f80fd5b50565b5f815190506100c7816100a3565b92915050565b5f602082840312156100e2576100e161006f565b5b5f6100ef848285016100b9565b91505092915050565b5f819050919050565b7f4e487b71000000000000000000000000000000000000000000000000000000005f52601160045260245ffd5b5f610138826100f8565b9150610143836100f8565b925082820390508181111561015b5761015a610101565b5b92915050565b6103c48061016e5f395ff3fe608060405260043610610037575f3560e01c80633659cfe6146100485780635c60da1b14610070578063f851a4401461009a5761003e565b3661003e57005b6100466100c4565b005b348015610053575f80fd5b5061006e600480360381019061006991906102d2565b610153565b005b34801561007b575f80fd5b506100846101fa565b604051610091919061030c565b60405180910390f35b3480156100a5575f80fd5b506100ae610237565b6040516100bb919061030c565b60405180910390f35b5f6100cd6101fa565b90505f73ffffffffffffffffffffffffffffffffffffffff168173ffffffffffffffffffffffffffffffffffffffff1603610134576040517f40dde93500000000000000000000000000000000000000000000000000000000815260040160405180910390fd5b365f80375f80365f845af43d5f803e805f811461014f573d5ff35b3d5ffd5b61015b610237565b73ffffffffffffffffffffffffffffffffffffffff163373ffffffffffffffffffffffffffffffffffffffff16146101bf576040517f82b4290000000000000000000000000000000000000000000000000000000000815260040160405180910390fd5b5f60017f5cac7d738a57315b2a088cbd8011190bd3a6c70c5d86f9016f1dff1da5d5e4155f1c6101ef919061035b565b5f1b90508181555050565b5f8060017f5cac7d738a57315b2a088cbd8011190bd3a6c70c5d86f9016f1dff1da5d5e4155f1c61022b919061035b565b5f1b9050805491505090565b5f8060017f9ae2939b08968afa926e2b0061b5660d288d22c4ea656066f98f61cdd35263f45f1c610268919061035b565b5f1b9050805491505090565b5f80fd5b5f73ffffffffffffffffffffffffffffffffffffffff82169050919050565b5f6102a182610278565b9050919050565b6102b181610297565b81146102bb575f80fd5b50565b5f813590506102cc816102a8565b92915050565b5f602082840312156102e7576102e6610274565b5b5f6102f4848285016102be565b91505092915050565b61030681610297565b82525050565b5f60208201905061031f5f8301846102fd565b92915050565b5f819050919050565b7f4e487b71000000000000000000000000000000000000000000000000000000005f52601160045260245ffd5b5f61036582610325565b915061037083610325565b92508282039050818111156103885761038761032e565b5b9291505056fea26469706673582212206962940e26eee46870bd43034da72c3a25546f6b9421df1b47fe84eb40f5783c64736f6c63430008180033608060405234801561000f575f80fd5b5061050f8061001d5f395ff3fe608060405234801561000f575f80fd5b5060043610610029575f3560e01c806382185c911461002d575b5f80fd5b6100476004803603810190610042919061028c565b610049565b005b5f600167ffffffffffffffff811115610065576100646102dc565b5b6040519080825280602002602001820160405280156100935781602001602082028036833780820191505090505b50905082815f815181106100aa576100a9610309565b5b602002602001019073ffffffffffffffffffffffffffffffffffffffff16908173ffffffffffffffffffffffffffffffffffffffff16815250505f600167ffffffffffffffff811115610100576100ff6102dc565b5b60405190808252806020026020018201604052801561012e5781602001602082028036833780820191505090505b50905082815f8151811061014557610144610309565b5b6020026020010181815250508473ffffffffffffffffffffffffffffffffffffffff16637fbbe46f83836040518363ffffffff1660e01b815260040161018c9291906104a4565b5f604051808303815f87803b1580156101a3575f80fd5b505af11580156101b5573d5f803e3d5ffd5b505050505050505050565b5f80fd5b5f73ffffffffffffffffffffffffffffffffffffffff82169050919050565b5f6101ed826101c4565b9050919050565b6101fd816101e3565b8114610207575f80fd5b50565b5f81359050610218816101f4565b92915050565b5f610228826101c4565b9050919050565b6102388161021e565b8114610242575f80fd5b50565b5f813590506102538161022f565b92915050565b5f819050919050565b61026b81610259565b8114610275575f80fd5b50565b5f8135905061028681610262565b92915050565b5f805f606084860312156102a3576102a26101c0565b5b5f6102b08682870161020a565b93505060206102c186828701610245565b92505060406102d286828701610278565b9150509250925092565b7f4e487b71000000000000000000000000000000000000000000000000000000005f52604160045260245ffd5b7f4e487b71000000000000000000000000000000000000000000000000000000005f52603260045260245ffd5b5f81519050919050565b5f82825260208201905092915050565b5f819050602082019050919050565b6103688161021e565b82525050565b5f610379838361035f565b60208301905092915050565b5f602082019050919050565b5f61039b82610336565b6103a58185610340565b93506103b083610350565b805f5b838110156103e05781516103c7888261036e565b97506103d283610385565b9250506001810190506103b3565b5085935050505092915050565b5f81519050919050565b5f82825260208201905092915050565b5f819050602082019050919050565b61041f81610259565b82525050565b5f6104308383610416565b60208301905092915050565b5f602082019050919050565b5f610452826103ed565b61045c81856103f7565b935061046783610407565b805f5b8381101561049757815161047e8882610425565b97506104898361043c565b92505060018101905061046a565b5085935050505092915050565b5f6040820190508181035f8301526104bc8185610391565b905081810360208301526104d08184610448565b9050939250505056fea264697066735822122093da84aaff71b597f6581e00b8865b23a102a5620cfd4e3499e53d318788617b64736f6c63430008180033","linkReferences":{}},"methodIdentifiers":{"action_attacker_initialize()":"0e80aa85","attacked()":"1105f941","attacker()":"48eb76ee","attackerRecipient()":"a423ece2","profitWallet()":"2301d775","property_non_admin_cannot_take_first_system_address()":"c086668d","proxy()":"ec556889","tracker()":"f52bccad"},"storageLayout":{"storage":[{"astId":584,"contract":"src/MedusaBaseF1InitializerHijackHarness.sol:MedusaBaseF1InitializerHijackHarness","label":"proxy","offset":0,"slot":"0","type":"t_contract(BaseF1SimpleProxy)142"},{"astId":587,"contract":"src/MedusaBaseF1InitializerHijackHarness.sol:MedusaBaseF1InitializerHijackHarness","label":"tracker","offset":0,"slot":"1","type":"t_contract(IBalanceTrackerLike)26"},{"astId":590,"contract":"src/MedusaBaseF1InitializerHijackHarness.sol:MedusaBaseF1InitializerHijackHarness","label":"attacker","offset":0,"slot":"2","type":"t_contract(BaseF1InitializerAttacker)436"},{"astId":592,"contract":"src/MedusaBaseF1InitializerHijackHarness.sol:MedusaBaseF1InitializerHijackHarness","label":"profitWallet","offset":0,"slot":"3","type":"t_address_payable"},{"astId":594,"contract":"src/MedusaBaseF1InitializerHijackHarness.sol:MedusaBaseF1InitializerHijackHarness","label":"attackerRecipient","offset":0,"slot":"4","type":"t_address_payable"},{"astId":596,"contract":"src/MedusaBaseF1InitializerHijackHarness.sol:MedusaBaseF1InitializerHijackHarness","label":"attacked","offset":20,"slot":"4","type":"t_bool"}],"types":{"t_address_payable":{"encoding":"inplace","label":"address payable","numberOfBytes":"20"},"t_bool":{"encoding":"inplace","label":"bool","numberOfBytes":"1"},"t_contract(BaseF1InitializerAttacker)436":{"encoding":"inplace","label":"contract BaseF1InitializerAttacker","numberOfBytes":"20"},"t_contract(BaseF1SimpleProxy)142":{"encoding":"inplace","label":"contract BaseF1SimpleProxy","numberOfBytes":"20"},"t_contract(IBalanceTrackerLike)26":{"encoding":"inplace","label":"contract IBalanceTrackerLike","numberOfBytes":"20"}}},"id":2}