{"abi":[{"type":"constructor","inputs":[{"name":"rollupAddress","type":"address","internalType":"address"}],"stateMutability":"nonpayable"},{"type":"function","name":"rollup","inputs":[],"outputs":[{"name":"","type":"address","internalType":"contract ChallengeBindingRollupHarness"}],"stateMutability":"view"},{"type":"function","name":"settle","inputs":[{"name":"winnerOperator","type":"address","internalType":"address"},{"name":"loserOperator","type":"address","internalType":"address"}],"outputs":[],"stateMutability":"nonpayable"}],"bytecode":{"object":"0x60a060405234801561000f575f80fd5b506040516103b03803806103b0833981810160405281019061003191906100c9565b8073ffffffffffffffffffffffffffffffffffffffff1660808173ffffffffffffffffffffffffffffffffffffffff1681525050506100f4565b5f80fd5b5f73ffffffffffffffffffffffffffffffffffffffff82169050919050565b5f6100988261006f565b9050919050565b6100a88161008e565b81146100b2575f80fd5b50565b5f815190506100c38161009f565b92915050565b5f602082840312156100de576100dd61006b565b5b5f6100eb848285016100b5565b91505092915050565b60805161029e6101125f395f818160740152610100015261029e5ff3fe608060405234801561000f575f80fd5b5060043610610034575f3560e01c80639db32a8f14610038578063cb23bcb514610054575b5f80fd5b610052600480360381019061004d9190610180565b610072565b005b61005c6100fe565b6040516100699190610219565b60405180910390f35b7f000000000000000000000000000000000000000000000000000000000000000073ffffffffffffffffffffffffffffffffffffffff1663fa7803e683836040518363ffffffff1660e01b81526004016100cd929190610241565b5f604051808303815f87803b1580156100e4575f80fd5b505af11580156100f6573d5f803e3d5ffd5b505050505050565b7f000000000000000000000000000000000000000000000000000000000000000081565b5f80fd5b5f73ffffffffffffffffffffffffffffffffffffffff82169050919050565b5f61014f82610126565b9050919050565b61015f81610145565b8114610169575f80fd5b50565b5f8135905061017a81610156565b92915050565b5f806040838503121561019657610195610122565b5b5f6101a38582860161016c565b92505060206101b48582860161016c565b9150509250929050565b5f819050919050565b5f6101e16101dc6101d784610126565b6101be565b610126565b9050919050565b5f6101f2826101c7565b9050919050565b5f610203826101e8565b9050919050565b610213816101f9565b82525050565b5f60208201905061022c5f83018461020a565b92915050565b61023b81610145565b82525050565b5f6040820190506102545f830185610232565b6102616020830184610232565b939250505056fea2646970667358221220aefe0e8eb037370df5d72eac193e34389430de62f759b45f693b524f653b2c0d64736f6c63430008180033","linkReferences":{}},"methodIdentifiers":{"rollup()":"cb23bcb5","settle(address,address)":"9db32a8f"},"storageLayout":{"storage":[],"types":{}},"id":1}