{"abi":[{"type":"function","name":"assertionParent","inputs":[{"name":"","type":"uint256","internalType":"uint256"}],"outputs":[{"name":"","type":"uint256","internalType":"uint256"}],"stateMutability":"view"},{"type":"function","name":"baseStakeAmount","inputs":[],"outputs":[{"name":"","type":"uint256","internalType":"uint256"}],"stateMutability":"view"},{"type":"function","name":"challengeAssertion","inputs":[{"name":"players","type":"address[2]","internalType":"address[2]"},{"name":"assertionIDs","type":"uint256[2]","internalType":"uint256[2]"}],"outputs":[{"name":"","type":"address","internalType":"address"}],"stateMutability":"nonpayable"},{"type":"function","name":"challengeCtx","inputs":[],"outputs":[{"name":"completed","type":"bool","internalType":"bool"},{"name":"challengeAddress","type":"address","internalType":"address"},{"name":"defenderAddress","type":"address","internalType":"address"},{"name":"challengerAddress","type":"address","internalType":"address"},{"name":"defenderAssertionID","type":"uint256","internalType":"uint256"},{"name":"challengerAssertionID","type":"uint256","internalType":"uint256"}],"stateMutability":"view"},{"type":"function","name":"completeChallenge","inputs":[{"name":"winnerOperator","type":"address","internalType":"address"},{"name":"loserOperator","type":"address","internalType":"address"}],"outputs":[],"stateMutability":"nonpayable"},{"type":"function","name":"lastConfirmedAssertionID","inputs":[],"outputs":[{"name":"","type":"uint256","internalType":"uint256"}],"stateMutability":"view"},{"type":"function","name":"lastCreatedAssertionID","inputs":[],"outputs":[{"name":"","type":"uint256","internalType":"uint256"}],"stateMutability":"view"},{"type":"function","name":"registers","inputs":[{"name":"","type":"address","internalType":"address"}],"outputs":[{"name":"","type":"address","internalType":"address"}],"stateMutability":"view"},{"type":"function","name":"seedAssertion","inputs":[{"name":"assertionID","type":"uint256","internalType":"uint256"},{"name":"parentID","type":"uint256","internalType":"uint256"}],"outputs":[],"stateMutability":"nonpayable"},{"type":"function","name":"seedStaker","inputs":[{"name":"operator","type":"address","internalType":"address"},{"name":"staker","type":"address","internalType":"address"},{"name":"assertionID","type":"uint256","internalType":"uint256"},{"name":"amount","type":"uint256","internalType":"uint256"}],"outputs":[],"stateMutability":"nonpayable"},{"type":"function","name":"setLastConfirmedAssertionID","inputs":[{"name":"id","type":"uint256","internalType":"uint256"}],"outputs":[],"stateMutability":"nonpayable"},{"type":"function","name":"stakers","inputs":[{"name":"","type":"address","internalType":"address"}],"outputs":[{"name":"isStaked","type":"bool","internalType":"bool"},{"name":"amountStaked","type":"uint256","internalType":"uint256"},{"name":"assertionID","type":"uint256","internalType":"uint256"},{"name":"operator","type":"address","internalType":"address"},{"name":"currentChallenge","type":"address","internalType":"address"}],"stateMutability":"view"},{"type":"function","name":"withdrawableFunds","inputs":[{"name":"","type":"address","internalType":"address"}],"outputs":[{"name":"","type":"uint256","internalType":"uint256"}],"stateMutability":"view"}],"bytecode":{"object":"0x6080604052670de0b6b3a764000060045534801561001b575f80fd5b506122fe806100295f395ff3fe608060405234801562000010575f80fd5b5060043610620000e0575f3560e01c80637112955911620000975780639168ae72116200006d5780639168ae721462000267578063a56ba93b14620002a1578063acac250b14620002c3578063fa7803e614620002e357620000e0565b80637112955914620001ef5780637d23924a146200021157806384b4a796146200023157620000e0565b80630e456acf14620000e4578063107035a4146200010b5780632f06d1b0146200012d5780632f30cabd146200016357806349db67f614620001995780636aabc35014620001b9575b5f80fd5b620000ee62000303565b604051620001029695949392919062001612565b60405180910390f35b6200011562000395565b6040516200012491906200167d565b60405180910390f35b6200014b6004803603810190620001459190620016e8565b6200039b565b6040516200015a91906200172d565b60405180910390f35b6200018160048036038101906200017b919062001777565b62000a4b565b6040516200019091906200167d565b60405180910390f35b620001b76004803603810190620001b19190620017d6565b62000a60565b005b620001d76004803603810190620001d1919062001777565b62000a8d565b604051620001e691906200172d565b60405180910390f35b620001f962000abd565b6040516200020891906200167d565b60405180910390f35b6200022f60048036038101906200022991906200181b565b62000ac3565b005b6200024f60048036038101906200024991906200188a565b62000c96565b6040516200025e91906200167d565b60405180910390f35b6200028560048036038101906200027f919062001777565b62000cab565b60405162000298959493929190620018ba565b60405180910390f35b620002ab62000d26565b604051620002ba91906200167d565b60405180910390f35b620002e16004803603810190620002db91906200188a565b62000d2c565b005b620003016004803603810190620002fb919062001915565b62000d36565b005b6007805f015f9054906101000a900460ff1690805f0160019054906101000a900473ffffffffffffffffffffffffffffffffffffffff1690806001015f9054906101000a900473ffffffffffffffffffffffffffffffffffffffff1690806002015f9054906101000a900473ffffffffffffffffffffffffffffffffffffffff16908060030154908060040154905086565b60055481565b5f8073ffffffffffffffffffffffffffffffffffffffff1660015f3373ffffffffffffffffffffffffffffffffffffffff1673ffffffffffffffffffffffffffffffffffffffff1681526020019081526020015f205f9054906101000a900473ffffffffffffffffffffffffffffffffffffffff1673ffffffffffffffffffffffffffffffffffffffff160362000469576040517f08c379a00000000000000000000000000000000000000000000000000000000081526004016200046090620019b8565b60405180910390fd5b5f825f6002811062000480576200047f620019d8565b5b602002013590505f836001600281106200049f576200049e620019d8565b5b60200201359050808210620004eb576040517f08c379a0000000000000000000000000000000000000000000000000000000008152600401620004e29062001a53565b60405180910390fd5b60055481111562000533576040517f08c379a00000000000000000000000000000000000000000000000000000000081526004016200052a9062001ac1565b60405180910390fd5b81600654106200057a576040517f08c379a0000000000000000000000000000000000000000000000000000000008152600401620005719062001b2f565b60405180910390fd5b5f60025f8481526020019081526020015f2054905060025f8381526020019081526020015f20548114620005e5576040517f08c379a0000000000000000000000000000000000000000000000000000000008152600401620005dc9062001b9d565b60405180910390fd5b5f865f60028110620005fc57620005fb620019d8565b5b60200201602081019062000611919062001777565b90505f876001600281106200062b576200062a620019d8565b5b60200201602081019062000640919062001777565b90508073ffffffffffffffffffffffffffffffffffffffff168273ffffffffffffffffffffffffffffffffffffffff1603620006b3576040517f08c379a0000000000000000000000000000000000000000000000000000000008152600401620006aa9062001c31565b60405180910390fd5b5f60015f8473ffffffffffffffffffffffffffffffffffffffff1673ffffffffffffffffffffffffffffffffffffffff1681526020019081526020015f205f9054906101000a900473ffffffffffffffffffffffffffffffffffffffff1690505f60015f8473ffffffffffffffffffffffffffffffffffffffff1673ffffffffffffffffffffffffffffffffffffffff1681526020019081526020015f205f9054906101000a900473ffffffffffffffffffffffffffffffffffffffff1690506200077e8262001271565b620007898162001271565b5f3060405162000799906200158b565b620007a591906200172d565b604051809103905ff080158015620007bf573d5f803e3d5ffd5b5090505f819050805f808573ffffffffffffffffffffffffffffffffffffffff1673ffffffffffffffffffffffffffffffffffffffff1681526020019081526020015f206004015f6101000a81548173ffffffffffffffffffffffffffffffffffffffff021916908373ffffffffffffffffffffffffffffffffffffffff160217905550805f808673ffffffffffffffffffffffffffffffffffffffff1673ffffffffffffffffffffffffffffffffffffffff1681526020019081526020015f206004015f6101000a81548173ffffffffffffffffffffffffffffffffffffffff021916908373ffffffffffffffffffffffffffffffffffffffff1602179055506040518060c001604052805f151581526020018273ffffffffffffffffffffffffffffffffffffffff1681526020018773ffffffffffffffffffffffffffffffffffffffff1681526020018673ffffffffffffffffffffffffffffffffffffffff1681526020018a81526020018981525060075f820151815f015f6101000a81548160ff0219169083151502179055506020820151815f0160016101000a81548173ffffffffffffffffffffffffffffffffffffffff021916908373ffffffffffffffffffffffffffffffffffffffff1602179055506040820151816001015f6101000a81548173ffffffffffffffffffffffffffffffffffffffff021916908373ffffffffffffffffffffffffffffffffffffffff1602179055506060820151816002015f6101000a81548173ffffffffffffffffffffffffffffffffffffffff021916908373ffffffffffffffffffffffffffffffffffffffff1602179055506080820151816003015560a0820151816004015590505080995050505050505050505092915050565b6003602052805f5260405f205f915090505481565b8060025f8481526020019081526020015f208190555060055482111562000a8957816005819055505b5050565b6001602052805f5260405f205f915054906101000a900473ffffffffffffffffffffffffffffffffffffffff1681565b60045481565b8260015f8673ffffffffffffffffffffffffffffffffffffffff1673ffffffffffffffffffffffffffffffffffffffff1681526020019081526020015f205f6101000a81548173ffffffffffffffffffffffffffffffffffffffff021916908373ffffffffffffffffffffffffffffffffffffffff1602179055506040518060a001604052806001151581526020018281526020018381526020018573ffffffffffffffffffffffffffffffffffffffff1681526020015f73ffffffffffffffffffffffffffffffffffffffff168152505f808573ffffffffffffffffffffffffffffffffffffffff1673ffffffffffffffffffffffffffffffffffffffff1681526020019081526020015f205f820151815f015f6101000a81548160ff02191690831515021790555060208201518160010155604082015181600201556060820151816003015f6101000a81548173ffffffffffffffffffffffffffffffffffffffff021916908373ffffffffffffffffffffffffffffffffffffffff1602179055506080820151816004015f6101000a81548173ffffffffffffffffffffffffffffffffffffffff021916908373ffffffffffffffffffffffffffffffffffffffff16021790555090505050505050565b6002602052805f5260405f205f915090505481565b5f602052805f5260405f205f91509050805f015f9054906101000a900460ff1690806001015490806002015490806003015f9054906101000a900473ffffffffffffffffffffffffffffffffffffffff1690806004015f9054906101000a900473ffffffffffffffffffffffffffffffffffffffff16905085565b60065481565b8060068190555050565b5f73ffffffffffffffffffffffffffffffffffffffff1660015f3373ffffffffffffffffffffffffffffffffffffffff1673ffffffffffffffffffffffffffffffffffffffff1681526020019081526020015f205f9054906101000a900473ffffffffffffffffffffffffffffffffffffffff1673ffffffffffffffffffffffffffffffffffffffff160362000e03576040517f08c379a000000000000000000000000000000000000000000000000000000000815260040162000dfa90620019b8565b60405180910390fd5b5f60015f8473ffffffffffffffffffffffffffffffffffffffff1673ffffffffffffffffffffffffffffffffffffffff1681526020019081526020015f205f9054906101000a900473ffffffffffffffffffffffffffffffffffffffff1690505f60015f8473ffffffffffffffffffffffffffffffffffffffff1673ffffffffffffffffffffffffffffffffffffffff1681526020019081526020015f205f9054906101000a900473ffffffffffffffffffffffffffffffffffffffff16905062000ece816200134e565b5f62000edb8383620013de565b90508073ffffffffffffffffffffffffffffffffffffffff163373ffffffffffffffffffffffffffffffffffffffff161462000f4e576040517f08c379a000000000000000000000000000000000000000000000000000000000815260040162000f459062001c9f565b60405180910390fd5b5f805f8473ffffffffffffffffffffffffffffffffffffffff1673ffffffffffffffffffffffffffffffffffffffff1681526020019081526020015f206001015490505f6004548211156200100c576004548262000fad919062001cec565b60035f8673ffffffffffffffffffffffffffffffffffffffff1673ffffffffffffffffffffffffffffffffffffffff1681526020019081526020015f205f82825462000ffa919062001d26565b92505081905550600454905062001010565b8190505b805f808773ffffffffffffffffffffffffffffffffffffffff1673ffffffffffffffffffffffffffffffffffffffff1681526020019081526020015f206001015f82825462001060919062001d26565b925050819055505f805f8773ffffffffffffffffffffffffffffffffffffffff1673ffffffffffffffffffffffffffffffffffffffff1681526020019081526020015f206004015f6101000a81548173ffffffffffffffffffffffffffffffffffffffff021916908373ffffffffffffffffffffffffffffffffffffffff16021790555060015f805f8773ffffffffffffffffffffffffffffffffffffffff1673ffffffffffffffffffffffffffffffffffffffff1681526020019081526020015f206003015f9054906101000a900473ffffffffffffffffffffffffffffffffffffffff1673ffffffffffffffffffffffffffffffffffffffff1673ffffffffffffffffffffffffffffffffffffffff1681526020019081526020015f205f6101000a81549073ffffffffffffffffffffffffffffffffffffffff02191690555f808573ffffffffffffffffffffffffffffffffffffffff1673ffffffffffffffffffffffffffffffffffffffff1681526020019081526020015f205f8082015f6101000a81549060ff0219169055600182015f9055600282015f9055600382015f6101000a81549073ffffffffffffffffffffffffffffffffffffffff0219169055600482015f6101000a81549073ffffffffffffffffffffffffffffffffffffffff02191690555050600160075f015f6101000a81548160ff02191690831515021790555050505050505050565b6200127c816200134e565b5f73ffffffffffffffffffffffffffffffffffffffff165f808373ffffffffffffffffffffffffffffffffffffffff1673ffffffffffffffffffffffffffffffffffffffff1681526020019081526020015f206004015f9054906101000a900473ffffffffffffffffffffffffffffffffffffffff1673ffffffffffffffffffffffffffffffffffffffff16146200134b576040517f08c379a0000000000000000000000000000000000000000000000000000000008152600401620013429062001dae565b60405180910390fd5b50565b5f808273ffffffffffffffffffffffffffffffffffffffff1673ffffffffffffffffffffffffffffffffffffffff1681526020019081526020015f205f015f9054906101000a900460ff16620013db576040517f08c379a0000000000000000000000000000000000000000000000000000000008152600401620013d29062001e1c565b60405180910390fd5b50565b5f805f808573ffffffffffffffffffffffffffffffffffffffff1673ffffffffffffffffffffffffffffffffffffffff1681526020019081526020015f206004015f9054906101000a900473ffffffffffffffffffffffffffffffffffffffff1690505f73ffffffffffffffffffffffffffffffffffffffff168173ffffffffffffffffffffffffffffffffffffffff1603620014b2576040517f08c379a0000000000000000000000000000000000000000000000000000000008152600401620014a99062001e8a565b60405180910390fd5b5f808473ffffffffffffffffffffffffffffffffffffffff1673ffffffffffffffffffffffffffffffffffffffff1681526020019081526020015f206004015f9054906101000a900473ffffffffffffffffffffffffffffffffffffffff1673ffffffffffffffffffffffffffffffffffffffff168173ffffffffffffffffffffffffffffffffffffffff161462001581576040517f08c379a0000000000000000000000000000000000000000000000000000000008152600401620015789062001ef8565b60405180910390fd5b8091505092915050565b6103b08062001f1983390190565b5f8115159050919050565b620015af8162001599565b82525050565b5f73ffffffffffffffffffffffffffffffffffffffff82169050919050565b5f620015e082620015b5565b9050919050565b620015f281620015d4565b82525050565b5f819050919050565b6200160c81620015f8565b82525050565b5f60c082019050620016275f830189620015a4565b620016366020830188620015e7565b620016456040830187620015e7565b620016546060830186620015e7565b62001663608083018562001601565b6200167260a083018462001601565b979650505050505050565b5f602082019050620016925f83018462001601565b92915050565b5f80fd5b5f80fd5b5f81905082602060020282011115620016be57620016bd6200169c565b5b92915050565b5f81905082602060020282011115620016e257620016e16200169c565b5b92915050565b5f806080838503121562001701576200170062001698565b5b5f6200171085828601620016a0565b92505060406200172385828601620016c4565b9150509250929050565b5f602082019050620017425f830184620015e7565b92915050565b6200175381620015d4565b81146200175e575f80fd5b50565b5f81359050620017718162001748565b92915050565b5f602082840312156200178f576200178e62001698565b5b5f6200179e8482850162001761565b91505092915050565b620017b281620015f8565b8114620017bd575f80fd5b50565b5f81359050620017d081620017a7565b92915050565b5f8060408385031215620017ef57620017ee62001698565b5b5f620017fe85828601620017c0565b92505060206200181185828601620017c0565b9150509250929050565b5f805f806080858703121562001836576200183562001698565b5b5f620018458782880162001761565b9450506020620018588782880162001761565b93505060406200186b87828801620017c0565b92505060606200187e87828801620017c0565b91505092959194509250565b5f60208284031215620018a257620018a162001698565b5b5f620018b184828501620017c0565b91505092915050565b5f60a082019050620018cf5f830188620015a4565b620018de602083018762001601565b620018ed604083018662001601565b620018fc6060830185620015e7565b6200190b6080830184620015e7565b9695505050505050565b5f80604083850312156200192e576200192d62001698565b5b5f6200193d8582860162001761565b9250506020620019508582860162001761565b9150509250929050565b5f82825260208201905092915050565b7f4e6f744f70657261746f720000000000000000000000000000000000000000005f82015250565b5f620019a0600b836200195a565b9150620019ad826200196a565b602082019050919050565b5f6020820190508181035f830152620019d18162001992565b9050919050565b7f4e487b71000000000000000000000000000000000000000000000000000000005f52603260045260245ffd5b7f57726f6e674f72646572000000000000000000000000000000000000000000005f82015250565b5f62001a3b600a836200195a565b915062001a488262001a05565b602082019050919050565b5f6020820190508181035f83015262001a6c8162001a2d565b9050919050565b7f556e70726f706f736564417373657274696f6e000000000000000000000000005f82015250565b5f62001aa96013836200195a565b915062001ab68262001a73565b602082019050919050565b5f6020820190508181035f83015262001ada8162001a9b565b9050919050565b7f417373657274696f6e416c72656164795265736f6c76656400000000000000005f82015250565b5f62001b176018836200195a565b915062001b248262001ae1565b602082019050919050565b5f6020820190508181035f83015262001b488162001b09565b9050919050565b7f446966666572656e74506172656e7400000000000000000000000000000000005f82015250565b5f62001b85600f836200195a565b915062001b928262001b4f565b602082019050919050565b5f6020820190508181035f83015262001bb68162001b77565b9050919050565b7f646566656e64657220616e64206368616c6c656e6765206d757374206e6f74205f8201527f657175616c000000000000000000000000000000000000000000000000000000602082015250565b5f62001c196025836200195a565b915062001c268262001bbd565b604082019050919050565b5f6020820190508181035f83015262001c4a8162001c0b565b9050919050565b7f4e6f744368616c6c656e676500000000000000000000000000000000000000005f82015250565b5f62001c87600c836200195a565b915062001c948262001c51565b602082019050919050565b5f6020820190508181035f83015262001cb88162001c79565b9050919050565b7f4e487b71000000000000000000000000000000000000000000000000000000005f52601160045260245ffd5b5f62001cf882620015f8565b915062001d0583620015f8565b925082820390508181111562001d205762001d1f62001cbf565b5b92915050565b5f62001d3282620015f8565b915062001d3f83620015f8565b925082820190508082111562001d5a5762001d5962001cbf565b5b92915050565b7f4368616c6c656e6765645374616b6572000000000000000000000000000000005f82015250565b5f62001d966010836200195a565b915062001da38262001d60565b602082019050919050565b5f6020820190508181035f83015262001dc78162001d88565b9050919050565b7f4e6f745374616b656400000000000000000000000000000000000000000000005f82015250565b5f62001e046009836200195a565b915062001e118262001dce565b602082019050919050565b5f6020820190508181035f83015262001e358162001df6565b9050919050565b7f4e6f74496e4368616c6c656e67650000000000000000000000000000000000005f82015250565b5f62001e72600e836200195a565b915062001e7f8262001e3c565b602082019050919050565b5f6020820190508181035f83015262001ea38162001e64565b9050919050565b7f496e446966666572656e744368616c6c656e67650000000000000000000000005f82015250565b5f62001ee06014836200195a565b915062001eed8262001eaa565b602082019050919050565b5f6020820190508181035f83015262001f118162001ed2565b905091905056fe60a060405234801561000f575f80fd5b506040516103b03803806103b0833981810160405281019061003191906100c9565b8073ffffffffffffffffffffffffffffffffffffffff1660808173ffffffffffffffffffffffffffffffffffffffff1681525050506100f4565b5f80fd5b5f73ffffffffffffffffffffffffffffffffffffffff82169050919050565b5f6100988261006f565b9050919050565b6100a88161008e565b81146100b2575f80fd5b50565b5f815190506100c38161009f565b92915050565b5f602082840312156100de576100dd61006b565b5b5f6100eb848285016100b5565b91505092915050565b60805161029e6101125f395f818160740152610100015261029e5ff3fe608060405234801561000f575f80fd5b5060043610610034575f3560e01c80639db32a8f14610038578063cb23bcb514610054575b5f80fd5b610052600480360381019061004d9190610180565b610072565b005b61005c6100fe565b6040516100699190610219565b60405180910390f35b7f000000000000000000000000000000000000000000000000000000000000000073ffffffffffffffffffffffffffffffffffffffff1663fa7803e683836040518363ffffffff1660e01b81526004016100cd929190610241565b5f604051808303815f87803b1580156100e4575f80fd5b505af11580156100f6573d5f803e3d5ffd5b505050505050565b7f000000000000000000000000000000000000000000000000000000000000000081565b5f80fd5b5f73ffffffffffffffffffffffffffffffffffffffff82169050919050565b5f61014f82610126565b9050919050565b61015f81610145565b8114610169575f80fd5b50565b5f8135905061017a81610156565b92915050565b5f806040838503121561019657610195610122565b5b5f6101a38582860161016c565b92505060206101b48582860161016c565b9150509250929050565b5f819050919050565b5f6101e16101dc6101d784610126565b6101be565b610126565b9050919050565b5f6101f2826101c7565b9050919050565b5f610203826101e8565b9050919050565b610213816101f9565b82525050565b5f60208201905061022c5f83018461020a565b92915050565b61023b81610145565b82525050565b5f6040820190506102545f830185610232565b6102616020830184610232565b939250505056fea2646970667358221220aefe0e8eb037370df5d72eac193e34389430de62f759b45f693b524f653b2c0d64736f6c63430008180033a264697066735822122074770d5d5f12fa73c91ad48f3065634fcefe3c6285041daf78cf99dfc865dd2464736f6c63430008180033","linkReferences":{}},"methodIdentifiers":{"assertionParent(uint256)":"84b4a796","baseStakeAmount()":"71129559","challengeAssertion(address[2],uint256[2])":"2f06d1b0","challengeCtx()":"0e456acf","completeChallenge(address,address)":"fa7803e6","lastConfirmedAssertionID()":"a56ba93b","lastCreatedAssertionID()":"107035a4","registers(address)":"6aabc350","seedAssertion(uint256,uint256)":"49db67f6","seedStaker(address,address,uint256,uint256)":"7d23924a","setLastConfirmedAssertionID(uint256)":"acac250b","stakers(address)":"9168ae72","withdrawableFunds(address)":"2f30cabd"},"storageLayout":{"storage":[{"astId":255,"contract":"src/MantleF4ChallengeBindingHarness.sol:ChallengeBindingRollupHarness","label":"stakers","offset":0,"slot":"0","type":"t_mapping(t_address,t_struct(Staker)237_storage)"},{"astId":259,"contract":"src/MantleF4ChallengeBindingHarness.sol:ChallengeBindingRollupHarness","label":"registers","offset":0,"slot":"1","type":"t_mapping(t_address,t_address)"},{"astId":263,"contract":"src/MantleF4ChallengeBindingHarness.sol:ChallengeBindingRollupHarness","label":"assertionParent","offset":0,"slot":"2","type":"t_mapping(t_uint256,t_uint256)"},{"astId":267,"contract":"src/MantleF4ChallengeBindingHarness.sol:ChallengeBindingRollupHarness","label":"withdrawableFunds","offset":0,"slot":"3","type":"t_mapping(t_address,t_uint256)"},{"astId":270,"contract":"src/MantleF4ChallengeBindingHarness.sol:ChallengeBindingRollupHarness","label":"baseStakeAmount","offset":0,"slot":"4","type":"t_uint256"},{"astId":272,"contract":"src/MantleF4ChallengeBindingHarness.sol:ChallengeBindingRollupHarness","label":"lastCreatedAssertionID","offset":0,"slot":"5","type":"t_uint256"},{"astId":274,"contract":"src/MantleF4ChallengeBindingHarness.sol:ChallengeBindingRollupHarness","label":"lastConfirmedAssertionID","offset":0,"slot":"6","type":"t_uint256"},{"astId":277,"contract":"src/MantleF4ChallengeBindingHarness.sol:ChallengeBindingRollupHarness","label":"challengeCtx","offset":0,"slot":"7","type":"t_struct(ChallengeCtx)250_storage"}],"types":{"t_address":{"encoding":"inplace","label":"address","numberOfBytes":"20"},"t_bool":{"encoding":"inplace","label":"bool","numberOfBytes":"1"},"t_mapping(t_address,t_address)":{"encoding":"mapping","key":"t_address","label":"mapping(address => address)","numberOfBytes":"32","value":"t_address"},"t_mapping(t_address,t_struct(Staker)237_storage)":{"encoding":"mapping","key":"t_address","label":"mapping(address => struct ChallengeBindingRollupHarness.Staker)","numberOfBytes":"32","value":"t_struct(Staker)237_storage"},"t_mapping(t_address,t_uint256)":{"encoding":"mapping","key":"t_address","label":"mapping(address => uint256)","numberOfBytes":"32","value":"t_uint256"},"t_mapping(t_uint256,t_uint256)":{"encoding":"mapping","key":"t_uint256","label":"mapping(uint256 => uint256)","numberOfBytes":"32","value":"t_uint256"},"t_struct(ChallengeCtx)250_storage":{"encoding":"inplace","label":"struct ChallengeBindingRollupHarness.ChallengeCtx","numberOfBytes":"160","members":[{"astId":239,"contract":"src/MantleF4ChallengeBindingHarness.sol:ChallengeBindingRollupHarness","label":"completed","offset":0,"slot":"0","type":"t_bool"},{"astId":241,"contract":"src/MantleF4ChallengeBindingHarness.sol:ChallengeBindingRollupHarness","label":"challengeAddress","offset":1,"slot":"0","type":"t_address"},{"astId":243,"contract":"src/MantleF4ChallengeBindingHarness.sol:ChallengeBindingRollupHarness","label":"defenderAddress","offset":0,"slot":"1","type":"t_address"},{"astId":245,"contract":"src/MantleF4ChallengeBindingHarness.sol:ChallengeBindingRollupHarness","label":"challengerAddress","offset":0,"slot":"2","type":"t_address"},{"astId":247,"contract":"src/MantleF4ChallengeBindingHarness.sol:ChallengeBindingRollupHarness","label":"defenderAssertionID","offset":0,"slot":"3","type":"t_uint256"},{"astId":249,"contract":"src/MantleF4ChallengeBindingHarness.sol:ChallengeBindingRollupHarness","label":"challengerAssertionID","offset":0,"slot":"4","type":"t_uint256"}]},"t_struct(Staker)237_storage":{"encoding":"inplace","label":"struct ChallengeBindingRollupHarness.Staker","numberOfBytes":"160","members":[{"astId":228,"contract":"src/MantleF4ChallengeBindingHarness.sol:ChallengeBindingRollupHarness","label":"isStaked","offset":0,"slot":"0","type":"t_bool"},{"astId":230,"contract":"src/MantleF4ChallengeBindingHarness.sol:ChallengeBindingRollupHarness","label":"amountStaked","offset":0,"slot":"1","type":"t_uint256"},{"astId":232,"contract":"src/MantleF4ChallengeBindingHarness.sol:ChallengeBindingRollupHarness","label":"assertionID","offset":0,"slot":"2","type":"t_uint256"},{"astId":234,"contract":"src/MantleF4ChallengeBindingHarness.sol:ChallengeBindingRollupHarness","label":"operator","offset":0,"slot":"3","type":"t_address"},{"astId":236,"contract":"src/MantleF4ChallengeBindingHarness.sol:ChallengeBindingRollupHarness","label":"currentChallenge","offset":0,"slot":"4","type":"t_address"}]},"t_uint256":{"encoding":"inplace","label":"uint256","numberOfBytes":"32"}}},"id":1}