{"abi":[{"type":"constructor","inputs":[],"stateMutability":"nonpayable"},{"type":"function","name":"action_probeBugAndFixedWithMetadata","inputs":[{"name":"_amountSeed","type":"uint96","internalType":"uint96"}],"outputs":[],"stateMutability":"nonpayable"},{"type":"function","name":"action_probeBugAttestNoMetadata","inputs":[],"outputs":[],"stateMutability":"nonpayable"},{"type":"function","name":"action_probeBugTransferNoMetadata","inputs":[{"name":"_amountSeed","type":"uint96","internalType":"uint96"}],"outputs":[],"stateMutability":"nonpayable"},{"type":"function","name":"action_probeFixedNoMetadata","inputs":[{"name":"_amountSeed","type":"uint96","internalType":"uint96"}],"outputs":[],"stateMutability":"nonpayable"},{"type":"function","name":"bug","inputs":[],"outputs":[{"name":"","type":"address","internalType":"contract BridgeMetadataBugModel"}],"stateMutability":"view"},{"type":"function","name":"bugNoMetaAttestFailed","inputs":[],"outputs":[{"name":"","type":"bool","internalType":"bool"}],"stateMutability":"view"},{"type":"function","name":"bugNoMetaTransferFailed","inputs":[],"outputs":[{"name":"","type":"bool","internalType":"bool"}],"stateMutability":"view"},{"type":"function","name":"echidna_nonstandard_token_attest_should_not_fail","inputs":[],"outputs":[{"name":"","type":"bool","internalType":"bool"}],"stateMutability":"view"},{"type":"function","name":"fixedModel","inputs":[],"outputs":[{"name":"","type":"address","internalType":"contract BridgeMetadataFixedModel"}],"stateMutability":"view"},{"type":"function","name":"fixedNoMetaFailed","inputs":[],"outputs":[{"name":"","type":"bool","internalType":"bool"}],"stateMutability":"view"},{"type":"function","name":"noMeta","inputs":[],"outputs":[{"name":"","type":"address","internalType":"contract MockNoMetadataTokenW"}],"stateMutability":"view"},{"type":"function","name":"property_fixed_model_tolerates_missing_metadata","inputs":[],"outputs":[{"name":"","type":"bool","internalType":"bool"}],"stateMutability":"view"},{"type":"function","name":"property_nonstandard_token_attest_should_not_fail","inputs":[],"outputs":[{"name":"","type":"bool","internalType":"bool"}],"stateMutability":"view"},{"type":"function","name":"property_nonstandard_token_transfer_should_not_fail","inputs":[],"outputs":[{"name":"","type":"bool","internalType":"bool"}],"stateMutability":"view"},{"type":"function","name":"withMeta","inputs":[],"outputs":[{"name":"","type":"address","internalType":"contract MockMetadataTokenW"}],"stateMutability":"view"}],"bytecode":{"object":"0x608060405234801562000010575f80fd5b506040516200001f90620002e4565b604051809103905ff08015801562000039573d5f803e3d5ffd5b505f806101000a81548173ffffffffffffffffffffffffffffffffffffffff021916908373ffffffffffffffffffffffffffffffffffffffff1602179055506040516200008690620002f2565b604051809103905ff080158015620000a0573d5f803e3d5ffd5b5060015f6101000a81548173ffffffffffffffffffffffffffffffffffffffff021916908373ffffffffffffffffffffffffffffffffffffffff160217905550604051620000ee9062000300565b604051809103905ff08015801562000108573d5f803e3d5ffd5b5060025f6101000a81548173ffffffffffffffffffffffffffffffffffffffff021916908373ffffffffffffffffffffffffffffffffffffffff16021790555060405162000156906200030e565b604051809103905ff08015801562000170573d5f803e3d5ffd5b5060035f6101000a81548173ffffffffffffffffffffffffffffffffffffffff021916908373ffffffffffffffffffffffffffffffffffffffff16021790555060025f9054906101000a900473ffffffffffffffffffffffffffffffffffffffff1673ffffffffffffffffffffffffffffffffffffffff166340c10f193069d3c21bcecceda10000006040518363ffffffff1660e01b815260040162000218929190620003b2565b5f604051808303815f87803b15801562000230575f80fd5b505af115801562000243573d5f803e3d5ffd5b5050505060035f9054906101000a900473ffffffffffffffffffffffffffffffffffffffff1673ffffffffffffffffffffffffffffffffffffffff166340c10f193069d3c21bcecceda10000006040518363ffffffff1660e01b8152600401620002af929190620003b2565b5f604051808303815f87803b158015620002c7575f80fd5b505af1158015620002da573d5f803e3d5ffd5b50505050620003dd565b610c0680620012f583390190565b610f258062001efb83390190565b6109808062002e2083390190565b610b5b80620037a083390190565b5f73ffffffffffffffffffffffffffffffffffffffff82169050919050565b5f62000347826200031c565b9050919050565b62000359816200033b565b82525050565b5f819050919050565b5f819050919050565b5f819050919050565b5f6200039a620003946200038e846200035f565b62000371565b62000368565b9050919050565b620003ac816200037a565b82525050565b5f604082019050620003c75f8301856200034e565b620003d66020830184620003a1565b9392505050565b610f0a80620003eb5f395ff3fe608060405234801561000f575f80fd5b50600436106100f3575f3560e01c8063a281470e11610095578063de577edc11610064578063de577edc14610227578063e0cdf4b114610245578063e4cc704814610263578063eaa0b36614610281576100f3565b8063a281470e146101b1578063b6b86f2a146101cf578063c0214865146101ed578063c6d5c88e14610209576100f3565b80633a9a4888116100d15780633a9a48881461014d5780633f2de4e81461016b5780637284e7d81461018957806381c1d11d146101a7576100f3565b806301564caa146100f75780631ba4c97c1461011357806322b6d0eb14610131575b5f80fd5b610111600480360381019061010c9190610af5565b61029f565b005b61011b6105b1565b6040516101289190610b9a565b60405180910390f35b61014b60048036038101906101469190610af5565b6105d6565b005b6101556106cf565b6040516101629190610bd3565b60405180910390f35b6101736106f4565b6040516101809190610c0c565b60405180910390f35b610191610717565b60405161019e9190610c3f565b60405180910390f35b6101af61072e565b005b6101b961080b565b6040516101c69190610c3f565b60405180910390f35b6101d7610822565b6040516101e49190610c3f565b60405180910390f35b61020760048036038101906102029190610af5565b610835565b005b610211610a0d565b60405161021e9190610c3f565b60405180910390f35b61022f610a24565b60405161023c9190610c3f565b60405180910390f35b61024d610a37565b60405161025a9190610c3f565b60405180910390f35b61026b610a4a565b6040516102789190610c78565b60405180910390f35b610289610a6f565b6040516102969190610c3f565b60405180910390f35b5f6102b7826bffffffffffffffffffffffff16610a86565b90505f8054906101000a900473ffffffffffffffffffffffffffffffffffffffff1673ffffffffffffffffffffffffffffffffffffffff1663cd916cf860035f9054906101000a900473ffffffffffffffffffffffffffffffffffffffff166040518263ffffffff1660e01b81526004016103329190610cb1565b606060405180830381865afa92505050801561036c57506040513d601f19601f820116820180604052508101906103699190610d33565b60015b15610431575f8054906101000a900473ffffffffffffffffffffffffffffffffffffffff1673ffffffffffffffffffffffffffffffffffffffff1663bec3fa1760035f9054906101000a900473ffffffffffffffffffffffffffffffffffffffff16866040518363ffffffff1660e01b81526004016103ec929190610d9b565b602060405180830381865afa92505050801561042657506040513d601f19601f820116820180604052508101906104239190610dec565b60015b1561042d57505b5050505b60015f9054906101000a900473ffffffffffffffffffffffffffffffffffffffff1673ffffffffffffffffffffffffffffffffffffffff1663cd916cf860035f9054906101000a900473ffffffffffffffffffffffffffffffffffffffff166040518263ffffffff1660e01b81526004016104ac9190610cb1565b606060405180830381865afa9250505080156104e657506040513d601f19601f820116820180604052508101906104e39190610d33565b60015b156105ad5760015f9054906101000a900473ffffffffffffffffffffffffffffffffffffffff1673ffffffffffffffffffffffffffffffffffffffff1663bec3fa1760035f9054906101000a900473ffffffffffffffffffffffffffffffffffffffff16866040518363ffffffff1660e01b8152600401610568929190610d9b565b602060405180830381865afa9250505080156105a257506040513d601f19601f8201168201806040525081019061059f9190610dec565b60015b156105a957505b5050505b5050565b60015f9054906101000a900473ffffffffffffffffffffffffffffffffffffffff1681565b5f6105ee826bffffffffffffffffffffffff16610a86565b90505f8054906101000a900473ffffffffffffffffffffffffffffffffffffffff1673ffffffffffffffffffffffffffffffffffffffff1663bec3fa1760025f9054906101000a900473ffffffffffffffffffffffffffffffffffffffff16836040518363ffffffff1660e01b815260040161066b929190610d9b565b602060405180830381865afa9250505080156106a557506040513d601f19601f820116820180604052508101906106a29190610dec565b60015b6106c9576001600360156101000a81548160ff0219169083151502179055506106cb565b505b5050565b60025f9054906101000a900473ffffffffffffffffffffffffffffffffffffffff1681565b5f8054906101000a900473ffffffffffffffffffffffffffffffffffffffff1681565b5f600360149054906101000a900460ff1615905090565b5f8054906101000a900473ffffffffffffffffffffffffffffffffffffffff1673ffffffffffffffffffffffffffffffffffffffff1663cd916cf860025f9054906101000a900473ffffffffffffffffffffffffffffffffffffffff166040518263ffffffff1660e01b81526004016107a79190610cb1565b606060405180830381865afa9250505080156107e157506040513d601f19601f820116820180604052508101906107de9190610d33565b60015b610805576001600360146101000a81548160ff021916908315150217905550610809565b5050505b565b5f600360159054906101000a900460ff1615905090565b600360169054906101000a900460ff1681565b5f61084d826bffffffffffffffffffffffff16610a86565b905060015f9054906101000a900473ffffffffffffffffffffffffffffffffffffffff1673ffffffffffffffffffffffffffffffffffffffff1663cd916cf860025f9054906101000a900473ffffffffffffffffffffffffffffffffffffffff166040518263ffffffff1660e01b81526004016108ca9190610cb1565b606060405180830381865afa92505050801561090457506040513d601f19601f820116820180604052508101906109019190610d33565b60015b610928576001600360166101000a81548160ff021916908315150217905550610a09565b60015f9054906101000a900473ffffffffffffffffffffffffffffffffffffffff1673ffffffffffffffffffffffffffffffffffffffff1663bec3fa1760025f9054906101000a900473ffffffffffffffffffffffffffffffffffffffff16866040518363ffffffff1660e01b81526004016109a5929190610d9b565b602060405180830381865afa9250505080156109df57506040513d601f19601f820116820180604052508101906109dc9190610dec565b60015b610a03576001600360166101000a81548160ff021916908315150217905550610a05565b505b5050505b5050565b5f600360169054906101000a900460ff1615905090565b600360159054906101000a900460ff1681565b600360149054906101000a900460ff1681565b60035f9054906101000a900473ffffffffffffffffffffffffffffffffffffffff1681565b5f600360149054906101000a900460ff1615905090565b5f600169021e19e0c9bab240000083610a9f9190610e44565b610aa99190610ea1565b9050919050565b5f80fd5b5f6bffffffffffffffffffffffff82169050919050565b610ad481610ab4565b8114610ade575f80fd5b50565b5f81359050610aef81610acb565b92915050565b5f60208284031215610b0a57610b09610ab0565b5b5f610b1784828501610ae1565b91505092915050565b5f73ffffffffffffffffffffffffffffffffffffffff82169050919050565b5f819050919050565b5f610b62610b5d610b5884610b20565b610b3f565b610b20565b9050919050565b5f610b7382610b48565b9050919050565b5f610b8482610b69565b9050919050565b610b9481610b7a565b82525050565b5f602082019050610bad5f830184610b8b565b92915050565b5f610bbd82610b69565b9050919050565b610bcd81610bb3565b82525050565b5f602082019050610be65f830184610bc4565b92915050565b5f610bf682610b69565b9050919050565b610c0681610bec565b82525050565b5f602082019050610c1f5f830184610bfd565b92915050565b5f8115159050919050565b610c3981610c25565b82525050565b5f602082019050610c525f830184610c30565b92915050565b5f610c6282610b69565b9050919050565b610c7281610c58565b82525050565b5f602082019050610c8b5f830184610c69565b92915050565b5f610c9b82610b20565b9050919050565b610cab81610c91565b82525050565b5f602082019050610cc45f830184610ca2565b92915050565b5f60ff82169050919050565b610cdf81610cca565b8114610ce9575f80fd5b50565b5f81519050610cfa81610cd6565b92915050565b5f819050919050565b610d1281610d00565b8114610d1c575f80fd5b50565b5f81519050610d2d81610d09565b92915050565b5f805f60608486031215610d4a57610d49610ab0565b5b5f610d5786828701610cec565b9350506020610d6886828701610d1f565b9250506040610d7986828701610d1f565b9150509250925092565b5f819050919050565b610d9581610d83565b82525050565b5f604082019050610dae5f830185610ca2565b610dbb6020830184610d8c565b9392505050565b610dcb81610d83565b8114610dd5575f80fd5b50565b5f81519050610de681610dc2565b92915050565b5f60208284031215610e0157610e00610ab0565b5b5f610e0e84828501610dd8565b91505092915050565b7f4e487b71000000000000000000000000000000000000000000000000000000005f52601260045260245ffd5b5f610e4e82610d83565b9150610e5983610d83565b925082610e6957610e68610e17565b5b828206905092915050565b7f4e487b71000000000000000000000000000000000000000000000000000000005f52601160045260245ffd5b5f610eab82610d83565b9150610eb683610d83565b9250828201905080821115610ece57610ecd610e74565b5b9291505056fea2646970667358221220d6d33c54c12f47eec3db54b32a9efa28e0ff262ba163ba410417a40b16e3cec264736f6c63430008180033608060405234801561000f575f80fd5b50610be98061001d5f395ff3fe608060405234801561000f575f80fd5b5060043610610034575f3560e01c8063bec3fa1714610038578063cd916cf814610068575b5f80fd5b610052600480360381019061004d91906105f6565b61009a565b60405161005f9190610643565b60405180910390f35b610082600480360381019061007d919061065c565b6101b8565b604051610091939291906106ba565b60405180910390f35b5f808373ffffffffffffffffffffffffffffffffffffffff166040516024016040516020818303038152906040527f313ce567000000000000000000000000000000000000000000000000000000007bffffffffffffffffffffffffffffffffffffffffffffffffffffffff19166020820180517bffffffffffffffffffffffffffffffffffffffffffffffffffffffff8381831617835250505050604051610143919061075b565b5f60405180830381855afa9150503d805f811461017b576040519150601f19603f3d011682016040523d82523d5f602084013e610180565b606091505b509150505f81806020019051810190610199919061079b565b90506101ae6101a885836104d4565b82610516565b9250505092915050565b5f805f808473ffffffffffffffffffffffffffffffffffffffff166040516024016040516020818303038152906040527f313ce567000000000000000000000000000000000000000000000000000000007bffffffffffffffffffffffffffffffffffffffffffffffffffffffff19166020820180517bffffffffffffffffffffffffffffffffffffffffffffffffffffffff8381831617835250505050604051610263919061075b565b5f60405180830381855afa9150503d805f811461029b576040519150601f19603f3d011682016040523d82523d5f602084013e6102a0565b606091505b509150505f8573ffffffffffffffffffffffffffffffffffffffff166040516024016040516020818303038152906040527f95d89b41000000000000000000000000000000000000000000000000000000007bffffffffffffffffffffffffffffffffffffffffffffffffffffffff19166020820180517bffffffffffffffffffffffffffffffffffffffffffffffffffffffff838183161783525050505060405161034c919061075b565b5f60405180830381855afa9150503d805f8114610384576040519150601f19603f3d011682016040523d82523d5f602084013e610389565b606091505b509150505f8673ffffffffffffffffffffffffffffffffffffffff166040516024016040516020818303038152906040527f06fdde03000000000000000000000000000000000000000000000000000000007bffffffffffffffffffffffffffffffffffffffffffffffffffffffff19166020820180517bffffffffffffffffffffffffffffffffffffffffffffffffffffffff8381831617835250505050604051610435919061075b565b5f60405180830381855afa9150503d805f811461046d576040519150601f19603f3d011682016040523d82523d5f602084013e610472565b606091505b509150508280602001905181019061048a919061079b565b95505f828060200190518101906104a191906108f4565b90505f828060200190518101906104b891906108f4565b9050602082015196506020810151955050505050509193909250565b5f60088260ff16111561050c576008826104ee9190610968565b600a6104fa9190610acb565b836105059190610b42565b9050610510565b8290505b92915050565b5f60088260ff16111561054e576008826105309190610968565b600a61053c9190610acb565b836105479190610b72565b9050610552565b8290505b92915050565b5f604051905090565b5f80fd5b5f80fd5b5f73ffffffffffffffffffffffffffffffffffffffff82169050919050565b5f61059282610569565b9050919050565b6105a281610588565b81146105ac575f80fd5b50565b5f813590506105bd81610599565b92915050565b5f819050919050565b6105d5816105c3565b81146105df575f80fd5b50565b5f813590506105f0816105cc565b92915050565b5f806040838503121561060c5761060b610561565b5b5f610619858286016105af565b925050602061062a858286016105e2565b9150509250929050565b61063d816105c3565b82525050565b5f6020820190506106565f830184610634565b92915050565b5f6020828403121561067157610670610561565b5b5f61067e848285016105af565b91505092915050565b5f60ff82169050919050565b61069c81610687565b82525050565b5f819050919050565b6106b4816106a2565b82525050565b5f6060820190506106cd5f830186610693565b6106da60208301856106ab565b6106e760408301846106ab565b949350505050565b5f81519050919050565b5f81905092915050565b5f5b83811015610720578082015181840152602081019050610705565b5f8484015250505050565b5f610735826106ef565b61073f81856106f9565b935061074f818560208601610703565b80840191505092915050565b5f610766828461072b565b915081905092915050565b61077a81610687565b8114610784575f80fd5b50565b5f8151905061079581610771565b92915050565b5f602082840312156107b0576107af610561565b5b5f6107bd84828501610787565b91505092915050565b5f80fd5b5f80fd5b5f601f19601f8301169050919050565b7f4e487b71000000000000000000000000000000000000000000000000000000005f52604160045260245ffd5b610814826107ce565b810181811067ffffffffffffffff82111715610833576108326107de565b5b80604052505050565b5f610845610558565b9050610851828261080b565b919050565b5f67ffffffffffffffff8211156108705761086f6107de565b5b610879826107ce565b9050602081019050919050565b5f61089861089384610856565b61083c565b9050828152602081018484840111156108b4576108b36107ca565b5b6108bf848285610703565b509392505050565b5f82601f8301126108db576108da6107c6565b5b81516108eb848260208601610886565b91505092915050565b5f6020828403121561090957610908610561565b5b5f82015167ffffffffffffffff81111561092657610925610565565b5b610932848285016108c7565b91505092915050565b7f4e487b71000000000000000000000000000000000000000000000000000000005f52601160045260245ffd5b5f61097282610687565b915061097d83610687565b9250828203905060ff8111156109965761099561093b565b5b92915050565b5f8160011c9050919050565b5f808291508390505b60018511156109f1578086048111156109cd576109cc61093b565b5b60018516156109dc5780820291505b80810290506109ea8561099c565b94506109b1565b94509492505050565b5f82610a095760019050610ac4565b81610a16575f9050610ac4565b8160018114610a2c5760028114610a3657610a65565b6001915050610ac4565b60ff841115610a4857610a4761093b565b5b8360020a915084821115610a5f57610a5e61093b565b5b50610ac4565b5060208310610133831016604e8410600b8410161715610a9a5782820a905083811115610a9557610a9461093b565b5b610ac4565b610aa784848460016109a8565b92509050818404811115610abe57610abd61093b565b5b81810290505b9392505050565b5f610ad5826105c3565b9150610ae083610687565b9250610b0d7fffffffffffffffffffffffffffffffffffffffffffffffffffffffffffffffff84846109fa565b905092915050565b7f4e487b71000000000000000000000000000000000000000000000000000000005f52601260045260245ffd5b5f610b4c826105c3565b9150610b57836105c3565b925082610b6757610b66610b15565b5b828204905092915050565b5f610b7c826105c3565b9150610b87836105c3565b9250828202610b95816105c3565b91508282048414831517610bac57610bab61093b565b5b509291505056fea2646970667358221220ccefeffcdfd5c84f793a213b50e7818c9a93a5d5ea293f510c865ddd362db2b264736f6c63430008180033608060405234801561000f575f80fd5b50610f088061001d5f395ff3fe608060405234801561000f575f80fd5b506004361061003f575f3560e01c806395ce3e9314610043578063bec3fa1714610073578063cd916cf8146100a3575b5f80fd5b61005d600480360381019061005891906107f7565b6100d5565b60405161006a91906108b8565b60405180910390f35b61008d60048036038101906100889190610965565b6100f2565b60405161009a91906109b2565b60405180910390f35b6100bd60048036038101906100b891906109cb565b61011b565b6040516100cc93929190610a29565b60405180910390f35b6060818060200190518101906100eb9190610afc565b9050919050565b5f806100fd84610146565b905061011261010c848361026e565b826102b0565b91505092915050565b5f805f61012784610146565b9250610132846102f2565b915061013d846104ce565b90509193909250565b5f805f8373ffffffffffffffffffffffffffffffffffffffff166040516024016040516020818303038152906040527f313ce567000000000000000000000000000000000000000000000000000000007bffffffffffffffffffffffffffffffffffffffffffffffffffffffff19166020820180517bffffffffffffffffffffffffffffffffffffffffffffffffffffffff83818316178352505050506040516101f09190610b87565b5f60405180830381855afa9150503d805f8114610228576040519150601f19603f3d011682016040523d82523d5f602084013e61022d565b606091505b5091509150811580610240575060208151105b1561025057601292505050610269565b808060200190518101906102649190610bc7565b925050505b919050565b5f60088260ff1611156102a6576008826102889190610c1f565b600a6102949190610d82565b8361029f9190610df9565b90506102aa565b8290505b92915050565b5f60088260ff1611156102e8576008826102ca9190610c1f565b600a6102d69190610d82565b836102e19190610e29565b90506102ec565b8290505b92915050565b5f805f8373ffffffffffffffffffffffffffffffffffffffff166040516024016040516020818303038152906040527f95d89b41000000000000000000000000000000000000000000000000000000007bffffffffffffffffffffffffffffffffffffffffffffffffffffffff19166020820180517bffffffffffffffffffffffffffffffffffffffffffffffffffffffff838183161783525050505060405161039c9190610b87565b5f60405180830381855afa9150503d805f81146103d4576040519150601f19603f3d011682016040523d82523d5f602084013e6103d9565b606091505b50915091508115806103ec575060408151105b1561041b577f554e4b4e4f574e00000000000000000000000000000000000000000000000000925050506104c9565b3073ffffffffffffffffffffffffffffffffffffffff166395ce3e93826040518263ffffffff1660e01b81526004016104549190610eb2565b5f60405180830381865afa92505050801561049157506040513d5f823e3d601f19601f8201168201806040525081019061048e9190610afc565b60015b6104bd577f554e4b4e4f574e0000000000000000000000000000000000000000000000000092506104c6565b60208101519350505b50505b919050565b5f805f8373ffffffffffffffffffffffffffffffffffffffff166040516024016040516020818303038152906040527f06fdde03000000000000000000000000000000000000000000000000000000007bffffffffffffffffffffffffffffffffffffffffffffffffffffffff19166020820180517bffffffffffffffffffffffffffffffffffffffffffffffffffffffff83818316178352505050506040516105789190610b87565b5f60405180830381855afa9150503d805f81146105b0576040519150601f19603f3d011682016040523d82523d5f602084013e6105b5565b606091505b50915091508115806105c8575060408151105b156105f7577f554e4b4e4f574e00000000000000000000000000000000000000000000000000925050506106a5565b3073ffffffffffffffffffffffffffffffffffffffff166395ce3e93826040518263ffffffff1660e01b81526004016106309190610eb2565b5f60405180830381865afa92505050801561066d57506040513d5f823e3d601f19601f8201168201806040525081019061066a9190610afc565b60015b610699577f554e4b4e4f574e0000000000000000000000000000000000000000000000000092506106a2565b60208101519350505b50505b919050565b5f604051905090565b5f80fd5b5f80fd5b5f80fd5b5f80fd5b5f601f19601f8301169050919050565b7f4e487b71000000000000000000000000000000000000000000000000000000005f52604160045260245ffd5b610709826106c3565b810181811067ffffffffffffffff82111715610728576107276106d3565b5b80604052505050565b5f61073a6106aa565b90506107468282610700565b919050565b5f67ffffffffffffffff821115610765576107646106d3565b5b61076e826106c3565b9050602081019050919050565b828183375f83830152505050565b5f61079b6107968461074b565b610731565b9050828152602081018484840111156107b7576107b66106bf565b5b6107c284828561077b565b509392505050565b5f82601f8301126107de576107dd6106bb565b5b81356107ee848260208601610789565b91505092915050565b5f6020828403121561080c5761080b6106b3565b5b5f82013567ffffffffffffffff811115610829576108286106b7565b5b610835848285016107ca565b91505092915050565b5f81519050919050565b5f82825260208201905092915050565b5f5b8381101561087557808201518184015260208101905061085a565b5f8484015250505050565b5f61088a8261083e565b6108948185610848565b93506108a4818560208601610858565b6108ad816106c3565b840191505092915050565b5f6020820190508181035f8301526108d08184610880565b905092915050565b5f73ffffffffffffffffffffffffffffffffffffffff82169050919050565b5f610901826108d8565b9050919050565b610911816108f7565b811461091b575f80fd5b50565b5f8135905061092c81610908565b92915050565b5f819050919050565b61094481610932565b811461094e575f80fd5b50565b5f8135905061095f8161093b565b92915050565b5f806040838503121561097b5761097a6106b3565b5b5f6109888582860161091e565b925050602061099985828601610951565b9150509250929050565b6109ac81610932565b82525050565b5f6020820190506109c55f8301846109a3565b92915050565b5f602082840312156109e0576109df6106b3565b5b5f6109ed8482850161091e565b91505092915050565b5f60ff82169050919050565b610a0b816109f6565b82525050565b5f819050919050565b610a2381610a11565b82525050565b5f606082019050610a3c5f830186610a02565b610a496020830185610a1a565b610a566040830184610a1a565b949350505050565b5f67ffffffffffffffff821115610a7857610a776106d3565b5b610a81826106c3565b9050602081019050919050565b5f610aa0610a9b84610a5e565b610731565b905082815260208101848484011115610abc57610abb6106bf565b5b610ac7848285610858565b509392505050565b5f82601f830112610ae357610ae26106bb565b5b8151610af3848260208601610a8e565b91505092915050565b5f60208284031215610b1157610b106106b3565b5b5f82015167ffffffffffffffff811115610b2e57610b2d6106b7565b5b610b3a84828501610acf565b91505092915050565b5f81519050919050565b5f81905092915050565b5f610b6182610b43565b610b6b8185610b4d565b9350610b7b818560208601610858565b80840191505092915050565b5f610b928284610b57565b915081905092915050565b610ba6816109f6565b8114610bb0575f80fd5b50565b5f81519050610bc181610b9d565b92915050565b5f60208284031215610bdc57610bdb6106b3565b5b5f610be984828501610bb3565b91505092915050565b7f4e487b71000000000000000000000000000000000000000000000000000000005f52601160045260245ffd5b5f610c29826109f6565b9150610c34836109f6565b9250828203905060ff811115610c4d57610c4c610bf2565b5b92915050565b5f8160011c9050919050565b5f808291508390505b6001851115610ca857808604811115610c8457610c83610bf2565b5b6001851615610c935780820291505b8081029050610ca185610c53565b9450610c68565b94509492505050565b5f82610cc05760019050610d7b565b81610ccd575f9050610d7b565b8160018114610ce35760028114610ced57610d1c565b6001915050610d7b565b60ff841115610cff57610cfe610bf2565b5b8360020a915084821115610d1657610d15610bf2565b5b50610d7b565b5060208310610133831016604e8410600b8410161715610d515782820a905083811115610d4c57610d4b610bf2565b5b610d7b565b610d5e8484846001610c5f565b92509050818404811115610d7557610d74610bf2565b5b81810290505b9392505050565b5f610d8c82610932565b9150610d97836109f6565b9250610dc47fffffffffffffffffffffffffffffffffffffffffffffffffffffffffffffffff8484610cb1565b905092915050565b7f4e487b71000000000000000000000000000000000000000000000000000000005f52601260045260245ffd5b5f610e0382610932565b9150610e0e83610932565b925082610e1e57610e1d610dcc565b5b828204905092915050565b5f610e3382610932565b9150610e3e83610932565b9250828202610e4c81610932565b91508282048414831517610e6357610e62610bf2565b5b5092915050565b5f82825260208201905092915050565b5f610e8482610b43565b610e8e8185610e6a565b9350610e9e818560208601610858565b610ea7816106c3565b840191505092915050565b5f6020820190508181035f830152610eca8184610e7a565b90509291505056fea26469706673582212206b9e0824a78a018105afd30f2c0f28f410aa3e88cee5d1fb92358874228c63f264736f6c63430008180033608060405234801561000f575f80fd5b506109638061001d5f395ff3fe608060405234801561000f575f80fd5b5060043610610060575f3560e01c8063095ea7b31461006457806323b872dd1461009457806340c10f19146100c457806370a08231146100e0578063a9059cbb14610110578063dd62ed3e14610140575b5f80fd5b61007e6004803603810190610079919061069b565b610170565b60405161008b91906106f3565b60405180910390f35b6100ae60048036038101906100a9919061070c565b6101f8565b6040516100bb91906106f3565b60405180910390f35b6100de60048036038101906100d9919061069b565b61045c565b005b6100fa60048036038101906100f5919061075c565b6104b2565b6040516101079190610796565b60405180910390f35b61012a6004803603810190610125919061069b565b6104c6565b60405161013791906106f3565b60405180910390f35b61015a600480360381019061015591906107af565b6105ea565b6040516101679190610796565b60405180910390f35b5f8160015f3373ffffffffffffffffffffffffffffffffffffffff1673ffffffffffffffffffffffffffffffffffffffff1681526020019081526020015f205f8573ffffffffffffffffffffffffffffffffffffffff1673ffffffffffffffffffffffffffffffffffffffff1681526020019081526020015f20819055506001905092915050565b5f8060015f8673ffffffffffffffffffffffffffffffffffffffff1673ffffffffffffffffffffffffffffffffffffffff1681526020019081526020015f205f3373ffffffffffffffffffffffffffffffffffffffff1673ffffffffffffffffffffffffffffffffffffffff1681526020019081526020015f20549050828110156102b8576040517f08c379a00000000000000000000000000000000000000000000000000000000081526004016102af90610847565b60405180910390fd5b5f805f8773ffffffffffffffffffffffffffffffffffffffff1673ffffffffffffffffffffffffffffffffffffffff1681526020019081526020015f205490508381101561033b576040517f08c379a0000000000000000000000000000000000000000000000000000000008152600401610332906108af565b60405180910390fd5b83820360015f8873ffffffffffffffffffffffffffffffffffffffff1673ffffffffffffffffffffffffffffffffffffffff1681526020019081526020015f205f3373ffffffffffffffffffffffffffffffffffffffff1673ffffffffffffffffffffffffffffffffffffffff1681526020019081526020015f20819055508381035f808873ffffffffffffffffffffffffffffffffffffffff1673ffffffffffffffffffffffffffffffffffffffff1681526020019081526020015f2081905550835f808773ffffffffffffffffffffffffffffffffffffffff1673ffffffffffffffffffffffffffffffffffffffff1681526020019081526020015f205f82825461044891906108fa565b925050819055506001925050509392505050565b805f808473ffffffffffffffffffffffffffffffffffffffff1673ffffffffffffffffffffffffffffffffffffffff1681526020019081526020015f205f8282546104a791906108fa565b925050819055505050565b5f602052805f5260405f205f915090505481565b5f805f803373ffffffffffffffffffffffffffffffffffffffff1673ffffffffffffffffffffffffffffffffffffffff1681526020019081526020015f205490508281101561054a576040517f08c379a0000000000000000000000000000000000000000000000000000000008152600401610541906108af565b60405180910390fd5b8281035f803373ffffffffffffffffffffffffffffffffffffffff1673ffffffffffffffffffffffffffffffffffffffff1681526020019081526020015f2081905550825f808673ffffffffffffffffffffffffffffffffffffffff1673ffffffffffffffffffffffffffffffffffffffff1681526020019081526020015f205f8282546105d891906108fa565b92505081905550600191505092915050565b6001602052815f5260405f20602052805f5260405f205f91509150505481565b5f80fd5b5f73ffffffffffffffffffffffffffffffffffffffff82169050919050565b5f6106378261060e565b9050919050565b6106478161062d565b8114610651575f80fd5b50565b5f813590506106628161063e565b92915050565b5f819050919050565b61067a81610668565b8114610684575f80fd5b50565b5f8135905061069581610671565b92915050565b5f80604083850312156106b1576106b061060a565b5b5f6106be85828601610654565b92505060206106cf85828601610687565b9150509250929050565b5f8115159050919050565b6106ed816106d9565b82525050565b5f6020820190506107065f8301846106e4565b92915050565b5f805f606084860312156107235761072261060a565b5b5f61073086828701610654565b935050602061074186828701610654565b925050604061075286828701610687565b9150509250925092565b5f602082840312156107715761077061060a565b5b5f61077e84828501610654565b91505092915050565b61079081610668565b82525050565b5f6020820190506107a95f830184610787565b92915050565b5f80604083850312156107c5576107c461060a565b5b5f6107d285828601610654565b92505060206107e385828601610654565b9150509250929050565b5f82825260208201905092915050565b7f21616c6c6f77616e6365000000000000000000000000000000000000000000005f82015250565b5f610831600a836107ed565b915061083c826107fd565b602082019050919050565b5f6020820190508181035f83015261085e81610825565b9050919050565b7f2162616c616e63650000000000000000000000000000000000000000000000005f82015250565b5f6108996008836107ed565b91506108a482610865565b602082019050919050565b5f6020820190508181035f8301526108c68161088d565b9050919050565b7f4e487b71000000000000000000000000000000000000000000000000000000005f52601160045260245ffd5b5f61090482610668565b915061090f83610668565b9250828201905080821115610927576109266108cd565b5b9291505056fea26469706673582212205856d9dafeadb784499dabdb7f43a3215f8abb3bad49cefab913359d4565d58d64736f6c63430008180033608060405234801561000f575f80fd5b50610b3e8061001d5f395ff3fe608060405234801561000f575f80fd5b5060043610610091575f3560e01c806340c10f191161006457806340c10f191461013157806370a082311461014d57806395d89b411461017d578063a9059cbb1461019b578063dd62ed3e146101cb57610091565b806306fdde0314610095578063095ea7b3146100b357806323b872dd146100e3578063313ce56714610113575b5f80fd5b61009d6101fb565b6040516100aa91906107a1565b60405180910390f35b6100cd60048036038101906100c89190610852565b610238565b6040516100da91906108aa565b60405180910390f35b6100fd60048036038101906100f891906108c3565b6102c0565b60405161010a91906108aa565b60405180910390f35b61011b610524565b604051610128919061092e565b60405180910390f35b61014b60048036038101906101469190610852565b61052c565b005b61016760048036038101906101629190610947565b610582565b6040516101749190610981565b60405180910390f35b610185610596565b60405161019291906107a1565b60405180910390f35b6101b560048036038101906101b09190610852565b6105d3565b6040516101c291906108aa565b60405180910390f35b6101e560048036038101906101e0919061099a565b6106f7565b6040516101f29190610981565b60405180910390f35b60606040518060400160405280600e81526020017f4d6574616461746120546f6b656e000000000000000000000000000000000000815250905090565b5f8160015f3373ffffffffffffffffffffffffffffffffffffffff1673ffffffffffffffffffffffffffffffffffffffff1681526020019081526020015f205f8573ffffffffffffffffffffffffffffffffffffffff1673ffffffffffffffffffffffffffffffffffffffff1681526020019081526020015f20819055506001905092915050565b5f8060015f8673ffffffffffffffffffffffffffffffffffffffff1673ffffffffffffffffffffffffffffffffffffffff1681526020019081526020015f205f3373ffffffffffffffffffffffffffffffffffffffff1673ffffffffffffffffffffffffffffffffffffffff1681526020019081526020015f2054905082811015610380576040517f08c379a000000000000000000000000000000000000000000000000000000000815260040161037790610a22565b60405180910390fd5b5f805f8773ffffffffffffffffffffffffffffffffffffffff1673ffffffffffffffffffffffffffffffffffffffff1681526020019081526020015f2054905083811015610403576040517f08c379a00000000000000000000000000000000000000000000000000000000081526004016103fa90610a8a565b60405180910390fd5b83820360015f8873ffffffffffffffffffffffffffffffffffffffff1673ffffffffffffffffffffffffffffffffffffffff1681526020019081526020015f205f3373ffffffffffffffffffffffffffffffffffffffff1673ffffffffffffffffffffffffffffffffffffffff1681526020019081526020015f20819055508381035f808873ffffffffffffffffffffffffffffffffffffffff1673ffffffffffffffffffffffffffffffffffffffff1681526020019081526020015f2081905550835f808773ffffffffffffffffffffffffffffffffffffffff1673ffffffffffffffffffffffffffffffffffffffff1681526020019081526020015f205f8282546105109190610ad5565b925050819055506001925050509392505050565b5f6012905090565b805f808473ffffffffffffffffffffffffffffffffffffffff1673ffffffffffffffffffffffffffffffffffffffff1681526020019081526020015f205f8282546105779190610ad5565b925050819055505050565b5f602052805f5260405f205f915090505481565b60606040518060400160405280600481526020017f4d45544100000000000000000000000000000000000000000000000000000000815250905090565b5f805f803373ffffffffffffffffffffffffffffffffffffffff1673ffffffffffffffffffffffffffffffffffffffff1681526020019081526020015f2054905082811015610657576040517f08c379a000000000000000000000000000000000000000000000000000000000815260040161064e90610a8a565b60405180910390fd5b8281035f803373ffffffffffffffffffffffffffffffffffffffff1673ffffffffffffffffffffffffffffffffffffffff1681526020019081526020015f2081905550825f808673ffffffffffffffffffffffffffffffffffffffff1673ffffffffffffffffffffffffffffffffffffffff1681526020019081526020015f205f8282546106e59190610ad5565b92505081905550600191505092915050565b6001602052815f5260405f20602052805f5260405f205f91509150505481565b5f81519050919050565b5f82825260208201905092915050565b5f5b8381101561074e578082015181840152602081019050610733565b5f8484015250505050565b5f601f19601f8301169050919050565b5f61077382610717565b61077d8185610721565b935061078d818560208601610731565b61079681610759565b840191505092915050565b5f6020820190508181035f8301526107b98184610769565b905092915050565b5f80fd5b5f73ffffffffffffffffffffffffffffffffffffffff82169050919050565b5f6107ee826107c5565b9050919050565b6107fe816107e4565b8114610808575f80fd5b50565b5f81359050610819816107f5565b92915050565b5f819050919050565b6108318161081f565b811461083b575f80fd5b50565b5f8135905061084c81610828565b92915050565b5f8060408385031215610868576108676107c1565b5b5f6108758582860161080b565b92505060206108868582860161083e565b9150509250929050565b5f8115159050919050565b6108a481610890565b82525050565b5f6020820190506108bd5f83018461089b565b92915050565b5f805f606084860312156108da576108d96107c1565b5b5f6108e78682870161080b565b93505060206108f88682870161080b565b92505060406109098682870161083e565b9150509250925092565b5f60ff82169050919050565b61092881610913565b82525050565b5f6020820190506109415f83018461091f565b92915050565b5f6020828403121561095c5761095b6107c1565b5b5f6109698482850161080b565b91505092915050565b61097b8161081f565b82525050565b5f6020820190506109945f830184610972565b92915050565b5f80604083850312156109b0576109af6107c1565b5b5f6109bd8582860161080b565b92505060206109ce8582860161080b565b9150509250929050565b7f21616c6c6f77616e6365000000000000000000000000000000000000000000005f82015250565b5f610a0c600a83610721565b9150610a17826109d8565b602082019050919050565b5f6020820190508181035f830152610a3981610a00565b9050919050565b7f2162616c616e63650000000000000000000000000000000000000000000000005f82015250565b5f610a74600883610721565b9150610a7f82610a40565b602082019050919050565b5f6020820190508181035f830152610aa181610a68565b9050919050565b7f4e487b71000000000000000000000000000000000000000000000000000000005f52601160045260245ffd5b5f610adf8261081f565b9150610aea8361081f565b9250828201905080821115610b0257610b01610aa8565b5b9291505056fea2646970667358221220820c6cfb1f54ba2d67012549b37c9ecca7c9801b9853b09fb959954106b195ef64736f6c63430008180033","linkReferences":{}},"methodIdentifiers":{"action_probeBugAndFixedWithMetadata(uint96)":"01564caa","action_probeBugAttestNoMetadata()":"81c1d11d","action_probeBugTransferNoMetadata(uint96)":"22b6d0eb","action_probeFixedNoMetadata(uint96)":"c0214865","bug()":"3f2de4e8","bugNoMetaAttestFailed()":"e0cdf4b1","bugNoMetaTransferFailed()":"de577edc","echidna_nonstandard_token_attest_should_not_fail()":"eaa0b366","fixedModel()":"1ba4c97c","fixedNoMetaFailed()":"b6b86f2a","noMeta()":"3a9a4888","property_fixed_model_tolerates_missing_metadata()":"c6d5c88e","property_nonstandard_token_attest_should_not_fail()":"7284e7d8","property_nonstandard_token_transfer_should_not_fail()":"a281470e","withMeta()":"e4cc7048"},"id":1}