{"abi":[{"type":"constructor","inputs":[],"stateMutability":"nonpayable"},{"type":"function","name":"action_attacker_change_deployer","inputs":[],"outputs":[],"stateMutability":"nonpayable"},{"type":"function","name":"action_attacker_initialize","inputs":[],"outputs":[],"stateMutability":"nonpayable"},{"type":"function","name":"action_victim_propose_non_eth","inputs":[],"outputs":[],"stateMutability":"nonpayable"},{"type":"function","name":"attacker","inputs":[],"outputs":[{"name":"","type":"address","internalType":"contract ChainRegistrarInitAttacker"}],"stateMutability":"view"},{"type":"function","name":"attackerCollector","inputs":[],"outputs":[{"name":"","type":"address","internalType":"address"}],"stateMutability":"view"},{"type":"function","name":"echidna_attacker_cannot_receive_proposer_topup","inputs":[],"outputs":[{"name":"","type":"bool","internalType":"bool"}],"stateMutability":"view"},{"type":"function","name":"proxy","inputs":[],"outputs":[{"name":"","type":"address","internalType":"contract EraContractsF1SimpleProxy"}],"stateMutability":"view"},{"type":"function","name":"registrar","inputs":[],"outputs":[{"name":"","type":"address","internalType":"contract IChainRegistrarLike"}],"stateMutability":"view"},{"type":"function","name":"token","inputs":[],"outputs":[{"name":"","type":"address","internalType":"contract MockERC20"}],"stateMutability":"view"}],"bytecode":{"object":"0x608060405234801562000010575f80fd5b5061cafe60045f6101000a81548173ffffffffffffffffffffffffffffffffffffffff021916908373ffffffffffffffffffffffffffffffffffffffff1602179055505f604051620000629062000429565b604051809103905ff0801580156200007c573d5f803e3d5ffd5b509050306040516200008e9062000437565b6200009a9190620004a4565b604051809103905ff080158015620000b4573d5f803e3d5ffd5b505f806101000a81548173ffffffffffffffffffffffffffffffffffffffff021916908373ffffffffffffffffffffffffffffffffffffffff1602179055505f8054906101000a900473ffffffffffffffffffffffffffffffffffffffff1673ffffffffffffffffffffffffffffffffffffffff16633659cfe6826040518263ffffffff1660e01b81526004016200014d9190620004a4565b5f604051808303815f87803b15801562000165575f80fd5b505af115801562000178573d5f803e3d5ffd5b505050505f8054906101000a900473ffffffffffffffffffffffffffffffffffffffff1660015f6101000a81548173ffffffffffffffffffffffffffffffffffffffff021916908373ffffffffffffffffffffffffffffffffffffffff160217905550604051620001e99062000445565b604051809103905ff08015801562000203573d5f803e3d5ffd5b5060025f6101000a81548173ffffffffffffffffffffffffffffffffffffffff021916908373ffffffffffffffffffffffffffffffffffffffff160217905550604051620002519062000453565b604051809103905ff0801580156200026b573d5f803e3d5ffd5b5060035f6101000a81548173ffffffffffffffffffffffffffffffffffffffff021916908373ffffffffffffffffffffffffffffffffffffffff16021790555060035f9054906101000a900473ffffffffffffffffffffffffffffffffffffffff1673ffffffffffffffffffffffffffffffffffffffff166340c10f193068056bc75e2d631000006040518363ffffffff1660e01b81526004016200031292919062000512565b5f604051808303815f87803b1580156200032a575f80fd5b505af11580156200033d573d5f803e3d5ffd5b5050505060035f9054906101000a900473ffffffffffffffffffffffffffffffffffffffff1673ffffffffffffffffffffffffffffffffffffffff1663095ea7b35f8054906101000a900473ffffffffffffffffffffffffffffffffffffffff167fffffffffffffffffffffffffffffffffffffffffffffffffffffffffffffffff6040518363ffffffff1660e01b8152600401620003de9291906200054e565b6020604051808303815f875af1158015620003fb573d5f803e3d5ffd5b505050506040513d601f19601f82011682018060405250810190620004219190620005b7565b5050620005e7565b610bb2806200101883390190565b6105328062001bca83390190565b6102fa80620020fc83390190565b610a5f80620023f683390190565b5f73ffffffffffffffffffffffffffffffffffffffff82169050919050565b5f6200048c8262000461565b9050919050565b6200049e8162000480565b82525050565b5f602082019050620004b95f83018462000493565b92915050565b5f819050919050565b5f819050919050565b5f819050919050565b5f620004fa620004f4620004ee84620004bf565b620004d1565b620004c8565b9050919050565b6200050c81620004da565b82525050565b5f604082019050620005275f83018562000493565b62000536602083018462000501565b9392505050565b6200054881620004c8565b82525050565b5f604082019050620005635f83018562000493565b6200057260208301846200053d565b9392505050565b5f80fd5b5f8115159050919050565b62000593816200057d565b81146200059e575f80fd5b50565b5f81519050620005b18162000588565b92915050565b5f60208284031215620005cf57620005ce62000579565b5b5f620005de84828501620005a1565b91505092915050565b610a2380620005f55f395ff3fe608060405234801561000f575f80fd5b5060043610610091575f3560e01c8063ced2ec7c11610064578063ced2ec7c146100e5578063d6f8df0314610103578063ec5568891461010d578063fc0c546a1461012b578063ffefa7871461014957610091565b80630e80aa85146100955780631332b2191461009f5780632b20e397146100a957806348eb76ee146100c7575b5f80fd5b61009d610167565b005b6100a7610237565b005b6100b16103e0565b6040516100be9190610682565b60405180910390f35b6100cf610405565b6040516100dc91906106bb565b60405180910390f35b6100ed61042a565b6040516100fa91906106ee565b60405180910390f35b61010b6104ec565b005b61011561059b565b6040516101229190610738565b60405180910390f35b6101336105be565b6040516101409190610771565b60405180910390f35b6101516105e3565b60405161015e91906107aa565b60405180910390f35b60025f9054906101000a900473ffffffffffffffffffffffffffffffffffffffff1673ffffffffffffffffffffffffffffffffffffffff16637a7e61ef5f8054906101000a900473ffffffffffffffffffffffffffffffffffffffff16610b0b62d3e10f60025f9054906101000a900473ffffffffffffffffffffffffffffffffffffffff166040518563ffffffff1660e01b815260040161020c94939291906107c3565b5f604051808303815f87803b158015610223575f80fd5b505af1925050508015610234575060015b50565b60025f9054906101000a900473ffffffffffffffffffffffffffffffffffffffff1673ffffffffffffffffffffffffffffffffffffffff1660015f9054906101000a900473ffffffffffffffffffffffffffffffffffffffff1673ffffffffffffffffffffffffffffffffffffffff16638da5cb5b6040518163ffffffff1660e01b8152600401602060405180830381865afa1580156102d9573d5f803e3d5ffd5b505050506040513d601f19601f820116820180604052508101906102fd9190610834565b73ffffffffffffffffffffffffffffffffffffffff16036103de5760025f9054906101000a900473ffffffffffffffffffffffffffffffffffffffff1673ffffffffffffffffffffffffffffffffffffffff16631b968c995f8054906101000a900473ffffffffffffffffffffffffffffffffffffffff1660045f9054906101000a900473ffffffffffffffffffffffffffffffffffffffff166040518363ffffffff1660e01b81526004016103b492919061085f565b5f604051808303815f87803b1580156103cb575f80fd5b505af19250505080156103dc575060015b505b565b60015f9054906101000a900473ffffffffffffffffffffffffffffffffffffffff1681565b60025f9054906101000a900473ffffffffffffffffffffffffffffffffffffffff1681565b5f8060035f9054906101000a900473ffffffffffffffffffffffffffffffffffffffff1673ffffffffffffffffffffffffffffffffffffffff166370a0823160045f9054906101000a900473ffffffffffffffffffffffffffffffffffffffff166040518263ffffffff1660e01b81526004016104a791906107aa565b602060405180830381865afa1580156104c2573d5f803e3d5ffd5b505050506040513d601f19601f820116820180604052508101906104e691906108b9565b14905090565b60015f9054906101000a900473ffffffffffffffffffffffffffffffffffffffff1673ffffffffffffffffffffffffffffffffffffffff166347d755dc600760035f9054906101000a900473ffffffffffffffffffffffffffffffffffffffff16600a60016040518563ffffffff1660e01b815260040161057094939291906109aa565b5f604051808303815f87803b158015610587575f80fd5b505af1925050508015610598575060015b50565b5f8054906101000a900473ffffffffffffffffffffffffffffffffffffffff1681565b60035f9054906101000a900473ffffffffffffffffffffffffffffffffffffffff1681565b60045f9054906101000a900473ffffffffffffffffffffffffffffffffffffffff1681565b5f73ffffffffffffffffffffffffffffffffffffffff82169050919050565b5f819050919050565b5f61064a61064561064084610608565b610627565b610608565b9050919050565b5f61065b82610630565b9050919050565b5f61066c82610651565b9050919050565b61067c81610662565b82525050565b5f6020820190506106955f830184610673565b92915050565b5f6106a582610651565b9050919050565b6106b58161069b565b82525050565b5f6020820190506106ce5f8301846106ac565b92915050565b5f8115159050919050565b6106e8816106d4565b82525050565b5f6020820190506107015f8301846106df565b92915050565b5f61071182610630565b9050919050565b5f61072282610707565b9050919050565b61073281610718565b82525050565b5f60208201905061074b5f830184610729565b92915050565b5f61075b82610651565b9050919050565b61076b81610751565b82525050565b5f6020820190506107845f830184610762565b92915050565b5f61079482610608565b9050919050565b6107a48161078a565b82525050565b5f6020820190506107bd5f83018461079b565b92915050565b5f6080820190506107d65f83018761079b565b6107e3602083018661079b565b6107f0604083018561079b565b6107fd606083018461079b565b95945050505050565b5f80fd5b6108138161078a565b811461081d575f80fd5b50565b5f8151905061082e8161080a565b92915050565b5f6020828403121561084957610848610806565b5b5f61085684828501610820565b91505092915050565b5f6040820190506108725f83018561079b565b61087f602083018461079b565b9392505050565b5f819050919050565b61089881610886565b81146108a2575f80fd5b50565b5f815190506108b38161088f565b92915050565b5f602082840312156108ce576108cd610806565b5b5f6108db848285016108a5565b91505092915050565b5f819050919050565b5f6109076109026108fd846108e4565b610627565b610886565b9050919050565b610917816108ed565b82525050565b5f819050919050565b5f6fffffffffffffffffffffffffffffffff82169050919050565b5f61095b6109566109518461091d565b610627565b610926565b9050919050565b61096b81610941565b82525050565b5f819050919050565b5f61099461098f61098a84610971565b610627565b610926565b9050919050565b6109a48161097a565b82525050565b5f6080820190506109bd5f83018761090e565b6109ca602083018661079b565b6109d76040830185610962565b6109e4606083018461099b565b9594505050505056fea2646970667358221220306f15fc369da3a71c4ce11a843b57dcdf07a791a85be43b15e35c2dfb89da4964736f6c63430008180033608060405234801561000f575f80fd5b5060015f806101000a81548160ff021916908315150217905550610b7c806100365f395ff3fe608060405234801561000f575f80fd5b506004361061007b575f3560e01c80639ac810a8116100595780639ac810a8146100d7578063a432298014610107578063c0c53b8b14610125578063defdfae6146101415761007b565b806347d755dc1461007f5780635d38962d1461009b5780638da5cb5b146100b9575b5f80fd5b610099600480360381019061009491906107b3565b61015d565b005b6100a3610456565b6040516100b09190610826565b60405180910390f35b6100c161047b565b6040516100ce9190610826565b60405180910390f35b6100f160048036038101906100ec919061083f565b6104a3565b6040516100fe9190610897565b60405180910390f35b61010f6104cd565b60405161011c9190610826565b60405180910390f35b61013f600480360381019061013a91906108b0565b6104f2565b005b61015b60048036038101906101569190610900565b610614565b005b60035f3373ffffffffffffffffffffffffffffffffffffffff1673ffffffffffffffffffffffffffffffffffffffff1681526020019081526020015f205f8581526020019081526020015f205f9054906101000a900460ff16156101ed576040517f19ddfc4d00000000000000000000000000000000000000000000000000000000815260040160405180910390fd5b600160035f3373ffffffffffffffffffffffffffffffffffffffff1673ffffffffffffffffffffffffffffffffffffffff1681526020019081526020015f205f8681526020019081526020015f205f6101000a81548160ff021916908315150217905550600173ffffffffffffffffffffffffffffffffffffffff168373ffffffffffffffffffffffffffffffffffffffff1614610450575f816fffffffffffffffffffffffffffffffff16836fffffffffffffffffffffffffffffffff16670de0b6b3a76400006102bf9190610958565b6102c991906109c6565b9050808473ffffffffffffffffffffffffffffffffffffffff166370a0823160015f9054906101000a900473ffffffffffffffffffffffffffffffffffffffff166040518263ffffffff1660e01b81526004016103269190610826565b602060405180830381865afa158015610341573d5f803e3d5ffd5b505050506040513d601f19601f820116820180604052508101906103659190610a0a565b101561044e575f8473ffffffffffffffffffffffffffffffffffffffff166323b872dd3360015f9054906101000a900473ffffffffffffffffffffffffffffffffffffffff16856040518463ffffffff1660e01b81526004016103ca93929190610a44565b6020604051808303815f875af11580156103e6573d5f803e3d5ffd5b505050506040513d601f19601f8201168201806040525081019061040a9190610aa3565b90508061044c576040517f08c379a000000000000000000000000000000000000000000000000000000000815260040161044390610b28565b60405180910390fd5b505b505b50505050565b60025f9054906101000a900473ffffffffffffffffffffffffffffffffffffffff1681565b5f8060019054906101000a900473ffffffffffffffffffffffffffffffffffffffff16905090565b6003602052815f5260405f20602052805f5260405f205f915091509054906101000a900460ff1681565b60015f9054906101000a900473ffffffffffffffffffffffffffffffffffffffff1681565b5f8054906101000a900460ff1615610536576040517f0dc149f000000000000000000000000000000000000000000000000000000000815260040160405180910390fd5b60015f806101000a81548160ff0219169083151502179055508260025f6101000a81548173ffffffffffffffffffffffffffffffffffffffff021916908373ffffffffffffffffffffffffffffffffffffffff1602179055508160015f6101000a81548173ffffffffffffffffffffffffffffffffffffffff021916908373ffffffffffffffffffffffffffffffffffffffff160217905550805f60016101000a81548173ffffffffffffffffffffffffffffffffffffffff021916908373ffffffffffffffffffffffffffffffffffffffff160217905550505050565b5f60019054906101000a900473ffffffffffffffffffffffffffffffffffffffff1673ffffffffffffffffffffffffffffffffffffffff163373ffffffffffffffffffffffffffffffffffffffff161461069a576040517f82b4290000000000000000000000000000000000000000000000000000000000815260040160405180910390fd5b8060015f6101000a81548173ffffffffffffffffffffffffffffffffffffffff021916908373ffffffffffffffffffffffffffffffffffffffff16021790555050565b5f80fd5b5f819050919050565b6106f3816106e1565b81146106fd575f80fd5b50565b5f8135905061070e816106ea565b92915050565b5f73ffffffffffffffffffffffffffffffffffffffff82169050919050565b5f61073d82610714565b9050919050565b61074d81610733565b8114610757575f80fd5b50565b5f8135905061076881610744565b92915050565b5f6fffffffffffffffffffffffffffffffff82169050919050565b6107928161076e565b811461079c575f80fd5b50565b5f813590506107ad81610789565b92915050565b5f805f80608085870312156107cb576107ca6106dd565b5b5f6107d887828801610700565b94505060206107e98782880161075a565b93505060406107fa8782880161079f565b925050606061080b8782880161079f565b91505092959194509250565b61082081610733565b82525050565b5f6020820190506108395f830184610817565b92915050565b5f8060408385031215610855576108546106dd565b5b5f6108628582860161075a565b925050602061087385828601610700565b9150509250929050565b5f8115159050919050565b6108918161087d565b82525050565b5f6020820190506108aa5f830184610888565b92915050565b5f805f606084860312156108c7576108c66106dd565b5b5f6108d48682870161075a565b93505060206108e58682870161075a565b92505060406108f68682870161075a565b9150509250925092565b5f60208284031215610915576109146106dd565b5b5f6109228482850161075a565b91505092915050565b7f4e487b71000000000000000000000000000000000000000000000000000000005f52601160045260245ffd5b5f610962826106e1565b915061096d836106e1565b925082820261097b816106e1565b915082820484148315176109925761099161092b565b5b5092915050565b7f4e487b71000000000000000000000000000000000000000000000000000000005f52601260045260245ffd5b5f6109d0826106e1565b91506109db836106e1565b9250826109eb576109ea610999565b5b828204905092915050565b5f81519050610a04816106ea565b92915050565b5f60208284031215610a1f57610a1e6106dd565b5b5f610a2c848285016109f6565b91505092915050565b610a3e816106e1565b82525050565b5f606082019050610a575f830186610817565b610a646020830185610817565b610a716040830184610a35565b949350505050565b610a828161087d565b8114610a8c575f80fd5b50565b5f81519050610a9d81610a79565b92915050565b5f60208284031215610ab857610ab76106dd565b5b5f610ac584828501610a8f565b91505092915050565b5f82825260208201905092915050565b7f7472616e7366657246726f6d206661696c6564000000000000000000000000005f82015250565b5f610b12601383610ace565b9150610b1d82610ade565b602082019050919050565b5f6020820190508181035f830152610b3f81610b06565b905091905056fea2646970667358221220244566a242dcf3c52d101b4cc63f8ffd011cfba80a28477a991b738dc0e5b83d64736f6c63430008180033608060405234801561000f575f80fd5b50604051610532380380610532833981810160405281019061003191906100cd565b5f60017f75ca463271406a37abf56d44a1dfe7161ac904892aa2630f43cd2604dba531d55f1c610061919061012e565b5f1b90508181555050610161565b5f80fd5b5f73ffffffffffffffffffffffffffffffffffffffff82169050919050565b5f61009c82610073565b9050919050565b6100ac81610092565b81146100b6575f80fd5b50565b5f815190506100c7816100a3565b92915050565b5f602082840312156100e2576100e161006f565b5b5f6100ef848285016100b9565b91505092915050565b5f819050919050565b7f4e487b71000000000000000000000000000000000000000000000000000000005f52601160045260245ffd5b5f610138826100f8565b9150610143836100f8565b925082820390508181111561015b5761015a610101565b5b92915050565b6103c48061016e5f395ff3fe608060405260043610610037575f3560e01c80633659cfe6146100485780635c60da1b14610070578063f851a4401461009a5761003e565b3661003e57005b6100466100c4565b005b348015610053575f80fd5b5061006e600480360381019061006991906102d2565b610153565b005b34801561007b575f80fd5b506100846101fa565b604051610091919061030c565b60405180910390f35b3480156100a5575f80fd5b506100ae610237565b6040516100bb919061030c565b60405180910390f35b5f6100cd6101fa565b90505f73ffffffffffffffffffffffffffffffffffffffff168173ffffffffffffffffffffffffffffffffffffffff1603610134576040517f40dde93500000000000000000000000000000000000000000000000000000000815260040160405180910390fd5b365f80375f80365f845af43d5f803e805f811461014f573d5ff35b3d5ffd5b61015b610237565b73ffffffffffffffffffffffffffffffffffffffff163373ffffffffffffffffffffffffffffffffffffffff16146101bf576040517f82b4290000000000000000000000000000000000000000000000000000000000815260040160405180910390fd5b5f60017fd5503d618c8ea121411cadcf127387d131b0bc6ba2a94bb81eb7e67c3c845e7c5f1c6101ef919061035b565b5f1b90508181555050565b5f8060017fd5503d618c8ea121411cadcf127387d131b0bc6ba2a94bb81eb7e67c3c845e7c5f1c61022b919061035b565b5f1b9050805491505090565b5f8060017f75ca463271406a37abf56d44a1dfe7161ac904892aa2630f43cd2604dba531d55f1c610268919061035b565b5f1b9050805491505090565b5f80fd5b5f73ffffffffffffffffffffffffffffffffffffffff82169050919050565b5f6102a182610278565b9050919050565b6102b181610297565b81146102bb575f80fd5b50565b5f813590506102cc816102a8565b92915050565b5f602082840312156102e7576102e6610274565b5b5f6102f4848285016102be565b91505092915050565b61030681610297565b82525050565b5f60208201905061031f5f8301846102fd565b92915050565b5f819050919050565b7f4e487b71000000000000000000000000000000000000000000000000000000005f52601160045260245ffd5b5f61036582610325565b915061037083610325565b92508282039050818111156103885761038761032e565b5b9291505056fea26469706673582212201e63b1e88cfef90930132f3dcd8d1666023d3834f9d345573f05657280020e9e64736f6c63430008180033608060405234801561000f575f80fd5b506102dd8061001d5f395ff3fe608060405234801561000f575f80fd5b5060043610610034575f3560e01c80631b968c99146100385780637a7e61ef14610054575b5f80fd5b610052600480360381019061004d91906101a8565b610070565b005b61006e600480360381019061006991906101e6565b6100da565b005b8173ffffffffffffffffffffffffffffffffffffffff1663defdfae6826040518263ffffffff1660e01b81526004016100a99190610259565b5f604051808303815f87803b1580156100c0575f80fd5b505af11580156100d2573d5f803e3d5ffd5b505050505050565b8373ffffffffffffffffffffffffffffffffffffffff1663c0c53b8b8484846040518463ffffffff1660e01b815260040161011793929190610272565b5f604051808303815f87803b15801561012e575f80fd5b505af1158015610140573d5f803e3d5ffd5b5050505050505050565b5f80fd5b5f73ffffffffffffffffffffffffffffffffffffffff82169050919050565b5f6101778261014e565b9050919050565b6101878161016d565b8114610191575f80fd5b50565b5f813590506101a28161017e565b92915050565b5f80604083850312156101be576101bd61014a565b5b5f6101cb85828601610194565b92505060206101dc85828601610194565b9150509250929050565b5f805f80608085870312156101fe576101fd61014a565b5b5f61020b87828801610194565b945050602061021c87828801610194565b935050604061022d87828801610194565b925050606061023e87828801610194565b91505092959194509250565b6102538161016d565b82525050565b5f60208201905061026c5f83018461024a565b92915050565b5f6060820190506102855f83018661024a565b610292602083018561024a565b61029f604083018461024a565b94935050505056fea2646970667358221220d23c993eef1cd93246ea82fca2701835289e610a72c87b822356e32d5c3a50ae64736f6c63430008180033608060405234801561000f575f80fd5b50610a428061001d5f395ff3fe608060405234801561000f575f80fd5b5060043610610086575f3560e01c806340c10f191161005957806340c10f191461012657806370a082311461014257806395d89b4114610172578063dd62ed3e1461019057610086565b806306fdde031461008a578063095ea7b3146100a857806323b872dd146100d8578063313ce56714610108575b5f80fd5b6100926101c0565b60405161009f9190610672565b60405180910390f35b6100c260048036038101906100bd9190610723565b6101f9565b6040516100cf919061077b565b60405180910390f35b6100f260048036038101906100ed9190610794565b610281565b6040516100ff919061077b565b60405180910390f35b610110610520565b60405161011d91906107ff565b60405180910390f35b610140600480360381019061013b9190610723565b610525565b005b61015c60048036038101906101579190610818565b61057b565b6040516101699190610852565b60405180910390f35b61017a61058f565b6040516101879190610672565b60405180910390f35b6101aa60048036038101906101a5919061086b565b6105c8565b6040516101b79190610852565b60405180910390f35b6040518060400160405280600981526020017f4d6f636b546f6b656e000000000000000000000000000000000000000000000081525081565b5f8160015f3373ffffffffffffffffffffffffffffffffffffffff1673ffffffffffffffffffffffffffffffffffffffff1681526020019081526020015f205f8573ffffffffffffffffffffffffffffffffffffffff1673ffffffffffffffffffffffffffffffffffffffff1681526020019081526020015f20819055506001905092915050565b5f8060015f8673ffffffffffffffffffffffffffffffffffffffff1673ffffffffffffffffffffffffffffffffffffffff1681526020019081526020015f205f3373ffffffffffffffffffffffffffffffffffffffff1673ffffffffffffffffffffffffffffffffffffffff1681526020019081526020015f2054905082811015610341576040517f08c379a0000000000000000000000000000000000000000000000000000000008152600401610338906108f3565b60405180910390fd5b825f808773ffffffffffffffffffffffffffffffffffffffff1673ffffffffffffffffffffffffffffffffffffffff1681526020019081526020015f205410156103c0576040517f08c379a00000000000000000000000000000000000000000000000000000000081526004016103b79061095b565b60405180910390fd5b7fffffffffffffffffffffffffffffffffffffffffffffffffffffffffffffffff81146104705782816103f391906109a6565b60015f8773ffffffffffffffffffffffffffffffffffffffff1673ffffffffffffffffffffffffffffffffffffffff1681526020019081526020015f205f3373ffffffffffffffffffffffffffffffffffffffff1673ffffffffffffffffffffffffffffffffffffffff1681526020019081526020015f20819055505b825f808773ffffffffffffffffffffffffffffffffffffffff1673ffffffffffffffffffffffffffffffffffffffff1681526020019081526020015f205f8282546104bb91906109a6565b92505081905550825f808673ffffffffffffffffffffffffffffffffffffffff1673ffffffffffffffffffffffffffffffffffffffff1681526020019081526020015f205f82825461050d91906109d9565b9250508190555060019150509392505050565b601281565b805f808473ffffffffffffffffffffffffffffffffffffffff1673ffffffffffffffffffffffffffffffffffffffff1681526020019081526020015f205f82825461057091906109d9565b925050819055505050565b5f602052805f5260405f205f915090505481565b6040518060400160405280600481526020017f4d4f434b0000000000000000000000000000000000000000000000000000000081525081565b6001602052815f5260405f20602052805f5260405f205f91509150505481565b5f81519050919050565b5f82825260208201905092915050565b5f5b8381101561061f578082015181840152602081019050610604565b5f8484015250505050565b5f601f19601f8301169050919050565b5f610644826105e8565b61064e81856105f2565b935061065e818560208601610602565b6106678161062a565b840191505092915050565b5f6020820190508181035f83015261068a818461063a565b905092915050565b5f80fd5b5f73ffffffffffffffffffffffffffffffffffffffff82169050919050565b5f6106bf82610696565b9050919050565b6106cf816106b5565b81146106d9575f80fd5b50565b5f813590506106ea816106c6565b92915050565b5f819050919050565b610702816106f0565b811461070c575f80fd5b50565b5f8135905061071d816106f9565b92915050565b5f806040838503121561073957610738610692565b5b5f610746858286016106dc565b92505060206107578582860161070f565b9150509250929050565b5f8115159050919050565b61077581610761565b82525050565b5f60208201905061078e5f83018461076c565b92915050565b5f805f606084860312156107ab576107aa610692565b5b5f6107b8868287016106dc565b93505060206107c9868287016106dc565b92505060406107da8682870161070f565b9150509250925092565b5f60ff82169050919050565b6107f9816107e4565b82525050565b5f6020820190506108125f8301846107f0565b92915050565b5f6020828403121561082d5761082c610692565b5b5f61083a848285016106dc565b91505092915050565b61084c816106f0565b82525050565b5f6020820190506108655f830184610843565b92915050565b5f806040838503121561088157610880610692565b5b5f61088e858286016106dc565b925050602061089f858286016106dc565b9150509250929050565b7f696e73756666696369656e7420616c6c6f77616e6365000000000000000000005f82015250565b5f6108dd6016836105f2565b91506108e8826108a9565b602082019050919050565b5f6020820190508181035f83015261090a816108d1565b9050919050565b7f696e73756666696369656e742062616c616e63650000000000000000000000005f82015250565b5f6109456014836105f2565b915061095082610911565b602082019050919050565b5f6020820190508181035f83015261097281610939565b9050919050565b7f4e487b71000000000000000000000000000000000000000000000000000000005f52601160045260245ffd5b5f6109b0826106f0565b91506109bb836106f0565b92508282039050818111156109d3576109d2610979565b5b92915050565b5f6109e3826106f0565b91506109ee836106f0565b9250828201905080821115610a0657610a05610979565b5b9291505056fea2646970667358221220966acbc371bea1c70cd0723291cd52e460358c524451dccebe39250a0f7b3a5664736f6c63430008180033","linkReferences":{}},"methodIdentifiers":{"action_attacker_change_deployer()":"1332b219","action_attacker_initialize()":"0e80aa85","action_victim_propose_non_eth()":"d6f8df03","attacker()":"48eb76ee","attackerCollector()":"ffefa787","echidna_attacker_cannot_receive_proposer_topup()":"ced2ec7c","proxy()":"ec556889","registrar()":"2b20e397","token()":"fc0c546a"},"storageLayout":{"storage":[{"astId":11,"contract":"src/EchidnaEraContractsF1ChainRegistrarInitHijackHarness.sol:EchidnaEraContractsF1ChainRegistrarInitHijackHarness","label":"proxy","offset":0,"slot":"0","type":"t_contract(EraContractsF1SimpleProxy)379"},{"astId":14,"contract":"src/EchidnaEraContractsF1ChainRegistrarInitHijackHarness.sol:EchidnaEraContractsF1ChainRegistrarInitHijackHarness","label":"registrar","offset":0,"slot":"1","type":"t_contract(IChainRegistrarLike)263"},{"astId":17,"contract":"src/EchidnaEraContractsF1ChainRegistrarInitHijackHarness.sol:EchidnaEraContractsF1ChainRegistrarInitHijackHarness","label":"attacker","offset":0,"slot":"2","type":"t_contract(ChainRegistrarInitAttacker)721"},{"astId":20,"contract":"src/EchidnaEraContractsF1ChainRegistrarInitHijackHarness.sol:EchidnaEraContractsF1ChainRegistrarInitHijackHarness","label":"token","offset":0,"slot":"3","type":"t_contract(MockERC20)506"},{"astId":22,"contract":"src/EchidnaEraContractsF1ChainRegistrarInitHijackHarness.sol:EchidnaEraContractsF1ChainRegistrarInitHijackHarness","label":"attackerCollector","offset":0,"slot":"4","type":"t_address"}],"types":{"t_address":{"encoding":"inplace","label":"address","numberOfBytes":"20"},"t_contract(ChainRegistrarInitAttacker)721":{"encoding":"inplace","label":"contract ChainRegistrarInitAttacker","numberOfBytes":"20"},"t_contract(EraContractsF1SimpleProxy)379":{"encoding":"inplace","label":"contract EraContractsF1SimpleProxy","numberOfBytes":"20"},"t_contract(IChainRegistrarLike)263":{"encoding":"inplace","label":"contract IChainRegistrarLike","numberOfBytes":"20"},"t_contract(MockERC20)506":{"encoding":"inplace","label":"contract MockERC20","numberOfBytes":"20"}}},"id":0}