{"abi":[{"type":"function","name":"callComplete","inputs":[{"name":"challenge","type":"address","internalType":"contract ChallengeSettlementHarness"},{"name":"result","type":"bool","internalType":"bool"}],"outputs":[],"stateMutability":"nonpayable"}],"bytecode":{"object":"0x608060405234801561000f575f80fd5b506101f38061001d5f395ff3fe608060405234801561000f575f80fd5b5060043610610029575f3560e01c80632a3374311461002d575b5f80fd5b61004760048036038101906100429190610157565b610049565b005b8173ffffffffffffffffffffffffffffffffffffffff1663f2858aa3826040518263ffffffff1660e01b815260040161008291906101a4565b5f604051808303815f87803b158015610099575f80fd5b505af11580156100ab573d5f803e3d5ffd5b505050505050565b5f80fd5b5f73ffffffffffffffffffffffffffffffffffffffff82169050919050565b5f6100e0826100b7565b9050919050565b5f6100f1826100d6565b9050919050565b610101816100e7565b811461010b575f80fd5b50565b5f8135905061011c816100f8565b92915050565b5f8115159050919050565b61013681610122565b8114610140575f80fd5b50565b5f813590506101518161012d565b92915050565b5f806040838503121561016d5761016c6100b3565b5b5f61017a8582860161010e565b925050602061018b85828601610143565b9150509250929050565b61019e81610122565b82525050565b5f6020820190506101b75f830184610195565b9291505056fea26469706673582212201bc415ef95fc4c555d53887d4ff67ff876b637ed55bc18d7d3a520015cc2a54064736f6c63430008180033","linkReferences":{}},"methodIdentifiers":{"callComplete(address,bool)":"2a337431"},"storageLayout":{"storage":[],"types":{}},"id":1}