{"abi":[{"type":"function","name":"challengeCompleted","inputs":[],"outputs":[{"name":"","type":"bool","internalType":"bool"}],"stateMutability":"view"},{"type":"function","name":"completeChallenge","inputs":[{"name":"winner","type":"address","internalType":"address"},{"name":"loser","type":"address","internalType":"address"}],"outputs":[],"stateMutability":"nonpayable"},{"type":"function","name":"pairChallenge","inputs":[{"name":"winnerOperator","type":"address","internalType":"address"},{"name":"loserOperator","type":"address","internalType":"address"},{"name":"challenge","type":"address","internalType":"address"}],"outputs":[],"stateMutability":"nonpayable"},{"type":"function","name":"register","inputs":[{"name":"operator","type":"address","internalType":"address"},{"name":"staker","type":"address","internalType":"address"}],"outputs":[],"stateMutability":"nonpayable"},{"type":"function","name":"registers","inputs":[{"name":"","type":"address","internalType":"address"}],"outputs":[{"name":"","type":"address","internalType":"address"}],"stateMutability":"view"},{"type":"function","name":"stakers","inputs":[{"name":"","type":"address","internalType":"address"}],"outputs":[{"name":"isStaked","type":"bool","internalType":"bool"},{"name":"currentChallenge","type":"address","internalType":"address"}],"stateMutability":"view"}],"bytecode":{"object":"0x608060405234801561000f575f80fd5b50610c978061001d5f395ff3fe608060405234801561000f575f80fd5b5060043610610060575f3560e01c806318a8e578146100645780636aabc350146100805780639168ae72146100b0578063aa677354146100e1578063e1022602146100fd578063fa7803e61461011b575b5f80fd5b61007e6004803603810190610079919061090e565b610137565b005b61009a6004803603810190610095919061095e565b6102f8565b6040516100a79190610998565b60405180910390f35b6100ca60048036038101906100c5919061095e565b610328565b6040516100d89291906109cb565b60405180910390f35b6100fb60048036038101906100f691906109f2565b610372565b005b610105610447565b6040516101129190610a30565b60405180910390f35b610135600480360381019061013091906109f2565b610459565b005b5f60015f8573ffffffffffffffffffffffffffffffffffffffff1673ffffffffffffffffffffffffffffffffffffffff1681526020019081526020015f205f9054906101000a900473ffffffffffffffffffffffffffffffffffffffff1690505f60015f8573ffffffffffffffffffffffffffffffffffffffff1673ffffffffffffffffffffffffffffffffffffffff1681526020019081526020015f205f9054906101000a900473ffffffffffffffffffffffffffffffffffffffff169050825f808473ffffffffffffffffffffffffffffffffffffffff1673ffffffffffffffffffffffffffffffffffffffff1681526020019081526020015f205f0160016101000a81548173ffffffffffffffffffffffffffffffffffffffff021916908373ffffffffffffffffffffffffffffffffffffffff160217905550825f808373ffffffffffffffffffffffffffffffffffffffff1673ffffffffffffffffffffffffffffffffffffffff1681526020019081526020015f205f0160016101000a81548173ffffffffffffffffffffffffffffffffffffffff021916908373ffffffffffffffffffffffffffffffffffffffff1602179055505050505050565b6001602052805f5260405f205f915054906101000a900473ffffffffffffffffffffffffffffffffffffffff1681565b5f602052805f5260405f205f91509050805f015f9054906101000a900460ff1690805f0160019054906101000a900473ffffffffffffffffffffffffffffffffffffffff16905082565b8060015f8473ffffffffffffffffffffffffffffffffffffffff1673ffffffffffffffffffffffffffffffffffffffff1681526020019081526020015f205f6101000a81548173ffffffffffffffffffffffffffffffffffffffff021916908373ffffffffffffffffffffffffffffffffffffffff16021790555060015f808373ffffffffffffffffffffffffffffffffffffffff1673ffffffffffffffffffffffffffffffffffffffff1681526020019081526020015f205f015f6101000a81548160ff0219169083151502179055505050565b60025f9054906101000a900460ff1681565b5f73ffffffffffffffffffffffffffffffffffffffff1660015f3373ffffffffffffffffffffffffffffffffffffffff1673ffffffffffffffffffffffffffffffffffffffff1681526020019081526020015f205f9054906101000a900473ffffffffffffffffffffffffffffffffffffffff1673ffffffffffffffffffffffffffffffffffffffff1603610523576040517f08c379a000000000000000000000000000000000000000000000000000000000815260040161051a90610aa3565b60405180910390fd5b5f60015f8473ffffffffffffffffffffffffffffffffffffffff1673ffffffffffffffffffffffffffffffffffffffff1681526020019081526020015f205f9054906101000a900473ffffffffffffffffffffffffffffffffffffffff1690505f60015f8473ffffffffffffffffffffffffffffffffffffffff1673ffffffffffffffffffffffffffffffffffffffff1681526020019081526020015f205f9054906101000a900473ffffffffffffffffffffffffffffffffffffffff1690505f808273ffffffffffffffffffffffffffffffffffffffff1673ffffffffffffffffffffffffffffffffffffffff1681526020019081526020015f205f015f9054906101000a900460ff1661066d576040517f08c379a000000000000000000000000000000000000000000000000000000000815260040161066490610b0b565b60405180910390fd5b5f6106788383610709565b90508073ffffffffffffffffffffffffffffffffffffffff163373ffffffffffffffffffffffffffffffffffffffff16146106e8576040517f08c379a00000000000000000000000000000000000000000000000000000000081526004016106df90610b73565b60405180910390fd5b600160025f6101000a81548160ff0219169083151502179055505050505050565b5f805f808573ffffffffffffffffffffffffffffffffffffffff1673ffffffffffffffffffffffffffffffffffffffff1681526020019081526020015f205f0160019054906101000a900473ffffffffffffffffffffffffffffffffffffffff1690505f73ffffffffffffffffffffffffffffffffffffffff168173ffffffffffffffffffffffffffffffffffffffff16036107da576040517f08c379a00000000000000000000000000000000000000000000000000000000081526004016107d190610bdb565b60405180910390fd5b5f808473ffffffffffffffffffffffffffffffffffffffff1673ffffffffffffffffffffffffffffffffffffffff1681526020019081526020015f205f0160019054906101000a900473ffffffffffffffffffffffffffffffffffffffff1673ffffffffffffffffffffffffffffffffffffffff168173ffffffffffffffffffffffffffffffffffffffff16146108a6576040517f08c379a000000000000000000000000000000000000000000000000000000000815260040161089d90610c43565b60405180910390fd5b8091505092915050565b5f80fd5b5f73ffffffffffffffffffffffffffffffffffffffff82169050919050565b5f6108dd826108b4565b9050919050565b6108ed816108d3565b81146108f7575f80fd5b50565b5f81359050610908816108e4565b92915050565b5f805f60608486031215610925576109246108b0565b5b5f610932868287016108fa565b9350506020610943868287016108fa565b9250506040610954868287016108fa565b9150509250925092565b5f60208284031215610973576109726108b0565b5b5f610980848285016108fa565b91505092915050565b610992816108d3565b82525050565b5f6020820190506109ab5f830184610989565b92915050565b5f8115159050919050565b6109c5816109b1565b82525050565b5f6040820190506109de5f8301856109bc565b6109eb6020830184610989565b9392505050565b5f8060408385031215610a0857610a076108b0565b5b5f610a15858286016108fa565b9250506020610a26858286016108fa565b9150509250929050565b5f602082019050610a435f8301846109bc565b92915050565b5f82825260208201905092915050565b7f4e6f744f70657261746f720000000000000000000000000000000000000000005f82015250565b5f610a8d600b83610a49565b9150610a9882610a59565b602082019050919050565b5f6020820190508181035f830152610aba81610a81565b9050919050565b7f4e6f745374616b656400000000000000000000000000000000000000000000005f82015250565b5f610af5600983610a49565b9150610b0082610ac1565b602082019050919050565b5f6020820190508181035f830152610b2281610ae9565b9050919050565b7f4e6f744368616c6c656e676500000000000000000000000000000000000000005f82015250565b5f610b5d600c83610a49565b9150610b6882610b29565b602082019050919050565b5f6020820190508181035f830152610b8a81610b51565b9050919050565b7f4e6f74496e4368616c6c656e67650000000000000000000000000000000000005f82015250565b5f610bc5600e83610a49565b9150610bd082610b91565b602082019050919050565b5f6020820190508181035f830152610bf281610bb9565b9050919050565b7f496e446966666572656e744368616c6c656e67650000000000000000000000005f82015250565b5f610c2d601483610a49565b9150610c3882610bf9565b602082019050919050565b5f6020820190508181035f830152610c5a81610c21565b905091905056fea2646970667358221220d87ce3bbec5fc6e183cd3a52a09a38923f91ab719431dd12c8e13cd00b3367af64736f6c63430008180033","linkReferences":{}},"methodIdentifiers":{"challengeCompleted()":"e1022602","completeChallenge(address,address)":"fa7803e6","pairChallenge(address,address,address)":"18a8e578","register(address,address)":"aa677354","registers(address)":"6aabc350","stakers(address)":"9168ae72"},"storageLayout":{"storage":[{"astId":342,"contract":"src/MantleF3Harness.sol:RollupOperatorGateHarness","label":"stakers","offset":0,"slot":"0","type":"t_mapping(t_address,t_struct(Staker)337_storage)"},{"astId":346,"contract":"src/MantleF3Harness.sol:RollupOperatorGateHarness","label":"registers","offset":0,"slot":"1","type":"t_mapping(t_address,t_address)"},{"astId":348,"contract":"src/MantleF3Harness.sol:RollupOperatorGateHarness","label":"challengeCompleted","offset":0,"slot":"2","type":"t_bool"}],"types":{"t_address":{"encoding":"inplace","label":"address","numberOfBytes":"20"},"t_bool":{"encoding":"inplace","label":"bool","numberOfBytes":"1"},"t_mapping(t_address,t_address)":{"encoding":"mapping","key":"t_address","label":"mapping(address => address)","numberOfBytes":"32","value":"t_address"},"t_mapping(t_address,t_struct(Staker)337_storage)":{"encoding":"mapping","key":"t_address","label":"mapping(address => struct RollupOperatorGateHarness.Staker)","numberOfBytes":"32","value":"t_struct(Staker)337_storage"},"t_struct(Staker)337_storage":{"encoding":"inplace","label":"struct RollupOperatorGateHarness.Staker","numberOfBytes":"32","members":[{"astId":334,"contract":"src/MantleF3Harness.sol:RollupOperatorGateHarness","label":"isStaked","offset":0,"slot":"0","type":"t_bool"},{"astId":336,"contract":"src/MantleF3Harness.sol:RollupOperatorGateHarness","label":"currentChallenge","offset":1,"slot":"0","type":"t_address"}]}}},"id":1}