{"abi":[{"type":"constructor","inputs":[],"stateMutability":"nonpayable"},{"type":"function","name":"action_attacker_initialize","inputs":[],"outputs":[],"stateMutability":"nonpayable"},{"type":"function","name":"attacked","inputs":[],"outputs":[{"name":"","type":"bool","internalType":"bool"}],"stateMutability":"view"},{"type":"function","name":"attacker","inputs":[],"outputs":[{"name":"","type":"address","internalType":"contract ProtocolVersionsInitAttacker"}],"stateMutability":"view"},{"type":"function","name":"attackerOwner","inputs":[],"outputs":[{"name":"","type":"address","internalType":"address"}],"stateMutability":"view"},{"type":"function","name":"property_non_admin_cannot_take_protocol_owner","inputs":[],"outputs":[{"name":"","type":"bool","internalType":"bool"}],"stateMutability":"view"},{"type":"function","name":"protocolVersions","inputs":[],"outputs":[{"name":"","type":"address","internalType":"contract IProtocolVersionsLike"}],"stateMutability":"view"},{"type":"function","name":"proxy","inputs":[],"outputs":[{"name":"","type":"address","internalType":"contract OptimismF1SimpleProxy"}],"stateMutability":"view"}],"bytecode":{"object":"0x608060405234801561000f575f80fd5b5061beef60035f6101000a81548173ffffffffffffffffffffffffffffffffffffffff021916908373ffffffffffffffffffffffffffffffffffffffff1602179055505f60405161005f90610239565b604051809103905ff080158015610078573d5f803e3d5ffd5b5090503060405161008890610246565b610092919061029f565b604051809103905ff0801580156100ab573d5f803e3d5ffd5b505f806101000a81548173ffffffffffffffffffffffffffffffffffffffff021916908373ffffffffffffffffffffffffffffffffffffffff1602179055505f8054906101000a900473ffffffffffffffffffffffffffffffffffffffff1673ffffffffffffffffffffffffffffffffffffffff16633659cfe6826040518263ffffffff1660e01b8152600401610142919061029f565b5f604051808303815f87803b158015610159575f80fd5b505af115801561016b573d5f803e3d5ffd5b505050505f8054906101000a900473ffffffffffffffffffffffffffffffffffffffff1660015f6101000a81548173ffffffffffffffffffffffffffffffffffffffff021916908373ffffffffffffffffffffffffffffffffffffffff1602179055506040516101da90610253565b604051809103905ff0801580156101f3573d5f803e3d5ffd5b5060025f6101000a81548173ffffffffffffffffffffffffffffffffffffffff021916908373ffffffffffffffffffffffffffffffffffffffff160217905550506102b8565b6105498061095b83390190565b61053280610ea483390190565b61033c806113d683390190565b5f73ffffffffffffffffffffffffffffffffffffffff82169050919050565b5f61028982610260565b9050919050565b6102998161027f565b82525050565b5f6020820190506102b25f830184610290565b92915050565b610696806102c55f395ff3fe608060405234801561000f575f80fd5b506004361061007b575f3560e01c80636624856a116100595780636624856a146100c55780637b0ebe7a146100e3578063e2b5332714610101578063ec5568891461011f5761007b565b80630e80aa851461007f5780631105f9411461008957806348eb76ee146100a7575b5f80fd5b61008761013d565b005b61009161023e565b60405161009e91906103e1565b60405180910390f35b6100af610251565b6040516100bc9190610474565b60405180910390f35b6100cd610276565b6040516100da91906104ad565b60405180910390f35b6100eb61029b565b6040516100f891906104e6565b60405180910390f35b6101096102c0565b60405161011691906103e1565b60405180910390f35b6101276103a4565b6040516101349190610530565b60405180910390f35b600360149054906101000a900460ff1661023c5760025f9054906101000a900473ffffffffffffffffffffffffffffffffffffffff1673ffffffffffffffffffffffffffffffffffffffff166355ea79115f8054906101000a900473ffffffffffffffffffffffffffffffffffffffff1660035f9054906101000a900473ffffffffffffffffffffffffffffffffffffffff16606f60de6040518563ffffffff1660e01b81526004016101f394939291906105c4565b5f604051808303815f87803b15801561020a575f80fd5b505af115801561021c573d5f803e3d5ffd5b505050506001600360146101000a81548160ff0219169083151502179055505b565b600360149054906101000a900460ff1681565b60025f9054906101000a900473ffffffffffffffffffffffffffffffffffffffff1681565b60015f9054906101000a900473ffffffffffffffffffffffffffffffffffffffff1681565b60035f9054906101000a900473ffffffffffffffffffffffffffffffffffffffff1681565b5f60035f9054906101000a900473ffffffffffffffffffffffffffffffffffffffff1673ffffffffffffffffffffffffffffffffffffffff1660015f9054906101000a900473ffffffffffffffffffffffffffffffffffffffff1673ffffffffffffffffffffffffffffffffffffffff16638da5cb5b6040518163ffffffff1660e01b8152600401602060405180830381865afa158015610363573d5f803e3d5ffd5b505050506040513d601f19601f820116820180604052508101906103879190610635565b73ffffffffffffffffffffffffffffffffffffffff161415905090565b5f8054906101000a900473ffffffffffffffffffffffffffffffffffffffff1681565b5f8115159050919050565b6103db816103c7565b82525050565b5f6020820190506103f45f8301846103d2565b92915050565b5f73ffffffffffffffffffffffffffffffffffffffff82169050919050565b5f819050919050565b5f61043c610437610432846103fa565b610419565b6103fa565b9050919050565b5f61044d82610422565b9050919050565b5f61045e82610443565b9050919050565b61046e81610454565b82525050565b5f6020820190506104875f830184610465565b92915050565b5f61049782610443565b9050919050565b6104a78161048d565b82525050565b5f6020820190506104c05f83018461049e565b92915050565b5f6104d0826103fa565b9050919050565b6104e0816104c6565b82525050565b5f6020820190506104f95f8301846104d7565b92915050565b5f61050982610422565b9050919050565b5f61051a826104ff565b9050919050565b61052a81610510565b82525050565b5f6020820190506105435f830184610521565b92915050565b5f819050919050565b5f819050919050565b5f61057561057061056b84610549565b610419565b610552565b9050919050565b6105858161055b565b82525050565b5f819050919050565b5f6105ae6105a96105a48461058b565b610419565b610552565b9050919050565b6105be81610594565b82525050565b5f6080820190506105d75f8301876104d7565b6105e460208301866104d7565b6105f1604083018561057c565b6105fe60608301846105b5565b95945050505050565b5f80fd5b610614816104c6565b811461061e575f80fd5b50565b5f8151905061062f8161060b565b92915050565b5f6020828403121561064a57610649610607565b5b5f61065784828501610621565b9150509291505056fea2646970667358221220e13a71c59c1a94634be43ca054290096274d6dc68d0436d58392115edac8421064736f6c63430008180033608060405234801561000f575f80fd5b5060015f806101000a81548160ff021916908315150217905550610513806100365f395ff3fe608060405234801561000f575f80fd5b5060043610610060575f3560e01c80630457d6f2146100645780635fd579af146100805780637a1ac61e1461009c5780638da5cb5b146100b8578063d798b1ac146100d6578063dc8452cd146100f4575b5f80fd5b61007e600480360381019061007991906103b8565b610112565b005b61009a600480360381019061009591906103b8565b6101a2565b005b6100b660048036038101906100b1919061043d565b610232565b005b6100c0610347565b6040516100cd919061049c565b60405180910390f35b6100de61036f565b6040516100eb91906104c4565b60405180910390f35b6100fc610378565b60405161010991906104c4565b60405180910390f35b5f60019054906101000a900473ffffffffffffffffffffffffffffffffffffffff1673ffffffffffffffffffffffffffffffffffffffff163373ffffffffffffffffffffffffffffffffffffffff1614610198576040517f82b4290000000000000000000000000000000000000000000000000000000000815260040160405180910390fd5b8060018190555050565b5f60019054906101000a900473ffffffffffffffffffffffffffffffffffffffff1673ffffffffffffffffffffffffffffffffffffffff163373ffffffffffffffffffffffffffffffffffffffff1614610228576040517f82b4290000000000000000000000000000000000000000000000000000000000815260040160405180910390fd5b8060028190555050565b5f8054906101000a900460ff1615610276576040517f0dc149f000000000000000000000000000000000000000000000000000000000815260040160405180910390fd5b5f73ffffffffffffffffffffffffffffffffffffffff168373ffffffffffffffffffffffffffffffffffffffff16036102db576040517f49e27cff00000000000000000000000000000000000000000000000000000000815260040160405180910390fd5b60015f806101000a81548160ff021916908315150217905550825f60016101000a81548173ffffffffffffffffffffffffffffffffffffffff021916908373ffffffffffffffffffffffffffffffffffffffff1602179055508160018190555080600281905550505050565b5f8060019054906101000a900473ffffffffffffffffffffffffffffffffffffffff16905090565b5f600254905090565b5f600154905090565b5f80fd5b5f819050919050565b61039781610385565b81146103a1575f80fd5b50565b5f813590506103b28161038e565b92915050565b5f602082840312156103cd576103cc610381565b5b5f6103da848285016103a4565b91505092915050565b5f73ffffffffffffffffffffffffffffffffffffffff82169050919050565b5f61040c826103e3565b9050919050565b61041c81610402565b8114610426575f80fd5b50565b5f8135905061043781610413565b92915050565b5f805f6060848603121561045457610453610381565b5b5f61046186828701610429565b9350506020610472868287016103a4565b9250506040610483868287016103a4565b9150509250925092565b61049681610402565b82525050565b5f6020820190506104af5f83018461048d565b92915050565b6104be81610385565b82525050565b5f6020820190506104d75f8301846104b5565b9291505056fea2646970667358221220718c1ad7b0ddd75936acd9604236b0a16d3c6d4ae6fda0de95a118be32a30b3f64736f6c63430008180033608060405234801561000f575f80fd5b50604051610532380380610532833981810160405281019061003191906100cd565b5f60017f56b6b1710616445a200bbb765edc7fed6515aeeeaf2f16764938ea2df03795165f1c610061919061012e565b5f1b90508181555050610161565b5f80fd5b5f73ffffffffffffffffffffffffffffffffffffffff82169050919050565b5f61009c82610073565b9050919050565b6100ac81610092565b81146100b6575f80fd5b50565b5f815190506100c7816100a3565b92915050565b5f602082840312156100e2576100e161006f565b5b5f6100ef848285016100b9565b91505092915050565b5f819050919050565b7f4e487b71000000000000000000000000000000000000000000000000000000005f52601160045260245ffd5b5f610138826100f8565b9150610143836100f8565b925082820390508181111561015b5761015a610101565b5b92915050565b6103c48061016e5f395ff3fe608060405260043610610037575f3560e01c80633659cfe6146100485780635c60da1b14610070578063f851a4401461009a5761003e565b3661003e57005b6100466100c4565b005b348015610053575f80fd5b5061006e600480360381019061006991906102d2565b610153565b005b34801561007b575f80fd5b506100846101fa565b604051610091919061030c565b60405180910390f35b3480156100a5575f80fd5b506100ae610237565b6040516100bb919061030c565b60405180910390f35b5f6100cd6101fa565b90505f73ffffffffffffffffffffffffffffffffffffffff168173ffffffffffffffffffffffffffffffffffffffff1603610134576040517f40dde93500000000000000000000000000000000000000000000000000000000815260040160405180910390fd5b365f80375f80365f845af43d5f803e805f811461014f573d5ff35b3d5ffd5b61015b610237565b73ffffffffffffffffffffffffffffffffffffffff163373ffffffffffffffffffffffffffffffffffffffff16146101bf576040517f82b4290000000000000000000000000000000000000000000000000000000000815260040160405180910390fd5b5f60017f0b0f126cb1d0689c434f2072e6325eb583ab4d3f200bf4e85f0100d01b47c36c5f1c6101ef919061035b565b5f1b90508181555050565b5f8060017f0b0f126cb1d0689c434f2072e6325eb583ab4d3f200bf4e85f0100d01b47c36c5f1c61022b919061035b565b5f1b9050805491505090565b5f8060017f56b6b1710616445a200bbb765edc7fed6515aeeeaf2f16764938ea2df03795165f1c610268919061035b565b5f1b9050805491505090565b5f80fd5b5f73ffffffffffffffffffffffffffffffffffffffff82169050919050565b5f6102a182610278565b9050919050565b6102b181610297565b81146102bb575f80fd5b50565b5f813590506102cc816102a8565b92915050565b5f602082840312156102e7576102e6610274565b5b5f6102f4848285016102be565b91505092915050565b61030681610297565b82525050565b5f60208201905061031f5f8301846102fd565b92915050565b5f819050919050565b7f4e487b71000000000000000000000000000000000000000000000000000000005f52601160045260245ffd5b5f61036582610325565b915061037083610325565b92508282039050818111156103885761038761032e565b5b9291505056fea26469706673582212206cf025d85594896dbd5355c82f45683d79ed50006f536552fb284ae7a9e9bbaf64736f6c63430008180033608060405234801561000f575f80fd5b5061031f8061001d5f395ff3fe608060405234801561000f575f80fd5b5060043610610034575f3560e01c806355ea791114610038578063c17c5ffd14610054575b5f80fd5b610052600480360381019061004d91906101db565b610070565b005b61006e6004803603810190610069919061023f565b6100e0565b005b8373ffffffffffffffffffffffffffffffffffffffff16637a1ac61e8484846040518463ffffffff1660e01b81526004016100ad9392919061029b565b5f604051808303815f87803b1580156100c4575f80fd5b505af11580156100d6573d5f803e3d5ffd5b5050505050505050565b8173ffffffffffffffffffffffffffffffffffffffff16630457d6f2826040518263ffffffff1660e01b815260040161011991906102d0565b5f604051808303815f87803b158015610130575f80fd5b505af1158015610142573d5f803e3d5ffd5b505050505050565b5f80fd5b5f73ffffffffffffffffffffffffffffffffffffffff82169050919050565b5f6101778261014e565b9050919050565b6101878161016d565b8114610191575f80fd5b50565b5f813590506101a28161017e565b92915050565b5f819050919050565b6101ba816101a8565b81146101c4575f80fd5b50565b5f813590506101d5816101b1565b92915050565b5f805f80608085870312156101f3576101f261014a565b5b5f61020087828801610194565b945050602061021187828801610194565b9350506040610222878288016101c7565b9250506060610233878288016101c7565b91505092959194509250565b5f80604083850312156102555761025461014a565b5b5f61026285828601610194565b9250506020610273858286016101c7565b9150509250929050565b6102868161016d565b82525050565b610295816101a8565b82525050565b5f6060820190506102ae5f83018661027d565b6102bb602083018561028c565b6102c8604083018461028c565b949350505050565b5f6020820190506102e35f83018461028c565b9291505056fea2646970667358221220c6e94277e5cab9601814a7dc2f373fa8a4d45a6ab578c3be72a18c23fc2928fb64736f6c63430008180033","linkReferences":{}},"methodIdentifiers":{"action_attacker_initialize()":"0e80aa85","attacked()":"1105f941","attacker()":"48eb76ee","attackerOwner()":"7b0ebe7a","property_non_admin_cannot_take_protocol_owner()":"e2b53327","protocolVersions()":"6624856a","proxy()":"ec556889"},"storageLayout":{"storage":[{"astId":116,"contract":"src/MedusaOptimismF1ProtocolVersionsInitHijackHarness.sol:MedusaOptimismF1ProtocolVersionsInitHijackHarness","label":"proxy","offset":0,"slot":"0","type":"t_contract(OptimismF1SimpleProxy)371"},{"astId":119,"contract":"src/MedusaOptimismF1ProtocolVersionsInitHijackHarness.sol:MedusaOptimismF1ProtocolVersionsInitHijackHarness","label":"protocolVersions","offset":0,"slot":"1","type":"t_contract(IProtocolVersionsLike)255"},{"astId":122,"contract":"src/MedusaOptimismF1ProtocolVersionsInitHijackHarness.sol:MedusaOptimismF1ProtocolVersionsInitHijackHarness","label":"attacker","offset":0,"slot":"2","type":"t_contract(ProtocolVersionsInitAttacker)534"},{"astId":124,"contract":"src/MedusaOptimismF1ProtocolVersionsInitHijackHarness.sol:MedusaOptimismF1ProtocolVersionsInitHijackHarness","label":"attackerOwner","offset":0,"slot":"3","type":"t_address"},{"astId":126,"contract":"src/MedusaOptimismF1ProtocolVersionsInitHijackHarness.sol:MedusaOptimismF1ProtocolVersionsInitHijackHarness","label":"attacked","offset":20,"slot":"3","type":"t_bool"}],"types":{"t_address":{"encoding":"inplace","label":"address","numberOfBytes":"20"},"t_bool":{"encoding":"inplace","label":"bool","numberOfBytes":"1"},"t_contract(IProtocolVersionsLike)255":{"encoding":"inplace","label":"contract IProtocolVersionsLike","numberOfBytes":"20"},"t_contract(OptimismF1SimpleProxy)371":{"encoding":"inplace","label":"contract OptimismF1SimpleProxy","numberOfBytes":"20"},"t_contract(ProtocolVersionsInitAttacker)534":{"encoding":"inplace","label":"contract ProtocolVersionsInitAttacker","numberOfBytes":"20"}}},"id":1}