{"abi":[{"type":"constructor","inputs":[],"stateMutability":"nonpayable"},{"type":"function","name":"initialize","inputs":[{"name":"owner_","type":"address","internalType":"address"},{"name":"required_","type":"uint256","internalType":"uint256"},{"name":"recommended_","type":"uint256","internalType":"uint256"}],"outputs":[],"stateMutability":"nonpayable"},{"type":"function","name":"owner","inputs":[],"outputs":[{"name":"","type":"address","internalType":"address"}],"stateMutability":"view"},{"type":"function","name":"recommended","inputs":[],"outputs":[{"name":"","type":"uint256","internalType":"uint256"}],"stateMutability":"view"},{"type":"function","name":"required","inputs":[],"outputs":[{"name":"","type":"uint256","internalType":"uint256"}],"stateMutability":"view"},{"type":"function","name":"setRecommended","inputs":[{"name":"recommended_","type":"uint256","internalType":"uint256"}],"outputs":[],"stateMutability":"nonpayable"},{"type":"function","name":"setRequired","inputs":[{"name":"required_","type":"uint256","internalType":"uint256"}],"outputs":[],"stateMutability":"nonpayable"},{"type":"error","name":"AlreadyInitialized","inputs":[]},{"type":"error","name":"InvalidOwner","inputs":[]},{"type":"error","name":"Unauthorized","inputs":[]}],"bytecode":{"object":"0x608060405234801561000f575f80fd5b5060015f806101000a81548160ff021916908315150217905550610513806100365f395ff3fe608060405234801561000f575f80fd5b5060043610610060575f3560e01c80630457d6f2146100645780635fd579af146100805780637a1ac61e1461009c5780638da5cb5b146100b8578063d798b1ac146100d6578063dc8452cd146100f4575b5f80fd5b61007e600480360381019061007991906103b8565b610112565b005b61009a600480360381019061009591906103b8565b6101a2565b005b6100b660048036038101906100b1919061043d565b610232565b005b6100c0610347565b6040516100cd919061049c565b60405180910390f35b6100de61036f565b6040516100eb91906104c4565b60405180910390f35b6100fc610378565b60405161010991906104c4565b60405180910390f35b5f60019054906101000a900473ffffffffffffffffffffffffffffffffffffffff1673ffffffffffffffffffffffffffffffffffffffff163373ffffffffffffffffffffffffffffffffffffffff1614610198576040517f82b4290000000000000000000000000000000000000000000000000000000000815260040160405180910390fd5b8060018190555050565b5f60019054906101000a900473ffffffffffffffffffffffffffffffffffffffff1673ffffffffffffffffffffffffffffffffffffffff163373ffffffffffffffffffffffffffffffffffffffff1614610228576040517f82b4290000000000000000000000000000000000000000000000000000000000815260040160405180910390fd5b8060028190555050565b5f8054906101000a900460ff1615610276576040517f0dc149f000000000000000000000000000000000000000000000000000000000815260040160405180910390fd5b5f73ffffffffffffffffffffffffffffffffffffffff168373ffffffffffffffffffffffffffffffffffffffff16036102db576040517f49e27cff00000000000000000000000000000000000000000000000000000000815260040160405180910390fd5b60015f806101000a81548160ff021916908315150217905550825f60016101000a81548173ffffffffffffffffffffffffffffffffffffffff021916908373ffffffffffffffffffffffffffffffffffffffff1602179055508160018190555080600281905550505050565b5f8060019054906101000a900473ffffffffffffffffffffffffffffffffffffffff16905090565b5f600254905090565b5f600154905090565b5f80fd5b5f819050919050565b61039781610385565b81146103a1575f80fd5b50565b5f813590506103b28161038e565b92915050565b5f602082840312156103cd576103cc610381565b5b5f6103da848285016103a4565b91505092915050565b5f73ffffffffffffffffffffffffffffffffffffffff82169050919050565b5f61040c826103e3565b9050919050565b61041c81610402565b8114610426575f80fd5b50565b5f8135905061043781610413565b92915050565b5f805f6060848603121561045457610453610381565b5b5f61046186828701610429565b9350506020610472868287016103a4565b9250506040610483868287016103a4565b9150509250925092565b61049681610402565b82525050565b5f6020820190506104af5f83018461048d565b92915050565b6104be81610385565b82525050565b5f6020820190506104d75f8301846104b5565b9291505056fea2646970667358221220718c1ad7b0ddd75936acd9604236b0a16d3c6d4ae6fda0de95a118be32a30b3f64736f6c63430008180033","linkReferences":{}},"methodIdentifiers":{"initialize(address,uint256,uint256)":"7a1ac61e","owner()":"8da5cb5b","recommended()":"d798b1ac","required()":"dc8452cd","setRecommended(uint256)":"5fd579af","setRequired(uint256)":"0457d6f2"},"storageLayout":{"storage":[{"astId":374,"contract":"src/OptimismF1ProtocolVersionsInitHijackHarness.sol:ProtocolVersionsLike","label":"initialized","offset":0,"slot":"0","type":"t_bool"},{"astId":376,"contract":"src/OptimismF1ProtocolVersionsInitHijackHarness.sol:ProtocolVersionsLike","label":"_owner","offset":1,"slot":"0","type":"t_address"},{"astId":378,"contract":"src/OptimismF1ProtocolVersionsInitHijackHarness.sol:ProtocolVersionsLike","label":"_required","offset":0,"slot":"1","type":"t_uint256"},{"astId":380,"contract":"src/OptimismF1ProtocolVersionsInitHijackHarness.sol:ProtocolVersionsLike","label":"_recommended","offset":0,"slot":"2","type":"t_uint256"}],"types":{"t_address":{"encoding":"inplace","label":"address","numberOfBytes":"20"},"t_bool":{"encoding":"inplace","label":"bool","numberOfBytes":"1"},"t_uint256":{"encoding":"inplace","label":"uint256","numberOfBytes":"32"}}},"id":2}