{"abi":[{"type":"constructor","inputs":[],"stateMutability":"nonpayable"},{"type":"function","name":"DEFAULT_ADMIN_ROLE","inputs":[],"outputs":[{"name":"","type":"bytes32","internalType":"bytes32"}],"stateMutability":"view"},{"type":"function","name":"EVENT_MANAGER_ROLE","inputs":[],"outputs":[{"name":"","type":"bytes32","internalType":"bytes32"}],"stateMutability":"view"},{"type":"function","name":"createEvent","inputs":[{"name":"","type":"string","internalType":"string"}],"outputs":[],"stateMutability":"nonpayable"},{"type":"function","name":"eventExists","inputs":[{"name":"eventId","type":"uint256","internalType":"uint256"}],"outputs":[{"name":"","type":"bool","internalType":"bool"}],"stateMutability":"view"},{"type":"function","name":"grantEventManagerRole","inputs":[{"name":"account","type":"address","internalType":"address"}],"outputs":[],"stateMutability":"nonpayable"},{"type":"function","name":"hasRole","inputs":[{"name":"role","type":"bytes32","internalType":"bytes32"},{"name":"account","type":"address","internalType":"address"}],"outputs":[{"name":"","type":"bool","internalType":"bool"}],"stateMutability":"view"},{"type":"function","name":"initialize","inputs":[],"outputs":[],"stateMutability":"nonpayable"},{"type":"function","name":"owner","inputs":[],"outputs":[{"name":"","type":"address","internalType":"address"}],"stateMutability":"view"},{"type":"function","name":"revokeEventManagerRole","inputs":[{"name":"account","type":"address","internalType":"address"}],"outputs":[],"stateMutability":"nonpayable"},{"type":"error","name":"AlreadyInitialized","inputs":[]},{"type":"error","name":"MissingRole","inputs":[]}],"bytecode":{"object":"0x608060405234801561000f575f80fd5b506100225f801b3361002760201b60201c565b61008f565b600160025f8481526020019081526020015f205f8373ffffffffffffffffffffffffffffffffffffffff1673ffffffffffffffffffffffffffffffffffffffff1681526020019081526020015f205f6101000a81548160ff0219169083151502179055505050565b6109bd8061009c5f395ff3fe608060405234801561000f575f80fd5b5060043610610091575f3560e01c80639bc2bc71116100645780639bc2bc711461010b578063a217fddf14610127578063a3c28dfc14610145578063a903b49714610175578063da2449081461019157610091565b806359486873146100955780638129fc1c146100b35780638da5cb5b146100bd57806391d14854146100db575b5f80fd5b61009d6101ad565b6040516100aa91906106a0565b60405180910390f35b6100bb6101d1565b005b6100c561029a565b6040516100d291906106f8565b60405180910390f35b6100f560048036038101906100f0919061076d565b6102c2565b60405161010291906107c5565b60405180910390f35b6101256004803603810190610120919061083f565b610324565b005b61012f61041b565b60405161013c91906106a0565b60405180910390f35b61015f600480360381019061015a91906108bd565b610421565b60405161016c91906107c5565b60405180910390f35b61018f600480360381019061018a91906108e8565b610447565b005b6101ab60048036038101906101a691906108e8565b610507565b005b7fa961ef34a96635180dfffd0ae574060d6c6af619ce89175a103711bf5ce8270881565b5f8054906101000a900460ff1615610215576040517f0dc149f000000000000000000000000000000000000000000000000000000000815260040160405180910390fd5b60015f806101000a81548160ff0219169083151502179055506102587fa961ef34a96635180dfffd0ae574060d6c6af619ce89175a103711bf5ce8270833610620565b335f60016101000a81548173ffffffffffffffffffffffffffffffffffffffff021916908373ffffffffffffffffffffffffffffffffffffffff160217905550565b5f8060019054906101000a900473ffffffffffffffffffffffffffffffffffffffff16905090565b5f60025f8481526020019081526020015f205f8373ffffffffffffffffffffffffffffffffffffffff1673ffffffffffffffffffffffffffffffffffffffff1681526020019081526020015f205f9054906101000a900460ff16905092915050565b7fa961ef34a96635180dfffd0ae574060d6c6af619ce89175a103711bf5ce8270860025f8281526020019081526020015f205f3373ffffffffffffffffffffffffffffffffffffffff1673ffffffffffffffffffffffffffffffffffffffff1681526020019081526020015f205f9054906101000a900460ff166103d4576040517f9423592200000000000000000000000000000000000000000000000000000000815260040160405180910390fd5b600160035f60015481526020019081526020015f205f6101000a81548160ff02191690831515021790555060015f81548092919061041190610940565b9190505550505050565b5f801b81565b5f60035f8381526020019081526020015f205f9054906101000a900460ff169050919050565b5f801b60025f8281526020019081526020015f205f3373ffffffffffffffffffffffffffffffffffffffff1673ffffffffffffffffffffffffffffffffffffffff1681526020019081526020015f205f9054906101000a900460ff166104d9576040517f9423592200000000000000000000000000000000000000000000000000000000815260040160405180910390fd5b6105037fa961ef34a96635180dfffd0ae574060d6c6af619ce89175a103711bf5ce8270883610620565b5050565b5f801b60025f8281526020019081526020015f205f3373ffffffffffffffffffffffffffffffffffffffff1673ffffffffffffffffffffffffffffffffffffffff1681526020019081526020015f205f9054906101000a900460ff16610599576040517f9423592200000000000000000000000000000000000000000000000000000000815260040160405180910390fd5b5f60025f7fa961ef34a96635180dfffd0ae574060d6c6af619ce89175a103711bf5ce8270881526020019081526020015f205f8473ffffffffffffffffffffffffffffffffffffffff1673ffffffffffffffffffffffffffffffffffffffff1681526020019081526020015f205f6101000a81548160ff0219169083151502179055505050565b600160025f8481526020019081526020015f205f8373ffffffffffffffffffffffffffffffffffffffff1673ffffffffffffffffffffffffffffffffffffffff1681526020019081526020015f205f6101000a81548160ff0219169083151502179055505050565b5f819050919050565b61069a81610688565b82525050565b5f6020820190506106b35f830184610691565b92915050565b5f73ffffffffffffffffffffffffffffffffffffffff82169050919050565b5f6106e2826106b9565b9050919050565b6106f2816106d8565b82525050565b5f60208201905061070b5f8301846106e9565b92915050565b5f80fd5b5f80fd5b61072281610688565b811461072c575f80fd5b50565b5f8135905061073d81610719565b92915050565b61074c816106d8565b8114610756575f80fd5b50565b5f8135905061076781610743565b92915050565b5f806040838503121561078357610782610711565b5b5f6107908582860161072f565b92505060206107a185828601610759565b9150509250929050565b5f8115159050919050565b6107bf816107ab565b82525050565b5f6020820190506107d85f8301846107b6565b92915050565b5f80fd5b5f80fd5b5f80fd5b5f8083601f8401126107ff576107fe6107de565b5b8235905067ffffffffffffffff81111561081c5761081b6107e2565b5b602083019150836001820283011115610838576108376107e6565b5b9250929050565b5f806020838503121561085557610854610711565b5b5f83013567ffffffffffffffff81111561087257610871610715565b5b61087e858286016107ea565b92509250509250929050565b5f819050919050565b61089c8161088a565b81146108a6575f80fd5b50565b5f813590506108b781610893565b92915050565b5f602082840312156108d2576108d1610711565b5b5f6108df848285016108a9565b91505092915050565b5f602082840312156108fd576108fc610711565b5b5f61090a84828501610759565b91505092915050565b7f4e487b71000000000000000000000000000000000000000000000000000000005f52601160045260245ffd5b5f61094a8261088a565b91507fffffffffffffffffffffffffffffffffffffffffffffffffffffffffffffffff820361097c5761097b610913565b5b60018201905091905056fea2646970667358221220111967b25db8a08fbea1e37e53924c6e4d330dae986fa72c7f247907c31ea74064736f6c63430008180033","linkReferences":{}},"methodIdentifiers":{"DEFAULT_ADMIN_ROLE()":"a217fddf","EVENT_MANAGER_ROLE()":"59486873","createEvent(string)":"9bc2bc71","eventExists(uint256)":"a3c28dfc","grantEventManagerRole(address)":"a903b497","hasRole(bytes32,address)":"91d14854","initialize()":"8129fc1c","owner()":"8da5cb5b","revokeEventManagerRole(address)":"da244908"},"id":0}