{"abi":[{"type":"constructor","inputs":[{"name":"_wormhole","type":"address","internalType":"contract WormholeVerificationModel"},{"name":"_governanceChainId","type":"uint16","internalType":"uint16"},{"name":"_governanceContract","type":"bytes32","internalType":"bytes32"}],"stateMutability":"nonpayable"},{"type":"function","name":"governanceActionConsumed","inputs":[{"name":"","type":"bytes32","internalType":"bytes32"}],"outputs":[{"name":"","type":"bool","internalType":"bool"}],"stateMutability":"view"},{"type":"function","name":"governanceChainId","inputs":[],"outputs":[{"name":"","type":"uint16","internalType":"uint16"}],"stateMutability":"view"},{"type":"function","name":"governanceContract","inputs":[],"outputs":[{"name":"","type":"bytes32","internalType":"bytes32"}],"stateMutability":"view"},{"type":"function","name":"upgrade","inputs":[{"name":"_encodedVm","type":"bytes","internalType":"bytes"}],"outputs":[],"stateMutability":"nonpayable"},{"type":"function","name":"upgraded","inputs":[],"outputs":[{"name":"","type":"bool","internalType":"bool"}],"stateMutability":"view"},{"type":"function","name":"wormhole","inputs":[],"outputs":[{"name":"","type":"address","internalType":"contract WormholeVerificationModel"}],"stateMutability":"view"}],"bytecode":{"object":"0x60e060405234801562000010575f80fd5b5060405162000e1338038062000e13833981810160405281019062000036919062000177565b8273ffffffffffffffffffffffffffffffffffffffff1660808173ffffffffffffffffffffffffffffffffffffffff16815250508161ffff1660a08161ffff16815250508060c08181525050505050620001d0565b5f80fd5b5f73ffffffffffffffffffffffffffffffffffffffff82169050919050565b5f620000ba826200008f565b9050919050565b5f620000cd82620000ae565b9050919050565b620000df81620000c1565b8114620000ea575f80fd5b50565b5f81519050620000fd81620000d4565b92915050565b5f61ffff82169050919050565b6200011b8162000103565b811462000126575f80fd5b50565b5f81519050620001398162000110565b92915050565b5f819050919050565b62000153816200013f565b81146200015e575f80fd5b50565b5f81519050620001718162000148565b92915050565b5f805f606084860312156200019157620001906200008b565b5b5f620001a086828701620000ed565b9350506020620001b38682870162000129565b9250506040620001c68682870162000161565b9150509250925092565b60805160a05160c051610c03620002105f395f818161028001526103d201525f8181610212015261040801525f818161012d01526103ae0152610c035ff3fe608060405234801561000f575f80fd5b5060043610610060575f3560e01c806325394645146100645780633b05869d1461008057806384acd1bb146100b0578063b172b222146100ce578063c28de2cd146100ec578063fbe3c2cd1461010a575b5f80fd5b61007e60048036038101906100799190610577565b610128565b005b61009a600480360381019061009591906105f1565b610390565b6040516100a79190610636565b60405180910390f35b6100b86103ac565b6040516100c591906106c9565b60405180910390f35b6100d66103d0565b6040516100e391906106f1565b60405180910390f35b6100f46103f4565b6040516101019190610636565b60405180910390f35b610112610406565b60405161011f9190610726565b60405180910390f35b5f805f7f000000000000000000000000000000000000000000000000000000000000000073ffffffffffffffffffffffffffffffffffffffff1663c0fd8bde856040518263ffffffff1660e01b815260040161018491906107b9565b5f60405180830381865afa15801561019e573d5f803e3d5ffd5b505050506040513d5f823e3d601f19601f820116820180604052508101906101c69190610991565b92509250925081819061020f576040517f08c379a00000000000000000000000000000000000000000000000000000000081526004016102069190610a4f565b60405180910390fd5b507f000000000000000000000000000000000000000000000000000000000000000061ffff16836020015161ffff161461027e576040517f08c379a000000000000000000000000000000000000000000000000000000000815260040161027590610ab9565b60405180910390fd5b7f00000000000000000000000000000000000000000000000000000000000000008360400151146102e4576040517f08c379a00000000000000000000000000000000000000000000000000000000081526004016102db90610b21565b60405180910390fd5b5f80846060015181526020019081526020015f205f9054906101000a900460ff1615610345576040517f08c379a000000000000000000000000000000000000000000000000000000000815260040161033c90610baf565b60405180910390fd5b60015f80856060015181526020019081526020015f205f6101000a81548160ff0219169083151502179055506001805f6101000a81548160ff02191690831515021790555050505050565b5f602052805f5260405f205f915054906101000a900460ff1681565b7f000000000000000000000000000000000000000000000000000000000000000081565b7f000000000000000000000000000000000000000000000000000000000000000081565b60015f9054906101000a900460ff1681565b7f000000000000000000000000000000000000000000000000000000000000000081565b5f604051905090565b5f80fd5b5f80fd5b5f80fd5b5f80fd5b5f601f19601f8301169050919050565b7f4e487b71000000000000000000000000000000000000000000000000000000005f52604160045260245ffd5b61048982610443565b810181811067ffffffffffffffff821117156104a8576104a7610453565b5b80604052505050565b5f6104ba61042a565b90506104c68282610480565b919050565b5f67ffffffffffffffff8211156104e5576104e4610453565b5b6104ee82610443565b9050602081019050919050565b828183375f83830152505050565b5f61051b610516846104cb565b6104b1565b9050828152602081018484840111156105375761053661043f565b5b6105428482856104fb565b509392505050565b5f82601f83011261055e5761055d61043b565b5b813561056e848260208601610509565b91505092915050565b5f6020828403121561058c5761058b610433565b5b5f82013567ffffffffffffffff8111156105a9576105a8610437565b5b6105b58482850161054a565b91505092915050565b5f819050919050565b6105d0816105be565b81146105da575f80fd5b50565b5f813590506105eb816105c7565b92915050565b5f6020828403121561060657610605610433565b5b5f610613848285016105dd565b91505092915050565b5f8115159050919050565b6106308161061c565b82525050565b5f6020820190506106495f830184610627565b92915050565b5f73ffffffffffffffffffffffffffffffffffffffff82169050919050565b5f819050919050565b5f61069161068c6106878461064f565b61066e565b61064f565b9050919050565b5f6106a282610677565b9050919050565b5f6106b382610698565b9050919050565b6106c3816106a9565b82525050565b5f6020820190506106dc5f8301846106ba565b92915050565b6106eb816105be565b82525050565b5f6020820190506107045f8301846106e2565b92915050565b5f61ffff82169050919050565b6107208161070a565b82525050565b5f6020820190506107395f830184610717565b92915050565b5f81519050919050565b5f82825260208201905092915050565b5f5b8381101561077657808201518184015260208101905061075b565b5f8484015250505050565b5f61078b8261073f565b6107958185610749565b93506107a5818560208601610759565b6107ae81610443565b840191505092915050565b5f6020820190508181035f8301526107d18184610781565b905092915050565b5f80fd5b5f63ffffffff82169050919050565b6107f5816107dd565b81146107ff575f80fd5b50565b5f81519050610810816107ec565b92915050565b61081f8161070a565b8114610829575f80fd5b50565b5f8151905061083a81610816565b92915050565b5f8151905061084e816105c7565b92915050565b5f60808284031215610869576108686107d9565b5b61087360806104b1565b90505f61088284828501610802565b5f8301525060206108958482850161082c565b60208301525060406108a984828501610840565b60408301525060606108bd84828501610840565b60608301525092915050565b6108d28161061c565b81146108dc575f80fd5b50565b5f815190506108ed816108c9565b92915050565b5f67ffffffffffffffff82111561090d5761090c610453565b5b61091682610443565b9050602081019050919050565b5f610935610930846108f3565b6104b1565b9050828152602081018484840111156109515761095061043f565b5b61095c848285610759565b509392505050565b5f82601f8301126109785761097761043b565b5b8151610988848260208601610923565b91505092915050565b5f805f60c084860312156109a8576109a7610433565b5b5f6109b586828701610854565b93505060806109c6868287016108df565b92505060a084015167ffffffffffffffff8111156109e7576109e6610437565b5b6109f386828701610964565b9150509250925092565b5f81519050919050565b5f82825260208201905092915050565b5f610a21826109fd565b610a2b8185610a07565b9350610a3b818560208601610759565b610a4481610443565b840191505092915050565b5f6020820190508181035f830152610a678184610a17565b905092915050565b7f77726f6e6720676f7665726e616e636520636861696e000000000000000000005f82015250565b5f610aa3601683610a07565b9150610aae82610a6f565b602082019050919050565b5f6020820190508181035f830152610ad081610a97565b9050919050565b7f77726f6e6720676f7665726e616e636520636f6e7472616374000000000000005f82015250565b5f610b0b601983610a07565b9150610b1682610ad7565b602082019050919050565b5f6020820190508181035f830152610b3881610aff565b9050919050565b7f676f7665726e616e636520616374696f6e20616c726561647920636f6e73756d5f8201527f6564000000000000000000000000000000000000000000000000000000000000602082015250565b5f610b99602283610a07565b9150610ba482610b3f565b604082019050919050565b5f6020820190508181035f830152610bc681610b8d565b905091905056fea26469706673582212206f22bbe7c84510983e4b4c89c8bb9266813e712a2c7163dc30c6df3ee5ac079364736f6c63430008180033","linkReferences":{}},"methodIdentifiers":{"governanceActionConsumed(bytes32)":"3b05869d","governanceChainId()":"fbe3c2cd","governanceContract()":"b172b222","upgrade(bytes)":"25394645","upgraded()":"c28de2cd","wormhole()":"84acd1bb"},"id":1}