{"abi":[{"type":"function","name":"currentGuardianSetIndex","inputs":[],"outputs":[{"name":"","type":"uint32","internalType":"uint32"}],"stateMutability":"view"},{"type":"function","name":"guardianSetExists","inputs":[{"name":"","type":"uint32","internalType":"uint32"}],"outputs":[{"name":"","type":"bool","internalType":"bool"}],"stateMutability":"view"},{"type":"function","name":"guardianSetExpiration","inputs":[{"name":"","type":"uint32","internalType":"uint32"}],"outputs":[{"name":"","type":"uint256","internalType":"uint256"}],"stateMutability":"view"},{"type":"function","name":"parseAndVerifyVM","inputs":[{"name":"_encodedVm","type":"bytes","internalType":"bytes"}],"outputs":[{"name":"_vm","type":"tuple","internalType":"struct MiniVM","components":[{"name":"guardianSetIndex","type":"uint32","internalType":"uint32"},{"name":"emitterChainId","type":"uint16","internalType":"uint16"},{"name":"emitterAddress","type":"bytes32","internalType":"bytes32"},{"name":"hash","type":"bytes32","internalType":"bytes32"}]},{"name":"_valid","type":"bool","internalType":"bool"},{"name":"_reason","type":"string","internalType":"string"}],"stateMutability":"view"},{"type":"function","name":"setCurrentGuardianSetIndex","inputs":[{"name":"_index","type":"uint32","internalType":"uint32"}],"outputs":[],"stateMutability":"nonpayable"},{"type":"function","name":"setGuardianSet","inputs":[{"name":"_index","type":"uint32","internalType":"uint32"},{"name":"_expiration","type":"uint256","internalType":"uint256"}],"outputs":[],"stateMutability":"nonpayable"}],"bytecode":{"object":"0x608060405234801561000f575f80fd5b506109d68061001d5f395ff3fe608060405234801561000f575f80fd5b5060043610610060575f3560e01c806338528f53146100645780638787f94714610082578063a6e0c88c1461009e578063c071377a146100ce578063c0fd8bde146100fe578063f9c6c6b214610130575b5f80fd5b61006c61014c565b6040516100799190610412565b60405180910390f35b61009c60048036038101906100979190610499565b61015f565b005b6100b860048036038101906100b391906104d7565b6101b9565b6040516100c59190610511565b60405180910390f35b6100e860048036038101906100e391906104d7565b6101ce565b6040516100f59190610544565b60405180910390f35b61011860048036038101906101139190610699565b6101eb565b604051610127939291906107f0565b60405180910390f35b61014a600480360381019061014591906104d7565b610335565b005b5f8054906101000a900463ffffffff1681565b6001805f8463ffffffff1663ffffffff1681526020019081526020015f205f6101000a81548160ff0219169083151502179055508060025f8463ffffffff1663ffffffff1681526020019081526020015f20819055505050565b6002602052805f5260405f205f915090505481565b6001602052805f5260405f205f915054906101000a900460ff1681565b6101f36103c0565b5f60608380602001905181019061020a919061090d565b925060015f845f015163ffffffff1663ffffffff1681526020019081526020015f205f9054906101000a900460ff1661028057825f6040518060400160405280601481526020017f696e76616c696420677561726469616e2073657400000000000000000000000081525092509250925061032e565b5f8054906101000a900463ffffffff1663ffffffff16835f015163ffffffff16141580156102cd57504260025f855f015163ffffffff1663ffffffff1681526020019081526020015f2054105b1561031557825f6040518060400160405280601881526020017f677561726469616e20736574206861732065787069726564000000000000000081525092509250925061032e565b82600160405180602001604052805f8152509250925092505b9193909250565b60015f8263ffffffff1663ffffffff1681526020019081526020015f205f9054906101000a900460ff1661039e576040517f08c379a000000000000000000000000000000000000000000000000000000000815260040161039590610982565b60405180910390fd5b805f806101000a81548163ffffffff021916908363ffffffff16021790555050565b60405180608001604052805f63ffffffff1681526020015f61ffff1681526020015f80191681526020015f80191681525090565b5f63ffffffff82169050919050565b61040c816103f4565b82525050565b5f6020820190506104255f830184610403565b92915050565b5f604051905090565b5f80fd5b5f80fd5b610445816103f4565b811461044f575f80fd5b50565b5f813590506104608161043c565b92915050565b5f819050919050565b61047881610466565b8114610482575f80fd5b50565b5f813590506104938161046f565b92915050565b5f80604083850312156104af576104ae610434565b5b5f6104bc85828601610452565b92505060206104cd85828601610485565b9150509250929050565b5f602082840312156104ec576104eb610434565b5b5f6104f984828501610452565b91505092915050565b61050b81610466565b82525050565b5f6020820190506105245f830184610502565b92915050565b5f8115159050919050565b61053e8161052a565b82525050565b5f6020820190506105575f830184610535565b92915050565b5f80fd5b5f80fd5b5f601f19601f8301169050919050565b7f4e487b71000000000000000000000000000000000000000000000000000000005f52604160045260245ffd5b6105ab82610565565b810181811067ffffffffffffffff821117156105ca576105c9610575565b5b80604052505050565b5f6105dc61042b565b90506105e882826105a2565b919050565b5f67ffffffffffffffff82111561060757610606610575565b5b61061082610565565b9050602081019050919050565b828183375f83830152505050565b5f61063d610638846105ed565b6105d3565b90508281526020810184848401111561065957610658610561565b5b61066484828561061d565b509392505050565b5f82601f8301126106805761067f61055d565b5b813561069084826020860161062b565b91505092915050565b5f602082840312156106ae576106ad610434565b5b5f82013567ffffffffffffffff8111156106cb576106ca610438565b5b6106d78482850161066c565b91505092915050565b6106e9816103f4565b82525050565b5f61ffff82169050919050565b610705816106ef565b82525050565b5f819050919050565b61071d8161070b565b82525050565b608082015f8201516107375f8501826106e0565b50602082015161074a60208501826106fc565b50604082015161075d6040850182610714565b5060608201516107706060850182610714565b50505050565b5f81519050919050565b5f82825260208201905092915050565b5f5b838110156107ad578082015181840152602081019050610792565b5f8484015250505050565b5f6107c282610776565b6107cc8185610780565b93506107dc818560208601610790565b6107e581610565565b840191505092915050565b5f60c0820190506108035f830186610723565b6108106080830185610535565b81810360a083015261082281846107b8565b9050949350505050565b5f80fd5b5f8151905061083e8161043c565b92915050565b61084d816106ef565b8114610857575f80fd5b50565b5f8151905061086881610844565b92915050565b6108778161070b565b8114610881575f80fd5b50565b5f815190506108928161086e565b92915050565b5f608082840312156108ad576108ac61082c565b5b6108b760806105d3565b90505f6108c684828501610830565b5f8301525060206108d98482850161085a565b60208301525060406108ed84828501610884565b604083015250606061090184828501610884565b60608301525092915050565b5f6080828403121561092257610921610434565b5b5f61092f84828501610898565b91505092915050565b7f756e6b6e6f776e207365740000000000000000000000000000000000000000005f82015250565b5f61096c600b83610780565b915061097782610938565b602082019050919050565b5f6020820190508181035f83015261099981610960565b905091905056fea264697066735822122069820e8213872436511ac6e50c5d8cf8ed604f32b60c0e4a496d8c6e21d118a464736f6c63430008180033","linkReferences":{}},"methodIdentifiers":{"currentGuardianSetIndex()":"38528f53","guardianSetExists(uint32)":"c071377a","guardianSetExpiration(uint32)":"a6e0c88c","parseAndVerifyVM(bytes)":"c0fd8bde","setCurrentGuardianSetIndex(uint32)":"f9c6c6b2","setGuardianSet(uint32,uint256)":"8787f947"},"id":1}